{
  "contractName": "BettingProvider",
  "abi": [
    {
      "constant": true,
      "inputs": [],
      "name": "name",
      "outputs": [
        {
          "name": "",
          "type": "bytes32"
        }
      ],
      "payable": false,
      "stateMutability": "view",
      "type": "function"
    },
    {
      "constant": true,
      "inputs": [],
      "name": "isHouseOffering",
      "outputs": [
        {
          "name": "",
          "type": "bool"
        }
      ],
      "payable": false,
      "stateMutability": "view",
      "type": "function"
    },
    {
      "constant": true,
      "inputs": [],
      "name": "timeController",
      "outputs": [
        {
          "name": "",
          "type": "address"
        }
      ],
      "payable": false,
      "stateMutability": "view",
      "type": "function"
    },
    {
      "constant": true,
      "inputs": [],
      "name": "isMock",
      "outputs": [
        {
          "name": "",
          "type": "bool"
        }
      ],
      "payable": false,
      "stateMutability": "view",
      "type": "function"
    },
    {
      "constant": false,
      "inputs": [
        {
          "name": "time",
          "type": "uint256"
        }
      ],
      "name": "setTime",
      "outputs": [],
      "payable": false,
      "stateMutability": "nonpayable",
      "type": "function"
    },
    {
      "constant": true,
      "inputs": [],
      "name": "getTime",
      "outputs": [
        {
          "name": "",
          "type": "uint256"
        }
      ],
      "payable": false,
      "stateMutability": "view",
      "type": "function"
    },
    {
      "constant": true,
      "inputs": [
        {
          "name": "",
          "type": "uint256"
        }
      ],
      "name": "sessionStats",
      "outputs": [
        {
          "name": "totalBetAmount",
          "type": "uint256"
        },
        {
          "name": "totalPayout",
          "type": "uint256"
        },
        {
          "name": "totalDeposited",
          "type": "uint256"
        },
        {
          "name": "totalProfit",
          "type": "uint256"
        },
        {
          "name": "withdrawn",
          "type": "bool"
        },
        {
          "name": "exists",
          "type": "bool"
        }
      ],
      "payable": false,
      "stateMutability": "view",
      "type": "function"
    },
    {
      "constant": true,
      "inputs": [],
      "name": "currentSession",
      "outputs": [
        {
          "name": "",
          "type": "uint256"
        }
      ],
      "payable": false,
      "stateMutability": "view",
      "type": "function"
    },
    {
      "constant": false,
      "inputs": [
        {
          "name": "_isMock",
          "type": "bool"
        }
      ],
      "name": "toggleMockTime",
      "outputs": [],
      "payable": false,
      "stateMutability": "nonpayable",
      "type": "function"
    },
    {
      "constant": true,
      "inputs": [],
      "name": "houseAddress",
      "outputs": [
        {
          "name": "",
          "type": "address"
        }
      ],
      "payable": false,
      "stateMutability": "view",
      "type": "function"
    },
    {
      "constant": true,
      "inputs": [],
      "name": "sportsOracleAddress",
      "outputs": [
        {
          "name": "",
          "type": "address"
        }
      ],
      "payable": false,
      "stateMutability": "view",
      "type": "function"
    },
    {
      "constant": true,
      "inputs": [
        {
          "name": "",
          "type": "address"
        },
        {
          "name": "",
          "type": "uint256"
        }
      ],
      "name": "depositedTokens",
      "outputs": [
        {
          "name": "",
          "type": "uint256"
        }
      ],
      "payable": false,
      "stateMutability": "view",
      "type": "function"
    },
    {
      "constant": true,
      "inputs": [],
      "name": "gamesCount",
      "outputs": [
        {
          "name": "",
          "type": "uint256"
        }
      ],
      "payable": false,
      "stateMutability": "view",
      "type": "function"
    },
    {
      "inputs": [
        {
          "name": "decentBetTokenAddress",
          "type": "address"
        },
        {
          "name": "_houseAddress",
          "type": "address"
        },
        {
          "name": "_houseAuthorizedControllerAddress",
          "type": "address"
        },
        {
          "name": "bettingProviderHelperAddress",
          "type": "address"
        }
      ],
      "payable": false,
      "stateMutability": "nonpayable",
      "type": "constructor"
    },
    {
      "payable": false,
      "stateMutability": "nonpayable",
      "type": "fallback"
    },
    {
      "anonymous": false,
      "inputs": [
        {
          "indexed": false,
          "name": "_address",
          "type": "address"
        }
      ],
      "name": "LogNewOracleRequest",
      "type": "event"
    },
    {
      "anonymous": false,
      "inputs": [
        {
          "indexed": false,
          "name": "id",
          "type": "uint256"
        },
        {
          "indexed": false,
          "name": "oracleId",
          "type": "uint256"
        },
        {
          "indexed": false,
          "name": "cutOffTime",
          "type": "uint256"
        },
        {
          "indexed": false,
          "name": "endTime",
          "type": "uint256"
        }
      ],
      "name": "LogNewGame",
      "type": "event"
    },
    {
      "anonymous": false,
      "inputs": [
        {
          "indexed": false,
          "name": "id",
          "type": "uint256"
        },
        {
          "indexed": false,
          "name": "oddsId",
          "type": "uint256"
        }
      ],
      "name": "LogNewGameOdds",
      "type": "event"
    },
    {
      "anonymous": false,
      "inputs": [
        {
          "indexed": false,
          "name": "id",
          "type": "uint256"
        },
        {
          "indexed": false,
          "name": "oddsId",
          "type": "uint256"
        }
      ],
      "name": "LogUpdatedGameOdds",
      "type": "event"
    },
    {
      "anonymous": false,
      "inputs": [
        {
          "indexed": false,
          "name": "id",
          "type": "uint256"
        },
        {
          "indexed": false,
          "name": "period",
          "type": "uint256"
        }
      ],
      "name": "LogUpdatedBetLimits",
      "type": "event"
    },
    {
      "anonymous": false,
      "inputs": [
        {
          "indexed": false,
          "name": "id",
          "type": "uint256"
        }
      ],
      "name": "LogUpdatedMaxBet",
      "type": "event"
    },
    {
      "anonymous": false,
      "inputs": [
        {
          "indexed": false,
          "name": "gameId",
          "type": "uint256"
        },
        {
          "indexed": false,
          "name": "oddsId",
          "type": "uint256"
        },
        {
          "indexed": false,
          "name": "bettor",
          "type": "address"
        },
        {
          "indexed": false,
          "name": "betId",
          "type": "uint256"
        }
      ],
      "name": "LogNewBet",
      "type": "event"
    },
    {
      "anonymous": false,
      "inputs": [
        {
          "indexed": false,
          "name": "gameId",
          "type": "uint256"
        },
        {
          "indexed": false,
          "name": "oddsId",
          "type": "uint256"
        },
        {
          "indexed": false,
          "name": "session",
          "type": "uint256"
        },
        {
          "indexed": false,
          "name": "bettor",
          "type": "address"
        },
        {
          "indexed": false,
          "name": "assistedClaimant",
          "type": "address"
        },
        {
          "indexed": false,
          "name": "betId",
          "type": "uint256"
        },
        {
          "indexed": false,
          "name": "payout",
          "type": "uint256"
        }
      ],
      "name": "LogClaimedBet",
      "type": "event"
    },
    {
      "anonymous": false,
      "inputs": [
        {
          "indexed": false,
          "name": "_address",
          "type": "address"
        },
        {
          "indexed": false,
          "name": "amount",
          "type": "uint256"
        },
        {
          "indexed": false,
          "name": "session",
          "type": "uint256"
        },
        {
          "indexed": false,
          "name": "balance",
          "type": "uint256"
        }
      ],
      "name": "LogDeposit",
      "type": "event"
    },
    {
      "anonymous": false,
      "inputs": [
        {
          "indexed": false,
          "name": "_address",
          "type": "address"
        },
        {
          "indexed": false,
          "name": "amount",
          "type": "uint256"
        },
        {
          "indexed": false,
          "name": "session",
          "type": "uint256"
        },
        {
          "indexed": false,
          "name": "balance",
          "type": "uint256"
        }
      ],
      "name": "LogWithdraw",
      "type": "event"
    },
    {
      "anonymous": false,
      "inputs": [
        {
          "indexed": false,
          "name": "time",
          "type": "uint256"
        }
      ],
      "name": "LogUpdatedTime",
      "type": "event"
    },
    {
      "constant": false,
      "inputs": [
        {
          "name": "session",
          "type": "uint256"
        }
      ],
      "name": "setSession",
      "outputs": [
        {
          "name": "",
          "type": "bool"
        }
      ],
      "payable": false,
      "stateMutability": "nonpayable",
      "type": "function"
    },
    {
      "constant": false,
      "inputs": [
        {
          "name": "_address",
          "type": "address"
        }
      ],
      "name": "requestSportsOracle",
      "outputs": [],
      "payable": false,
      "stateMutability": "nonpayable",
      "type": "function"
    },
    {
      "constant": false,
      "inputs": [
        {
          "name": "_address",
          "type": "address"
        }
      ],
      "name": "setSportsOracle",
      "outputs": [
        {
          "name": "",
          "type": "bool"
        }
      ],
      "payable": false,
      "stateMutability": "nonpayable",
      "type": "function"
    },
    {
      "constant": false,
      "inputs": [
        {
          "name": "amount",
          "type": "uint256"
        },
        {
          "name": "session",
          "type": "uint256"
        }
      ],
      "name": "houseDeposit",
      "outputs": [
        {
          "name": "",
          "type": "bool"
        }
      ],
      "payable": false,
      "stateMutability": "nonpayable",
      "type": "function"
    },
    {
      "constant": false,
      "inputs": [],
      "name": "withdrawPreviousSessionTokens",
      "outputs": [
        {
          "name": "",
          "type": "bool"
        }
      ],
      "payable": false,
      "stateMutability": "nonpayable",
      "type": "function"
    },
    {
      "constant": false,
      "inputs": [],
      "name": "emergencyWithdrawCurrentSessionTokens",
      "outputs": [
        {
          "name": "",
          "type": "bool"
        }
      ],
      "payable": false,
      "stateMutability": "nonpayable",
      "type": "function"
    },
    {
      "constant": false,
      "inputs": [
        {
          "name": "amount",
          "type": "uint256"
        }
      ],
      "name": "deposit",
      "outputs": [
        {
          "name": "",
          "type": "bool"
        }
      ],
      "payable": false,
      "stateMutability": "nonpayable",
      "type": "function"
    },
    {
      "constant": false,
      "inputs": [
        {
          "name": "amount",
          "type": "uint256"
        },
        {
          "name": "session",
          "type": "uint256"
        }
      ],
      "name": "withdraw",
      "outputs": [
        {
          "name": "",
          "type": "bool"
        }
      ],
      "payable": false,
      "stateMutability": "nonpayable",
      "type": "function"
    },
    {
      "constant": true,
      "inputs": [
        {
          "name": "_address",
          "type": "address"
        },
        {
          "name": "session",
          "type": "uint256"
        }
      ],
      "name": "balanceOf",
      "outputs": [
        {
          "name": "",
          "type": "uint256"
        }
      ],
      "payable": false,
      "stateMutability": "view",
      "type": "function"
    },
    {
      "constant": false,
      "inputs": [
        {
          "name": "offset",
          "type": "uint256"
        }
      ],
      "name": "changeAssistedClaimTimeOffset",
      "outputs": [],
      "payable": false,
      "stateMutability": "nonpayable",
      "type": "function"
    },
    {
      "constant": false,
      "inputs": [
        {
          "name": "oracleGameId",
          "type": "uint256"
        },
        {
          "name": "cutOffTime",
          "type": "uint256"
        },
        {
          "name": "endTime",
          "type": "uint256"
        }
      ],
      "name": "addGame",
      "outputs": [],
      "payable": false,
      "stateMutability": "nonpayable",
      "type": "function"
    },
    {
      "constant": false,
      "inputs": [
        {
          "name": "gameId",
          "type": "uint256"
        },
        {
          "name": "period",
          "type": "uint256"
        },
        {
          "name": "limits",
          "type": "uint256[4]"
        }
      ],
      "name": "updateGamePeriodBetLimits",
      "outputs": [],
      "payable": false,
      "stateMutability": "nonpayable",
      "type": "function"
    },
    {
      "constant": false,
      "inputs": [
        {
          "name": "gameId",
          "type": "uint256"
        },
        {
          "name": "maxBetLimit",
          "type": "uint256"
        }
      ],
      "name": "updateGameMaxBetLimit",
      "outputs": [],
      "payable": false,
      "stateMutability": "nonpayable",
      "type": "function"
    },
    {
      "constant": false,
      "inputs": [
        {
          "name": "id",
          "type": "uint256"
        },
        {
          "name": "refId",
          "type": "string"
        },
        {
          "name": "period",
          "type": "uint256"
        },
        {
          "name": "handicap",
          "type": "int256"
        },
        {
          "name": "team1",
          "type": "int256"
        },
        {
          "name": "team2",
          "type": "int256"
        },
        {
          "name": "draw",
          "type": "int256"
        },
        {
          "name": "betType",
          "type": "uint256"
        },
        {
          "name": "points",
          "type": "uint256"
        },
        {
          "name": "over",
          "type": "int256"
        },
        {
          "name": "under",
          "type": "int256"
        },
        {
          "name": "isTeam1",
          "type": "bool"
        }
      ],
      "name": "pushGameOdds",
      "outputs": [],
      "payable": false,
      "stateMutability": "nonpayable",
      "type": "function"
    },
    {
      "constant": false,
      "inputs": [
        {
          "name": "id",
          "type": "uint256"
        },
        {
          "name": "oddsId",
          "type": "uint256"
        },
        {
          "name": "betType",
          "type": "uint256"
        },
        {
          "name": "handicap",
          "type": "int256"
        },
        {
          "name": "team1",
          "type": "int256"
        },
        {
          "name": "team2",
          "type": "int256"
        },
        {
          "name": "draw",
          "type": "int256"
        },
        {
          "name": "points",
          "type": "uint256"
        },
        {
          "name": "over",
          "type": "int256"
        },
        {
          "name": "under",
          "type": "int256"
        }
      ],
      "name": "updateGameOdds",
      "outputs": [],
      "payable": false,
      "stateMutability": "nonpayable",
      "type": "function"
    },
    {
      "constant": false,
      "inputs": [
        {
          "name": "id",
          "type": "uint256"
        },
        {
          "name": "period",
          "type": "uint256"
        },
        {
          "name": "result",
          "type": "int256"
        },
        {
          "name": "team1Points",
          "type": "uint256"
        },
        {
          "name": "team2Points",
          "type": "uint256"
        }
      ],
      "name": "updateGameOutcome",
      "outputs": [
        {
          "name": "updated",
          "type": "bool"
        }
      ],
      "payable": false,
      "stateMutability": "nonpayable",
      "type": "function"
    },
    {
      "constant": false,
      "inputs": [
        {
          "name": "gameId",
          "type": "uint256"
        },
        {
          "name": "oddsId",
          "type": "uint256"
        },
        {
          "name": "betType",
          "type": "uint256"
        },
        {
          "name": "choice",
          "type": "uint256"
        },
        {
          "name": "amount",
          "type": "uint256"
        }
      ],
      "name": "placeBet",
      "outputs": [
        {
          "name": "betPlaced",
          "type": "bool"
        }
      ],
      "payable": false,
      "stateMutability": "nonpayable",
      "type": "function"
    },
    {
      "constant": true,
      "inputs": [
        {
          "name": "gameId",
          "type": "uint256"
        },
        {
          "name": "oddsId",
          "type": "uint256"
        },
        {
          "name": "betType",
          "type": "uint256"
        },
        {
          "name": "amount",
          "type": "uint256"
        }
      ],
      "name": "isValidNewBet",
      "outputs": [
        {
          "name": "",
          "type": "bool"
        }
      ],
      "payable": false,
      "stateMutability": "view",
      "type": "function"
    },
    {
      "constant": false,
      "inputs": [
        {
          "name": "gameId",
          "type": "uint256"
        },
        {
          "name": "betId",
          "type": "uint256"
        },
        {
          "name": "bettor",
          "type": "address"
        }
      ],
      "name": "claimBet",
      "outputs": [],
      "payable": false,
      "stateMutability": "nonpayable",
      "type": "function"
    },
    {
      "constant": true,
      "inputs": [
        {
          "name": "gameId",
          "type": "uint256"
        },
        {
          "name": "betId",
          "type": "uint256"
        },
        {
          "name": "bettor",
          "type": "address"
        }
      ],
      "name": "getBetReturns",
      "outputs": [
        {
          "name": "",
          "type": "uint256"
        }
      ],
      "payable": false,
      "stateMutability": "view",
      "type": "function"
    },
    {
      "constant": true,
      "inputs": [
        {
          "name": "amount",
          "type": "uint256"
        },
        {
          "name": "odds",
          "type": "int256"
        }
      ],
      "name": "getWinnings",
      "outputs": [
        {
          "name": "",
          "type": "uint256"
        }
      ],
      "payable": false,
      "stateMutability": "pure",
      "type": "function"
    },
    {
      "constant": true,
      "inputs": [
        {
          "name": "id",
          "type": "uint256"
        }
      ],
      "name": "getGame",
      "outputs": [
        {
          "name": "oracleGameId",
          "type": "uint256"
        },
        {
          "name": "session",
          "type": "uint256"
        },
        {
          "name": "betAmount",
          "type": "uint256"
        },
        {
          "name": "payouts",
          "type": "uint256"
        },
        {
          "name": "betCount",
          "type": "uint256"
        },
        {
          "name": "cutOffTime",
          "type": "uint256"
        },
        {
          "name": "endTime",
          "type": "uint256"
        },
        {
          "name": "hasEnded",
          "type": "bool"
        },
        {
          "name": "exists",
          "type": "bool"
        }
      ],
      "payable": false,
      "stateMutability": "view",
      "type": "function"
    },
    {
      "constant": true,
      "inputs": [
        {
          "name": "id",
          "type": "uint256"
        },
        {
          "name": "period",
          "type": "uint256"
        }
      ],
      "name": "getGamePeriodBetLimits",
      "outputs": [
        {
          "name": "",
          "type": "uint256[4]"
        },
        {
          "name": "",
          "type": "bool"
        }
      ],
      "payable": false,
      "stateMutability": "view",
      "type": "function"
    },
    {
      "constant": true,
      "inputs": [
        {
          "name": "id",
          "type": "uint256"
        }
      ],
      "name": "getGameMaxBetLimit",
      "outputs": [
        {
          "name": "",
          "type": "uint256"
        }
      ],
      "payable": false,
      "stateMutability": "view",
      "type": "function"
    },
    {
      "constant": true,
      "inputs": [
        {
          "name": "user",
          "type": "address"
        },
        {
          "name": "index",
          "type": "uint256"
        }
      ],
      "name": "getUserBets",
      "outputs": [
        {
          "name": "",
          "type": "uint256"
        },
        {
          "name": "",
          "type": "uint256"
        },
        {
          "name": "",
          "type": "bool"
        }
      ],
      "payable": false,
      "stateMutability": "view",
      "type": "function"
    },
    {
      "constant": true,
      "inputs": [
        {
          "name": "id",
          "type": "uint256"
        },
        {
          "name": "index",
          "type": "uint256"
        }
      ],
      "name": "getGameBettor",
      "outputs": [
        {
          "name": "",
          "type": "address"
        },
        {
          "name": "",
          "type": "uint256"
        }
      ],
      "payable": false,
      "stateMutability": "view",
      "type": "function"
    },
    {
      "constant": true,
      "inputs": [
        {
          "name": "gameId",
          "type": "uint256"
        },
        {
          "name": "bettor",
          "type": "address"
        },
        {
          "name": "id",
          "type": "uint256"
        }
      ],
      "name": "getGameBettorBet",
      "outputs": [
        {
          "name": "oddsId",
          "type": "uint256"
        },
        {
          "name": "choice",
          "type": "uint256"
        },
        {
          "name": "amount",
          "type": "uint256"
        },
        {
          "name": "blockTime",
          "type": "uint256"
        },
        {
          "name": "session",
          "type": "uint256"
        },
        {
          "name": "claimed",
          "type": "bool"
        },
        {
          "name": "exists",
          "type": "bool"
        }
      ],
      "payable": false,
      "stateMutability": "view",
      "type": "function"
    },
    {
      "constant": true,
      "inputs": [
        {
          "name": "gameId",
          "type": "uint256"
        },
        {
          "name": "bettor",
          "type": "address"
        },
        {
          "name": "id",
          "type": "uint256"
        }
      ],
      "name": "getGameBettorBetOdds",
      "outputs": [
        {
          "name": "betType",
          "type": "uint256"
        },
        {
          "name": "period",
          "type": "uint256"
        },
        {
          "name": "handicap",
          "type": "int256"
        },
        {
          "name": "team1",
          "type": "int256"
        },
        {
          "name": "team2",
          "type": "int256"
        },
        {
          "name": "draw",
          "type": "int256"
        },
        {
          "name": "points",
          "type": "uint256"
        },
        {
          "name": "over",
          "type": "int256"
        },
        {
          "name": "under",
          "type": "int256"
        },
        {
          "name": "isTeam1",
          "type": "bool"
        }
      ],
      "payable": false,
      "stateMutability": "view",
      "type": "function"
    },
    {
      "constant": true,
      "inputs": [
        {
          "name": "gameId",
          "type": "uint256"
        },
        {
          "name": "bettor",
          "type": "address"
        },
        {
          "name": "id",
          "type": "uint256"
        }
      ],
      "name": "getGameBettorBetOddsDetails",
      "outputs": [
        {
          "name": "refId",
          "type": "string"
        },
        {
          "name": "updateTime",
          "type": "uint256"
        },
        {
          "name": "isActive",
          "type": "bool"
        }
      ],
      "payable": false,
      "stateMutability": "view",
      "type": "function"
    },
    {
      "constant": true,
      "inputs": [
        {
          "name": "id",
          "type": "uint256"
        }
      ],
      "name": "getGameOddsCount",
      "outputs": [
        {
          "name": "",
          "type": "uint256"
        }
      ],
      "payable": false,
      "stateMutability": "view",
      "type": "function"
    },
    {
      "constant": true,
      "inputs": [
        {
          "name": "gameId",
          "type": "uint256"
        },
        {
          "name": "id",
          "type": "uint256"
        }
      ],
      "name": "getGameOdds",
      "outputs": [
        {
          "name": "betType",
          "type": "uint256"
        },
        {
          "name": "period",
          "type": "uint256"
        },
        {
          "name": "handicap",
          "type": "int256"
        },
        {
          "name": "team1",
          "type": "int256"
        },
        {
          "name": "team2",
          "type": "int256"
        },
        {
          "name": "draw",
          "type": "int256"
        },
        {
          "name": "points",
          "type": "uint256"
        },
        {
          "name": "over",
          "type": "int256"
        },
        {
          "name": "under",
          "type": "int256"
        },
        {
          "name": "isTeam1",
          "type": "bool"
        }
      ],
      "payable": false,
      "stateMutability": "view",
      "type": "function"
    },
    {
      "constant": true,
      "inputs": [
        {
          "name": "gameId",
          "type": "uint256"
        },
        {
          "name": "id",
          "type": "uint256"
        }
      ],
      "name": "getGameOddsDetails",
      "outputs": [
        {
          "name": "refId",
          "type": "string"
        },
        {
          "name": "updateTime",
          "type": "uint256"
        },
        {
          "name": "isActive",
          "type": "bool"
        }
      ],
      "payable": false,
      "stateMutability": "view",
      "type": "function"
    },
    {
      "constant": true,
      "inputs": [
        {
          "name": "gameId",
          "type": "uint256"
        },
        {
          "name": "period",
          "type": "uint256"
        }
      ],
      "name": "getGameOutcome",
      "outputs": [
        {
          "name": "result",
          "type": "int256"
        },
        {
          "name": "totalPoints",
          "type": "uint256"
        },
        {
          "name": "team1Points",
          "type": "uint256"
        },
        {
          "name": "team2Points",
          "type": "uint256"
        },
        {
          "name": "isPublished",
          "type": "bool"
        },
        {
          "name": "settleTime",
          "type": "uint256"
        }
      ],
      "payable": false,
      "stateMutability": "view",
      "type": "function"
    }
  ],
  "bytecode": "0x6060604052426002556202a30060115534156200001b57600080fd5b60405160808062005f988339810160405280805190602001909190805190602001909190805190602001909190805190602001909190505060008473ffffffffffffffffffffffffffffffffffffffff1614156200007857600080fd5b60008373ffffffffffffffffffffffffffffffffffffffff1614156200009d57600080fd5b60008273ffffffffffffffffffffffffffffffffffffffff161415620000c257600080fd5b60008173ffffffffffffffffffffffffffffffffffffffff161415620000e757600080fd5b7f42657474696e672050726f7669646572000000000000000000000000000000006000816000191690555060018060006101000a81548160ff02191690831515021790555082600e60006101000a81548173ffffffffffffffffffffffffffffffffffffffff021916908373ffffffffffffffffffffffffffffffffffffffff16021790555083600560006101000a81548173ffffffffffffffffffffffffffffffffffffffff021916908373ffffffffffffffffffffffffffffffffffffffff160217905550600e60009054906101000a900473ffffffffffffffffffffffffffffffffffffffff16600760006101000a81548173ffffffffffffffffffffffffffffffffffffffff021916908373ffffffffffffffffffffffffffffffffffffffff16021790555081600860006101000a81548173ffffffffffffffffffffffffffffffffffffffff021916908373ffffffffffffffffffffffffffffffffffffffff16021790555080600460006101000a81548173ffffffffffffffffffffffffffffffffffffffff021916908373ffffffffffffffffffffffffffffffffffffffff16021790555060018060016101000a81548160ff021916908315150217905550620002cc33620002d66401000000000262005bfe176401000000009004565b505050506200031a565b80600360006101000a81548173ffffffffffffffffffffffffffffffffffffffff021916908373ffffffffffffffffffffffffffffffffffffffff16021790555050565b615c6e806200032a6000396000f30060606040526004361061022f576000357c0100000000000000000000000000000000000000000000000000000000900463ffffffff168062fdd58e1461023f57806306fdde03146102955780630795be77146102c65780630ce29d75146102f35780631a102add146103495780631c636b611461039e57806320e3cf2f146103d5578063270e4e511461044857806328ccaa291461047f5780632af9c140146104ac578063361fc0c2146104fd57806336d69953146105805780633beb26c4146105ad57806342bdf44d146105d0578063441a3e70146106445780634b18d08314610688578063557ed1ba146106e75780635bd6576a146107105780635dcee87f146107b257806367e578421461080a5780636858acad1461086c57806382ae9a78146108b057806386f6e14714610941578063891f5b79146109a05780638e9d1c7614610a075780639102fa8714610add5780639a72df7a14610b18578063a2f77bcc14610b45578063aee4c52f14610bbc578063b6b55f2514610be8578063cd811c2514610c23578063ce63614c14610c8b578063d30e31a814610d42578063d353633a14610d8d578063d416676314610dec578063d563ce1914610e15578063d7cee31e14610e3a578063d93b7caf14610e8f578063e77c791314610ecf578063ed7f6ff414610f04578063f43ed50314610f77578063f45babe414610fb0578063f62a753014611005578063f7c1723814611028578063fb1b11a4146110ea578063fb632b7c14611140575b341561023a57600080fd5b600080fd5b341561024a57600080fd5b61027f600480803573ffffffffffffffffffffffffffffffffffffffff16906020019091908035906020019091905050611169565b6040518082815260200191505060405180910390f35b34156102a057600080fd5b6102a86111c4565b60405180826000191660001916815260200191505060405180910390f35b34156102d157600080fd5b6102d96111ca565b604051808215151515815260200191505060405180910390f35b34156102fe57600080fd5b61032f60048080359060200190919080359060200190919080359060200190919080359060200190919050506111dd565b604051808215151515815260200191505060405180910390f35b341561035457600080fd5b61035c611304565b604051808273ffffffffffffffffffffffffffffffffffffffff1673ffffffffffffffffffffffffffffffffffffffff16815260200191505060405180910390f35b34156103a957600080fd5b6103bf600480803590602001909190505061132a565b6040518082815260200191505060405180910390f35b34156103e057600080fd5b6103ff600480803590602001909190803590602001909190505061134d565b6040518083600460200280838360005b8381101561042a57808201518184015260208101905061040f565b50505050905001821515151581526020019250505060405180910390f35b341561045357600080fd5b6104696004808035906020019091905050611403565b6040518082815260200191505060405180910390f35b341561048a57600080fd5b610492611426565b604051808215151515815260200191505060405180910390f35b34156104b757600080fd5b6104e3600480803573ffffffffffffffffffffffffffffffffffffffff16906020019091905050611438565b604051808215151515815260200191505060405180910390f35b341561050857600080fd5b61052760048080359060200190919080359060200190919050506115a4565b604051808b81526020018a8152602001898152602001888152602001878152602001868152602001858152602001848152602001838152602001821515151581526020019a505050505050505050505060405180910390f35b341561058b57600080fd5b610593611644565b604051808215151515815260200191505060405180910390f35b34156105b857600080fd5b6105ce60048080359060200190919050506118a3565b005b34156105db57600080fd5b6106426004808035906020019091908035906020019091908035906020019091908035906020019091908035906020019091908035906020019091908035906020019091908035906020019091908035906020019091908035906020019091905050611940565b005b341561064f57600080fd5b61066e6004808035906020019091908035906020019091905050611c9c565b604051808215151515815260200191505060405180910390f35b341561069357600080fd5b6106d1600480803590602001909190803590602001909190803573ffffffffffffffffffffffffffffffffffffffff16906020019091905050611f84565b6040518082815260200191505060405180910390f35b34156106f257600080fd5b6106fa6122f7565b6040518082815260200191505060405180910390f35b341561071b57600080fd5b610759600480803590602001909190803573ffffffffffffffffffffffffffffffffffffffff1690602001909190803590602001909190505061231b565b604051808b81526020018a8152602001898152602001888152602001878152602001868152602001858152602001848152602001838152602001821515151581526020019a505050505050505050505060405180910390f35b34156107bd57600080fd5b610808600480803590602001909190803590602001909190806080019060048060200260405190810160405280929190826004602002808284378201915050505050919050506123fc565b005b341561081557600080fd5b61082b6004808035906020019091905050612605565b604051808781526020018681526020018581526020018481526020018315151515815260200182151515158152602001965050505050505060405180910390f35b341561087757600080fd5b610896600480803590602001909190803590602001909190505061265b565b604051808215151515815260200191505060405180910390f35b34156108bb57600080fd5b6108f9600480803590602001909190803573ffffffffffffffffffffffffffffffffffffffff169060200190919080359060200190919050506129b1565b60405180888152602001878152602001868152602001858152602001848152602001831515151581526020018215151515815260200197505050505050505060405180910390f35b341561094c57600080fd5b6109866004808035906020019091908035906020019091908035906020019091908035906020019091908035906020019091905050612a7f565b604051808215151515815260200191505060405180910390f35b34156109ab57600080fd5b6109ca6004808035906020019091908035906020019091905050612c39565b6040518087815260200186815260200185815260200184815260200183151515158152602001828152602001965050505050505060405180910390f35b3415610a1257600080fd5b610a50600480803590602001909190803573ffffffffffffffffffffffffffffffffffffffff16906020019091908035906020019091905050612caf565b604051808060200184815260200183151515158152602001828103825285818151815260200191508051906020019080838360005b83811015610aa0578082015181840152602081019050610a85565b50505050905090810190601f168015610acd5780820380516001836020036101000a031916815260200191505b5094505050505060405180910390f35b3415610ae857600080fd5b610afe6004808035906020019091905050612def565b604051808215151515815260200191505060405180910390f35b3415610b2357600080fd5b610b2b612e8e565b604051808215151515815260200191505060405180910390f35b3415610b5057600080fd5b610b66600480803590602001909190505061318f565b604051808a81526020018981526020018881526020018781526020018681526020018581526020018481526020018315151515815260200182151515158152602001995050505050505050505060405180910390f35b3415610bc757600080fd5b610be6600480803590602001909190803590602001909190505061321a565b005b3415610bf357600080fd5b610c0960048080359060200190919050506133bb565b604051808215151515815260200191505060405180910390f35b3415610c2e57600080fd5b610c63600480803573ffffffffffffffffffffffffffffffffffffffff16906020019091908035906020019091905050613742565b6040518084815260200183815260200182151515158152602001935050505060405180910390f35b3415610c9657600080fd5b610cb5600480803590602001909190803590602001909190505061387b565b604051808060200184815260200183151515158152602001828103825285818151815260200191508051906020019080838360005b83811015610d05578082015181840152602081019050610cea565b50505050905090810190601f168015610d325780820380516001836020036101000a031916815260200191505b5094505050505060405180910390f35b3415610d4d57600080fd5b610d8b600480803590602001909190803590602001909190803573ffffffffffffffffffffffffffffffffffffffff16906020019091905050613979565b005b3415610d9857600080fd5b610dd26004808035906020019091908035906020019091908035906020019091908035906020019091908035906020019091905050613fae565b604051808215151515815260200191505060405180910390f35b3415610df757600080fd5b610dff614441565b6040518082815260200191505060405180910390f35b3415610e2057600080fd5b610e3860048080351515906020019091905050614447565b005b3415610e4557600080fd5b610e4d6144bf565b604051808273ffffffffffffffffffffffffffffffffffffffff1673ffffffffffffffffffffffffffffffffffffffff16815260200191505060405180910390f35b3415610e9a57600080fd5b610eb960048080359060200190919080359060200190919050506144e5565b6040518082815260200191505060405180910390f35b3415610eda57600080fd5b610f026004808035906020019091908035906020019091908035906020019091905050614581565b005b3415610f0f57600080fd5b610f2e6004808035906020019091908035906020019091905050614933565b604051808373ffffffffffffffffffffffffffffffffffffffff1673ffffffffffffffffffffffffffffffffffffffff1681526020018281526020019250505060405180910390f35b3415610f8257600080fd5b610fae600480803573ffffffffffffffffffffffffffffffffffffffff169060200190919050506149ed565b005b3415610fbb57600080fd5b610fc3614ade565b604051808273ffffffffffffffffffffffffffffffffffffffff1673ffffffffffffffffffffffffffffffffffffffff16815260200191505060405180910390f35b341561101057600080fd5b6110266004808035906020019091905050614b04565b005b341561103357600080fd5b6110e8600480803590602001909190803590602001908201803590602001908080601f016020809104026020016040519081016040528093929190818152602001838380828437820191505050505050919080359060200190919080359060200190919080359060200190919080359060200190919080359060200190919080359060200190919080359060200190919080359060200190919080359060200190919080351515906020019091905050614bf2565b005b34156110f557600080fd5b61112a600480803573ffffffffffffffffffffffffffffffffffffffff16906020019091908035906020019091905050614ea9565b6040518082815260200191505060405180910390f35b341561114b57600080fd5b611153614ece565b6040518082815260200191505060405180910390f35b6000600c60008473ffffffffffffffffffffffffffffffffffffffff1673ffffffffffffffffffffffffffffffffffffffff168152602001908152602001600020600083815260200190815260200160002054905092915050565b60005481565b600160009054906101000a900460ff1681565b6000806000806000600a60008a8152602001908152602001600020600c019350600a60008a81526020019081526020016000206002016000016000898152602001908152602001600020600201549250836000016000848152602001908152602001600020915083600101600084815260200190815260200160002060009054906101000a900460ff169050600086141561127b57600094506112f8565b8015806112b157506000828860048110151561129357fe5b01541180156112b057508582886004811015156112ac57fe5b0154105b5b156112bf57600094506112f8565b83600201546112e4600a60008c81526020019081526020016000206006015488614ed4565b11156112f357600094506112f8565b600194505b50505050949350505050565b600360009054906101000a900473ffffffffffffffffffffffffffffffffffffffff1681565b6000600a6000838152602001908152602001600020600201600101549050919050565b61135561590b565b6000600a6000858152602001908152602001600020600c016000016000848152602001908152602001600020600a6000868152602001908152602001600020600c01600101600085815260200190815260200160002060009054906101000a900460ff16816004806020026040519081016040528092919082600480156113f1576020028201915b8154815260200190600101908083116113dd575b50505050509150915091509250929050565b6000600a6000838152602001908152602001600020600c01600201549050919050565b6001809054906101000a900460ff1681565b6000801515600860009054906101000a900473ffffffffffffffffffffffffffffffffffffffff1673ffffffffffffffffffffffffffffffffffffffff1663b9181611336040518263ffffffff167c0100000000000000000000000000000000000000000000000000000000028152600401808273ffffffffffffffffffffffffffffffffffffffff1673ffffffffffffffffffffffffffffffffffffffff168152602001915050602060405180830381600087803b15156114f957600080fd5b5af1151561150657600080fd5b505050604051805190501515141561151d57600080fd5b81600f60006101000a81548173ffffffffffffffffffffffffffffffffffffffff021916908373ffffffffffffffffffffffffffffffffffffffff16021790555081600660006101000a81548173ffffffffffffffffffffffffffffffffffffffff021916908373ffffffffffffffffffffffffffffffffffffffff160217905550919050565b6000806000806000806000806000806000600a60008e815260200190815260200160002060020160000160008d8152602001908152602001600020905080600001548160020154826003015483600401548460050154856006015486600701548760080154886009015489600a0160009054906101000a900460ff169a509a509a509a509a509a509a509a509a509a50509295989b9194979a5092959850565b60008060003373ffffffffffffffffffffffffffffffffffffffff16600e60009054906101000a900473ffffffffffffffffffffffffffffffffffffffff1673ffffffffffffffffffffffffffffffffffffffff161415156116a557600080fd5b60016010540391506000600c60003073ffffffffffffffffffffffffffffffffffffffff1673ffffffffffffffffffffffffffffffffffffffff168152602001908152602001600020600084815260200190815260200160002054141561170b57600080fd5b600c60003073ffffffffffffffffffffffffffffffffffffffff1673ffffffffffffffffffffffffffffffffffffffff16815260200190815260200160002060008381526020019081526020016000205490506000600c60003073ffffffffffffffffffffffffffffffffffffffff1673ffffffffffffffffffffffffffffffffffffffff168152602001908152602001600020600084815260200190815260200160002081905550600560009054906101000a900473ffffffffffffffffffffffffffffffffffffffff1673ffffffffffffffffffffffffffffffffffffffff1663a9059cbb33836040518363ffffffff167c0100000000000000000000000000000000000000000000000000000000028152600401808373ffffffffffffffffffffffffffffffffffffffff1673ffffffffffffffffffffffffffffffffffffffff16815260200182815260200192505050602060405180830381600087803b151561187857600080fd5b5af1151561188557600080fd5b50505060405180519050151561189a57600080fd5b60019250505090565b600360009054906101000a900473ffffffffffffffffffffffffffffffffffffffff1673ffffffffffffffffffffffffffffffffffffffff163373ffffffffffffffffffffffffffffffffffffffff161415156118ff57600080fd5b806002819055507fddb30991472728014becfdc873e13fc7a4bbad9d6e1b45632cbdf2098d249a79816040518082815260200191505060405180910390a150565b60001515600860009054906101000a900473ffffffffffffffffffffffffffffffffffffffff1673ffffffffffffffffffffffffffffffffffffffff1663b9181611336040518263ffffffff167c0100000000000000000000000000000000000000000000000000000000028152600401808273ffffffffffffffffffffffffffffffffffffffff1673ffffffffffffffffffffffffffffffffffffffff168152602001915050602060405180830381600087803b1515611a0057600080fd5b5af11515611a0d57600080fd5b5050506040518051905015151415611a2457600080fd5b8960001515600a600083815260200190815260200160002060100160009054906101000a900460ff1615151415611a5a57600080fd5b8a600a600082815260200190815260200160002060090154611a7a6122f7565b101515611a8657600080fd5b89600a60008e815260200190815260200160002060020160000160008d81526020019081526020016000206000018190555088600a60008e815260200190815260200160002060020160000160008d81526020019081526020016000206003018190555087600a60008e815260200190815260200160002060020160000160008d81526020019081526020016000206004018190555086600a60008e815260200190815260200160002060020160000160008d81526020019081526020016000206005018190555085600a60008e815260200190815260200160002060020160000160008d81526020019081526020016000206006018190555084600a60008e815260200190815260200160002060020160000160008d81526020019081526020016000206007018190555083600a60008e815260200190815260200160002060020160000160008d81526020019081526020016000206008018190555082600a60008e815260200190815260200160002060020160000160008d815260200190815260200160002060090181905550611c1e6122f7565b600a60008e815260200190815260200160002060020160000160008d8152602001908152602001600020600b01819055507fdcb1bfc977f92ca0bda25b6f9e6bca13a10dbbb93aad535e05d8724fde1bf2688c8c604051808381526020018281526020019250505060405180910390a1505050505050505050505050565b600081601054811180611caf5750600081145b15611cb957600080fd5b8380600c60003373ffffffffffffffffffffffffffffffffffffffff1673ffffffffffffffffffffffffffffffffffffffff16815260200190815260200160002060006010548152602001908152602001600020541015611d1957600080fd5b611d73600c60003373ffffffffffffffffffffffffffffffffffffffff1673ffffffffffffffffffffffffffffffffffffffff16815260200190815260200160002060008681526020019081526020016000205486614ef2565b600c60003373ffffffffffffffffffffffffffffffffffffffff1673ffffffffffffffffffffffffffffffffffffffff168152602001908152602001600020600086815260200190815260200160002081905550600560009054906101000a900473ffffffffffffffffffffffffffffffffffffffff1673ffffffffffffffffffffffffffffffffffffffff1663a9059cbb33876040518363ffffffff167c0100000000000000000000000000000000000000000000000000000000028152600401808373ffffffffffffffffffffffffffffffffffffffff1673ffffffffffffffffffffffffffffffffffffffff16815260200182815260200192505050602060405180830381600087803b1515611e8b57600080fd5b5af11515611e9857600080fd5b505050604051805190501515611ead57600080fd5b7f9744d0a120f7c7d7906cfe3c05b50669fb49aa6d778b099d5d6edc386dee5b59338686600c60003373ffffffffffffffffffffffffffffffffffffffff1673ffffffffffffffffffffffffffffffffffffffff168152602001908152602001600020600089815260200190815260200160002054604051808573ffffffffffffffffffffffffffffffffffffffff1673ffffffffffffffffffffffffffffffffffffffff16815260200184815260200183815260200182815260200194505050505060405180910390a160019250505092915050565b6000806000806000806000806000806000600a60008f815260200190815260200160002060040160008d73ffffffffffffffffffffffffffffffffffffffff1673ffffffffffffffffffffffffffffffffffffffff16815260200190815260200160002060010160008e81526020019081526020016000209950600a60008f8152602001908152602001600020600f0160008b600201600201548152602001908152602001600020985089600f0154975089601001549650896002019550856000015494508560030154935088600001549250600185141561215e576001881461207557896002016005015461207e565b89600201600401545b9150600460009054906101000a900473ffffffffffffffffffffffffffffffffffffffff1673ffffffffffffffffffffffffffffffffffffffff1663334e2d4188868c600201548d600301548d886040518763ffffffff167c0100000000000000000000000000000000000000000000000000000000028152600401808781526020018681526020018581526020018481526020018381526020018281526020019650505050505050602060405180830381600087803b151561214057600080fd5b5af1151561214d57600080fd5b505050604051805190509a506122e6565b6002851415612209576001831480156121775750600188145b1561219a576121938761218e8989600401546144e5565b614ed4565b9a506122e6565b6003831480156121aa5750600388145b156121cd576121c6876121c18989600501546144e5565b614ed4565b9a506122e6565b6002831480156121dd5750600288145b15612200576121f9876121f48989600601546144e5565b614ed4565b9a506122e6565b60009a506122e6565b60038514806122185750600485145b156122e157600385146122505785600a0160009054906101000a900460ff1661224557886003015461224b565b88600201545b612256565b88600101545b90508560070154612268826064614f0b565b1180156122755750600488145b15612298576122918761228c8989600801546144e5565b614ed4565b9a506122e6565b85600701546122a8826064614f0b565b1080156122b55750600588145b156122d8576122d1876122cc8989600901546144e5565b614ed4565b9a506122e6565b60009a506122e6565b600080fd5b505050505050505050509392505050565b60006001809054906101000a900460ff166123125742612316565b6002545b905090565b6000806000806000806000806000806000600a60008f815260200190815260200160002060040160008e73ffffffffffffffffffffffffffffffffffffffff1673ffffffffffffffffffffffffffffffffffffffff16815260200190815260200160002060010160008d8152602001908152602001600020600201905080600001548160020154826003015483600401548460050154856006015486600701548760080154886009015489600a0160009054906101000a900460ff169a509a509a509a509a509a509a509a509a509a505093979b5093979b91959950939750565b60001515600860009054906101000a900473ffffffffffffffffffffffffffffffffffffffff1673ffffffffffffffffffffffffffffffffffffffff1663b9181611336040518263ffffffff167c0100000000000000000000000000000000000000000000000000000000028152600401808273ffffffffffffffffffffffffffffffffffffffff1673ffffffffffffffffffffffffffffffffffffffff168152602001915050602060405180830381600087803b15156124bc57600080fd5b5af115156124c957600080fd5b50505060405180519050151514156124e057600080fd5b8260001515600a600083815260200190815260200160002060100160009054906101000a900460ff161515141561251657600080fd5b83600a6000828152602001908152602001600020600901546125366122f7565b10151561254257600080fd5b82600a6000878152602001908152602001600020600c01600001600086815260200190815260200160002090600461257b929190615933565b506001600a6000878152602001908152602001600020600c01600101600086815260200190815260200160002060006101000a81548160ff0219169083151502179055507f4eb191811fe7b2a92f824d0a54b18d76ba0bcedec48df08573ed3fb2db8e23168585604051808381526020018281526020019250505060405180910390a15050505050565b600d6020528060005260406000206000915090508060000154908060010154908060020154908060030154908060040160009054906101000a900460ff16908060040160019054906101000a900460ff16905086565b60003373ffffffffffffffffffffffffffffffffffffffff16600e60009054906101000a900473ffffffffffffffffffffffffffffffffffffffff1673ffffffffffffffffffffffffffffffffffffffff161415156126b957600080fd5b60105482141580156126d057506001601054018214155b156126da57600080fd5b612734600c60003073ffffffffffffffffffffffffffffffffffffffff1673ffffffffffffffffffffffffffffffffffffffff16815260200190815260200160002060008481526020019081526020016000205484614ed4565b600c60003073ffffffffffffffffffffffffffffffffffffffff1673ffffffffffffffffffffffffffffffffffffffff1681526020019081526020016000206000848152602001908152602001600020819055506127a8600d60008481526020019081526020016000206002015484614ed4565b600d600084815260200190815260200160002060020181905550600560009054906101000a900473ffffffffffffffffffffffffffffffffffffffff1673ffffffffffffffffffffffffffffffffffffffff166323b872dd3330866040518463ffffffff167c0100000000000000000000000000000000000000000000000000000000028152600401808473ffffffffffffffffffffffffffffffffffffffff1673ffffffffffffffffffffffffffffffffffffffff1681526020018373ffffffffffffffffffffffffffffffffffffffff1673ffffffffffffffffffffffffffffffffffffffff1681526020018281526020019350505050602060405180830381600087803b15156128ba57600080fd5b5af115156128c757600080fd5b5050506040518051905015156128dc57600080fd5b7f4b2bcb0ca50531683faa51870e1018aa0d7272c7f2acc5399389b0c0493865d9308484600c60003073ffffffffffffffffffffffffffffffffffffffff1673ffffffffffffffffffffffffffffffffffffffff168152602001908152602001600020600087815260200190815260200160002054604051808573ffffffffffffffffffffffffffffffffffffffff1673ffffffffffffffffffffffffffffffffffffffff16815260200184815260200183815260200182815260200194505050505060405180910390a16001905092915050565b600080600080600080600080600a60008c815260200190815260200160002060040160008b73ffffffffffffffffffffffffffffffffffffffff1673ffffffffffffffffffffffffffffffffffffffff16815260200190815260200160002060010160008a81526020019081526020016000209050806001015481600f01548260100154836011015484601201548560130160009054906101000a900460ff168660130160019054906101000a900460ff169750975097509750975097509750509397509397509397909450565b60003373ffffffffffffffffffffffffffffffffffffffff16600f60009054906101000a900473ffffffffffffffffffffffffffffffffffffffff1673ffffffffffffffffffffffffffffffffffffffff16141515612add57600080fd5b8560001515600a600083815260200190815260200160002060100160009054906101000a900460ff1615151415612b1357600080fd5b86600a6000828152602001908152602001600020600a0154612b336122f7565b1015612b3e57600080fd5b60c060405190810160405280878152602001612b5a8787614ed4565b8152602001868152602001858152602001600115158152602001612b7c6122f7565b815250600a60008a8152602001908152602001600020600f0160008981526020019081526020016000206000820151816000015560208201518160010155604082015181600201556060820151816003015560808201518160040160006101000a81548160ff02191690831515021790555060a082015181600501559050506001600a60008a8152602001908152602001600020600b0160006101000a81548160ff02191690831515021790555060019250505095945050505050565b6000806000806000806000600a60008a8152602001908152602001600020600f016000898152602001908152602001600020905080600001548160010154826002015483600301548460040160009054906101000a900460ff168560050154965096509650965096509650509295509295509295565b612cb7615973565b6000806000600a600088815260200190815260200160002060040160008773ffffffffffffffffffffffffffffffffffffffff1673ffffffffffffffffffffffffffffffffffffffff168152602001908152602001600020600101600086815260200190815260200160002060020190508060010181600b015482600a0160019054906101000a900460ff16828054600181600116156101000203166002900480601f016020809104026020016040519081016040528092919081815260200182805460018160011615610100020316600290048015612dd85780601f10612dad57610100808354040283529160200191612dd8565b820191906000526020600020905b815481529060010190602001808311612dbb57829003601f168201915b505050505092509350935093505093509350939050565b60003373ffffffffffffffffffffffffffffffffffffffff16600e60009054906101000a900473ffffffffffffffffffffffffffffffffffffffff1673ffffffffffffffffffffffffffffffffffffffff16141515612e4d57600080fd5b816010819055506001600d6000601054815260200190815260200160002060040160016101000a81548160ff02191690831515021790555060019050919050565b6000803373ffffffffffffffffffffffffffffffffffffffff16600e60009054906101000a900473ffffffffffffffffffffffffffffffffffffffff1673ffffffffffffffffffffffffffffffffffffffff16141515612eed57600080fd5b600760009054906101000a900473ffffffffffffffffffffffffffffffffffffffff1673ffffffffffffffffffffffffffffffffffffffff166327c830a96040518163ffffffff167c0100000000000000000000000000000000000000000000000000000000028152600401602060405180830381600087803b1515612f7257600080fd5b5af11515612f7f57600080fd5b505050604051805190501515612f9457600080fd5b6000600c60003073ffffffffffffffffffffffffffffffffffffffff1673ffffffffffffffffffffffffffffffffffffffff16815260200190815260200160002060006010548152602001908152602001600020541415612ff457600080fd5b600c60003073ffffffffffffffffffffffffffffffffffffffff1673ffffffffffffffffffffffffffffffffffffffff168152602001908152602001600020600060105481526020019081526020016000205490506000600c60003073ffffffffffffffffffffffffffffffffffffffff1673ffffffffffffffffffffffffffffffffffffffff1681526020019081526020016000206000601054815260200190815260200160002081905550600560009054906101000a900473ffffffffffffffffffffffffffffffffffffffff1673ffffffffffffffffffffffffffffffffffffffff1663a9059cbb33836040518363ffffffff167c0100000000000000000000000000000000000000000000000000000000028152600401808373ffffffffffffffffffffffffffffffffffffffff1673ffffffffffffffffffffffffffffffffffffffff16815260200182815260200192505050602060405180830381600087803b151561316557600080fd5b5af1151561317257600080fd5b50505060405180519050151561318757600080fd5b600191505090565b600080600080600080600080600080600a60008c8152602001908152602001600020905080600001548160010154826006015483600701548460080154856009015486600a015487600b0160009054906101000a900460ff168860100160009054906101000a900460ff16995099509950995099509950995099509950509193959799909294969850565b60001515600860009054906101000a900473ffffffffffffffffffffffffffffffffffffffff1673ffffffffffffffffffffffffffffffffffffffff1663b9181611336040518263ffffffff167c0100000000000000000000000000000000000000000000000000000000028152600401808273ffffffffffffffffffffffffffffffffffffffff1673ffffffffffffffffffffffffffffffffffffffff168152602001915050602060405180830381600087803b15156132da57600080fd5b5af115156132e757600080fd5b50505060405180519050151514156132fe57600080fd5b8160001515600a600083815260200190815260200160002060100160009054906101000a900460ff161515141561333457600080fd5b82600a6000828152602001908152602001600020600901546133546122f7565b10151561336057600080fd5b82600a6000868152602001908152602001600020600c01600201819055507fe3712f94765ad181250c32f95683d7b160c3a39b75c3f611f30799baaeb2549a846040518082815260200191505060405180910390a150505050565b60008180600560009054906101000a900473ffffffffffffffffffffffffffffffffffffffff1673ffffffffffffffffffffffffffffffffffffffff166370a08231336040518263ffffffff167c0100000000000000000000000000000000000000000000000000000000028152600401808273ffffffffffffffffffffffffffffffffffffffff1673ffffffffffffffffffffffffffffffffffffffff168152602001915050602060405180830381600087803b151561347b57600080fd5b5af1151561348857600080fd5b50505060405180519050101561349d57600080fd5b6134f9600c60003373ffffffffffffffffffffffffffffffffffffffff1673ffffffffffffffffffffffffffffffffffffffff168152602001908152602001600020600060105481526020019081526020016000205484614ed4565b600c60003373ffffffffffffffffffffffffffffffffffffffff1673ffffffffffffffffffffffffffffffffffffffff1681526020019081526020016000206000601054815260200190815260200160002081905550600560009054906101000a900473ffffffffffffffffffffffffffffffffffffffff1673ffffffffffffffffffffffffffffffffffffffff166323b872dd3330866040518463ffffffff167c0100000000000000000000000000000000000000000000000000000000028152600401808473ffffffffffffffffffffffffffffffffffffffff1673ffffffffffffffffffffffffffffffffffffffff1681526020018373ffffffffffffffffffffffffffffffffffffffff1673ffffffffffffffffffffffffffffffffffffffff1681526020018281526020019350505050602060405180830381600087803b151561364757600080fd5b5af1151561365457600080fd5b50505060405180519050151561366957600080fd5b7f4b2bcb0ca50531683faa51870e1018aa0d7272c7f2acc5399389b0c0493865d93384601054600c60003373ffffffffffffffffffffffffffffffffffffffff1673ffffffffffffffffffffffffffffffffffffffff1681526020019081526020016000206000601054815260200190815260200160002054604051808573ffffffffffffffffffffffffffffffffffffffff1673ffffffffffffffffffffffffffffffffffffffff16815260200184815260200183815260200182815260200194505050505060405180910390a16001915050919050565b6000806000600b60008673ffffffffffffffffffffffffffffffffffffffff1673ffffffffffffffffffffffffffffffffffffffff1681526020019081526020016000208481548110151561379357fe5b906000526020600020906003020160000154600b60008773ffffffffffffffffffffffffffffffffffffffff1673ffffffffffffffffffffffffffffffffffffffff168152602001908152602001600020858154811015156137f157fe5b906000526020600020906003020160010154600b60008873ffffffffffffffffffffffffffffffffffffffff1673ffffffffffffffffffffffffffffffffffffffff1681526020019081526020016000208681548110151561384f57fe5b906000526020600020906003020160020160009054906101000a900460ff169250925092509250925092565b613883615973565b6000806000600a6000878152602001908152602001600020600201600001600086815260200190815260200160002090508060010181600b015482600a0160019054906101000a900460ff16828054600181600116156101000203166002900480601f0160208091040260200160405190810160405280929190818152602001828054600181600116156101000203166002900480156139645780601f1061393957610100808354040283529160200191613964565b820191906000526020600020905b81548152906001019060200180831161394757829003601f168201915b50505050509250935093509350509250925092565b60008060008560001515600a600083815260200190815260200160002060100160009054906101000a900460ff16151514156139b457600080fd5b868660001515600a600084815260200190815260200160002060040160003373ffffffffffffffffffffffffffffffffffffffff1673ffffffffffffffffffffffffffffffffffffffff168152602001908152602001600020600101600083815260200190815260200160002060130160019054906101000a900460ff1615151415613a3f57600080fd5b888888600073ffffffffffffffffffffffffffffffffffffffff168173ffffffffffffffffffffffffffffffffffffffff161415613a7b573390505b600a600084815260200190815260200160002060040160008273ffffffffffffffffffffffffffffffffffffffff1673ffffffffffffffffffffffffffffffffffffffff168152602001908152602001600020600101600083815260200190815260200160002060130160009054906101000a900460ff1615613afd57600080fd5b8b6018600a6000838152602001908152602001600020600a015401613b206122f7565b1080613b4d5750600a6000828152602001908152602001600020600b0160009054906101000a900460ff16155b15613b5757600080fd5b600073ffffffffffffffffffffffffffffffffffffffff168b73ffffffffffffffffffffffffffffffffffffffff161415613b9057339a505b3373ffffffffffffffffffffffffffffffffffffffff168b73ffffffffffffffffffffffffffffffffffffffff1614158015613bed5750601154600a60008f8152602001908152602001600020600a015401613bea6122f7565b11155b15613bf757600080fd5b613c028d8d8d611f84565b9950600a60008e815260200190815260200160002060040160008c73ffffffffffffffffffffffffffffffffffffffff1673ffffffffffffffffffffffffffffffffffffffff16815260200190815260200160002060010160008d815260200190815260200160002060120154985060008a1415613d2657600a60008e815260200190815260200160002060040160008c73ffffffffffffffffffffffffffffffffffffffff1673ffffffffffffffffffffffffffffffffffffffff16815260200190815260200160002060010160008d8152602001908152602001600020601001549750613d07600d60008b81526020019081526020016000206003015489614ed4565b600d60008b815260200190815260200160002060030181905550613f9f565b3373ffffffffffffffffffffffffffffffffffffffff168b73ffffffffffffffffffffffffffffffffffffffff161415613e0d57613db4600c60008d73ffffffffffffffffffffffffffffffffffffffff1673ffffffffffffffffffffffffffffffffffffffff16815260200190815260200160002060008b8152602001908152602001600020548b614ed4565b600c60008d73ffffffffffffffffffffffffffffffffffffffff1673ffffffffffffffffffffffffffffffffffffffff16815260200190815260200160002060008b815260200190815260200160002081905550613f92565b613e7b600c60008d73ffffffffffffffffffffffffffffffffffffffff1673ffffffffffffffffffffffffffffffffffffffff16815260200190815260200160002060008b815260200190815260200160002054613e76613e6f60638e614f0b565b6064614f46565b614ed4565b600c60008d73ffffffffffffffffffffffffffffffffffffffff1673ffffffffffffffffffffffffffffffffffffffff16815260200190815260200160002060008b815260200190815260200160002081905550613f3d600c60008d73ffffffffffffffffffffffffffffffffffffffff1673ffffffffffffffffffffffffffffffffffffffff16815260200190815260200160002060008b815260200190815260200160002054613f38613f3160018e614f0b565b6064614f46565b614ed4565b600c60003373ffffffffffffffffffffffffffffffffffffffff1673ffffffffffffffffffffffffffffffffffffffff16815260200190815260200160002060008b8152602001908152602001600020819055505b613f9e8d8d8d8d614f5c565b5b50505050505050505050505050565b6000808280600c60003373ffffffffffffffffffffffffffffffffffffffff1673ffffffffffffffffffffffffffffffffffffffff1681526020019081526020016000206000601054815260200190815260200160002054101561401157600080fd5b8760001515600a600083815260200190815260200160002060100160009054906101000a900460ff161515141561404757600080fd5b88600a6000828152602001908152602001600020600901546140676122f7565b10151561407357600080fd5b8989600a60008381526020019081526020016000206002016000016000828152602001908152602001600020600c0160009054906101000a900460ff1615156140bb57600080fd5b89600a60008e815260200190815260200160002060020160000160008d8152602001908152602001600020600001541415156140f657600080fd5b6141028c8c8c8b6111dd565b151561410d57600080fd5b601054600a60008e81526020019081526020016000206001015414151561413357600080fd5b614153600a60008e81526020019081526020016000206006015489614ed4565b600a60008e81526020019081526020016000206006018190555061418e600a60008e8152602001908152602001600020600801546001614ed4565b600a60008e8152602001908152602001600020600801819055506141ca600d600060105481526020019081526020016000206000015489614ed4565b600d6000601054815260200190815260200160002060000181905550600a60008d815260200190815260200160002060040160003373ffffffffffffffffffffffffffffffffffffffff1673ffffffffffffffffffffffffffffffffffffffff16815260200190815260200160002060000154955061424f8c878d8c8c6010546151c4565b6142ab600c60003373ffffffffffffffffffffffffffffffffffffffff1673ffffffffffffffffffffffffffffffffffffffff168152602001908152602001600020600060105481526020019081526020016000205489614ef2565b600c60003373ffffffffffffffffffffffffffffffffffffffff1673ffffffffffffffffffffffffffffffffffffffff168152602001908152602001600020600060105481526020019081526020016000208190555061435d600c60003073ffffffffffffffffffffffffffffffffffffffff1673ffffffffffffffffffffffffffffffffffffffff168152602001908152602001600020600060105481526020019081526020016000205489614ed4565b600c60003073ffffffffffffffffffffffffffffffffffffffff1673ffffffffffffffffffffffffffffffffffffffff16815260200190815260200160002060006010548152602001908152602001600020819055507f5951a9953b1957f18ff84463d08ced1bbbd3719ce636274688c708fc1940c3a28c8c3389604051808581526020018481526020018373ffffffffffffffffffffffffffffffffffffffff1673ffffffffffffffffffffffffffffffffffffffff16815260200182815260200194505050505060405180910390a16001965050505050505095945050505050565b60105481565b600360009054906101000a900473ffffffffffffffffffffffffffffffffffffffff1673ffffffffffffffffffffffffffffffffffffffff163373ffffffffffffffffffffffffffffffffffffffff161415156144a357600080fd5b806001806101000a81548160ff02191690831515021790555050565b600e60009054906101000a900473ffffffffffffffffffffffffffffffffffffffff1681565b600080600083126144f6578261451a565b7fffffffffffffffffffffffffffffffffffffffffffffffffffffffffffffffff83025b9050600083121561454057614539614533856064614f0b565b82614f46565b915061457a565b60008313156145645761455d6145568583614f0b565b6064614f46565b915061457a565b60008314156145755783915061457a565b600091505b5092915050565b60001515600860009054906101000a900473ffffffffffffffffffffffffffffffffffffffff1673ffffffffffffffffffffffffffffffffffffffff1663b9181611336040518263ffffffff167c0100000000000000000000000000000000000000000000000000000000028152600401808273ffffffffffffffffffffffffffffffffffffffff1673ffffffffffffffffffffffffffffffffffffffff168152602001915050602060405180830381600087803b151561464157600080fd5b5af1151561464e57600080fd5b505050604051805190501515141561466557600080fd5b600660009054906101000a900473ffffffffffffffffffffffffffffffffffffffff1673ffffffffffffffffffffffffffffffffffffffff1663e7d1bb06846009546040518363ffffffff167c01000000000000000000000000000000000000000000000000000000000281526004018083815260200182815260200192505050602060405180830381600087803b15156146ff57600080fd5b5af1151561470c57600080fd5b50505060405180519050151561472157600080fd5b6000601054141561473157600080fd5b61384061473c6122f7565b0182101561474957600080fd5b6101806040519081016040528084815260200160105481526020016020604051908101604052806000815250815260200160006040518059106147895750595b908082528060200260200182016040525081526020016000815260200160008152602001600081526020018381526020018281526020016000151581526020016020604051908101604052806000815250815260200160011515815250600a6000600954815260200190815260200160002060008201518160000155602082015181600101556040820151816002016000820151816001015550506060820151816005019080519060200190614840929190615987565b506080820151816006015560a0820151816007015560c0820151816008015560e0820151816009015561010082015181600a015561012082015181600b0160006101000a81548160ff02191690831515021790555061014082015181600c016000820151816002015550506101608201518160100160006101000a81548160ff0219169083151502179055509050507fef19d64e8663a64fef07c8fdb89718dc4ff772f9474313f3f8fe16a8c68bea2560096000815480929190600101919050558484846040518085815260200184815260200183815260200182815260200194505050505060405180910390a1505050565b6000806000600a60008681526020019081526020016000206005018481548110151561495b57fe5b906000526020600020900160009054906101000a900473ffffffffffffffffffffffffffffffffffffffff16905080600a600087815260200190815260200160002060040160008373ffffffffffffffffffffffffffffffffffffffff1673ffffffffffffffffffffffffffffffffffffffff1681526020019081526020016000206000015492509250509250929050565b60008190508073ffffffffffffffffffffffffffffffffffffffff16636a6cb5406040518163ffffffff167c0100000000000000000000000000000000000000000000000000000000028152600401602060405180830381600087803b1515614a5557600080fd5b5af11515614a6257600080fd5b505050604051805190501515614a7757600080fd5b7fc8f0ecf470550f33d01ebc3a9eb6cab59a6a42540466cfe89f032c3b07b7e86982604051808273ffffffffffffffffffffffffffffffffffffffff1673ffffffffffffffffffffffffffffffffffffffff16815260200191505060405180910390a15050565b600f60009054906101000a900473ffffffffffffffffffffffffffffffffffffffff1681565b60001515600860009054906101000a900473ffffffffffffffffffffffffffffffffffffffff1673ffffffffffffffffffffffffffffffffffffffff1663b9181611336040518263ffffffff167c0100000000000000000000000000000000000000000000000000000000028152600401808273ffffffffffffffffffffffffffffffffffffffff1673ffffffffffffffffffffffffffffffffffffffff168152602001915050602060405180830381600087803b1515614bc457600080fd5b5af11515614bd157600080fd5b5050506040518051905015151415614be857600080fd5b8060118190555050565b614bfa615a11565b60001515600860009054906101000a900473ffffffffffffffffffffffffffffffffffffffff1673ffffffffffffffffffffffffffffffffffffffff1663b9181611336040518263ffffffff167c0100000000000000000000000000000000000000000000000000000000028152600401808273ffffffffffffffffffffffffffffffffffffffff1673ffffffffffffffffffffffffffffffffffffffff168152602001915050602060405180830381600087803b1515614cba57600080fd5b5af11515614cc757600080fd5b5050506040518051905015151415614cde57600080fd5b8c60001515600a600083815260200190815260200160002060100160009054906101000a900460ff1615151415614d1457600080fd5b8d600a600082815260200190815260200160002060090154614d346122f7565b101515614d4057600080fd5b600060198d811515614d4e57fe5b07141515614d5b57600080fd5b6101c0604051908101604052808981526020018f81526020018e815260200160018a14614d89576000614d8b565b8d5b815260200160018a1480614d9f575060028a145b614daa576000614dac565b8c5b815260200160018a1480614dc0575060028a145b614dcb576000614dcd565b8b5b815260200160028a14614de1576000614de3565b8a5b815260200160038a1480614df7575060048a145b614e02576000614e04565b885b815260200160038a1480614e18575060048a145b614e23576000614e25565b875b815260200160038a1480614e39575060048a145b614e44576000614e46565b865b815260200160038a1480614e5a575060048a145b614e65576000614e67565b855b15158152602001600115158152602001614e7f6122f7565b8152602001600115158152509250614e978f8461574d565b50505050505050505050505050505050565b600c602052816000526040600020602052806000526040600020600091509150505481565b60095481565b6000808284019050838110151515614ee857fe5b8091505092915050565b6000828211151515614f0057fe5b818303905092915050565b6000806000841415614f205760009150614f3f565b8284029050828482811515614f3157fe5b04141515614f3b57fe5b8091505b5092915050565b60008183811515614f5357fe5b04905092915050565b6001600a600086815260200190815260200160002060040160008473ffffffffffffffffffffffffffffffffffffffff1673ffffffffffffffffffffffffffffffffffffffff168152602001908152602001600020600101600085815260200190815260200160002060130160006101000a81548160ff021916908315150217905550614fff600a60008681526020019081526020016000206007015482614ed4565b600a60008681526020019081526020016000206007018190555061503b600d600060105481526020019081526020016000206001015482614ed4565b600d60006010548152602001908152602001600020600101819055507fb0d3225e659bd98a79f1a7c5d9856c994fb333e877947430895d9dbce8663e8784600a600087815260200190815260200160002060040160008573ffffffffffffffffffffffffffffffffffffffff1673ffffffffffffffffffffffffffffffffffffffff168152602001908152602001600020600101600086815260200190815260200160002060010154601054853373ffffffffffffffffffffffffffffffffffffffff168773ffffffffffffffffffffffffffffffffffffffff161415615123576000615125565b335b8887604051808881526020018781526020018681526020018573ffffffffffffffffffffffffffffffffffffffff1673ffffffffffffffffffffffffffffffffffffffff1681526020018473ffffffffffffffffffffffffffffffffffffffff1673ffffffffffffffffffffffffffffffffffffffff16815260200183815260200182815260200197505050505050505060405180910390a150505050565b61012060405190810160405280868152602001858152602001600a600089815260200190815260200160002060020160000160008781526020019081526020016000206101c0604051908101604052908160008201548152602001600182018054600181600116156101000203166002900480601f0160208091040260200160405190810160405280929190818152602001828054600181600116156101000203166002900480156152b75780601f1061528c576101008083540402835291602001916152b7565b820191906000526020600020905b81548152906001019060200180831161529a57829003601f168201915b505050505081526020016002820154815260200160038201548152602001600482015481526020016005820154815260200160068201548152602001600782015481526020016008820154815260200160098201548152602001600a820160009054906101000a900460ff16151515158152602001600a820160019054906101000a900460ff16151515158152602001600b8201548152602001600c820160009054906101000a900460ff16151515158152505081526020018481526020018381526020016153846122f7565b815260200182815260200160001515815260200160011515815250600a600088815260200190815260200160002060040160003373ffffffffffffffffffffffffffffffffffffffff1673ffffffffffffffffffffffffffffffffffffffff1681526020019081526020016000206001016000600a60008a815260200190815260200160002060040160003373ffffffffffffffffffffffffffffffffffffffff1673ffffffffffffffffffffffffffffffffffffffff168152602001908152602001600020600001548152602001908152602001600020600082015181600001556020820151816001015560408201518160020160008201518160000155602082015181600101908051906020019061549f929190615a8d565b5060408201518160020155606082015181600301556080820151816004015560a0820151816005015560c0820151816006015560e082015181600701556101008201518160080155610120820151816009015561014082015181600a0160006101000a81548160ff02191690831515021790555061016082015181600a0160016101000a81548160ff02191690831515021790555061018082015181600b01556101a082015181600c0160006101000a81548160ff0219169083151502179055505050606082015181600f01556080820151816010015560a0820151816011015560c0820151816012015560e08201518160130160006101000a81548160ff0219169083151502179055506101008201518160130160016101000a81548160ff02191690831515021790555090505061562f600a600088815260200190815260200160002060040160003373ffffffffffffffffffffffffffffffffffffffff1673ffffffffffffffffffffffffffffffffffffffff168152602001908152602001600020600001546001614ed4565b600a600088815260200190815260200160002060040160003373ffffffffffffffffffffffffffffffffffffffff1673ffffffffffffffffffffffffffffffffffffffff16815260200190815260200160002060000181905550600b60003373ffffffffffffffffffffffffffffffffffffffff1673ffffffffffffffffffffffffffffffffffffffff16815260200190815260200160002080548060010182816156da9190615b0d565b916000526020600020906003020160006060604051908101604052808a8152602001898152602001600115158152509091909150600082015181600001556020820151816001015560408201518160020160006101000a81548160ff021916908315150217905550505050505050505050565b600081600a60008581526020019081526020016000206002016000016000600a60008781526020019081526020016000206002016001015481526020019081526020016000206000820151816000015560208201518160010190805190602001906157b9929190615a8d565b5060408201518160020155606082015181600301556080820151816004015560a0820151816005015560c0820151816006015560e082015181600701556101008201518160080155610120820151816009015561014082015181600a0160006101000a81548160ff02191690831515021790555061016082015181600a0160016101000a81548160ff02191690831515021790555061018082015181600b01556101a082015181600c0160006101000a81548160ff021916908315150217905550905050600a6000848152602001908152602001600020600201600101600081548092919060010191905055507fbc59464ce19719ddca8e48435882f885018f2b3bc7b10461e90ce0af86dcefee836001600a60008781526020019081526020016000206002016001015401604051808381526020018281526020019250505060405180910390a16001905092915050565b6080604051908101604052806004905b600081526020019060019003908161591b5790505090565b8260048101928215615962579160200282015b82811115615961578251825591602001919060010190615946565b5b50905061596f9190615b3f565b5090565b602060405190810160405280600081525090565b828054828255906000526020600020908101928215615a00579160200282015b828111156159ff5782518260006101000a81548173ffffffffffffffffffffffffffffffffffffffff021916908373ffffffffffffffffffffffffffffffffffffffff160217905550916020019190600101906159a7565b5b509050615a0d9190615b64565b5090565b6101c06040519081016040528060008152602001615a2d615ba7565b81526020016000815260200160008152602001600081526020016000815260200160008152602001600081526020016000815260200160008152602001600015158152602001600015158152602001600081526020016000151581525090565b828054600181600116156101000203166002900490600052602060002090601f016020900481019282601f10615ace57805160ff1916838001178555615afc565b82800160010185558215615afc579182015b82811115615afb578251825591602001919060010190615ae0565b5b509050615b099190615b3f565b5090565b815481835581811511615b3a57600302816003028360005260206000209182019101615b399190615bbb565b5b505050565b615b6191905b80821115615b5d576000816000905550600101615b45565b5090565b90565b615ba491905b80821115615ba057600081816101000a81549073ffffffffffffffffffffffffffffffffffffffff021916905550600101615b6a565b5090565b90565b602060405190810160405280600081525090565b615bfb91905b80821115615bf75760008082016000905560018201600090556002820160006101000a81549060ff021916905550600301615bc1565b5090565b90565b80600360006101000a81548173ffffffffffffffffffffffffffffffffffffffff021916908373ffffffffffffffffffffffffffffffffffffffff160217905550505600a165627a7a7230582044bbe382f7204dceda658eb02947f82c27fafe88c8ead41578a4e2157c1672080029",
  "source": "pragma solidity 0.4.21;\n\nimport '../Token/ERC20.sol';\nimport '../House/House.sol';\nimport '../House/Controllers/HouseAuthorizedController.sol';\nimport './BettingProviderHelper.sol';\nimport './SportsOracle.sol';\nimport '../Libraries/SafeMath.sol';\nimport '../Libraries/TimeProvider.sol';\nimport '../House/HouseOffering.sol';\n\ncontract BettingProvider is HouseOffering, SafeMath, TimeProvider {\n\n    // Contracts\n    BettingProviderHelper bettingProviderHelper;\n\n    ERC20 decentBetToken;\n\n    SportsOracle sportsOracle;\n\n    House house;\n    HouseAuthorizedController houseAuthorizedController;\n\n    // Structs\n    struct GameOdds {\n        // Mapping of odds for this game.\n        mapping(uint => Odds) odds;\n        // Number of odds available.\n        uint oddsCount;\n    }\n\n    struct Odds {\n        // Type of odds. 1 - Spread, 2 - Moneyline, 3 - Total, 4 - Team Total\n        uint betType;\n        // Reference ID for odds.\n        string refId;\n        // Period in game.\n        uint period;\n        // Handicap multiplied by 100. A handicap of 0.25 would equate to 25. Used in spread.\n        int handicap;\n        // Team 1 odds - Used in spread, moneyline.\n        int team1;\n        // Team 2 odds - Used in spread, moneyline.\n        int team2;\n        // Draw odds - Used in spread, moneyline.\n        int draw;\n        // Points multiplied by 100. 14.5 points would equate to 1450. Used in totals/team totals.\n        uint points;\n        // Over odds. Used in totals/team totals.\n        int over;\n        // Under odds. Used in totals/team totals.\n        int under;\n        // false if team2. Used in team totals.\n        bool isTeam1;\n        // Betting provider can activate/de-activate these odds when necessary.\n        bool isActive;\n        // Previous odds updated block.\n        uint updateTime;\n        // Does odds exist in mapping\n        bool exists;\n    }\n\n    struct Outcome {\n        // Either Team1, Team2, Draw, Cancelled.\n        int result;\n        // Total Points in game.\n        uint totalPoints;\n        // Team 1 Points in game.\n        uint team1Points;\n        // Team 2 Points in game.\n        uint team2Points;\n        // Have outcomes been published?\n        bool isPublished;\n        // Block settle time.\n        uint settleTime;\n    }\n\n    struct Game {\n        // Id of game under oracle\n        uint oracleGameId;\n        // Session for this game.\n        uint session;\n        // Odds for this game.\n        GameOdds odds;\n        // Mapping of address => bettor.\n        mapping (address => Bettor) bettors;\n        // Array of bettors.\n        address[] bettorsList;\n        // Amount in bets.\n        uint betAmount;\n        // Payouts.\n        uint payouts;\n        // Number of bets.\n        uint betCount;\n        // End of betting time. Typically a short time period before start of the game.\n        uint cutOffTime;\n        // Ending game block. Claim after endTime + RESULT_OFFSET_HOURS hours.\n        uint endTime;\n        // Games may go over the posted ending time. Once it has ended, this is toggled to true.\n        bool hasEnded;\n        // Bet limits for game periods.\n        BetLimits betLimits;\n        // Outcome of game period.\n        mapping(uint => Outcome) outcomes;\n        // Toggled to true if valid game.\n        bool exists;\n    }\n\n    struct BetLimits {\n        // Bet limits for each period\n        mapping(uint => uint[4]) limits;\n        // Do limits exist for a period\n        mapping(uint => bool) exists;\n        // Max allowed bets in DBETs for a game\n        uint maxBetLimit;\n    }\n\n    struct Bettor {\n        // Bet count.\n        uint betCount;\n        // Bet linked to incremented id\n        mapping (uint => Bet) bets;\n    }\n\n    struct Bet {\n        // Incremented bet id.\n        uint id;\n        // Odds at which bet was placed.\n        uint oddsId;\n        // Odds at time of bet.\n        Odds odds;\n        // Bet choice.\n        uint choice;\n        // Amount of tokens bet.\n        uint amount;\n        // Block number at time of bet.\n        uint blockTime;\n        // Session during which bet was placed.\n        uint session;\n        // Toggled if claimed.\n        bool claimed;\n        // Toggled to true if valid bet.\n        bool exists;\n    }\n\n    struct UserBet {\n        uint gameId;\n        uint betId;\n        bool exists;\n    }\n\n    struct SessionStats {\n        uint totalBetAmount;\n        uint totalPayout;\n        uint totalDeposited;\n        uint totalProfit;\n        bool withdrawn;\n        bool exists;\n    }\n\n    // Arrays\n    uint public gamesCount;\n\n    // Mappings\n    mapping (uint => Game) games;\n\n    // Bets placed by users.\n    // userAddress => (gameId => Bet).\n    mapping (address => UserBet[]) userBets;\n\n    // Users need to deposit/withdraw tokens for a session with the provider before placing bets.\n    // These can be withdrawn at any time.\n    // mapping (userAddress => mapping (sessionNumber => amount))\n    mapping (address => mapping (uint => uint)) public depositedTokens;\n\n    // Stats for the ongoing session.\n    mapping (uint => SessionStats) public sessionStats;\n\n    // Variables\n    address public houseAddress;\n\n    address public sportsOracleAddress;\n\n    uint public currentSession;\n\n    // Result constants.\n    uint constant RESULT_OFFSET_HOURS      = 24;\n\n    int constant RESULT_TEAM1_WIN          = 1;\n\n    int constant RESULT_DRAW               = 2;\n\n    int constant RESULT_TEAM2_WIN          = 3;\n\n    int constant RESULT_CANCELLED          = -1;\n\n    // Odds Type constants.\n    uint constant ODDS_TYPE_SPREAD         = 1;\n\n    uint constant ODDS_TYPE_MONEYLINE      = 2;\n\n    uint constant ODDS_TYPE_TOTAL          = 3;\n\n    uint constant ODDS_TYPE_TEAM_TOTAL     = 4;\n\n    // Bet choice constants.\n    uint constant BET_CHOICE_TEAM1         = 1;\n\n    uint constant BET_CHOICE_DRAW          = 2;\n\n    uint constant BET_CHOICE_TEAM2         = 3;\n\n    uint constant BET_CHOICE_OVER          = 4;\n\n    uint constant BET_CHOICE_UNDER         = 5;\n\n    // Spread outcome constants.\n    uint constant SPREAD_OUTCOME_WIN       = 1;\n\n    uint constant SPREAD_OUTCOME_DRAW      = 2;\n\n    uint constant SPREAD_OUTCOME_LOSS      = 3;\n\n    uint constant SPREAD_OUTCOME_HALF_WIN  = 4;\n\n    uint constant SPREAD_OUTCOME_HALF_LOSS = 5;\n\n    // Assisted claim offset time constants.\n    uint ASSISTED_CLAIM_TIME_OFFSET       = 2 days;\n\n    // Events\n    event LogNewOracleRequest(address _address);\n\n    event LogNewGame(\n        uint id,\n        uint oracleId,\n        uint cutOffTime,\n        uint endTime\n    );\n\n    event LogNewGameOdds(\n        uint id,\n        uint oddsId\n    );\n\n    event LogUpdatedGameOdds(\n        uint id,\n        uint oddsId\n    );\n\n    event LogUpdatedBetLimits(\n        uint id,\n        uint period\n    );\n\n    event LogUpdatedMaxBet(uint id);\n\n    event LogNewBet(\n        uint gameId,\n        uint oddsId,\n        address bettor,\n        uint betId\n    );\n\n    event LogClaimedBet(\n        uint gameId,\n        uint oddsId,\n        uint session,\n        address bettor,\n        address assistedClaimant,\n        uint betId,\n        uint payout\n    );\n\n    event LogDeposit(\n        address _address,\n        uint amount,\n        uint session,\n        uint balance\n    );\n\n    event LogWithdraw(\n        address _address,\n        uint amount,\n        uint session,\n        uint balance\n    );\n\n    // Constructor.\n    function BettingProvider(\n        address decentBetTokenAddress,\n        address _houseAddress,\n        address _houseAuthorizedControllerAddress,\n        address bettingProviderHelperAddress\n    )\n    public {\n        if (decentBetTokenAddress == 0) revert();\n        if (_houseAddress == 0) revert();\n        if (_houseAuthorizedControllerAddress == 0) revert();\n        if (bettingProviderHelperAddress == 0) revert();\n\n        name = 'Betting Provider';\n        isHouseOffering = true;\n        houseAddress = _houseAddress;\n        decentBetToken = ERC20(decentBetTokenAddress);\n        house = House(houseAddress);\n        houseAuthorizedController = HouseAuthorizedController(_houseAuthorizedControllerAddress);\n        bettingProviderHelper = BettingProviderHelper(bettingProviderHelperAddress);\n\n        // If on local testRPC/testnet and need mock times\n        isMock = true;\n        setTimeController(msg.sender);\n    }\n\n    // Modifiers.\n    modifier onlyHouse() {\n        if(houseAddress != msg.sender) revert();\n        _;\n    }\n\n    modifier onlySportsOracle() {\n        if(sportsOracleAddress != msg.sender) revert();\n        _;\n    }\n\n    modifier onlyAuthorized() {\n        if (houseAuthorizedController.authorized(msg.sender) == false) revert();\n        _;\n    }\n\n    // Allows functions to be executed only if the house is in an emergency paused state\n    modifier isHouseEmergency() {\n        if(!house.emergencyPaused()) revert();\n        _;\n    }\n\n    // Allows functions to execute only if users have \"amount\" dbets in their token contract balance.\n    modifier isDbetsAvailable(uint amount) {\n        if(decentBetToken.balanceOf(msg.sender) < amount) revert();\n        _;\n    }\n\n    // Allows functions to execute only if users have \"amount\" tokens in their depositedTokens balance.\n    modifier isTokensAvailable(uint amount) {\n        if (depositedTokens[msg.sender][currentSession] < amount) revert();\n        _;\n    }\n\n    // Allows functions to execute only if game exists.\n    modifier isValidGame(uint id) {\n        if (games[id].exists == false) revert();\n        _;\n    }\n\n    // Allows functions to execute only if current block timestamp is earlier than the cutoff block timestamp.\n    modifier isBeforeGameCutoff(uint id) {\n        if (getTime() >= (games[id].cutOffTime)) revert();\n        _;\n    }\n\n    // Allows functions to execute only if a game is past end time.\n    modifier isPastGameEndTime(uint id) {\n        if (getTime() < games[id].endTime) revert();\n        _;\n    }\n\n    // Allows functions to execute only if a game is past end time and is marked as ended.\n    modifier isGameProfitsClaimable(uint id) {\n        if (getTime() < games[id].endTime + RESULT_OFFSET_HOURS ||\n        !games[id].hasEnded) revert();\n        _;\n    }\n\n    // Allows functions to execute only if a bet has been placed.\n    modifier isValidBet(uint gameId, uint betId) {\n        if (games[gameId].bettors[msg.sender].bets[betId].exists == false) revert();\n        _;\n    }\n\n    modifier isUnclaimedBet(uint gameId, uint betId, address bettor) {\n        if(bettor == address(0x0))\n            bettor = msg.sender;\n        if (games[gameId].bettors[bettor].bets[betId].claimed) revert();\n        _;\n    }\n\n    // Allows function to execute only if the odds are valid.\n    modifier isValidOdds(uint gameId, uint oddsId) {\n        if (!games[gameId].odds.odds[oddsId].exists) revert();\n        _;\n    }\n\n    // Allows functions to execute only if the session is prior or equal to current house session\n    // and if session is not 0.\n    modifier isValidPriorSession(uint session) {\n        if(session > currentSession || session == 0) revert();\n        _;\n    }\n\n    // Allows the house to set the current session.\n    function setSession(uint session)\n    public\n    onlyHouse\n    returns (bool) {\n        currentSession = session;\n        sessionStats[currentSession].exists = true;\n        return true;\n    }\n\n    // Requests a sports oracle to accept this provider.\n    function requestSportsOracle(address _address)\n    public {\n        SportsOracle _sportsOracle = SportsOracle(_address);\n        if(!_sportsOracle.requestProvider()) revert();\n        emit LogNewOracleRequest(_address);\n    }\n\n    // Sets the oracle that can set results for this provider.\n    function setSportsOracle(address _address)\n    public\n    onlyAuthorized\n    returns (bool) {\n        sportsOracleAddress = _address;\n        sportsOracle = SportsOracle(_address);\n    }\n\n    // Allows the house to add funds to the provider for this session or the next.\n    function houseDeposit(uint amount, uint session)\n    public\n    onlyHouse\n    returns (bool) {\n        // House deposits are allowed only for this session or the next.\n        if(session != currentSession && session != currentSession + 1) revert();\n\n        // Record the total number of tokens deposited into the house.\n        depositedTokens[address(this)][session] = safeAdd(depositedTokens[address(this)][session], amount);\n        sessionStats[session].totalDeposited = safeAdd(sessionStats[session].totalDeposited, amount);\n\n        // Transfer tokens from house to betting provider.\n        if(!decentBetToken.transferFrom(msg.sender, address(this), amount)) revert();\n\n        emit LogDeposit(address(this), amount, session, depositedTokens[address(this)][session]);\n        return true;\n    }\n\n    // Allows house to withdraw session tokens for the previous session.\n    function withdrawPreviousSessionTokens()\n    public\n    onlyHouse\n    returns (bool) {\n        uint previousSession = currentSession - 1;\n        if(depositedTokens[address(this)][previousSession] == 0) revert();\n        uint previousSessionTokens = depositedTokens[address(this)][previousSession];\n        depositedTokens[address(this)][previousSession] = 0;\n        if(!decentBetToken.transfer(msg.sender, previousSessionTokens)) revert();\n        return true;\n    }\n\n    // Allows house to withdraw current session tokens if the house is in an emergency pause state.\n    function emergencyWithdrawCurrentSessionTokens()\n    public\n    onlyHouse\n    isHouseEmergency\n    returns (bool) {\n        if(depositedTokens[address(this)][currentSession] == 0) revert();\n        uint currentSessionTokens = depositedTokens[address(this)][currentSession];\n        depositedTokens[address(this)][currentSession] = 0;\n        if(!decentBetToken.transfer(msg.sender, currentSessionTokens)) revert();\n        return true;\n    }\n\n    // Deposits DBET to contract for the current session.\n    // User needs to approve contract address for amount prior to calling this function.\n    function deposit(uint amount)\n    public\n    isDbetsAvailable(amount)\n    returns (bool) {\n        depositedTokens[msg.sender][currentSession] =\n        safeAdd(depositedTokens[msg.sender][currentSession], amount);\n        if(!decentBetToken.transferFrom(msg.sender, address(this), amount)) revert();\n        emit LogDeposit(msg.sender, amount, currentSession, depositedTokens[msg.sender][currentSession]);\n        return true;\n    }\n\n    // Withdraw DBETS from contract to sender address.\n    function withdraw(uint amount, uint session)\n    public\n    isValidPriorSession(session)\n    isTokensAvailable(amount)\n    returns (bool) {\n        depositedTokens[msg.sender][session] = safeSub(depositedTokens[msg.sender][session], amount);\n        if(!decentBetToken.transfer(msg.sender, amount)) revert();\n        emit LogWithdraw(msg.sender, amount, session, depositedTokens[msg.sender][session]);\n        return true;\n    }\n\n    // Query balance of deposited tokens for a user.\n    function balanceOf(address _address, uint session)\n    public\n    constant\n    returns (uint) {\n        return depositedTokens[_address][session];\n    }\n\n    // Changes assisted claim block offset.\n    function changeAssistedClaimTimeOffset (uint offset)\n    public\n    onlyAuthorized {\n        ASSISTED_CLAIM_TIME_OFFSET = offset;\n    }\n\n    // Adds a game to the contract.\n    // 800k gas.\n    function addGame(uint oracleGameId, uint cutOffTime, uint endTime)\n    public\n    onlyAuthorized {\n        // Games count serves as ID for each game pushed to the provider\n        if(!sportsOracle.addProviderGameToUpdate(oracleGameId, gamesCount)) revert();\n        // Do not allow when session is 0\n        if(currentSession == 0) revert();\n        // Games can only be added if they are a minimum of 4 hours in the future\n        if(cutOffTime < getTime() + 4 hours) revert();\n\n        games[gamesCount] = Game({\n            session: currentSession,\n            oracleGameId : oracleGameId,\n            odds : GameOdds(0),\n            bettorsList: new address[](0),\n            betAmount: 0,\n            payouts: 0,\n            betCount : 0,\n            cutOffTime : cutOffTime,\n            endTime : endTime,\n            betLimits: BetLimits({\n                maxBetLimit: 0\n                }),\n            hasEnded : false,\n            exists : true\n            });\n        emit LogNewGame(gamesCount++, oracleGameId, cutOffTime, endTime);\n    }\n\n    // Updates bet limits for a period in a game.\n    function updateGamePeriodBetLimits(uint gameId, uint period, uint[4] limits)\n    public\n    onlyAuthorized\n    isValidGame(gameId)\n    isBeforeGameCutoff(gameId) {\n        games[gameId].betLimits.limits[period] = limits;\n        games[gameId].betLimits.exists[period] = true;\n        emit LogUpdatedBetLimits(gameId, period);\n    }\n\n    function updateGameMaxBetLimit(uint gameId, uint maxBetLimit)\n    public\n    onlyAuthorized\n    isValidGame(gameId)\n    isBeforeGameCutoff(gameId) {\n        games[gameId].betLimits.maxBetLimit = maxBetLimit;\n        emit LogUpdatedMaxBet(gameId);\n    }\n\n    // Handicap and points must be multiplied by 100.\n    // 500k gas.\n    function pushGameOdds(\n        uint id,\n        string refId,\n        uint period,\n        int handicap,\n        int team1,\n        int team2,\n        int draw,\n        uint betType,\n        uint points,\n        int over,\n        int under,\n        bool isTeam1\n    )\n    public\n    onlyAuthorized\n    isValidGame(id)\n    isBeforeGameCutoff(id) {\n        if(handicap % 25 != 0) revert();\n        Odds memory odds = Odds({\n            betType: betType,\n            refId: refId,\n            period: period,\n            handicap: (betType == ODDS_TYPE_SPREAD ? handicap : 0),\n            team1: (betType == ODDS_TYPE_SPREAD || betType == ODDS_TYPE_MONEYLINE) ? team1 : 0,\n            team2: (betType == ODDS_TYPE_SPREAD || betType == ODDS_TYPE_MONEYLINE) ? team2 : 0,\n            draw: betType == ODDS_TYPE_MONEYLINE ? draw : 0,\n            points: (betType == ODDS_TYPE_TOTAL || betType == ODDS_TYPE_TEAM_TOTAL) ? points : 0,\n            over: (betType == ODDS_TYPE_TOTAL || betType == ODDS_TYPE_TEAM_TOTAL) ? over : 0,\n            under: (betType == ODDS_TYPE_TOTAL || betType == ODDS_TYPE_TEAM_TOTAL) ? under : 0,\n            isTeam1: (betType == ODDS_TYPE_TOTAL || betType == ODDS_TYPE_TEAM_TOTAL) ? isTeam1 : false,\n            isActive: true,\n            updateTime: getTime(),\n            exists: true\n            });\n        pushOdds(id, odds);\n    }\n\n    // Updates odds for a game. Until a timeout of say 300 seconds, has passed,\n    // previous odds would still be active, till new odds are enforced.\n    // 300k gas.\n    function updateGameOdds(\n        uint id,\n        uint oddsId,\n        uint betType,\n        int handicap,\n        int team1,\n        int team2,\n        int draw,\n        uint points,\n        int over,\n        int under\n    )\n    public\n    onlyAuthorized\n    isValidGame(id)\n    isBeforeGameCutoff(id) {\n        games[id].odds.odds[oddsId].betType = betType;\n        games[id].odds.odds[oddsId].handicap = handicap;\n        games[id].odds.odds[oddsId].team1 = team1;\n        games[id].odds.odds[oddsId].team2 = team2;\n        games[id].odds.odds[oddsId].draw = draw;\n        games[id].odds.odds[oddsId].points = points;\n        games[id].odds.odds[oddsId].over = over;\n        games[id].odds.odds[oddsId].under = under;\n        games[id].odds.odds[oddsId].updateTime = getTime();\n        emit LogUpdatedGameOdds(id, oddsId);\n    }\n\n    // Updates the outcome of a game.\n    function updateGameOutcome(uint id, uint period, int result, uint team1Points, uint team2Points)\n    public\n    onlySportsOracle\n    isValidGame(id)\n    isPastGameEndTime(id)\n    returns (bool updated) {\n        games[id].outcomes[period] = Outcome({\n            result: result,\n            team1Points: team1Points,\n            team2Points: team2Points,\n            totalPoints: safeAdd(team1Points, team2Points),\n            isPublished: true,\n            settleTime: getTime()\n            });\n\n        games[id].hasEnded = true;\n        return true;\n    }\n\n    // Place a bet on a game based on listed odds.\n    // 1M gas.\n    function placeBet(uint gameId, uint oddsId, uint betType, uint choice, uint amount)\n    public\n    isTokensAvailable(amount)\n    isValidGame(gameId)\n    isBeforeGameCutoff(gameId)\n    isValidOdds(gameId, oddsId)\n    returns (bool betPlaced) {\n\n        // Odds sent in function call were different from that on contract.\n        // Don't allow function call to continue.\n        if (games[gameId].odds.odds[oddsId].betType != betType) revert();\n\n        if(!isValidNewBet(gameId, oddsId, betType, amount)) revert();\n\n        // Game must be from current session.\n        if(games[gameId].session != currentSession) revert();\n\n        games[gameId].betAmount = safeAdd(games[gameId].betAmount, amount);\n        games[gameId].betCount = safeAdd(games[gameId].betCount, 1);\n\n        sessionStats[currentSession].totalBetAmount =\n        safeAdd(sessionStats[currentSession].totalBetAmount, amount);\n\n        uint betId = games[gameId].bettors[msg.sender].betCount;\n\n        // Add the bet to user bets mapping for front-end reference.\n        addNewBet(gameId, betId, oddsId, choice, amount, currentSession);\n\n        // Provider holds tokens for duration of the bet.\n        depositedTokens[msg.sender][currentSession] =\n        safeSub(depositedTokens[msg.sender][currentSession], amount);\n        depositedTokens[address(this)][currentSession] =\n        safeAdd(depositedTokens[address(this)][currentSession], amount);\n\n        emit LogNewBet(gameId, oddsId, msg.sender, betId);\n\n        return true;\n    }\n\n    function isValidNewBet(uint gameId, uint oddsId, uint betType, uint amount)\n    public\n    view\n    returns (bool) {\n        BetLimits storage betLimits = games[gameId].betLimits;\n        uint period = games[gameId].odds.odds[oddsId].period;\n\n        uint[4] storage limits = betLimits.limits[period];\n        bool exists = betLimits.exists[period];\n\n        // Amount can't be 0\n        if(amount == 0)\n            return false;\n\n        // Cannot bet more than limit for selected bet type.\n        if(!exists || (limits[betType] > 0 && limits[betType] < amount))\n            return false;\n\n        // Cannot bet if the total bet amount for the game exceeds the max bet limit\n        if(safeAdd(games[gameId].betAmount, amount) > betLimits.maxBetLimit)\n            return false;\n\n        return true;\n    }\n\n    // Split place bet into two functions to avoid stack too deep errors.\n    function addNewBet(uint gameId, uint betId, uint oddsId,\n                       uint choice, uint amount, uint session)\n    internal {\n        games[gameId].bettors[msg.sender].bets[games[gameId].bettors[msg.sender].betCount] = Bet({\n            id : betId,\n            oddsId: oddsId,\n            odds : games[gameId].odds.odds[oddsId],\n            choice: choice,\n            amount : amount,\n            blockTime: getTime(),\n            session : session,\n            exists : true,\n            claimed : false\n            });\n\n        // Iterate bet count for user.\n        games[gameId].bettors[msg.sender].betCount =\n        safeAdd(games[gameId].bettors[msg.sender].betCount, 1);\n\n        userBets[msg.sender].push(UserBet({\n            gameId: gameId,\n            betId: betId,\n            exists: true\n        }));\n    }\n\n    // Claim winnings for a bet.\n    // 780k gas.\n    function claimBet(uint gameId, uint betId, address bettor)\n    isValidGame(gameId)\n    isValidBet(gameId, betId)\n    isUnclaimedBet(gameId, betId, bettor)\n    isGameProfitsClaimable(gameId)\n    public {\n\n        if(bettor == address(0x0))\n            bettor = msg.sender;\n\n        // Assisted claims can be made only after offset time.\n        // have been passed from endTime.\n        if(bettor != msg.sender && getTime() <= games[gameId].endTime + ASSISTED_CLAIM_TIME_OFFSET) revert();\n\n        uint betReturns = getBetReturns(gameId, betId, bettor);\n        uint betSession = games[gameId].bettors[bettor].bets[betId].session;\n\n        if(betReturns == 0) {\n            uint amount = games[gameId].bettors[bettor].bets[betId].amount;\n            sessionStats[betSession].totalProfit =\n            safeAdd(sessionStats[betSession].totalProfit, amount);\n        } else {\n            if(bettor == msg.sender) {\n                depositedTokens[bettor][betSession] =\n                safeAdd(depositedTokens[bettor][betSession], betReturns);\n            } else {\n                depositedTokens[bettor][betSession] =\n                safeAdd(depositedTokens[bettor][betSession], safeDiv(safeMul(99, betReturns), 100));\n                depositedTokens[msg.sender][betSession] =\n                safeAdd(depositedTokens[bettor][betSession], safeDiv(safeMul(1, betReturns), 100));\n            }\n            recordClaimedBet(gameId, betId, bettor, betReturns);\n        }\n    }\n\n    // Record a claimed bet. Split claim bet into two functions to avoid stack too deep error.\n    function recordClaimedBet(uint gameId, uint betId, address bettor, uint betReturns)\n    internal {\n        games[gameId].bettors[bettor].bets[betId].claimed = true;\n        games[gameId].payouts =\n        safeAdd(games[gameId].payouts, betReturns);\n        sessionStats[currentSession].totalPayout =\n        safeAdd(sessionStats[currentSession].totalPayout, betReturns);\n\n        emit LogClaimedBet(gameId, games[gameId].bettors[bettor].bets[betId].oddsId,\n            currentSession, bettor,\n            (bettor != msg.sender) ? msg.sender : address(0x0), betId, betReturns);\n    }\n\n    // Internal calls\n    // Calculates returns for a bet based on the bet type.\n    function getBetReturns(uint gameId, uint betId, address bettor)\n    public\n    view\n    returns (uint) {\n\n        Bet storage bet = games[gameId].bettors[bettor].bets[betId];\n        Outcome storage outcome = games[gameId].outcomes[bet.odds.period];\n\n        uint choice = bet.choice;\n        uint amount = bet.amount;\n        Odds storage odds = bet.odds;\n        uint betType = odds.betType;\n        int handicap = odds.handicap;\n        int result = outcome.result;\n\n        if(betType == ODDS_TYPE_SPREAD) {\n\n            int teamOdds = (choice == BET_CHOICE_TEAM1 ? bet.odds.team1 :\n            bet.odds.team2);\n\n            return bettingProviderHelper.getSpreadReturns(amount, handicap,\n                outcome.team1Points, outcome.team2Points, choice, teamOdds);\n\n        } else if(betType == ODDS_TYPE_MONEYLINE) {\n\n            if(result == RESULT_TEAM1_WIN && choice == BET_CHOICE_TEAM1){\n                return safeAdd(amount, getWinnings(amount, odds.team1));\n            } else if(result == RESULT_TEAM2_WIN && choice == BET_CHOICE_TEAM2){\n                return safeAdd(amount, getWinnings(amount, odds.team2));\n            } else if(result == RESULT_DRAW && choice == BET_CHOICE_DRAW){\n                return safeAdd(amount, getWinnings(amount, odds.draw));\n            } else {\n                return 0;\n            }\n\n        } else if(betType == ODDS_TYPE_TOTAL || betType == ODDS_TYPE_TEAM_TOTAL) {\n\n            uint points = (betType == ODDS_TYPE_TOTAL ? outcome.totalPoints :\n            (odds.isTeam1 ? outcome.team1Points : outcome.team2Points));\n\n            if(safeMul(points, 100) > odds.points && choice == BET_CHOICE_OVER) {\n                return safeAdd(amount, getWinnings(amount, odds.over));\n            } else if(safeMul(points, 100) < odds.points && choice == BET_CHOICE_UNDER) {\n                return safeAdd(amount, getWinnings(amount, odds.under));\n            } else {\n                return 0;\n            }\n\n        } else {\n            revert();\n        }\n    }\n\n    // Returns the winnings based on american format odds (+100/-100)\n    function getWinnings(uint amount, int odds)\n    public\n    pure\n    returns (uint) {\n        uint absOdds = (odds < 0) ? ((uint) (odds * -1)) : ((uint) (odds));\n        if(odds < 0) {\n            // Amount / (odds/100)\n            return safeDiv(safeMul(amount, 100), absOdds);\n        } else if(odds > 0) {\n            // Amount * (odds/100)\n            return safeDiv(safeMul(amount, absOdds), 100);\n        } else if(odds == 0) {\n            return amount;\n        }\n        return 0;\n    }\n\n    // Split into an additional function to avoid stack too deep error.\n    function pushOdds(uint gameId, Odds odds)\n    internal\n    returns (bool) {\n        games[gameId].odds.odds[games[gameId].odds.oddsCount] = odds;\n        games[gameId].odds.oddsCount++;\n        emit LogNewGameOdds(gameId, games[gameId].odds.oddsCount + 1);\n        return true;\n    }\n\n    // Accessor functions for front-end accessibility.\n    function getGame(uint id)\n    public\n    view\n    returns (\n        uint oracleGameId,\n        uint session,\n        uint betAmount,\n        uint payouts,\n        uint betCount,\n        uint cutOffTime,\n        uint endTime,\n        bool hasEnded,\n        bool exists\n    ) {\n        Game storage game = games[id];\n        return (game.oracleGameId,\n        game.session,\n        game.betAmount,\n        game.payouts,\n        game.betCount,\n        game.cutOffTime,\n        game.endTime,\n        game.hasEnded,\n        game.exists);\n    }\n\n    function getGamePeriodBetLimits(uint id, uint period)\n    public\n    view\n    returns (uint[4], bool) {\n        return (games[id].betLimits.limits[period], games[id].betLimits.exists[period]);\n    }\n\n    function getGameMaxBetLimit(uint id)\n    public\n    view\n    returns (uint) {\n        return games[id].betLimits.maxBetLimit;\n    }\n\n    function getUserBets(address user, uint index)\n    public\n    view\n    returns (uint, uint, bool) {\n        return (userBets[user][index].gameId, userBets[user][index].betId, userBets[user][index].exists);\n    }\n\n    function getGameBettor(uint id, uint index)\n    public\n    view\n    returns (address, uint) {\n        address bettorAddress = games[id].bettorsList[index];\n        return (bettorAddress, games[id].bettors[bettorAddress].betCount);\n    }\n\n    function getGameBettorBet(uint gameId, address bettor, uint id)\n    public\n    view\n    returns (\n        uint oddsId,\n        uint choice,\n        uint amount,\n        uint blockTime,\n        uint session,\n        bool claimed,\n        bool exists\n    ) {\n        Bet storage bet = games[gameId].bettors[bettor].bets[id];\n        return (bet.oddsId,\n        bet.choice,\n        bet.amount,\n        bet.blockTime,\n        bet.session,\n        bet.claimed,\n        bet.exists);\n    }\n\n    function getGameBettorBetOdds(uint gameId, address bettor, uint id)\n    public\n    view\n    returns (\n        uint betType,\n        uint period,\n        int handicap,\n        int team1,\n        int team2,\n        int draw,\n        uint points,\n        int over,\n        int under,\n        bool isTeam1\n    ) {\n        Odds storage odds = games[gameId].bettors[bettor].bets[id].odds;\n        return (odds.betType,\n        odds.period,\n        odds.handicap,\n        odds.team1,\n        odds.team2,\n        odds.draw,\n        odds.points,\n        odds.over,\n        odds.under,\n        odds.isTeam1);\n    }\n\n    function getGameBettorBetOddsDetails(uint gameId, address bettor, uint id)\n    public\n    view\n    returns (\n        string refId,\n        uint updateTime,\n        bool isActive\n    ) {\n        Odds storage odds = games[gameId].bettors[bettor].bets[id].odds;\n        return (odds.refId, odds.updateTime, odds.isActive);\n    }\n\n    function getGameOddsCount(uint id)\n    public\n    view\n    returns (uint) {\n        return games[id].odds.oddsCount;\n    }\n\n    function getGameOdds(uint gameId, uint id)\n    public\n    view\n    returns (\n        uint betType,\n        uint period,\n        int handicap,\n        int team1,\n        int team2,\n        int draw,\n        uint points,\n        int over,\n        int under,\n        bool isTeam1\n    ) {\n        // games[gameId].odds.odds[games[gameId].odds.oddsCount]\n        Odds storage odds = games[gameId].odds.odds[id];\n        return (odds.betType,\n        odds.period,\n        odds.handicap,\n        odds.team1,\n        odds.team2,\n        odds.draw,\n        odds.points,\n        odds.over,\n        odds.under,\n        odds.isTeam1);\n    }\n\n    function getGameOddsDetails(uint gameId, uint id)\n    public\n    view\n    returns (\n        string refId,\n        uint updateTime,\n        bool isActive\n    ){\n        Odds storage odds = games[gameId].odds.odds[id];\n        return (odds.refId, odds.updateTime, odds.isActive);\n    }\n\n    function getGameOutcome(uint gameId, uint period)\n    public\n    view\n    returns (\n        int result,\n        uint totalPoints,\n        uint team1Points,\n        uint team2Points,\n        bool isPublished,\n        uint settleTime\n    ) {\n        Outcome storage outcome = games[gameId].outcomes[period];\n        return (outcome.result,\n        outcome.totalPoints,\n        outcome.team1Points,\n        outcome.team2Points,\n        outcome.isPublished,\n        outcome.settleTime);\n    }\n\n    // Don't allow ETH to be sent to this contract\n    function()\n    public {\n        revert();\n    }\n\n}\n",
  "sourcePath": "/srv/platform-contracts/contracts/Betting/BettingProvider.sol",
  "compiler": {
    "name": "solc",
    "version": "0.4.21+commit.dfe3193c.Emscripten.clang"
  },
  "schemaVersion": "2.0.0",
  "updatedAt": "2018-06-04T15:40:06.268Z"
}