{"contractName":"DBETVETToken","abi":[{"constant":true,"inputs":[],"name":"name","outputs":[{"name":"","type":"string"}],"payable":false,"stateMutability":"view","type":"function","signature":"0x06fdde03"},{"constant":false,"inputs":[{"name":"_spender","type":"address"},{"name":"_value","type":"uint256"}],"name":"approve","outputs":[{"name":"","type":"bool"}],"payable":false,"stateMutability":"nonpayable","type":"function","signature":"0x095ea7b3"},{"constant":true,"inputs":[],"name":"dbetTeam","outputs":[{"name":"","type":"address"}],"payable":false,"stateMutability":"view","type":"function","signature":"0x0a96fa20"},{"constant":true,"inputs":[],"name":"totalSupply","outputs":[{"name":"","type":"uint256"}],"payable":false,"stateMutability":"view","type":"function","signature":"0x18160ddd"},{"constant":false,"inputs":[{"name":"_from","type":"address"},{"name":"_to","type":"address"},{"name":"_value","type":"uint256"}],"name":"transferFrom","outputs":[{"name":"","type":"bool"}],"payable":false,"stateMutability":"nonpayable","type":"function","signature":"0x23b872dd"},{"constant":true,"inputs":[],"name":"decimals","outputs":[{"name":"","type":"uint8"}],"payable":false,"stateMutability":"view","type":"function","signature":"0x313ce567"},{"constant":false,"inputs":[{"name":"_value","type":"uint256"}],"name":"burn","outputs":[],"payable":false,"stateMutability":"nonpayable","type":"function","signature":"0x42966c68"},{"constant":false,"inputs":[{"name":"_spender","type":"address"},{"name":"_subtractedValue","type":"uint256"}],"name":"decreaseApproval","outputs":[{"name":"","type":"bool"}],"payable":false,"stateMutability":"nonpayable","type":"function","signature":"0x66188463"},{"constant":true,"inputs":[{"name":"_owner","type":"address"}],"name":"balanceOf","outputs":[{"name":"","type":"uint256"}],"payable":false,"stateMutability":"view","type":"function","signature":"0x70a08231"},{"constant":true,"inputs":[],"name":"symbol","outputs":[{"name":"","type":"string"}],"payable":false,"stateMutability":"view","type":"function","signature":"0x95d89b41"},{"constant":false,"inputs":[{"name":"_to","type":"address"},{"name":"_value","type":"uint256"}],"name":"transfer","outputs":[{"name":"","type":"bool"}],"payable":false,"stateMutability":"nonpayable","type":"function","signature":"0xa9059cbb"},{"constant":false,"inputs":[{"name":"_spender","type":"address"},{"name":"_addedValue","type":"uint256"}],"name":"increaseApproval","outputs":[{"name":"","type":"bool"}],"payable":false,"stateMutability":"nonpayable","type":"function","signature":"0xd73dd623"},{"constant":true,"inputs":[{"name":"_owner","type":"address"},{"name":"_spender","type":"address"}],"name":"allowance","outputs":[{"name":"","type":"uint256"}],"payable":false,"stateMutability":"view","type":"function","signature":"0xdd62ed3e"},{"inputs":[{"name":"_name","type":"string"},{"name":"_symbol","type":"string"},{"name":"_decimals","type":"uint8"},{"name":"_totalSupply","type":"uint256"}],"payable":false,"stateMutability":"nonpayable","type":"constructor","signature":"constructor"},{"anonymous":false,"inputs":[{"indexed":false,"name":"index","type":"uint256"},{"indexed":false,"name":"amount","type":"uint256"},{"indexed":false,"name":"_to","type":"address"}],"name":"LogGrantTokens","type":"event","signature":"0x35c59a1f21bbed549822ce6a3363effdccecb11ebefd2f4e0be6bb77b210b20c"},{"anonymous":false,"inputs":[{"indexed":true,"name":"burner","type":"address"},{"indexed":false,"name":"value","type":"uint256"}],"name":"Burn","type":"event","signature":"0xcc16f5dbb4873280815c1ee09dbd06736cffcc184412cf7a71a0fdb75d397ca5"},{"anonymous":false,"inputs":[{"indexed":true,"name":"owner","type":"address"},{"indexed":true,"name":"spender","type":"address"},{"indexed":false,"name":"value","type":"uint256"}],"name":"Approval","type":"event","signature":"0x8c5be1e5ebec7d5bd14f71427d1e84f3dd0314c0f7b2291e5b200ac8c7c3b925"},{"anonymous":false,"inputs":[{"indexed":true,"name":"from","type":"address"},{"indexed":true,"name":"to","type":"address"},{"indexed":false,"name":"value","type":"uint256"}],"name":"Transfer","type":"event","signature":"0xddf252ad1be2c89b69c2b068fc378daa952ba7f163c4a11628f55a4df523b3ef"},{"constant":false,"inputs":[{"name":"index","type":"uint256"},{"name":"_value","type":"uint256"},{"name":"_to","type":"address"}],"name":"grantTokens","outputs":[{"name":"","type":"bool"}],"payable":false,"stateMutability":"nonpayable","type":"function","signature":"0xec680c49"}],"bytecode":"0x608060405234801561001057600080fd5b50604051610d71380380610d71833981016040908152815160208084015192840151606085015192850180519095949094019390929161005591600391870190610131565b508251610069906004906020860190610131565b506005805460ff191660ff84161761010060a860020a0319166101003381029190911791829055600160a060020a0391041660009081526020819052604090208190556001546100c6908264010000000061011e8102610a481704565b600155600554604080518381529051600160a060020a03610100909304929092169130917fddf252ad1be2c89b69c2b068fc378daa952ba7f163c4a11628f55a4df523b3ef919081900360200190a3505050506101cc565b8181018281101561012b57fe5b92915050565b828054600181600116156101000203166002900490600052602060002090601f016020900481019282601f1061017257805160ff191683800117855561019f565b8280016001018555821561019f579182015b8281111561019f578251825591602001919060010190610184565b506101ab9291506101af565b5090565b6101c991905b808211156101ab57600081556001016101b5565b90565b610b96806101db6000396000f3006080604052600436106100cf5763ffffffff7c010000000000000000000000000000000000000000000000000000000060003504166306fdde0381146100d4578063095ea7b31461015e5780630a96fa201461019657806318160ddd146101c757806323b872dd146101ee578063313ce5671461021857806342966c6814610243578063661884631461025d57806370a082311461028157806395d89b41146102a2578063a9059cbb146102b7578063d73dd623146102db578063dd62ed3e146102ff578063ec680c4914610326575b600080fd5b3480156100e057600080fd5b506100e961034d565b6040805160208082528351818301528351919283929083019185019080838360005b8381101561012357818101518382015260200161010b565b50505050905090810190601f1680156101505780820380516001836020036101000a031916815260200191505b509250505060405180910390f35b34801561016a57600080fd5b50610182600160a060020a03600435166024356103db565b604080519115158252519081900360200190f35b3480156101a257600080fd5b506101ab610441565b60408051600160a060020a039092168252519081900360200190f35b3480156101d357600080fd5b506101dc610455565b60408051918252519081900360200190f35b3480156101fa57600080fd5b50610182600160a060020a036004358116906024351660443561045b565b34801561022457600080fd5b5061022d6105c0565b6040805160ff9092168252519081900360200190f35b34801561024f57600080fd5b5061025b6004356105c9565b005b34801561026957600080fd5b50610182600160a060020a03600435166024356105d6565b34801561028d57600080fd5b506101dc600160a060020a03600435166106c6565b3480156102ae57600080fd5b506100e96106e1565b3480156102c357600080fd5b50610182600160a060020a036004351660243561073c565b3480156102e757600080fd5b50610182600160a060020a036004351660243561080b565b34801561030b57600080fd5b506101dc600160a060020a03600435811690602435166108a4565b34801561033257600080fd5b50610182600435602435600160a060020a03604435166108cf565b6003805460408051602060026001851615610100026000190190941693909304601f810184900484028201840190925281815292918301828280156103d35780601f106103a8576101008083540402835291602001916103d3565b820191906000526020600020905b8154815290600101906020018083116103b657829003601f168201915b505050505081565b336000818152600260209081526040808320600160a060020a038716808552908352818420869055815186815291519394909390927f8c5be1e5ebec7d5bd14f71427d1e84f3dd0314c0f7b2291e5b200ac8c7c3b925928290030190a350600192915050565b6005546101009004600160a060020a031681565b60015490565b6000600160a060020a038316151561047257600080fd5b600160a060020a03841660009081526020819052604090205482111561049757600080fd5b600160a060020a03841660009081526002602090815260408083203384529091529020548211156104c757600080fd5b600160a060020a0384166000908152602081905260409020546104f0908363ffffffff610a3616565b600160a060020a038086166000908152602081905260408082209390935590851681522054610525908363ffffffff610a4816565b600160a060020a03808516600090815260208181526040808320949094559187168152600282528281203382529091522054610567908363ffffffff610a3616565b600160a060020a0380861660008181526002602090815260408083203384528252918290209490945580518681529051928716939192600080516020610b4b833981519152929181900390910190a35060019392505050565b60055460ff1681565b6105d33382610a5b565b50565b336000908152600260209081526040808320600160a060020a03861684529091528120548083111561062b57336000908152600260209081526040808320600160a060020a0388168452909152812055610660565b61063b818463ffffffff610a3616565b336000908152600260209081526040808320600160a060020a03891684529091529020555b336000818152600260209081526040808320600160a060020a0389168085529083529281902054815190815290519293927f8c5be1e5ebec7d5bd14f71427d1e84f3dd0314c0f7b2291e5b200ac8c7c3b925929181900390910190a35060019392505050565b600160a060020a031660009081526020819052604090205490565b6004805460408051602060026001851615610100026000190190941693909304601f810184900484028201840190925281815292918301828280156103d35780601f106103a8576101008083540402835291602001916103d3565b6000600160a060020a038316151561075357600080fd5b3360009081526020819052604090205482111561076f57600080fd5b3360009081526020819052604090205461078f908363ffffffff610a3616565b3360009081526020819052604080822092909255600160a060020a038516815220546107c1908363ffffffff610a4816565b600160a060020a03841660008181526020818152604091829020939093558051858152905191923392600080516020610b4b8339815191529281900390910190a350600192915050565b336000908152600260209081526040808320600160a060020a038616845290915281205461083f908363ffffffff610a4816565b336000818152600260209081526040808320600160a060020a0389168085529083529281902085905580519485525191937f8c5be1e5ebec7d5bd14f71427d1e84f3dd0314c0f7b2291e5b200ac8c7c3b925929081900390910190a350600192915050565b600160a060020a03918216600090815260026020908152604080832093909416825291909152205490565b6005546000906101009004600160a060020a031633146108ee57600080fd5b600160a060020a038216151561090357600080fd5b3360009081526020819052604090205483111561091f57600080fd5b60008481526006602052604090205460ff161561093b57600080fd5b3360009081526020819052604090205461095b908463ffffffff610a3616565b3360009081526020819052604080822092909255600160a060020a0384168152205461098d908463ffffffff610a4816565b600160a060020a038316600081815260208181526040808320949094558782526006815290839020805460ff191660011790558251868152925191923392600080516020610b4b833981519152929181900390910190a36040805185815260208101859052600160a060020a0384168183015290517f35c59a1f21bbed549822ce6a3363effdccecb11ebefd2f4e0be6bb77b210b20c9181900360600190a15060019392505050565b600082821115610a4257fe5b50900390565b81810182811015610a5557fe5b92915050565b600160a060020a038216600090815260208190526040902054811115610a8057600080fd5b600160a060020a038216600090815260208190526040902054610aa9908263ffffffff610a3616565b600160a060020a038316600090815260208190526040902055600154610ad5908263ffffffff610a3616565b600155604080518281529051600160a060020a038416917fcc16f5dbb4873280815c1ee09dbd06736cffcc184412cf7a71a0fdb75d397ca5919081900360200190a2604080518281529051600091600160a060020a03851691600080516020610b4b8339815191529181900360200190a350505600ddf252ad1be2c89b69c2b068fc378daa952ba7f163c4a11628f55a4df523b3efa165627a7a723058206ba939d93fea1a45d2b4527965a261421a05451f6605211eb4334da10cf6fc840029","source":"pragma solidity 0.4.24;\n\nimport './SafeMath.sol';\n\n// DBET Token contract on the VET chain\ncontract ERC20Basic {\n    function totalSupply() public view returns (uint256);\n    function balanceOf(address who) public view returns (uint256);\n    function transfer(address to, uint256 value) public returns (bool);\n    event Transfer(address indexed from, address indexed to, uint256 value);\n}\n\ncontract ERC20 is ERC20Basic {\n    function allowance(address owner, address spender)\n    public view returns (uint256);\n\n    function transferFrom(address from, address to, uint256 value)\n    public returns (bool);\n\n    function approve(address spender, uint256 value) public returns (bool);\n    event Approval(\n        address indexed owner,\n        address indexed spender,\n        uint256 value\n    );\n}\n\ncontract BasicToken is ERC20 {\n    using SafeMath for uint256;\n\n    mapping(address => uint256) balances;\n\n    uint256 totalSupply_;\n\n    /**\n    * @dev Total number of tokens in existence\n    */\n    function totalSupply() public view returns (uint256) {\n        return totalSupply_;\n    }\n\n    /**\n    * @dev Transfer token for a specified address\n    * @param _to The address to transfer to.\n    * @param _value The amount to be transferred.\n    */\n    function transfer(address _to, uint256 _value) public returns (bool) {\n        require(_to != address(0));\n        require(_value <= balances[msg.sender]);\n\n        balances[msg.sender] = balances[msg.sender].sub(_value);\n        balances[_to] = balances[_to].add(_value);\n        emit Transfer(msg.sender, _to, _value);\n        return true;\n    }\n\n    /**\n    * @dev Gets the balance of the specified address.\n    * @param _owner The address to query the the balance of.\n    * @return An uint256 representing the amount owned by the passed address.\n    */\n    function balanceOf(address _owner) public view returns (uint256) {\n        return balances[_owner];\n    }\n\n}\n\ncontract BurnableToken is BasicToken {\n\n    event Burn(address indexed burner, uint256 value);\n\n    /**\n     * @dev Burns a specific amount of tokens.\n     * @param _value The amount of token to be burned.\n     */\n    function burn(uint256 _value) public {\n        _burn(msg.sender, _value);\n    }\n\n    function _burn(address _who, uint256 _value) internal {\n        require(_value <= balances[_who]);\n        // no need to require value <= totalSupply, since that would imply the\n        // sender's balance is greater than the totalSupply, which *should* be an assertion failure\n\n        balances[_who] = balances[_who].sub(_value);\n        totalSupply_ = totalSupply_.sub(_value);\n        emit Burn(_who, _value);\n        emit Transfer(_who, address(0), _value);\n    }\n}\n\ncontract StandardToken is BurnableToken {\n\n    mapping (address => mapping (address => uint256)) internal allowed;\n\n    /**\n     * @dev Transfer tokens from one address to another\n     * @param _from address The address which you want to send tokens from\n     * @param _to address The address which you want to transfer to\n     * @param _value uint256 the amount of tokens to be transferred\n     */\n    function transferFrom(\n        address _from,\n        address _to,\n        uint256 _value\n    )\n    public\n    returns (bool)\n    {\n        require(_to != address(0));\n        require(_value <= balances[_from]);\n        require(_value <= allowed[_from][msg.sender]);\n\n        balances[_from] = balances[_from].sub(_value);\n        balances[_to] = balances[_to].add(_value);\n        allowed[_from][msg.sender] = allowed[_from][msg.sender].sub(_value);\n        emit Transfer(_from, _to, _value);\n        return true;\n    }\n\n    /**\n     * @dev Approve the passed address to spend the specified amount of tokens on behalf of msg.sender.\n     * Beware that changing an allowance with this method brings the risk that someone may use both the old\n     * and the new allowance by unfortunate transaction ordering. One possible solution to mitigate this\n     * race condition is to first reduce the spender's allowance to 0 and set the desired value afterwards:\n     * https://github.com/ethereum/EIPs/issues/20#issuecomment-263524729\n     * @param _spender The address which will spend the funds.\n     * @param _value The amount of tokens to be spent.\n     */\n    function approve(address _spender, uint256 _value) public returns (bool) {\n        allowed[msg.sender][_spender] = _value;\n        emit Approval(msg.sender, _spender, _value);\n        return true;\n    }\n\n    /**\n     * @dev Function to check the amount of tokens that an owner allowed to a spender.\n     * @param _owner address The address which owns the funds.\n     * @param _spender address The address which will spend the funds.\n     * @return A uint256 specifying the amount of tokens still available for the spender.\n     */\n    function allowance(\n        address _owner,\n        address _spender\n    )\n    public\n    view\n    returns (uint256)\n    {\n        return allowed[_owner][_spender];\n    }\n\n    /**\n     * @dev Increase the amount of tokens that an owner allowed to a spender.\n     * approve should be called when allowed[_spender] == 0. To increment\n     * allowed value is better to use this function to avoid 2 calls (and wait until\n     * the first transaction is mined)\n     * From MonolithDAO Token.sol\n     * @param _spender The address which will spend the funds.\n     * @param _addedValue The amount of tokens to increase the allowance by.\n     */\n    function increaseApproval(\n        address _spender,\n        uint256 _addedValue\n    )\n    public\n    returns (bool)\n    {\n        allowed[msg.sender][_spender] = (\n        allowed[msg.sender][_spender].add(_addedValue));\n        emit Approval(msg.sender, _spender, allowed[msg.sender][_spender]);\n        return true;\n    }\n\n    /**\n     * @dev Decrease the amount of tokens that an owner allowed to a spender.\n     * approve should be called when allowed[_spender] == 0. To decrement\n     * allowed value is better to use this function to avoid 2 calls (and wait until\n     * the first transaction is mined)\n     * From MonolithDAO Token.sol\n     * @param _spender The address which will spend the funds.\n     * @param _subtractedValue The amount of tokens to decrease the allowance by.\n     */\n    function decreaseApproval(\n        address _spender,\n        uint256 _subtractedValue\n    )\n    public\n    returns (bool)\n    {\n        uint256 oldValue = allowed[msg.sender][_spender];\n        if (_subtractedValue > oldValue) {\n            allowed[msg.sender][_spender] = 0;\n        } else {\n            allowed[msg.sender][_spender] = oldValue.sub(_subtractedValue);\n        }\n        emit Approval(msg.sender, _spender, allowed[msg.sender][_spender]);\n        return true;\n    }\n\n}\n\ncontract DBETVETToken is StandardToken {\n\n    string public name;\n    string public symbol;\n    uint8 public decimals;\n\n    address public dbetTeam;\n    mapping(uint256 => bool) tokenGrants;\n\n    event LogGrantTokens(uint256 index, uint256 amount, address _to);\n\n    constructor(string _name, string _symbol, uint8 _decimals, uint256 _totalSupply) public {\n        name = _name;\n        symbol = _symbol;\n        decimals = _decimals;\n\n        dbetTeam = msg.sender;\n        balances[dbetTeam] = _totalSupply;\n        totalSupply_ = totalSupply_.add(_totalSupply);\n        emit Transfer(address(this), dbetTeam, _totalSupply);\n    }\n\n    function grantTokens(uint256 index, uint256 _value, address _to)\n    public returns (bool) {\n        // Only DBET team address can grant tokens\n        require(msg.sender == dbetTeam);\n\n        require(_to != address(0));\n        require(_value <= balances[msg.sender]);\n\n        // Cannot grant for same index twice\n        require(!tokenGrants[index]);\n\n        // Grant tokens to address\n        balances[msg.sender] = balances[msg.sender].sub(_value);\n        balances[_to] = balances[_to].add(_value);\n\n        // Mark index as granted\n        tokenGrants[index] = true;\n\n        emit Transfer(msg.sender, _to, _value);\n        emit LogGrantTokens(index, _value, _to);\n        return true;\n    }\n\n}\n","sourcePath":"contracts/TokenMigration/DBETVETToken.sol","compiler":{"name":"solc","version":"0.4.24+commit.e67f0147.Emscripten.clang"},"schemaVersion":"2.0.1","updatedAt":"2018-07-30T16:23:33.700Z","chain_tags":{"0xc7":{"address":"0x3b8B42A2ba0F32BeD4B24Dc6F8c942AE2D7621Ac"}}}