{"contractName":"DBETToVETDeposit","abi":[{"constant":true,"inputs":[],"name":"dbetTeam","outputs":[{"name":"","type":"address"}],"payable":false,"stateMutability":"view","type":"function","signature":"0x0a96fa20"},{"constant":true,"inputs":[],"name":"emergencyWithdrawalsEnabled","outputs":[{"name":"","type":"bool"}],"payable":false,"stateMutability":"view","type":"function","signature":"0x27516075"},{"constant":true,"inputs":[{"name":"","type":"bool"},{"name":"","type":"address"}],"name":"depositedTokens","outputs":[{"name":"","type":"uint256"}],"payable":false,"stateMutability":"view","type":"function","signature":"0x5b18e4a3"},{"constant":true,"inputs":[],"name":"depositIndex","outputs":[{"name":"","type":"uint256"}],"payable":false,"stateMutability":"view","type":"function","signature":"0x7b898939"},{"constant":true,"inputs":[],"name":"dbetV2","outputs":[{"name":"","type":"address"}],"payable":false,"stateMutability":"view","type":"function","signature":"0x95f37d3f"},{"constant":true,"inputs":[],"name":"dbetV1","outputs":[{"name":"","type":"address"}],"payable":false,"stateMutability":"view","type":"function","signature":"0xac1258f6"},{"constant":true,"inputs":[],"name":"finalizedDeposits","outputs":[{"name":"","type":"bool"}],"payable":false,"stateMutability":"view","type":"function","signature":"0xccebac8b"},{"inputs":[{"name":"v1","type":"address"},{"name":"v2","type":"address"}],"payable":false,"stateMutability":"nonpayable","type":"constructor","signature":"constructor"},{"anonymous":false,"inputs":[{"indexed":false,"name":"isV2","type":"bool"},{"indexed":false,"name":"_address","type":"address"},{"indexed":false,"name":"amount","type":"uint256"},{"indexed":false,"name":"index","type":"uint256"}],"name":"LogTokenDeposit","type":"event","signature":"0x0893b5a577d04b273f18e86ea645cd5d0cbdf63fd19418a0cd5cc40c846cb230"},{"anonymous":false,"inputs":[{"indexed":false,"name":"isV2","type":"bool"},{"indexed":false,"name":"_address","type":"address"},{"indexed":false,"name":"amount","type":"uint256"}],"name":"LogEmergencyWithdraw","type":"event","signature":"0xdd31cf8f28da0af3a044406f460023ca1f166b5d7781d385ad9d9ed2190c9be5"},{"constant":false,"inputs":[{"name":"isV2","type":"bool"},{"name":"amount","type":"uint256"}],"name":"depositTokens","outputs":[],"payable":false,"stateMutability":"nonpayable","type":"function","signature":"0x6ce068f0"},{"constant":false,"inputs":[],"name":"enableEmergencyWithdrawals","outputs":[],"payable":false,"stateMutability":"nonpayable","type":"function","signature":"0x303b069f"},{"constant":false,"inputs":[],"name":"finalizeDeposits","outputs":[],"payable":false,"stateMutability":"nonpayable","type":"function","signature":"0xffc85dc5"},{"constant":false,"inputs":[{"name":"isV2","type":"bool"}],"name":"emergencyWithdraw","outputs":[],"payable":false,"stateMutability":"nonpayable","type":"function","signature":"0x5c12f040"}],"bytecode":"0x608060405234801561001057600080fd5b5060405160408061081b83398101604052805160209091015160008054600160a060020a0319908116331790915560018054600160a060020a03948516908316179055600280549390921692169190911790556107a9806100726000396000f3006080604052600436106100955763ffffffff60e060020a6000350416630a96fa20811461009a57806327516075146100cb578063303b069f146100f45780635b18e4a31461010b5780635c12f040146101435780636ce068f01461015d5780637b8989391461017a57806395f37d3f1461018f578063ac1258f6146101a4578063ccebac8b146101b9578063ffc85dc5146101ce575b600080fd5b3480156100a657600080fd5b506100af6101e3565b60408051600160a060020a039092168252519081900360200190f35b3480156100d757600080fd5b506100e06101f2565b604080519115158252519081900360200190f35b34801561010057600080fd5b50610109610213565b005b34801561011757600080fd5b506101316004351515600160a060020a0360243516610261565b60408051918252519081900360200190f35b34801561014f57600080fd5b50610109600435151561027e565b34801561016957600080fd5b506101096004351515602435610402565b34801561018657600080fd5b506101316106a7565b34801561019b57600080fd5b506100af6106ad565b3480156101b057600080fd5b506100af6106bc565b3480156101c557600080fd5b506100e06106cb565b3480156101da57600080fd5b506101096106ed565b600054600160a060020a031681565b60025474010000000000000000000000000000000000000000900460ff1681565b600054600160a060020a0316331461022a57600080fd5b6002805474ff0000000000000000000000000000000000000000191674010000000000000000000000000000000000000000179055565b600460209081526000928352604080842090915290825290205481565b60025460009074010000000000000000000000000000000000000000900460ff1680156102c757506002547501000000000000000000000000000000000000000000900460ff16155b15156102d257600080fd5b8115156000908152600460209081526040808320338452909152812054116102f957600080fd5b508015156000908152600460209081526040808320338452909152812080549190556103248261073d565b600160a060020a031663a9059cbb33836040518363ffffffff1660e060020a0281526004018083600160a060020a0316600160a060020a0316815260200182815260200192505050602060405180830381600087803b15801561038657600080fd5b505af115801561039a573d6000803e3d6000fd5b505050506040513d60208110156103b057600080fd5b505115156103bd57600080fd5b60408051831515815233602082015280820183905290517fdd31cf8f28da0af3a044406f460023ca1f166b5d7781d385ad9d9ed2190c9be59181900360600190a15050565b6000811161040f57600080fd5b806104198361073d565b600160a060020a03166370a08231336040518263ffffffff1660e060020a0281526004018082600160a060020a0316600160a060020a03168152602001915050602060405180830381600087803b15801561047357600080fd5b505af1158015610487573d6000803e3d6000fd5b505050506040513d602081101561049d57600080fd5b505110156104aa57600080fd5b806104b48361073d565b604080517fdd62ed3e0000000000000000000000000000000000000000000000000000000081523360048201523060248201529051600160a060020a03929092169163dd62ed3e916044808201926020929091908290030181600087803b15801561051e57600080fd5b505af1158015610532573d6000803e3d6000fd5b505050506040513d602081101561054857600080fd5b5051101561055557600080fd5b8115156000908152600460209081526040808320338452909152902054610582908263ffffffff61076a16565b82151560009081526004602090815260408083203384529091529020556105a88261073d565b604080517f23b872dd000000000000000000000000000000000000000000000000000000008152336004820152306024820152604481018490529051600160a060020a0392909216916323b872dd916064808201926020929091908290030181600087803b15801561061957600080fd5b505af115801561062d573d6000803e3d6000fd5b505050506040513d602081101561064357600080fd5b5051151561065057600080fd5b60038054600181019091556040805184151581523360208201528082018490526060810192909252517f0893b5a577d04b273f18e86ea645cd5d0cbdf63fd19418a0cd5cc40c846cb2309181900360800190a15050565b60035481565b600254600160a060020a031681565b600154600160a060020a031681565b6002547501000000000000000000000000000000000000000000900460ff1681565b600054600160a060020a0316331461070457600080fd5b6002805475ff00000000000000000000000000000000000000000019167501000000000000000000000000000000000000000000179055565b600081156107575750600254600160a060020a0316610765565b50600154600160a060020a03165b919050565b8181018281101561077757fe5b929150505600a165627a7a7230582095880ec8b88a96d0edd8a59b52ef1d39014526aac7e15d75e5e7a5468cabe0100029","source":"pragma solidity 0.4.24;\n\nimport './SafeMath.sol';\n\n// Intermediate deposit contract for DBET V1 and V2 tokens.\n// Token holders send tokens to this contract to in-turn receive DBET tokens on VET.\ncontract ERC20Basic {\n    function totalSupply() public view returns (uint256);\n\n    function balanceOf(address who) public view returns (uint256);\n\n    function transfer(address to, uint256 value) public returns (bool);\n\n    event Transfer(address indexed from, address indexed to, uint256 value);\n}\n\ncontract ERC20 is ERC20Basic {\n    function allowance(address owner, address spender)\n    public view returns (uint256);\n\n    function transferFrom(address from, address to, uint256 value)\n    public returns (bool);\n\n    function approve(address spender, uint256 value) public returns (bool);\n\n    event Approval(\n        address indexed owner,\n        address indexed spender,\n        uint256 value\n    );\n}\n\ncontract DBETToVETDeposit {\n\n    using SafeMath for uint256;\n\n    // DBET team address\n    address public dbetTeam;\n    // DBET V1 token contract\n    ERC20 public dbetV1;\n    // DBET V2 token contract\n    ERC20 public dbetV2;\n\n    // Emergency withdrawals incase something goes wrong\n    bool public emergencyWithdrawalsEnabled;\n    // If deposits are finalized, emergency withdrawals will cease to work\n    bool public finalizedDeposits;\n    // Number of deposits made\n    uint256 public depositIndex;\n\n    // Mapping of tokens deposited by addresses\n    // isV2 => (address => amount)\n    mapping(bool => mapping(address => uint256)) public depositedTokens;\n\n    event LogTokenDeposit(bool isV2, address _address, uint256 amount, uint256 index);\n    event LogEmergencyWithdraw(bool isV2, address _address, uint256 amount);\n\n    constructor(address v1, address v2) public {\n        dbetTeam = msg.sender;\n        dbetV1 = ERC20(v1);\n        dbetV2 = ERC20(v2);\n    }\n\n    modifier isDbetTeam() {\n        require(msg.sender == dbetTeam);\n        _;\n    }\n\n    modifier areWithdrawalsEnabled() {\n        require(emergencyWithdrawalsEnabled && !finalizedDeposits);\n        _;\n    }\n\n    // Returns the appropriate token contract\n    function getToken(bool isV2) internal returns (ERC20) {\n        if (isV2)\n            return dbetV2;\n        else\n            return dbetV1;\n    }\n\n    // Deposit V1/V2 tokens into the contract\n    function depositTokens(\n        bool isV2,\n        uint256 amount\n    )\n    public {\n        require(amount > 0);\n        require(getToken(isV2).balanceOf(msg.sender) >= amount);\n        require(getToken(isV2).allowance(msg.sender, address(this)) >= amount);\n\n        depositedTokens[isV2][msg.sender] = depositedTokens[isV2][msg.sender].add(amount);\n\n        require(getToken(isV2).transferFrom(msg.sender, address(this), amount));\n\n        emit LogTokenDeposit(isV2, msg.sender, amount, depositIndex++);\n    }\n\n    function enableEmergencyWithdrawals () public\n    isDbetTeam {\n        emergencyWithdrawalsEnabled = true;\n    }\n\n    function finalizeDeposits () public\n    isDbetTeam {\n        finalizedDeposits = true;\n    }\n\n    // Withdraw deposited tokens if emergency withdrawals have been enabled\n    function emergencyWithdraw(bool isV2) public\n    areWithdrawalsEnabled {\n        require(depositedTokens[isV2][msg.sender] > 0);\n\n        uint256 amount = depositedTokens[isV2][msg.sender];\n\n        depositedTokens[isV2][msg.sender] = 0;\n\n        require(getToken(isV2).transfer(msg.sender, amount));\n\n        emit LogEmergencyWithdraw(isV2, msg.sender, amount);\n    }\n\n}\n","sourcePath":"contracts/TokenMigration/DBETToVETDeposit.sol","compiler":{"name":"solc","version":"0.4.24+commit.e67f0147.Emscripten.clang"},"schemaVersion":"2.0.1","updatedAt":"2018-07-30T16:23:33.678Z","chain_tags":{"0xc7":{"address":"0x0d0a74a52641FaC7E38845478Da03f53F1d4d128"}}}