{
  "contractName": "EmergencyOptions",
  "abi": [
    {
      "constant": true,
      "inputs": [],
      "name": "emergencyWithdrawalsEnabled",
      "outputs": [
        {
          "name": "",
          "type": "bool"
        }
      ],
      "payable": false,
      "stateMutability": "view",
      "type": "function"
    },
    {
      "constant": true,
      "inputs": [],
      "name": "emergencyPaused",
      "outputs": [
        {
          "name": "",
          "type": "bool"
        }
      ],
      "payable": false,
      "stateMutability": "view",
      "type": "function"
    },
    {
      "constant": true,
      "inputs": [],
      "name": "emergencyController",
      "outputs": [
        {
          "name": "",
          "type": "address"
        }
      ],
      "payable": false,
      "stateMutability": "view",
      "type": "function"
    },
    {
      "inputs": [],
      "payable": false,
      "stateMutability": "nonpayable",
      "type": "constructor"
    },
    {
      "constant": false,
      "inputs": [
        {
          "name": "_emergencyController",
          "type": "address"
        }
      ],
      "name": "setEmergencyController",
      "outputs": [],
      "payable": false,
      "stateMutability": "nonpayable",
      "type": "function"
    },
    {
      "constant": false,
      "inputs": [],
      "name": "emergencyPause",
      "outputs": [],
      "payable": false,
      "stateMutability": "nonpayable",
      "type": "function"
    },
    {
      "constant": false,
      "inputs": [],
      "name": "emergencyUnPause",
      "outputs": [],
      "payable": false,
      "stateMutability": "nonpayable",
      "type": "function"
    },
    {
      "constant": false,
      "inputs": [],
      "name": "enableEmergencyWithdrawals",
      "outputs": [],
      "payable": false,
      "stateMutability": "nonpayable",
      "type": "function"
    },
    {
      "constant": false,
      "inputs": [],
      "name": "disableEmergencyWithdrawals",
      "outputs": [],
      "payable": false,
      "stateMutability": "nonpayable",
      "type": "function"
    }
  ],
  "bytecode": "0x6060604052341561000f57600080fd5b336000806101000a81548173ffffffffffffffffffffffffffffffffffffffff021916908373ffffffffffffffffffffffffffffffffffffffff1602179055506104f78061005e6000396000f30060606040526004361061008e576000357c0100000000000000000000000000000000000000000000000000000000900463ffffffff168063275160751461009357806327c830a9146100c0578063303b069f146100ed57806351858e27146101025780636300a5e2146101175780636736d5801461012c5780636ca7dc89146101415780637a936beb1461017a575b600080fd5b341561009e57600080fd5b6100a66101cf565b604051808215151515815260200191505060405180910390f35b34156100cb57600080fd5b6100d36101e2565b604051808215151515815260200191505060405180910390f35b34156100f857600080fd5b6101006101f5565b005b341561010d57600080fd5b610115610288565b005b341561012257600080fd5b61012a610300565b005b341561013757600080fd5b61013f610377565b005b341561014c57600080fd5b610178600480803573ffffffffffffffffffffffffffffffffffffffff16906020019091905050610408565b005b341561018557600080fd5b61018d6104a6565b604051808273ffffffffffffffffffffffffffffffffffffffff1673ffffffffffffffffffffffffffffffffffffffff16815260200191505060405180910390f35b600060159054906101000a900460ff1681565b600060149054906101000a900460ff1681565b600060149054906101000a900460ff16151561021057600080fd5b6000809054906101000a900473ffffffffffffffffffffffffffffffffffffffff1673ffffffffffffffffffffffffffffffffffffffff163373ffffffffffffffffffffffffffffffffffffffff1614151561026b57600080fd5b6001600060156101000a81548160ff021916908315150217905550565b6000809054906101000a900473ffffffffffffffffffffffffffffffffffffffff1673ffffffffffffffffffffffffffffffffffffffff163373ffffffffffffffffffffffffffffffffffffffff161415156102e357600080fd5b6001600060146101000a81548160ff021916908315150217905550565b6000809054906101000a900473ffffffffffffffffffffffffffffffffffffffff1673ffffffffffffffffffffffffffffffffffffffff163373ffffffffffffffffffffffffffffffffffffffff1614151561035b57600080fd5b60008060156101000a81548160ff021916908315150217905550565b6000809054906101000a900473ffffffffffffffffffffffffffffffffffffffff1673ffffffffffffffffffffffffffffffffffffffff163373ffffffffffffffffffffffffffffffffffffffff161415156103d257600080fd5b60008060146101000a81548160ff02191690831515021790555060008060156101000a81548160ff021916908315150217905550565b6000809054906101000a900473ffffffffffffffffffffffffffffffffffffffff1673ffffffffffffffffffffffffffffffffffffffff163373ffffffffffffffffffffffffffffffffffffffff1614151561046357600080fd5b806000806101000a81548173ffffffffffffffffffffffffffffffffffffffff021916908373ffffffffffffffffffffffffffffffffffffffff16021790555050565b6000809054906101000a900473ffffffffffffffffffffffffffffffffffffffff16815600a165627a7a723058200c08344c6ba471d94d27ddbf2136d2eb5f26fca371a1bed2fabb8cba96225b4f0029",
  "source": "pragma solidity 0.4.21;\n\n// Adds emergency features to parent contracts\ncontract EmergencyOptions {\n\n    address public emergencyController;\n    bool public emergencyPaused;\n    bool public emergencyWithdrawalsEnabled;\n\n    modifier isEmergencyPaused() {\n        require(emergencyPaused);\n        _;\n    }\n\n    modifier isNotEmergencyPaused() {\n        require(!emergencyPaused);\n        _;\n    }\n\n    modifier isEmergencyWithdrawalsEnabled() {\n        require(emergencyWithdrawalsEnabled);\n        _;\n    }\n\n    modifier onlyEmergencyController() {\n        require(msg.sender == emergencyController);\n        _;\n    }\n\n    function EmergencyOptions() public {\n        emergencyController = msg.sender;\n    }\n\n    function setEmergencyController(address _emergencyController)\n    onlyEmergencyController\n    public {\n        emergencyController = _emergencyController;\n    }\n\n    function emergencyPause()\n    onlyEmergencyController\n    public {\n        emergencyPaused = true;\n    }\n\n    function emergencyUnPause()\n    onlyEmergencyController\n    public {\n        emergencyPaused = false;\n        emergencyWithdrawalsEnabled = false;\n    }\n\n    function enableEmergencyWithdrawals()\n    isEmergencyPaused\n    onlyEmergencyController\n    public {\n        emergencyWithdrawalsEnabled = true;\n    }\n\n    function disableEmergencyWithdrawals()\n    onlyEmergencyController\n    public {\n        emergencyWithdrawalsEnabled = false;\n    }\n\n}\n",
  "sourcePath": "/srv/platform-contracts/contracts/Libraries/EmergencyOptions.sol",
  "compiler": {
    "name": "solc",
    "version": "0.4.21+commit.dfe3193c.Emscripten.clang"
  },
  "schemaVersion": "2.0.0",
  "updatedAt": "2018-06-04T15:39:44.698Z"
}