{
  "contractName": "House",
  "abi": [
    {
      "constant": true,
      "inputs": [],
      "name": "timeController",
      "outputs": [
        {
          "name": "",
          "type": "address"
        }
      ],
      "payable": false,
      "stateMutability": "view",
      "type": "function"
    },
    {
      "constant": true,
      "inputs": [],
      "name": "emergencyWithdrawalsEnabled",
      "outputs": [
        {
          "name": "",
          "type": "bool"
        }
      ],
      "payable": false,
      "stateMutability": "view",
      "type": "function"
    },
    {
      "constant": true,
      "inputs": [],
      "name": "emergencyPaused",
      "outputs": [
        {
          "name": "",
          "type": "bool"
        }
      ],
      "payable": false,
      "stateMutability": "view",
      "type": "function"
    },
    {
      "constant": true,
      "inputs": [],
      "name": "isMock",
      "outputs": [
        {
          "name": "",
          "type": "bool"
        }
      ],
      "payable": false,
      "stateMutability": "view",
      "type": "function"
    },
    {
      "constant": false,
      "inputs": [],
      "name": "enableEmergencyWithdrawals",
      "outputs": [],
      "payable": false,
      "stateMutability": "nonpayable",
      "type": "function"
    },
    {
      "constant": false,
      "inputs": [
        {
          "name": "time",
          "type": "uint256"
        }
      ],
      "name": "setTime",
      "outputs": [],
      "payable": false,
      "stateMutability": "nonpayable",
      "type": "function"
    },
    {
      "constant": true,
      "inputs": [],
      "name": "founder",
      "outputs": [
        {
          "name": "",
          "type": "address"
        }
      ],
      "payable": false,
      "stateMutability": "view",
      "type": "function"
    },
    {
      "constant": false,
      "inputs": [],
      "name": "emergencyPause",
      "outputs": [],
      "payable": false,
      "stateMutability": "nonpayable",
      "type": "function"
    },
    {
      "constant": true,
      "inputs": [],
      "name": "getTime",
      "outputs": [
        {
          "name": "",
          "type": "uint256"
        }
      ],
      "payable": false,
      "stateMutability": "view",
      "type": "function"
    },
    {
      "constant": false,
      "inputs": [],
      "name": "disableEmergencyWithdrawals",
      "outputs": [],
      "payable": false,
      "stateMutability": "nonpayable",
      "type": "function"
    },
    {
      "constant": false,
      "inputs": [],
      "name": "emergencyUnPause",
      "outputs": [],
      "payable": false,
      "stateMutability": "nonpayable",
      "type": "function"
    },
    {
      "constant": false,
      "inputs": [
        {
          "name": "_emergencyController",
          "type": "address"
        }
      ],
      "name": "setEmergencyController",
      "outputs": [],
      "payable": false,
      "stateMutability": "nonpayable",
      "type": "function"
    },
    {
      "constant": true,
      "inputs": [],
      "name": "emergencyController",
      "outputs": [
        {
          "name": "",
          "type": "address"
        }
      ],
      "payable": false,
      "stateMutability": "view",
      "type": "function"
    },
    {
      "constant": true,
      "inputs": [],
      "name": "decentBetToken",
      "outputs": [
        {
          "name": "",
          "type": "address"
        }
      ],
      "payable": false,
      "stateMutability": "view",
      "type": "function"
    },
    {
      "constant": true,
      "inputs": [],
      "name": "currentSession",
      "outputs": [
        {
          "name": "",
          "type": "uint256"
        }
      ],
      "payable": false,
      "stateMutability": "view",
      "type": "function"
    },
    {
      "constant": false,
      "inputs": [
        {
          "name": "_isMock",
          "type": "bool"
        }
      ],
      "name": "toggleMockTime",
      "outputs": [],
      "payable": false,
      "stateMutability": "nonpayable",
      "type": "function"
    },
    {
      "constant": true,
      "inputs": [],
      "name": "houseLotteryController",
      "outputs": [
        {
          "name": "",
          "type": "address"
        }
      ],
      "payable": false,
      "stateMutability": "view",
      "type": "function"
    },
    {
      "constant": true,
      "inputs": [],
      "name": "sessionZeroStartTime",
      "outputs": [
        {
          "name": "",
          "type": "uint256"
        }
      ],
      "payable": false,
      "stateMutability": "view",
      "type": "function"
    },
    {
      "inputs": [
        {
          "name": "decentBetTokenAddress",
          "type": "address"
        },
        {
          "name": "kycManagerAddress",
          "type": "address"
        }
      ],
      "payable": false,
      "stateMutability": "nonpayable",
      "type": "constructor"
    },
    {
      "payable": false,
      "stateMutability": "nonpayable",
      "type": "fallback"
    },
    {
      "anonymous": false,
      "inputs": [
        {
          "indexed": false,
          "name": "creditHolder",
          "type": "address"
        },
        {
          "indexed": false,
          "name": "session",
          "type": "uint256"
        },
        {
          "indexed": false,
          "name": "amount",
          "type": "uint256"
        },
        {
          "indexed": false,
          "name": "balance",
          "type": "uint256"
        }
      ],
      "name": "LogPurchasedCredits",
      "type": "event"
    },
    {
      "anonymous": false,
      "inputs": [
        {
          "indexed": false,
          "name": "creditHolder",
          "type": "address"
        },
        {
          "indexed": false,
          "name": "session",
          "type": "uint256"
        },
        {
          "indexed": false,
          "name": "amount",
          "type": "uint256"
        },
        {
          "indexed": false,
          "name": "payout",
          "type": "uint256"
        }
      ],
      "name": "LogLiquidateCredits",
      "type": "event"
    },
    {
      "anonymous": false,
      "inputs": [
        {
          "indexed": false,
          "name": "creditHolder",
          "type": "address"
        },
        {
          "indexed": false,
          "name": "session",
          "type": "uint256"
        },
        {
          "indexed": false,
          "name": "amount",
          "type": "uint256"
        }
      ],
      "name": "LogRolledOverCredits",
      "type": "event"
    },
    {
      "anonymous": false,
      "inputs": [
        {
          "indexed": false,
          "name": "creditHolder",
          "type": "address"
        },
        {
          "indexed": false,
          "name": "session",
          "type": "uint256"
        },
        {
          "indexed": false,
          "name": "rolledOver",
          "type": "uint256"
        },
        {
          "indexed": false,
          "name": "adjusted",
          "type": "uint256"
        },
        {
          "indexed": false,
          "name": "creditsForCurrentSession",
          "type": "uint256"
        }
      ],
      "name": "LogClaimRolledOverCredits",
      "type": "event"
    },
    {
      "anonymous": false,
      "inputs": [
        {
          "indexed": false,
          "name": "session",
          "type": "uint256"
        },
        {
          "indexed": false,
          "name": "startTimestamp",
          "type": "uint256"
        },
        {
          "indexed": false,
          "name": "startBlockNumber",
          "type": "uint256"
        },
        {
          "indexed": false,
          "name": "endTimestamp",
          "type": "uint256"
        },
        {
          "indexed": false,
          "name": "endBlockNumber",
          "type": "uint256"
        }
      ],
      "name": "LogNewSession",
      "type": "event"
    },
    {
      "anonymous": false,
      "inputs": [
        {
          "indexed": false,
          "name": "offeringAddress",
          "type": "address"
        },
        {
          "indexed": false,
          "name": "name",
          "type": "bytes32"
        }
      ],
      "name": "LogNewHouseOffering",
      "type": "event"
    },
    {
      "anonymous": false,
      "inputs": [
        {
          "indexed": false,
          "name": "session",
          "type": "uint256"
        }
      ],
      "name": "LogPickLotteryWinner",
      "type": "event"
    },
    {
      "anonymous": false,
      "inputs": [
        {
          "indexed": false,
          "name": "session",
          "type": "uint256"
        },
        {
          "indexed": false,
          "name": "ticketNumber",
          "type": "uint256"
        },
        {
          "indexed": false,
          "name": "_address",
          "type": "address"
        }
      ],
      "name": "LogWinningTicket",
      "type": "event"
    },
    {
      "anonymous": false,
      "inputs": [
        {
          "indexed": false,
          "name": "session",
          "type": "uint256"
        },
        {
          "indexed": false,
          "name": "offering",
          "type": "address"
        },
        {
          "indexed": false,
          "name": "percentage",
          "type": "uint256"
        }
      ],
      "name": "LogOfferingAllocation",
      "type": "event"
    },
    {
      "anonymous": false,
      "inputs": [
        {
          "indexed": false,
          "name": "session",
          "type": "uint256"
        }
      ],
      "name": "LogFinalizedTokenAllocations",
      "type": "event"
    },
    {
      "anonymous": false,
      "inputs": [
        {
          "indexed": false,
          "name": "session",
          "type": "uint256"
        },
        {
          "indexed": false,
          "name": "offering",
          "type": "address"
        },
        {
          "indexed": false,
          "name": "percentage",
          "type": "uint256"
        },
        {
          "indexed": false,
          "name": "amount",
          "type": "uint256"
        }
      ],
      "name": "LogOfferingDeposit",
      "type": "event"
    },
    {
      "anonymous": false,
      "inputs": [
        {
          "indexed": false,
          "name": "session",
          "type": "uint256"
        },
        {
          "indexed": false,
          "name": "offering",
          "type": "address"
        },
        {
          "indexed": false,
          "name": "amount",
          "type": "uint256"
        }
      ],
      "name": "LogAddToSessionProfitsFromUnregisteredHouseOffering",
      "type": "event"
    },
    {
      "anonymous": false,
      "inputs": [
        {
          "indexed": false,
          "name": "creditHolder",
          "type": "address"
        },
        {
          "indexed": false,
          "name": "session",
          "type": "uint256"
        },
        {
          "indexed": false,
          "name": "amount",
          "type": "uint256"
        },
        {
          "indexed": false,
          "name": "payout",
          "type": "uint256"
        }
      ],
      "name": "LogEmergencyWithdraw",
      "type": "event"
    },
    {
      "anonymous": false,
      "inputs": [
        {
          "indexed": false,
          "name": "time",
          "type": "uint256"
        }
      ],
      "name": "LogUpdatedTime",
      "type": "event"
    },
    {
      "constant": false,
      "inputs": [
        {
          "name": "_address",
          "type": "address"
        }
      ],
      "name": "setHouseAuthorizedControllerAddress",
      "outputs": [],
      "payable": false,
      "stateMutability": "nonpayable",
      "type": "function"
    },
    {
      "constant": false,
      "inputs": [
        {
          "name": "_address",
          "type": "address"
        }
      ],
      "name": "setHouseFundsControllerAddress",
      "outputs": [],
      "payable": false,
      "stateMutability": "nonpayable",
      "type": "function"
    },
    {
      "constant": false,
      "inputs": [
        {
          "name": "_address",
          "type": "address"
        }
      ],
      "name": "setHouseSessionsControllerAddress",
      "outputs": [],
      "payable": false,
      "stateMutability": "nonpayable",
      "type": "function"
    },
    {
      "constant": false,
      "inputs": [
        {
          "name": "_address",
          "type": "address"
        }
      ],
      "name": "setHouseLotteryControllerAddress",
      "outputs": [],
      "payable": false,
      "stateMutability": "nonpayable",
      "type": "function"
    },
    {
      "constant": false,
      "inputs": [
        {
          "name": "amount",
          "type": "uint256"
        }
      ],
      "name": "purchaseCredits",
      "outputs": [],
      "payable": false,
      "stateMutability": "nonpayable",
      "type": "function"
    },
    {
      "constant": false,
      "inputs": [
        {
          "name": "session",
          "type": "uint256"
        },
        {
          "name": "amount",
          "type": "uint256"
        }
      ],
      "name": "liquidateCredits",
      "outputs": [],
      "payable": false,
      "stateMutability": "nonpayable",
      "type": "function"
    },
    {
      "constant": false,
      "inputs": [
        {
          "name": "amount",
          "type": "uint256"
        }
      ],
      "name": "rollOverCredits",
      "outputs": [],
      "payable": false,
      "stateMutability": "nonpayable",
      "type": "function"
    },
    {
      "constant": false,
      "inputs": [],
      "name": "claimRolledOverCredits",
      "outputs": [],
      "payable": false,
      "stateMutability": "nonpayable",
      "type": "function"
    },
    {
      "constant": false,
      "inputs": [
        {
          "name": "houseOffering",
          "type": "address"
        }
      ],
      "name": "withdrawPreviousSessionTokensFromHouseOffering",
      "outputs": [],
      "payable": false,
      "stateMutability": "nonpayable",
      "type": "function"
    },
    {
      "constant": false,
      "inputs": [
        {
          "name": "unregisteredOffering",
          "type": "address"
        },
        {
          "name": "session",
          "type": "uint256"
        },
        {
          "name": "amount",
          "type": "uint256"
        }
      ],
      "name": "addToSessionProfitsFromUnregisteredHouseOffering",
      "outputs": [],
      "payable": false,
      "stateMutability": "nonpayable",
      "type": "function"
    },
    {
      "constant": false,
      "inputs": [
        {
          "name": "percentage",
          "type": "uint256"
        },
        {
          "name": "houseOffering",
          "type": "address"
        }
      ],
      "name": "allocateTokensForHouseOffering",
      "outputs": [],
      "payable": false,
      "stateMutability": "nonpayable",
      "type": "function"
    },
    {
      "constant": false,
      "inputs": [],
      "name": "finalizeTokenAllocations",
      "outputs": [],
      "payable": false,
      "stateMutability": "nonpayable",
      "type": "function"
    },
    {
      "constant": false,
      "inputs": [
        {
          "name": "houseOffering",
          "type": "address"
        }
      ],
      "name": "depositAllocatedTokensToHouseOffering",
      "outputs": [],
      "payable": false,
      "stateMutability": "nonpayable",
      "type": "function"
    },
    {
      "constant": false,
      "inputs": [
        {
          "name": "session",
          "type": "uint256"
        }
      ],
      "name": "pickLotteryWinner",
      "outputs": [
        {
          "name": "",
          "type": "bool"
        }
      ],
      "payable": true,
      "stateMutability": "payable",
      "type": "function"
    },
    {
      "constant": false,
      "inputs": [
        {
          "name": "session",
          "type": "uint256"
        }
      ],
      "name": "claimLotteryWinnings",
      "outputs": [
        {
          "name": "",
          "type": "uint256"
        },
        {
          "name": "",
          "type": "uint256"
        }
      ],
      "payable": false,
      "stateMutability": "nonpayable",
      "type": "function"
    },
    {
      "constant": false,
      "inputs": [],
      "name": "beginNextSession",
      "outputs": [],
      "payable": false,
      "stateMutability": "nonpayable",
      "type": "function"
    },
    {
      "constant": false,
      "inputs": [
        {
          "name": "houseOffering",
          "type": "address"
        }
      ],
      "name": "emergencyWithdrawCurrentSessionTokensFromHouseOffering",
      "outputs": [],
      "payable": false,
      "stateMutability": "nonpayable",
      "type": "function"
    },
    {
      "constant": false,
      "inputs": [],
      "name": "emergencyWithdraw",
      "outputs": [],
      "payable": false,
      "stateMutability": "nonpayable",
      "type": "function"
    },
    {
      "constant": true,
      "inputs": [],
      "name": "getHouseControllers",
      "outputs": [
        {
          "name": "",
          "type": "address"
        },
        {
          "name": "",
          "type": "address"
        },
        {
          "name": "",
          "type": "address"
        }
      ],
      "payable": false,
      "stateMutability": "view",
      "type": "function"
    }
  ],
  "bytecode": "0x6060604052426001556000600455600060055534156200001e57600080fd5b60405160408062005ae683398101604052808051906020019091908051906020019091905050336000806101000a81548173ffffffffffffffffffffffffffffffffffffffff021916908373ffffffffffffffffffffffffffffffffffffffff16021790555060008273ffffffffffffffffffffffffffffffffffffffff1614151515620000ab57600080fd5b33600360006101000a81548173ffffffffffffffffffffffffffffffffffffffff021916908373ffffffffffffffffffffffffffffffffffffffff16021790555081600660006101000a81548173ffffffffffffffffffffffffffffffffffffffff021916908373ffffffffffffffffffffffffffffffffffffffff16021790555080600b60006101000a81548173ffffffffffffffffffffffffffffffffffffffff021916908373ffffffffffffffffffffffffffffffffffffffff1602179055506001600060166101000a81548160ff021916908315150217905550620001a833620001b06401000000000262005872176401000000009004565b5050620001f4565b80600260006101000a81548173ffffffffffffffffffffffffffffffffffffffff021916908373ffffffffffffffffffffffffffffffffffffffff16021790555050565b6158e280620002046000396000f3006060604052600436106101cd576000357c0100000000000000000000000000000000000000000000000000000000900463ffffffff168063043e57fb146101dd578063075b06491461021f5780630fd639971461025d5780631a102add146102965780631bcf970b146102eb578063261e5bc314610324578063264675071461035d578063275160751461038057806327c830a9146103ad57806328ccaa29146103da578063303b069f14610407578063383738f11461041c5780633beb26c4146104555780633cb16f38146104785780634d853ee51461048d57806351325e1a146104e257806351858e271461052d5780635366531114610542578063557ed1ba1461056e5780636300a5e2146105975780636736d580146105ac5780636ca7dc89146105c157806370741aae146105fa5780637a936beb1461060f5780637d0c8101146106645780638d579d391461069d578063927ef336146106b2578063b9f2ef30146106eb578063bef101fb14610724578063c2b3202c14610747578063cba44d4f14610777578063d4166763146107cc578063d563ce19146107f5578063d89454371461081a578063db2e21bc146108d5578063edecbc7b146108ea578063f2639b421461093f575b34156101d857600080fd5b600080fd5b34156101e857600080fd5b61021d600480803590602001909190803573ffffffffffffffffffffffffffffffffffffffff16906020019091905050610968565b005b341561022a57600080fd5b6102406004808035906020019091905050610c92565b604051808381526020018281526020019250505060405180910390f35b341561026857600080fd5b610294600480803573ffffffffffffffffffffffffffffffffffffffff1690602001909190505061121e565b005b34156102a157600080fd5b6102a9611369565b604051808273ffffffffffffffffffffffffffffffffffffffff1673ffffffffffffffffffffffffffffffffffffffff16815260200191505060405180910390f35b34156102f657600080fd5b610322600480803573ffffffffffffffffffffffffffffffffffffffff1690602001909190505061138f565b005b341561032f57600080fd5b61035b600480803573ffffffffffffffffffffffffffffffffffffffff169060200190919050506114da565b005b341561036857600080fd5b61037e6004808035906020019091905050611625565b005b341561038b57600080fd5b610393611986565b604051808215151515815260200191505060405180910390f35b34156103b857600080fd5b6103c0611999565b604051808215151515815260200191505060405180910390f35b34156103e557600080fd5b6103ed6119ac565b604051808215151515815260200191505060405180910390f35b341561041257600080fd5b61041a6119bf565b005b341561042757600080fd5b610453600480803573ffffffffffffffffffffffffffffffffffffffff16906020019091905050611a52565b005b341561046057600080fd5b6104766004808035906020019091905050611dd3565b005b341561048357600080fd5b61048b611e70565b005b341561049857600080fd5b6104a061211d565b604051808273ffffffffffffffffffffffffffffffffffffffff1673ffffffffffffffffffffffffffffffffffffffff16815260200191505060405180910390f35b34156104ed57600080fd5b61052b600480803573ffffffffffffffffffffffffffffffffffffffff16906020019091908035906020019091908035906020019091905050612143565b005b341561053857600080fd5b61054061269b565b005b341561054d57600080fd5b61056c6004808035906020019091908035906020019091905050612713565b005b341561057957600080fd5b610581612d34565b6040518082815260200191505060405180910390f35b34156105a257600080fd5b6105aa612d58565b005b34156105b757600080fd5b6105bf612dcf565b005b34156105cc57600080fd5b6105f8600480803573ffffffffffffffffffffffffffffffffffffffff16906020019091905050612e60565b005b341561060557600080fd5b61060d612efe565b005b341561061a57600080fd5b61062261361c565b604051808273ffffffffffffffffffffffffffffffffffffffff1673ffffffffffffffffffffffffffffffffffffffff16815260200191505060405180910390f35b341561066f57600080fd5b61069b600480803573ffffffffffffffffffffffffffffffffffffffff16906020019091905050613641565b005b34156106a857600080fd5b6106b061378c565b005b34156106bd57600080fd5b6106e9600480803573ffffffffffffffffffffffffffffffffffffffff1690602001909190505061407d565b005b34156106f657600080fd5b610722600480803573ffffffffffffffffffffffffffffffffffffffff16906020019091905050614390565b005b341561072f57600080fd5b6107456004808035906020019091905050614ae5565b005b61075d6004808035906020019091905050615058565b604051808215151515815260200191505060405180910390f35b341561078257600080fd5b61078a615420565b604051808273ffffffffffffffffffffffffffffffffffffffff1673ffffffffffffffffffffffffffffffffffffffff16815260200191505060405180910390f35b34156107d757600080fd5b6107df615446565b6040518082815260200191505060405180910390f35b341561080057600080fd5b6108186004808035151590602001909190505061544c565b005b341561082557600080fd5b61082d6154c5565b604051808473ffffffffffffffffffffffffffffffffffffffff1673ffffffffffffffffffffffffffffffffffffffff1681526020018373ffffffffffffffffffffffffffffffffffffffff1673ffffffffffffffffffffffffffffffffffffffff1681526020018273ffffffffffffffffffffffffffffffffffffffff1673ffffffffffffffffffffffffffffffffffffffff168152602001935050505060405180910390f35b34156108e057600080fd5b6108e861553e565b005b34156108f557600080fd5b6108fd6157be565b604051808273ffffffffffffffffffffffffffffffffffffffff1673ffffffffffffffffffffffffffffffffffffffff16815260200191505060405180910390f35b341561094a57600080fd5b6109526157e4565b6040518082815260200191505060405180910390f35b6000600a60009054906101000a900473ffffffffffffffffffffffffffffffffffffffff1673ffffffffffffffffffffffffffffffffffffffff16639406d1666004546040518263ffffffff167c0100000000000000000000000000000000000000000000000000000000028152600401808281526020019150506040805180830381600087803b15156109fb57600080fd5b5af11515610a0857600080fd5b5050506040518051906020018051905090508091505060006004541415610a3b576000600554111515610a3a57600080fd5b5b80610a44612d34565b10151515610a5157600080fd5b600860009054906101000a900473ffffffffffffffffffffffffffffffffffffffff1673ffffffffffffffffffffffffffffffffffffffff1663b9181611336040518263ffffffff167c0100000000000000000000000000000000000000000000000000000000028152600401808273ffffffffffffffffffffffffffffffffffffffff1673ffffffffffffffffffffffffffffffffffffffff168152602001915050602060405180830381600087803b1515610b0d57600080fd5b5af11515610b1a57600080fd5b505050604051805190501515610b2f57600080fd5b600a60009054906101000a900473ffffffffffffffffffffffffffffffffffffffff1673ffffffffffffffffffffffffffffffffffffffff1663043e57fb84846040518363ffffffff167c0100000000000000000000000000000000000000000000000000000000028152600401808381526020018273ffffffffffffffffffffffffffffffffffffffff1673ffffffffffffffffffffffffffffffffffffffff16815260200192505050602060405180830381600087803b1515610bf357600080fd5b5af11515610c0057600080fd5b505050604051805190501515610c1557600080fd5b7fc1520f1171a70e97696be02c2c018fb1bd1d75b5d84cb93911751d95e7af06126001600454018385604051808481526020018373ffffffffffffffffffffffffffffffffffffffff1673ffffffffffffffffffffffffffffffffffffffff168152602001828152602001935050505060405180910390a1505050565b6000806000806000600b60009054906101000a900473ffffffffffffffffffffffffffffffffffffffff1673ffffffffffffffffffffffffffffffffffffffff166354b7636e336040518263ffffffff167c0100000000000000000000000000000000000000000000000000000000028152600401808273ffffffffffffffffffffffffffffffffffffffff1673ffffffffffffffffffffffffffffffffffffffff168152602001915050602060405180830381600087803b1515610d5657600080fd5b5af11515610d6357600080fd5b505050604051805190501515610d7857600080fd5b8560008060008314151515610d8c57600080fd5b610d978360016157ea565b9150600a60009054906101000a900473ffffffffffffffffffffffffffffffffffffffff1673ffffffffffffffffffffffffffffffffffffffff166383c4b7a3836040518263ffffffff167c01000000000000000000000000000000000000000000000000000000000281526004018082815260200191505061010060405180830381600087803b1515610e2a57600080fd5b5af11515610e3757600080fd5b505050604051805190602001805190602001805190602001805190602001805190602001805190602001805190602001805190509091929394955090919293945090919293509091925090915090505080915050600081111515610e9a57600080fd5b620546008101610ea8612d34565b10151515610eb557600080fd5b600a60009054906101000a900473ffffffffffffffffffffffffffffffffffffffff1673ffffffffffffffffffffffffffffffffffffffff1663aa24aaca846040518263ffffffff167c010000000000000000000000000000000000000000000000000000000002815260040180828152602001915050602060405180830381600087803b1515610f4557600080fd5b5af11515610f5257600080fd5b505050604051805190501515610f6757600080fd5b600960009054906101000a900473ffffffffffffffffffffffffffffffffffffffff1673ffffffffffffffffffffffffffffffffffffffff1663ef0c0ff38a6040518263ffffffff167c010000000000000000000000000000000000000000000000000000000002815260040180828152602001915050602060405180830381600087803b1515610ff757600080fd5b5af1151561100457600080fd5b50505060405180519050955060008613151561101f57600080fd5b859450611037611030866005615808565b6064615843565b9350600760009054906101000a900473ffffffffffffffffffffffffffffffffffffffff1673ffffffffffffffffffffffffffffffffffffffff166317df021c8a33876040518463ffffffff167c0100000000000000000000000000000000000000000000000000000000028152600401808481526020018373ffffffffffffffffffffffffffffffffffffffff1673ffffffffffffffffffffffffffffffffffffffff1681526020018281526020019350505050602060405180830381600087803b151561110557600080fd5b5af1151561111257600080fd5b50505060405180519050151561112757600080fd5b600660009054906101000a900473ffffffffffffffffffffffffffffffffffffffff1673ffffffffffffffffffffffffffffffffffffffff1663a9059cbb33866040518363ffffffff167c0100000000000000000000000000000000000000000000000000000000028152600401808373ffffffffffffffffffffffffffffffffffffffff1673ffffffffffffffffffffffffffffffffffffffff16815260200182815260200192505050602060405180830381600087803b15156111eb57600080fd5b5af115156111f857600080fd5b50505060405180519050151561120d57600080fd5b848497509750505050505050915091565b600360009054906101000a900473ffffffffffffffffffffffffffffffffffffffff1673ffffffffffffffffffffffffffffffffffffffff163373ffffffffffffffffffffffffffffffffffffffff1614151561127a57600080fd5b60008173ffffffffffffffffffffffffffffffffffffffff16141515156112a057600080fd5b8073ffffffffffffffffffffffffffffffffffffffff16633e4238ff6040518163ffffffff167c0100000000000000000000000000000000000000000000000000000000028152600401602060405180830381600087803b151561130357600080fd5b5af1151561131057600080fd5b50505060405180519050151561132557600080fd5b80600a60006101000a81548173ffffffffffffffffffffffffffffffffffffffff021916908373ffffffffffffffffffffffffffffffffffffffff16021790555050565b600260009054906101000a900473ffffffffffffffffffffffffffffffffffffffff1681565b600360009054906101000a900473ffffffffffffffffffffffffffffffffffffffff1673ffffffffffffffffffffffffffffffffffffffff163373ffffffffffffffffffffffffffffffffffffffff161415156113eb57600080fd5b60008173ffffffffffffffffffffffffffffffffffffffff161415151561141157600080fd5b8073ffffffffffffffffffffffffffffffffffffffff1663f7f8186a6040518163ffffffff167c0100000000000000000000000000000000000000000000000000000000028152600401602060405180830381600087803b151561147457600080fd5b5af1151561148157600080fd5b50505060405180519050151561149657600080fd5b80600860006101000a81548173ffffffffffffffffffffffffffffffffffffffff021916908373ffffffffffffffffffffffffffffffffffffffff16021790555050565b600360009054906101000a900473ffffffffffffffffffffffffffffffffffffffff1673ffffffffffffffffffffffffffffffffffffffff163373ffffffffffffffffffffffffffffffffffffffff1614151561153657600080fd5b60008173ffffffffffffffffffffffffffffffffffffffff161415151561155c57600080fd5b8073ffffffffffffffffffffffffffffffffffffffff16636359c4036040518163ffffffff167c0100000000000000000000000000000000000000000000000000000000028152600401602060405180830381600087803b15156115bf57600080fd5b5af115156115cc57600080fd5b5050506040518051905015156115e157600080fd5b80600760006101000a81548173ffffffffffffffffffffffffffffffffffffffff021916908373ffffffffffffffffffffffffffffffffffffffff16021790555050565b600b60009054906101000a900473ffffffffffffffffffffffffffffffffffffffff1673ffffffffffffffffffffffffffffffffffffffff166354b7636e336040518263ffffffff167c0100000000000000000000000000000000000000000000000000000000028152600401808273ffffffffffffffffffffffffffffffffffffffff1673ffffffffffffffffffffffffffffffffffffffff168152602001915050602060405180830381600087803b15156116e157600080fd5b5af115156116ee57600080fd5b50505060405180519050151561170357600080fd5b600060149054906101000a900460ff1615151561171f57600080fd5b600080600454141561173e5760006005541415151561173d57600080fd5b5b600a60009054906101000a900473ffffffffffffffffffffffffffffffffffffffff1673ffffffffffffffffffffffffffffffffffffffff16639406d1666004546040518263ffffffff167c0100000000000000000000000000000000000000000000000000000000028152600401808281526020019150506040805180830381600087803b15156117cf57600080fd5b5af115156117dc57600080fd5b505050604051805190602001805190509050809150506117ff8162093a80615859565b611807612d34565b1015801561181c575080611819612d34565b11155b151561182757600080fd5b600960009054906101000a900473ffffffffffffffffffffffffffffffffffffffff1673ffffffffffffffffffffffffffffffffffffffff16633580e40433846040518363ffffffff167c0100000000000000000000000000000000000000000000000000000000028152600401808373ffffffffffffffffffffffffffffffffffffffff1673ffffffffffffffffffffffffffffffffffffffff16815260200182815260200192505050602060405180830381600087803b15156118eb57600080fd5b5af115156118f857600080fd5b50505060405180519050151561190d57600080fd5b7f4aa297e36c6515eb13f01737cfbdc55623049e3419964c3f0e26c102eb9185f13360045484604051808473ffffffffffffffffffffffffffffffffffffffff1673ffffffffffffffffffffffffffffffffffffffff168152602001838152602001828152602001935050505060405180910390a15050565b600060159054906101000a900460ff1681565b600060149054906101000a900460ff1681565b600060169054906101000a900460ff1681565b600060149054906101000a900460ff1615156119da57600080fd5b6000809054906101000a900473ffffffffffffffffffffffffffffffffffffffff1673ffffffffffffffffffffffffffffffffffffffff163373ffffffffffffffffffffffffffffffffffffffff16141515611a3557600080fd5b6001600060156101000a81548160ff021916908315150217905550565b600080600060149054906101000a900460ff161515611a7057600080fd5b600360009054906101000a900473ffffffffffffffffffffffffffffffffffffffff1673ffffffffffffffffffffffffffffffffffffffff163373ffffffffffffffffffffffffffffffffffffffff16141515611acc57600080fd5b600a60009054906101000a900473ffffffffffffffffffffffffffffffffffffffff1673ffffffffffffffffffffffffffffffffffffffff166381528eeb600454856040518363ffffffff167c0100000000000000000000000000000000000000000000000000000000028152600401808381526020018273ffffffffffffffffffffffffffffffffffffffff1673ffffffffffffffffffffffffffffffffffffffff16815260200192505050602060405180830381600087803b1515611b9257600080fd5b5af11515611b9f57600080fd5b50505060405180519050151515611bb557600080fd5b600a60009054906101000a900473ffffffffffffffffffffffffffffffffffffffff1673ffffffffffffffffffffffffffffffffffffffff1663383738f1846040518263ffffffff167c0100000000000000000000000000000000000000000000000000000000028152600401808273ffffffffffffffffffffffffffffffffffffffff1673ffffffffffffffffffffffffffffffffffffffff1681526020019150506040805180830381600087803b1515611c7057600080fd5b5af11515611c7d57600080fd5b505050604051805190602001805190508092508193505050600960009054906101000a900473ffffffffffffffffffffffffffffffffffffffff1673ffffffffffffffffffffffffffffffffffffffff1663c05a1b3383836040518363ffffffff167c0100000000000000000000000000000000000000000000000000000000028152600401808381526020018215151515815260200192505050602060405180830381600087803b1515611d3157600080fd5b5af11515611d3e57600080fd5b50505060405180519050508273ffffffffffffffffffffffffffffffffffffffff16639a72df7a6040518163ffffffff167c0100000000000000000000000000000000000000000000000000000000028152600401602060405180830381600087803b1515611dac57600080fd5b5af11515611db957600080fd5b505050604051805190501515611dce57600080fd5b505050565b600260009054906101000a900473ffffffffffffffffffffffffffffffffffffffff1673ffffffffffffffffffffffffffffffffffffffff163373ffffffffffffffffffffffffffffffffffffffff16141515611e2f57600080fd5b806001819055507fddb30991472728014becfdc873e13fc7a4bbad9d6e1b45632cbdf2098d249a79816040518082815260200191505060405180910390a150565b6000600a60009054906101000a900473ffffffffffffffffffffffffffffffffffffffff1673ffffffffffffffffffffffffffffffffffffffff16639406d1666004546040518263ffffffff167c0100000000000000000000000000000000000000000000000000000000028152600401808281526020019150506040805180830381600087803b1515611f0357600080fd5b5af11515611f1057600080fd5b5050506040518051906020018051905090508091505060006004541415611f43576000600554111515611f4257600080fd5b5b80611f4c612d34565b10151515611f5957600080fd5b600860009054906101000a900473ffffffffffffffffffffffffffffffffffffffff1673ffffffffffffffffffffffffffffffffffffffff1663b9181611336040518263ffffffff167c0100000000000000000000000000000000000000000000000000000000028152600401808273ffffffffffffffffffffffffffffffffffffffff1673ffffffffffffffffffffffffffffffffffffffff168152602001915050602060405180830381600087803b151561201557600080fd5b5af1151561202257600080fd5b50505060405180519050151561203757600080fd5b600a60009054906101000a900473ffffffffffffffffffffffffffffffffffffffff1673ffffffffffffffffffffffffffffffffffffffff16633cb16f386040518163ffffffff167c0100000000000000000000000000000000000000000000000000000000028152600401602060405180830381600087803b15156120bc57600080fd5b5af115156120c957600080fd5b5050506040518051905015156120de57600080fd5b7fb2ee3e1b720e396fdcb6a8ce73b7a50c6c20c9b4194732391190d9e2982f80266001600454016040518082815260200191505060405180910390a150565b600360009054906101000a900473ffffffffffffffffffffffffffffffffffffffff1681565b600860009054906101000a900473ffffffffffffffffffffffffffffffffffffffff1673ffffffffffffffffffffffffffffffffffffffff1663b9181611336040518263ffffffff167c0100000000000000000000000000000000000000000000000000000000028152600401808273ffffffffffffffffffffffffffffffffffffffff1673ffffffffffffffffffffffffffffffffffffffff168152602001915050602060405180830381600087803b15156121ff57600080fd5b5af1151561220c57600080fd5b50505060405180519050151561222157600080fd5b60006004541415151561223357600080fd5b60045482148061224e575061224b6004546001615859565b82145b151561225957600080fd5b80600660009054906101000a900473ffffffffffffffffffffffffffffffffffffffff1673ffffffffffffffffffffffffffffffffffffffff166370a08231336040518263ffffffff167c0100000000000000000000000000000000000000000000000000000000028152600401808273ffffffffffffffffffffffffffffffffffffffff1673ffffffffffffffffffffffffffffffffffffffff168152602001915050602060405180830381600087803b151561231657600080fd5b5af1151561232357600080fd5b505050604051805190501015151561233a57600080fd5b80600660009054906101000a900473ffffffffffffffffffffffffffffffffffffffff1673ffffffffffffffffffffffffffffffffffffffff1663dd62ed3e33306040518363ffffffff167c0100000000000000000000000000000000000000000000000000000000028152600401808373ffffffffffffffffffffffffffffffffffffffff1673ffffffffffffffffffffffffffffffffffffffff1681526020018273ffffffffffffffffffffffffffffffffffffffff1673ffffffffffffffffffffffffffffffffffffffff16815260200192505050602060405180830381600087803b151561242b57600080fd5b5af1151561243857600080fd5b505050604051805190501015151561244f57600080fd5b600960009054906101000a900473ffffffffffffffffffffffffffffffffffffffff1673ffffffffffffffffffffffffffffffffffffffff1663aee5597d83836040518363ffffffff167c01000000000000000000000000000000000000000000000000000000000281526004018083815260200182815260200192505050602060405180830381600087803b15156124e757600080fd5b5af115156124f457600080fd5b50505060405180519050151561250957600080fd5b600660009054906101000a900473ffffffffffffffffffffffffffffffffffffffff1673ffffffffffffffffffffffffffffffffffffffff166323b872dd3330846040518463ffffffff167c0100000000000000000000000000000000000000000000000000000000028152600401808473ffffffffffffffffffffffffffffffffffffffff1673ffffffffffffffffffffffffffffffffffffffff1681526020018373ffffffffffffffffffffffffffffffffffffffff1673ffffffffffffffffffffffffffffffffffffffff1681526020018281526020019350505050602060405180830381600087803b151561260157600080fd5b5af1151561260e57600080fd5b50505060405180519050151561262357600080fd5b7f8a0006da46ae2a6160336038210be4151da35d82d57ce9aa7f5cc85b6b7611ac828483604051808481526020018373ffffffffffffffffffffffffffffffffffffffff1673ffffffffffffffffffffffffffffffffffffffff168152602001828152602001935050505060405180910390a1505050565b6000809054906101000a900473ffffffffffffffffffffffffffffffffffffffff1673ffffffffffffffffffffffffffffffffffffffff163373ffffffffffffffffffffffffffffffffffffffff161415156126f657600080fd5b6001600060146101000a81548160ff021916908315150217905550565b600081600b60009054906101000a900473ffffffffffffffffffffffffffffffffffffffff1673ffffffffffffffffffffffffffffffffffffffff16631577f90533836040518363ffffffff167c0100000000000000000000000000000000000000000000000000000000028152600401808373ffffffffffffffffffffffffffffffffffffffff1673ffffffffffffffffffffffffffffffffffffffff16815260200182815260200192505050602060405180830381600087803b15156127da57600080fd5b5af115156127e757600080fd5b5050506040518051905015156127fc57600080fd5b600b60009054906101000a900473ffffffffffffffffffffffffffffffffffffffff1673ffffffffffffffffffffffffffffffffffffffff166354b7636e336040518263ffffffff167c0100000000000000000000000000000000000000000000000000000000028152600401808273ffffffffffffffffffffffffffffffffffffffff1673ffffffffffffffffffffffffffffffffffffffff168152602001915050602060405180830381600087803b15156128b857600080fd5b5af115156128c557600080fd5b5050506040518051905015156128da57600080fd5b600060149054906101000a900460ff161515156128f657600080fd5b836000806000831415151561290a57600080fd5b6129158360016157ea565b9150600a60009054906101000a900473ffffffffffffffffffffffffffffffffffffffff1673ffffffffffffffffffffffffffffffffffffffff166383c4b7a3836040518263ffffffff167c01000000000000000000000000000000000000000000000000000000000281526004018082815260200191505061010060405180830381600087803b15156129a857600080fd5b5af115156129b557600080fd5b505050604051805190602001805190602001805190602001805190602001805190602001805190602001805190602001805190509091929394955090919293945090919293509091925090915090505080915050600081111515612a1857600080fd5b620546008101612a26612d34565b10151515612a3357600080fd5b600a60009054906101000a900473ffffffffffffffffffffffffffffffffffffffff1673ffffffffffffffffffffffffffffffffffffffff1663aa24aaca846040518263ffffffff167c010000000000000000000000000000000000000000000000000000000002815260040180828152602001915050602060405180830381600087803b1515612ac357600080fd5b5af11515612ad057600080fd5b505050604051805190501515612ae557600080fd5b600960009054906101000a900473ffffffffffffffffffffffffffffffffffffffff1673ffffffffffffffffffffffffffffffffffffffff1663babe82f63389896040518463ffffffff167c0100000000000000000000000000000000000000000000000000000000028152600401808473ffffffffffffffffffffffffffffffffffffffff1673ffffffffffffffffffffffffffffffffffffffff1681526020018381526020018281526020019350505050602060405180830381600087803b1515612bb157600080fd5b5af11515612bbe57600080fd5b505050604051805190509450600660009054906101000a900473ffffffffffffffffffffffffffffffffffffffff1673ffffffffffffffffffffffffffffffffffffffff1663a9059cbb33876040518363ffffffff167c0100000000000000000000000000000000000000000000000000000000028152600401808373ffffffffffffffffffffffffffffffffffffffff1673ffffffffffffffffffffffffffffffffffffffff16815260200182815260200192505050602060405180830381600087803b1515612c8e57600080fd5b5af11515612c9b57600080fd5b505050604051805190501515612cb057600080fd5b7f50f8d2e2126e73e7ee08beda72a73f02d18dcf096ddddf88220325a8cde5c48c33888888604051808573ffffffffffffffffffffffffffffffffffffffff1673ffffffffffffffffffffffffffffffffffffffff16815260200184815260200183815260200182815260200194505050505060405180910390a150505050505050565b60008060169054906101000a900460ff16612d4f5742612d53565b6001545b905090565b6000809054906101000a900473ffffffffffffffffffffffffffffffffffffffff1673ffffffffffffffffffffffffffffffffffffffff163373ffffffffffffffffffffffffffffffffffffffff16141515612db357600080fd5b60008060156101000a81548160ff021916908315150217905550565b6000809054906101000a900473ffffffffffffffffffffffffffffffffffffffff1673ffffffffffffffffffffffffffffffffffffffff163373ffffffffffffffffffffffffffffffffffffffff16141515612e2a57600080fd5b60008060146101000a81548160ff02191690831515021790555060008060156101000a81548160ff021916908315150217905550565b6000809054906101000a900473ffffffffffffffffffffffffffffffffffffffff1673ffffffffffffffffffffffffffffffffffffffff163373ffffffffffffffffffffffffffffffffffffffff16141515612ebb57600080fd5b806000806101000a81548173ffffffffffffffffffffffffffffffffffffffff021916908373ffffffffffffffffffffffffffffffffffffffff16021790555050565b6000806000806000600a60009054906101000a900473ffffffffffffffffffffffffffffffffffffffff1673ffffffffffffffffffffffffffffffffffffffff16639406d1666004546040518263ffffffff167c0100000000000000000000000000000000000000000000000000000000028152600401808281526020019150506040805180830381600087803b1515612f9757600080fd5b5af11515612fa457600080fd5b505050604051805190602001805190509050809150506000600454148015612fcc5750600081145b80612fde575080612fdb612d34565b10155b1515612fe957600080fd5b600860009054906101000a900473ffffffffffffffffffffffffffffffffffffffff1673ffffffffffffffffffffffffffffffffffffffff1663b9181611336040518263ffffffff167c0100000000000000000000000000000000000000000000000000000000028152600401808273ffffffffffffffffffffffffffffffffffffffff1673ffffffffffffffffffffffffffffffffffffffff168152602001915050602060405180830381600087803b15156130a557600080fd5b5af115156130b257600080fd5b5050506040518051905015156130c757600080fd5b6130d460045460016157ea565b94506130de612d34565b935060006004541480156130f457506000600554145b1561323957613101612d34565b6005819055506131148462093a806157ea565b9250600a60009054906101000a900473ffffffffffffffffffffffffffffffffffffffff1673ffffffffffffffffffffffffffffffffffffffff166353a38a7f858560006040518463ffffffff167c0100000000000000000000000000000000000000000000000000000000028152600401808481526020018381526020018281526020019350505050602060405180830381600087803b15156131b757600080fd5b5af115156131c457600080fd5b5050506040518051905015156131d957600080fd5b7f26e32cdac32e02b102d578e8043c11894b274140b95cd8508879654739af11a7600454856000866000604051808681526020018581526020018481526020018381526020018281526020019550505050505060405180910390a1613615565b8460048190555061324d84626ebe006157ea565b9250600a60009054906101000a900473ffffffffffffffffffffffffffffffffffffffff1673ffffffffffffffffffffffffffffffffffffffff166353a38a7f85856005546040518463ffffffff167c0100000000000000000000000000000000000000000000000000000000028152600401808481526020018381526020018281526020019350505050602060405180830381600087803b15156132f157600080fd5b5af115156132fe57600080fd5b50505060405180519050151561331357600080fd5b600091505b600a60009054906101000a900473ffffffffffffffffffffffffffffffffffffffff1673ffffffffffffffffffffffffffffffffffffffff16637888494b6040518163ffffffff167c0100000000000000000000000000000000000000000000000000000000028152600401602060405180830381600087803b151561339d57600080fd5b5af115156133aa57600080fd5b505050604051805190508210156135bb576000600a60009054906101000a900473ffffffffffffffffffffffffffffffffffffffff1673ffffffffffffffffffffffffffffffffffffffff1663427b2081846040518263ffffffff167c010000000000000000000000000000000000000000000000000000000002815260040180828152602001915050602060405180830381600087803b151561344d57600080fd5b5af1151561345a57600080fd5b5050506040518051905073ffffffffffffffffffffffffffffffffffffffff161415156135ae57600a60009054906101000a900473ffffffffffffffffffffffffffffffffffffffff1673ffffffffffffffffffffffffffffffffffffffff1663427b2081836040518263ffffffff167c010000000000000000000000000000000000000000000000000000000002815260040180828152602001915050602060405180830381600087803b151561351157600080fd5b5af1151561351e57600080fd5b5050506040518051905073ffffffffffffffffffffffffffffffffffffffff16639102fa87866040518263ffffffff167c010000000000000000000000000000000000000000000000000000000002815260040180828152602001915050602060405180830381600087803b151561359557600080fd5b5af115156135a257600080fd5b50505060405180519050505b8180600101925050613318565b7f26e32cdac32e02b102d578e8043c11894b274140b95cd8508879654739af11a785856000866000604051808681526020018581526020018481526020018381526020018281526020019550505050505060405180910390a15b5050505050565b6000809054906101000a900473ffffffffffffffffffffffffffffffffffffffff1681565b600360009054906101000a900473ffffffffffffffffffffffffffffffffffffffff1673ffffffffffffffffffffffffffffffffffffffff163373ffffffffffffffffffffffffffffffffffffffff1614151561369d57600080fd5b60008173ffffffffffffffffffffffffffffffffffffffff16141515156136c357600080fd5b8073ffffffffffffffffffffffffffffffffffffffff166319cbc5a36040518163ffffffff167c0100000000000000000000000000000000000000000000000000000000028152600401602060405180830381600087803b151561372657600080fd5b5af1151561373357600080fd5b50505060405180519050151561374857600080fd5b80600960006101000a81548173ffffffffffffffffffffffffffffffffffffffff021916908373ffffffffffffffffffffffffffffffffffffffff16021790555050565b60008060008060008060008060149054906101000a900460ff161515156137b257600080fd5b60008060006004541115156137c657600080fd5b600a60009054906101000a900473ffffffffffffffffffffffffffffffffffffffff1673ffffffffffffffffffffffffffffffffffffffff16639406d1666004546040518263ffffffff167c0100000000000000000000000000000000000000000000000000000000028152600401808281526020019150506040805180830381600087803b151561385757600080fd5b5af1151561386457600080fd5b50505060405180519060200180519050809250819350505081613885612d34565b1015801561389f575062093a80810361389c612d34565b11155b15156138aa57600080fd5b6138b76004546001615859565b6000811115156138c657600080fd5b600a60009054906101000a900473ffffffffffffffffffffffffffffffffffffffff1673ffffffffffffffffffffffffffffffffffffffff1663aa24aaca826040518263ffffffff167c010000000000000000000000000000000000000000000000000000000002815260040180828152602001915050602060405180830381600087803b151561395657600080fd5b5af1151561396357600080fd5b50505060405180519050151561397857600080fd5b600960009054906101000a900473ffffffffffffffffffffffffffffffffffffffff1673ffffffffffffffffffffffffffffffffffffffff1663457fe0b8336040518263ffffffff167c0100000000000000000000000000000000000000000000000000000000028152600401808273ffffffffffffffffffffffffffffffffffffffff1673ffffffffffffffffffffffffffffffffffffffff168152602001915050606060405180830381600087803b1515613a3457600080fd5b5af11515613a4157600080fd5b50505060405180519060200180519060200180519050809a50819b50829c50505050600096505b600a60009054906101000a900473ffffffffffffffffffffffffffffffffffffffff1673ffffffffffffffffffffffffffffffffffffffff1663890e6bf46004546040518263ffffffff167c010000000000000000000000000000000000000000000000000000000002815260040180828152602001915050602060405180830381600087803b1515613afa57600080fd5b5af11515613b0757600080fd5b50505060405180519050871015613efc57600a60009054906101000a900473ffffffffffffffffffffffffffffffffffffffff1673ffffffffffffffffffffffffffffffffffffffff16635582b475600454896040518363ffffffff167c01000000000000000000000000000000000000000000000000000000000281526004018083815260200182815260200192505050602060405180830381600087803b1515613bb257600080fd5b5af11515613bbf57600080fd5b50505060405180519050955060008673ffffffffffffffffffffffffffffffffffffffff16141515613eef57600a60009054906101000a900473ffffffffffffffffffffffffffffffffffffffff1673ffffffffffffffffffffffffffffffffffffffff16632e59bb56600454886040518363ffffffff167c0100000000000000000000000000000000000000000000000000000000028152600401808381526020018273ffffffffffffffffffffffffffffffffffffffff1673ffffffffffffffffffffffffffffffffffffffff16815260200192505050606060405180830381600087803b1515613cb157600080fd5b5af11515613cbe57600080fd5b5050506040518051906020018051906020018051905090505080955050613cef613ce88b87615808565b6064615843565b9350600660009054906101000a900473ffffffffffffffffffffffffffffffffffffffff1673ffffffffffffffffffffffffffffffffffffffff1663095ea7b387866040518363ffffffff167c0100000000000000000000000000000000000000000000000000000000028152600401808373ffffffffffffffffffffffffffffffffffffffff1673ffffffffffffffffffffffffffffffffffffffff16815260200182815260200192505050602060405180830381600087803b1515613db557600080fd5b5af11515613dc257600080fd5b505050604051805190501515613dd757600080fd5b8573ffffffffffffffffffffffffffffffffffffffff16636858acad856004546040518363ffffffff167c01000000000000000000000000000000000000000000000000000000000281526004018083815260200182815260200192505050602060405180830381600087803b1515613e4f57600080fd5b5af11515613e5c57600080fd5b505050604051805190501515613e7157600080fd5b7fc74af56e8accef7062ae3db649310f4a651d9b3379431853301b25b76373b317600454878787604051808581526020018473ffffffffffffffffffffffffffffffffffffffff1673ffffffffffffffffffffffffffffffffffffffff16815260200183815260200182815260200194505050505060405180910390a15b8680600101975050613a68565b600760009054906101000a900473ffffffffffffffffffffffffffffffffffffffff1673ffffffffffffffffffffffffffffffffffffffff166332d549c3600454338d6040518463ffffffff167c0100000000000000000000000000000000000000000000000000000000028152600401808481526020018373ffffffffffffffffffffffffffffffffffffffff1673ffffffffffffffffffffffffffffffffffffffff1681526020018281526020019350505050602060405180830381600087803b1515613fca57600080fd5b5af11515613fd757600080fd5b505050604051805190501515613fec57600080fd5b7f995faa75558bd2e2a15d6ebc544d86ebb5b220a365b56dd6a0fd97394625b4c8336004548b8d8c604051808673ffffffffffffffffffffffffffffffffffffffff1673ffffffffffffffffffffffffffffffffffffffff1681526020018581526020018481526020018381526020018281526020019550505050505060405180910390a150505050505050505050565b600080600860009054906101000a900473ffffffffffffffffffffffffffffffffffffffff1673ffffffffffffffffffffffffffffffffffffffff1663b9181611336040518263ffffffff167c0100000000000000000000000000000000000000000000000000000000028152600401808273ffffffffffffffffffffffffffffffffffffffff1673ffffffffffffffffffffffffffffffffffffffff168152602001915050602060405180830381600087803b151561413c57600080fd5b5af1151561414957600080fd5b50505060405180519050151561415e57600080fd5b600a60009054906101000a900473ffffffffffffffffffffffffffffffffffffffff1673ffffffffffffffffffffffffffffffffffffffff1663927ef336846040518263ffffffff167c0100000000000000000000000000000000000000000000000000000000028152600401808273ffffffffffffffffffffffffffffffffffffffff1673ffffffffffffffffffffffffffffffffffffffff1681526020019150506040805180830381600087803b151561421957600080fd5b5af1151561422657600080fd5b505050604051805190602001805190508092508193505050600960009054906101000a900473ffffffffffffffffffffffffffffffffffffffff1673ffffffffffffffffffffffffffffffffffffffff1663c2088c3f83836040518363ffffffff167c0100000000000000000000000000000000000000000000000000000000028152600401808381526020018215151515815260200192505050602060405180830381600087803b15156142da57600080fd5b5af115156142e757600080fd5b5050506040518051905015156142fc57600080fd5b600082111561438b578273ffffffffffffffffffffffffffffffffffffffff166336d699536040518163ffffffff167c0100000000000000000000000000000000000000000000000000000000028152600401602060405180830381600087803b151561436857600080fd5b5af1151561437557600080fd5b50505060405180519050151561438a57600080fd5b5b505050565b6000806000806000600a60009054906101000a900473ffffffffffffffffffffffffffffffffffffffff1673ffffffffffffffffffffffffffffffffffffffff16639406d1666004546040518263ffffffff167c0100000000000000000000000000000000000000000000000000000000028152600401808281526020019150506040805180830381600087803b151561442957600080fd5b5af1151561443657600080fd5b505050604051805190602001805190509050809150506000600454141561446957600060055411151561446857600080fd5b5b80614472612d34565b1015151561447f57600080fd5b600160045401600a60009054906101000a900473ffffffffffffffffffffffffffffffffffffffff1673ffffffffffffffffffffffffffffffffffffffff16633081a484826040518263ffffffff167c010000000000000000000000000000000000000000000000000000000002815260040180828152602001915050602060405180830381600087803b151561451557600080fd5b5af1151561452257600080fd5b50505060405180519050151561453757600080fd5b600860009054906101000a900473ffffffffffffffffffffffffffffffffffffffff1673ffffffffffffffffffffffffffffffffffffffff1663b9181611336040518263ffffffff167c0100000000000000000000000000000000000000000000000000000000028152600401808273ffffffffffffffffffffffffffffffffffffffff1673ffffffffffffffffffffffffffffffffffffffff168152602001915050602060405180830381600087803b15156145f357600080fd5b5af1151561460057600080fd5b50505060405180519050151561461557600080fd5b6001600454019550600960009054906101000a900473ffffffffffffffffffffffffffffffffffffffff1673ffffffffffffffffffffffffffffffffffffffff1663467f48b6876040518263ffffffff167c01000000000000000000000000000000000000000000000000000000000281526004018082815260200191505060e060405180830381600087803b15156146ad57600080fd5b5af115156146ba57600080fd5b5050506040518051906020018051906020018051906020018051906020018051906020018051906020018051905090919293945090919293509091925090915090505080955050600a60009054906101000a900473ffffffffffffffffffffffffffffffffffffffff1673ffffffffffffffffffffffffffffffffffffffff16632e59bb5687896040518363ffffffff167c0100000000000000000000000000000000000000000000000000000000028152600401808381526020018273ffffffffffffffffffffffffffffffffffffffff1673ffffffffffffffffffffffffffffffffffffffff16815260200192505050606060405180830381600087803b15156147c557600080fd5b5af115156147d257600080fd5b50505060405180519060200180519060200180519050905050809450506148036147fc8686615808565b6064615843565b9250600a60009054906101000a900473ffffffffffffffffffffffffffffffffffffffff1673ffffffffffffffffffffffffffffffffffffffff1663b9f2ef30886040518263ffffffff167c0100000000000000000000000000000000000000000000000000000000028152600401808273ffffffffffffffffffffffffffffffffffffffff1673ffffffffffffffffffffffffffffffffffffffff168152602001915050602060405180830381600087803b15156148c157600080fd5b5af115156148ce57600080fd5b5050506040518051905015156148e357600080fd5b600660009054906101000a900473ffffffffffffffffffffffffffffffffffffffff1673ffffffffffffffffffffffffffffffffffffffff1663095ea7b388856040518363ffffffff167c0100000000000000000000000000000000000000000000000000000000028152600401808373ffffffffffffffffffffffffffffffffffffffff1673ffffffffffffffffffffffffffffffffffffffff16815260200182815260200192505050602060405180830381600087803b15156149a757600080fd5b5af115156149b457600080fd5b5050506040518051905015156149c957600080fd5b8673ffffffffffffffffffffffffffffffffffffffff16636858acad84886040518363ffffffff167c01000000000000000000000000000000000000000000000000000000000281526004018083815260200182815260200192505050602060405180830381600087803b1515614a3f57600080fd5b5af11515614a4c57600080fd5b505050604051805190501515614a6157600080fd5b7fc74af56e8accef7062ae3db649310f4a651d9b3379431853301b25b76373b31786888686604051808581526020018473ffffffffffffffffffffffffffffffffffffffff1673ffffffffffffffffffffffffffffffffffffffff16815260200183815260200182815260200194505050505060405180910390a150505050505050565b600080600b60009054906101000a900473ffffffffffffffffffffffffffffffffffffffff1673ffffffffffffffffffffffffffffffffffffffff166354b7636e336040518263ffffffff167c0100000000000000000000000000000000000000000000000000000000028152600401808273ffffffffffffffffffffffffffffffffffffffff1673ffffffffffffffffffffffffffffffffffffffff168152602001915050602060405180830381600087803b1515614ba457600080fd5b5af11515614bb157600080fd5b505050604051805190501515614bc657600080fd5b600060149054906101000a900460ff16151515614be257600080fd5b6000806004541415614c0157600060055414151515614c0057600080fd5b5b600a60009054906101000a900473ffffffffffffffffffffffffffffffffffffffff1673ffffffffffffffffffffffffffffffffffffffff16639406d1666004546040518263ffffffff167c0100000000000000000000000000000000000000000000000000000000028152600401808281526020019150506040805180830381600087803b1515614c9257600080fd5b5af11515614c9f57600080fd5b50505060405180519060200180519050905080915050614cc28162093a80615859565b614cca612d34565b10158015614cdf575080614cdc612d34565b11155b1515614cea57600080fd5b600960009054906101000a900473ffffffffffffffffffffffffffffffffffffffff1673ffffffffffffffffffffffffffffffffffffffff1663139e0aa733866040518363ffffffff167c0100000000000000000000000000000000000000000000000000000000028152600401808373ffffffffffffffffffffffffffffffffffffffff1673ffffffffffffffffffffffffffffffffffffffff16815260200182815260200192505050602060405180830381600087803b1515614dae57600080fd5b5af11515614dbb57600080fd5b5050506040518051905092506001600454019150600760009054906101000a900473ffffffffffffffffffffffffffffffffffffffff1673ffffffffffffffffffffffffffffffffffffffff166332d549c38333876040518463ffffffff167c0100000000000000000000000000000000000000000000000000000000028152600401808481526020018373ffffffffffffffffffffffffffffffffffffffff1673ffffffffffffffffffffffffffffffffffffffff1681526020018281526020019350505050602060405180830381600087803b1515614e9b57600080fd5b5af11515614ea857600080fd5b505050604051805190501515614ebd57600080fd5b600660009054906101000a900473ffffffffffffffffffffffffffffffffffffffff1673ffffffffffffffffffffffffffffffffffffffff166323b872dd3330876040518463ffffffff167c0100000000000000000000000000000000000000000000000000000000028152600401808473ffffffffffffffffffffffffffffffffffffffff1673ffffffffffffffffffffffffffffffffffffffff1681526020018373ffffffffffffffffffffffffffffffffffffffff1673ffffffffffffffffffffffffffffffffffffffff1681526020018281526020019350505050602060405180830381600087803b1515614fb557600080fd5b5af11515614fc257600080fd5b505050604051805190501515614fd757600080fd5b7fe8f974585656155b2cd9adf2cabc0ad9660a963a15a779b3860348d686694eae33838686604051808573ffffffffffffffffffffffffffffffffffffffff1673ffffffffffffffffffffffffffffffffffffffff16815260200184815260200183815260200182815260200194505050505060405180910390a150505050565b6000600860009054906101000a900473ffffffffffffffffffffffffffffffffffffffff1673ffffffffffffffffffffffffffffffffffffffff1663b9181611336040518263ffffffff167c0100000000000000000000000000000000000000000000000000000000028152600401808273ffffffffffffffffffffffffffffffffffffffff1673ffffffffffffffffffffffffffffffffffffffff168152602001915050602060405180830381600087803b151561511657600080fd5b5af1151561512357600080fd5b50505060405180519050151561513857600080fd5b816000806000831415151561514c57600080fd5b6151578360016157ea565b9150600a60009054906101000a900473ffffffffffffffffffffffffffffffffffffffff1673ffffffffffffffffffffffffffffffffffffffff166383c4b7a3836040518263ffffffff167c01000000000000000000000000000000000000000000000000000000000281526004018082815260200191505061010060405180830381600087803b15156151ea57600080fd5b5af115156151f757600080fd5b50505060405180519060200180519060200180519060200180519060200180519060200180519060200180519060200180519050909192939495509091929394509091929350909192509091509050508091505060008111151561525a57600080fd5b620546008101615268612d34565b1015151561527557600080fd5b600a60009054906101000a900473ffffffffffffffffffffffffffffffffffffffff1673ffffffffffffffffffffffffffffffffffffffff1663aa24aaca846040518263ffffffff167c010000000000000000000000000000000000000000000000000000000002815260040180828152602001915050602060405180830381600087803b151561530557600080fd5b5af1151561531257600080fd5b50505060405180519050151561532757600080fd5b600760009054906101000a900473ffffffffffffffffffffffffffffffffffffffff1673ffffffffffffffffffffffffffffffffffffffff1663f737d21d6004546040518263ffffffff167c010000000000000000000000000000000000000000000000000000000002815260040180828152602001915050602060405180830381600087803b15156153b957600080fd5b5af115156153c657600080fd5b5050506040518051905015156153db57600080fd5b7fd4aebaf9c709c58ba6f81cfb545cf3691ae6a9899d94b268565ed4d3fa14003a6004546040518082815260200191505060405180910390a160019350505050919050565b600660009054906101000a900473ffffffffffffffffffffffffffffffffffffffff1681565b60045481565b600260009054906101000a900473ffffffffffffffffffffffffffffffffffffffff1673ffffffffffffffffffffffffffffffffffffffff163373ffffffffffffffffffffffffffffffffffffffff161415156154a857600080fd5b80600060166101000a81548160ff02191690831515021790555050565b6000806000600860009054906101000a900473ffffffffffffffffffffffffffffffffffffffff16600960009054906101000a900473ffffffffffffffffffffffffffffffffffffffff16600a60009054906101000a900473ffffffffffffffffffffffffffffffffffffffff16925092509250909192565b600080600060149054906101000a900460ff16151561555c57600080fd5b600060159054906101000a900460ff16151561557757600080fd5b600960009054906101000a900473ffffffffffffffffffffffffffffffffffffffff1673ffffffffffffffffffffffffffffffffffffffff16636ff1c9bc336040518263ffffffff167c0100000000000000000000000000000000000000000000000000000000028152600401808273ffffffffffffffffffffffffffffffffffffffff1673ffffffffffffffffffffffffffffffffffffffff1681526020019150506040805180830381600087803b151561563257600080fd5b5af1151561563f57600080fd5b505050604051805190602001805190508092508193505050600660009054906101000a900473ffffffffffffffffffffffffffffffffffffffff1673ffffffffffffffffffffffffffffffffffffffff1663a9059cbb33846040518363ffffffff167c0100000000000000000000000000000000000000000000000000000000028152600401808373ffffffffffffffffffffffffffffffffffffffff1673ffffffffffffffffffffffffffffffffffffffff16815260200182815260200192505050602060405180830381600087803b151561571b57600080fd5b5af1151561572857600080fd5b50505060405180519050151561573d57600080fd5b7f453bbd7e5b709fe2efb7402401a4565ba2de7e957fbdb9e4c8dfb323883a413f336004548385604051808573ffffffffffffffffffffffffffffffffffffffff1673ffffffffffffffffffffffffffffffffffffffff16815260200184815260200183815260200182815260200194505050505060405180910390a15050565b600760009054906101000a900473ffffffffffffffffffffffffffffffffffffffff1681565b60055481565b60008082840190508381101515156157fe57fe5b8091505092915050565b600080600084141561581d576000915061583c565b828402905082848281151561582e57fe5b0414151561583857fe5b8091505b5092915050565b6000818381151561585057fe5b04905092915050565b600082821115151561586757fe5b818303905092915050565b80600260006101000a81548173ffffffffffffffffffffffffffffffffffffffff021916908373ffffffffffffffffffffffffffffffffffffffff160217905550505600a165627a7a72305820eafb0c4e248a91cc00d8f8bb3599d4165b5724f82376e3b468de7d8bacd692e10029",
  "source": "pragma solidity 0.4.21;\n\nimport \"../Libraries/SafeMath.sol\";\nimport \"../Token/ERC20.sol\";\nimport \"../Libraries/EmergencyOptions.sol\";\nimport \"../Libraries/TimeProvider.sol\";\n\nimport \"./HouseOffering.sol\";\n\nimport \"./Controllers/HouseAuthorizedController.sol\";\nimport \"./Controllers/HouseFundsController.sol\";\nimport \"./Controllers/HouseLotteryController.sol\";\nimport \"./Controllers/HouseSessionsController.sol\";\n\nimport \"../Kyc/KycManager.sol\";\n\n// Decent.bet House Contract.\n// All credits and payouts are in DBETs and are 18 decimal places in length.\ncontract House is SafeMath, EmergencyOptions, TimeProvider {\n\n    // Variables\n    address public founder;\n\n    // Starting session will be at 0.\n    // This would be the credit buying period for the 1st session of the house and lasts only for 1 week.\n    uint public currentSession = 0;\n\n    // Time session 0 begins.\n    uint public sessionZeroStartTime = 0;\n\n    // External Contracts\n    ERC20 public decentBetToken;\n    HouseLotteryController public houseLotteryController;\n    HouseAuthorizedController houseAuthorizedController;\n    HouseFundsController houseFundsController;\n    HouseSessionsController houseSessionsController;\n    KycManager kycManager;\n\n    // Constructor\n    function House(address decentBetTokenAddress, address kycManagerAddress)\n    public {\n        require(decentBetTokenAddress != 0x0);\n        founder = msg.sender;\n        decentBetToken = ERC20(decentBetTokenAddress);\n        kycManager = KycManager(kycManagerAddress);\n\n        // If on local testRPC/testnet and need to set mock times\n        // Leave this here for development purposes.\n        // TODO: Remove TimeProvider before publishing to mainnet.\n        isMock = true;\n        setTimeController(msg.sender);\n    }\n\n    // Modifiers //\n    modifier onlyFounder() {\n        require(msg.sender == founder);\n        _;\n    }\n\n    modifier onlyAuthorized() {\n        require(houseAuthorizedController.authorized(msg.sender));\n        _;\n    }\n\n    // If this is the last week of a session - signifying the period when token deposits can be made to house offerings.\n    modifier isEndOfActiveSession() {\n        uint endTime;\n        (, endTime) = houseSessionsController.getSessionTimes(currentSession);\n        if (currentSession == 0)\n            require(sessionZeroStartTime > 0);\n        require(getTime() >= endTime);\n        _;\n    }\n\n    // Allows functions to execute only if users have \"amount\" tokens in their balance.\n    modifier areTokensAvailable(uint amount) {\n        require(decentBetToken.balanceOf(msg.sender) >= amount);\n        _;\n    }\n\n    // Allows functions to execute only if it is the end of the current session.\n    modifier isEndOfSession() {\n        uint endTime;\n        (, endTime) = houseSessionsController.getSessionTimes(currentSession);\n        require((currentSession == 0 && endTime == 0) || getTime() >= endTime);\n        _;\n    }\n\n    // Allows functions to execute if they happen during an \"active\" period for a session i.e,\n    // Not during a credit buying/token allocation period\n    modifier isSessionActivePeriod() {\n        require(currentSession > 0);\n        uint startTime;\n        uint endTime;\n        (startTime, endTime) = houseSessionsController.getSessionTimes(currentSession);\n        require(getTime() >= startTime && getTime() <= (endTime - 1 weeks));\n        _;\n    }\n\n    // Allows functions to execute only if it's currently a credit-buying period i.e\n    // 1 week before the end of the current session.\n    modifier isCreditBuyingPeriod() {\n        if (currentSession == 0)\n            require(sessionZeroStartTime != 0);\n        uint endTime;\n        (, endTime) = houseSessionsController.getSessionTimes(currentSession);\n        require(\n            getTime() >= (safeSub(endTime, 1 weeks)) &&\n            getTime() <= endTime\n        );\n        _;\n    }\n\n    // Allows functions to execute only if the profit distribution period is going on i.e\n    // after the end of the previous session and after all offering credits have been withdrawn.\n    modifier isProfitDistributionPeriod(uint session) {\n        require(session != 0);\n        uint nextSession = safeAdd(session, 1);\n        uint startTime;\n        (startTime, ,,,,,,) = houseSessionsController.sessions(nextSession);\n        require(startTime > 0);\n        require(getTime() >= (startTime + 4 days));\n        require(houseSessionsController.haveAllOfferingsBeenWithdrawn(session));\n        _;\n    }\n\n    // Allows functions to execute only if the session token allocation has been finalized\n    modifier areSessionTokenAllocationsFinalized(uint session) {\n        require(houseSessionsController.areSessionTokenAllocationsFinalized(session));\n        _;\n    }\n\n    // Allows functions to execute only if all offerings have been withdrawn\n    modifier haveAllOfferingsBeenWithdrawn(uint session) {\n        require(session > 0);\n        require(houseSessionsController.haveAllOfferingsBeenWithdrawn(session));\n        _;\n    }\n\n    // Allows functions to execute only if the sender has been KYC verified.\n    modifier isSenderKycVerified() {\n        require(kycManager.isKYCVerified(msg.sender));\n        _;\n    }\n\n    // Checks if a withdrawal is allowed with the KYC manager contract.\n    modifier isWithdrawalAllowed(uint amount) {\n        require(kycManager.isWithdrawalAllowed(msg.sender, amount));\n        _;\n    }\n\n    // Events\n    event LogPurchasedCredits(\n        address creditHolder,\n        uint session,\n        uint amount,\n        uint balance\n    );\n\n    event LogLiquidateCredits(\n        address creditHolder,\n        uint session,\n        uint amount,\n        uint payout\n    );\n\n    event LogRolledOverCredits(\n        address creditHolder,\n        uint session,\n        uint amount\n    );\n\n    event LogClaimRolledOverCredits(\n        address creditHolder,\n        uint session,\n        uint rolledOver,\n        uint adjusted,\n        uint creditsForCurrentSession\n    );\n\n    event LogNewSession(\n        uint session,\n        uint startTimestamp,\n        uint startBlockNumber,\n        uint endTimestamp,\n        uint endBlockNumber\n    );\n\n    event LogNewHouseOffering(\n        address offeringAddress,\n        bytes32 name\n    );\n\n    event LogPickLotteryWinner(uint session);\n\n    event LogWinningTicket(\n        uint session,\n        uint ticketNumber,\n        address _address\n    );\n\n    event LogOfferingAllocation(\n        uint session,\n        address offering,\n        uint percentage\n    );\n\n    event LogFinalizedTokenAllocations(\n        uint session\n    );\n\n    event LogOfferingDeposit(\n        uint session,\n        address offering,\n        uint percentage,\n        uint amount\n    );\n\n    event LogAddToSessionProfitsFromUnregisteredHouseOffering(\n        uint session,\n        address offering,\n        uint amount\n    );\n\n    event LogEmergencyWithdraw(\n        address creditHolder,\n        uint session,\n        uint amount,\n        uint payout\n    );\n\n    // Sets the house funds controller address.\n    function setHouseAuthorizedControllerAddress(address _address)\n    public\n    onlyFounder {\n        require(_address != 0x0);\n        require(HouseAuthorizedController(_address).isHouseAuthorizedController());\n        houseAuthorizedController = HouseAuthorizedController(_address);\n    }\n\n    // Sets the house funds controller address.\n    function setHouseFundsControllerAddress(address _address)\n    public\n    onlyFounder {\n        require(_address != 0x0);\n        require(HouseFundsController(_address).isHouseFundsController());\n        houseFundsController = HouseFundsController(_address);\n    }\n\n    // Sets the house sessions controller address.\n    function setHouseSessionsControllerAddress(address _address)\n    public\n    onlyFounder {\n        require(_address != 0x0);\n        require(HouseSessionsController(_address).isHouseSessionsController());\n        houseSessionsController = HouseSessionsController(_address);\n    }\n\n    // Sets the lottery address.\n    function setHouseLotteryControllerAddress(address _address)\n    public\n    onlyFounder {\n        require(_address != 0x0);\n        require(HouseLotteryController(_address).isHouseLotteryController());\n        houseLotteryController = HouseLotteryController(_address);\n    }\n\n    // Transfers DBETs from users to house contract address and generates credits in return.\n    // House contract must be approved to transfer amount from msg.sender to house.\n    function purchaseCredits(uint amount)\n    public\n    isSenderKycVerified\n    isNotEmergencyPaused\n    isCreditBuyingPeriod {\n        uint userCredits = houseFundsController.purchaseCredits(msg.sender, amount);\n        uint nextSession = currentSession + 1;\n\n        if (!houseLotteryController.allotLotteryTickets(nextSession, msg.sender, amount)) revert();\n\n        // Transfer tokens to house contract address.\n        if (!decentBetToken.transferFrom(msg.sender, address(this), amount)) revert();\n\n        emit LogPurchasedCredits(msg.sender, nextSession, amount, userCredits);\n    }\n\n    // Allows users to return credits and receive tokens along with profit in return.\n    function liquidateCredits(uint session, uint amount)\n    public\n    isWithdrawalAllowed(amount)\n    isSenderKycVerified\n    isNotEmergencyPaused\n    isProfitDistributionPeriod(session) {\n        uint payout;\n\n        (payout) = houseFundsController.liquidateCredits(msg.sender, session, amount);\n\n        // Transfers from house to user.\n        if (!decentBetToken.transfer(msg.sender, payout)) revert();\n\n        emit LogLiquidateCredits(msg.sender, session, amount, payout);\n    }\n\n    // Returns the payout per credit based on the house winnings for a session.\n\n    /* NOTE:\n        Since solidity cannot handle floating point types, to avoid instances where the payout per credit may lose value\n        due to loss of precision with using 1 as the base amount - The resulting payoutPerCredit uses 1 ether as a base\n        amount which means that the resulting payoutPerCredit would have to be multiplied by the actual amount\n        of credits and then divided by 1 ether to get the final payout amount.\n    */\n\n    // Allows users holding credits in the current session to roll over their credits to the\n    // next session.\n    function rollOverCredits(uint amount)\n    public\n    isSenderKycVerified\n    isNotEmergencyPaused\n    isCreditBuyingPeriod {\n        if (!houseFundsController.rollOverCredits(msg.sender, amount)) revert();\n\n        emit LogRolledOverCredits(msg.sender, currentSession, amount);\n    }\n\n    // Allows users who've rolled over credits from a session to claim credits in the next session based on the\n    // payout per credit for the previous session.\n    function claimRolledOverCredits()\n    public\n    isNotEmergencyPaused\n    isSessionActivePeriod\n    haveAllOfferingsBeenWithdrawn(safeSub(currentSession, 1)) {\n        uint adjustedCredits;\n        uint rolledOverFromPreviousSession;\n        uint creditsForCurrentSession;\n\n        (adjustedCredits, rolledOverFromPreviousSession, creditsForCurrentSession) =\n        houseFundsController.claimRolledOverCredits(msg.sender);\n\n        for (uint i = 0; i < houseSessionsController.getSessionOfferingsLength(currentSession); i++) {\n            address houseOffering = houseSessionsController.getSessionOffering(currentSession, i);\n            // If the offering has been deleted, it would return 0x0 here. Ignore it.\n            if (houseOffering != 0x0) {\n                uint allocation;\n                (allocation, ,) = houseSessionsController.getOfferingDetails(currentSession, houseOffering);\n                uint tokenAmount = safeDiv(safeMul(adjustedCredits, allocation), 100);\n\n                if (!decentBetToken.approve(houseOffering, tokenAmount))\n                    revert();\n\n                if (!HouseOffering(houseOffering).houseDeposit(tokenAmount, currentSession))\n                    revert();\n\n                emit LogOfferingDeposit(currentSession, houseOffering, allocation, tokenAmount);\n            }\n        }\n\n        if (!houseLotteryController.allotLotteryTickets(currentSession, msg.sender, adjustedCredits)) revert();\n\n        emit LogClaimRolledOverCredits(msg.sender, currentSession, rolledOverFromPreviousSession, adjustedCredits,\n            creditsForCurrentSession);\n    }\n\n    // Withdraws session tokens for the previously ended session from a house offering.\n    function withdrawPreviousSessionTokensFromHouseOffering(address houseOffering)\n    public\n    onlyAuthorized {\n        uint previousSessionTokens;\n        bool allOfferingsWithdrawn;\n\n        // Checks for getTime() >= previousSession + 2 days are made here\n        (previousSessionTokens, allOfferingsWithdrawn) =\n        houseSessionsController.withdrawPreviousSessionTokensFromHouseOffering(houseOffering);\n\n        if(!houseFundsController.withdrawPreviousSessionTokensFromHouseOffering(\n            previousSessionTokens,\n            allOfferingsWithdrawn\n        ))\n            revert();\n\n        // Withdraw from previous session\n        // Do not withdraw if balance is already 0\n        if(previousSessionTokens > 0)\n            if (!HouseOffering(houseOffering).withdrawPreviousSessionTokens())\n                revert();\n    }\n\n    // Allow authorized addresses to add profits for offerings that haven't been registered\n    // with the house for the current session.\n    function addToSessionProfitsFromUnregisteredHouseOffering(\n        address unregisteredOffering,\n        uint session,\n        uint amount\n    )\n    public\n    onlyAuthorized {\n        // Session zero doesn't have profits\n        require(currentSession != 0);\n        // Can only be for current and previous sessions\n        require(session == currentSession || session == (safeSub(currentSession, 1)));\n        // Check if a balance is available with offering\n        require(decentBetToken.balanceOf(msg.sender) >= amount);\n        // Sender must have allowance greater than the amount to be transferred\n        require(decentBetToken.allowance(msg.sender, address(this)) >= amount);\n\n        if (!houseFundsController.addToSessionProfitsFromUnregisteredHouseOffering(session, amount))\n            revert();\n        if (!decentBetToken.transferFrom(msg.sender, address(this), amount))\n            revert();\n\n        emit LogAddToSessionProfitsFromUnregisteredHouseOffering(\n            session,\n            unregisteredOffering,\n            amount\n        );\n    }\n\n    // Allocates a %age of tokens for a house offering for the next session\n    function allocateTokensForHouseOffering(uint percentage, address houseOffering)\n    public\n    isEndOfActiveSession\n    onlyAuthorized {\n        if (!houseSessionsController.allocateTokensForHouseOffering(percentage, houseOffering))\n            revert();\n        emit LogOfferingAllocation((currentSession + 1), houseOffering, percentage);\n    }\n\n    // Finalize token allocation among offerings for the next session\n    function finalizeTokenAllocations()\n    public\n    isEndOfActiveSession\n    onlyAuthorized {\n        if (!houseSessionsController.finalizeTokenAllocations())\n            revert();\n        emit LogFinalizedTokenAllocations((currentSession + 1));\n    }\n\n    function depositAllocatedTokensToHouseOffering(address houseOffering)\n    public\n    isEndOfActiveSession\n    areSessionTokenAllocationsFinalized(currentSession + 1)\n    onlyAuthorized {\n        uint nextSession = currentSession + 1;\n\n        uint totalSessionFunds;\n        (totalSessionFunds,,,,,,) = houseFundsController.houseFunds(nextSession);\n        uint allocation;\n        (allocation,,) = houseSessionsController.getOfferingDetails(nextSession, houseOffering);\n        uint tokenAmount = safeDiv(safeMul(totalSessionFunds, allocation), 100);\n\n        if (!houseSessionsController.depositAllocatedTokensToHouseOffering(houseOffering))\n            revert();\n        if (!decentBetToken.approve(houseOffering, tokenAmount))\n            revert();\n        if (!HouseOffering(houseOffering).houseDeposit(tokenAmount, nextSession))\n            revert();\n\n        emit LogOfferingDeposit(nextSession, houseOffering, allocation, tokenAmount);\n    }\n\n    // Get house lottery to retrieve random ticket winner using oraclize as RNG.\n    function pickLotteryWinner(uint session)\n    public\n    payable\n    onlyAuthorized\n    isProfitDistributionPeriod(session)\n    returns (bool) {\n        if (!houseLotteryController.pickWinner(currentSession))\n            revert();\n        emit LogPickLotteryWinner(currentSession);\n        return true;\n    }\n\n    // Allows a winner to withdraw lottery winnings.\n    function claimLotteryWinnings(uint session)\n    public\n    isSenderKycVerified\n    isProfitDistributionPeriod(session)\n    returns (uint, uint){\n        int sessionProfit = houseFundsController.getProfitForSession(session);\n        require(sessionProfit > 0);\n\n        uint uSessionProfit = (uint) (sessionProfit);\n        uint lotteryPayout = safeDiv(safeMul(uSessionProfit, 5), 100);\n\n        if (!houseLotteryController.updateLotteryPayout(session, msg.sender, lotteryPayout)) revert();\n        if (!decentBetToken.transfer(msg.sender, lotteryPayout)) revert();\n\n        return (uSessionProfit, lotteryPayout);\n    }\n\n    // Starts the next session.\n    // Call this function once after setting up the house to begin the initial credit buying period.\n    function beginNextSession()\n    public\n    isEndOfSession\n    onlyAuthorized {\n        uint nextSession = safeAdd(currentSession, 1);\n        uint startTime;\n        uint endTime;\n        startTime = getTime();\n\n        if (currentSession == 0 && sessionZeroStartTime == 0) {\n            sessionZeroStartTime = getTime();\n            endTime = safeAdd(startTime, 1 weeks);\n            if (!houseSessionsController.beginNextSession(startTime, endTime, 0))\n                revert();\n            emit LogNewSession(currentSession, startTime, 0, endTime, 0);\n        } else {\n            currentSession = nextSession;\n            endTime = safeAdd(startTime, 12 weeks);\n\n            if (!houseSessionsController.beginNextSession(startTime, endTime, sessionZeroStartTime))\n                revert();\n            for (uint i = 0; i < houseSessionsController.getOfferingAddressesLength(); i++)\n            // Offerings may be deleted from the next session i.e return 0x0. Ignore deleted offerings.\n                if (houseSessionsController.offeringAddresses(i) != 0x0)\n                    HouseOffering(houseSessionsController.offeringAddresses(i)).setSession(nextSession);\n\n            emit LogNewSession(nextSession, startTime, 0, endTime, 0);\n        }\n    }\n\n    // Emergency features\n    // Emergency withdraws current session tokens from a house offering.\n    function emergencyWithdrawCurrentSessionTokensFromHouseOffering(address houseOffering)\n    public\n    isEmergencyPaused\n    onlyFounder {\n        // If offering has already been withdrawn, revert.\n        require(!houseSessionsController.isOfferingWithdrawn(currentSession, houseOffering));\n\n        uint sessionTokens;\n        bool allOfferingsWithdrawn;\n\n        (sessionTokens, allOfferingsWithdrawn) =\n        houseSessionsController.emergencyWithdrawCurrentSessionTokensFromHouseOffering(\n            houseOffering\n        );\n\n        houseFundsController.emergencyWithdrawCurrentSessionTokensFromHouseOffering(\n            sessionTokens,\n            allOfferingsWithdrawn\n        );\n\n        // Withdraw from previous session\n        if (!HouseOffering(houseOffering).emergencyWithdrawCurrentSessionTokens()) revert();\n    }\n\n    // Allows users to withdraw tokens if the contract is in an emergencyPaused state.\n    function emergencyWithdraw()\n    public\n    isEmergencyPaused\n    isEmergencyWithdrawalsEnabled {\n        uint payout;\n        uint amount;\n\n        (payout, amount) = houseFundsController.emergencyWithdraw(msg.sender);\n\n        if (!decentBetToken.transfer(msg.sender, payout)) revert();\n\n        emit LogEmergencyWithdraw(msg.sender, currentSession, amount, payout);\n    }\n\n    function getHouseControllers()\n    public\n    view\n    returns (address, address, address) {\n        return (\n            address(houseAuthorizedController),\n            address(houseFundsController),\n            address(houseSessionsController)\n        );\n    }\n\n    // Do not accept ETH sent to this contract.\n    function()\n    public {\n        revert();\n    }\n\n}\n",
  "sourcePath": "/Users/dev/Projects/platform-contracts/contracts/House/House.sol",
  "compiler": {
    "name": "solc",
    "version": "0.4.21+commit.dfe3193c.Emscripten.clang"
  },
  "schemaVersion": "2.0.0",
  "updatedAt": "2018-05-28T22:01:55.286Z"
}