{
  "contractName": "HouseAuthorizedController",
  "abi": [
    {
      "constant": true,
      "inputs": [
        {
          "name": "",
          "type": "uint256"
        }
      ],
      "name": "authorizedAddresses",
      "outputs": [
        {
          "name": "",
          "type": "address"
        }
      ],
      "payable": false,
      "stateMutability": "view",
      "type": "function"
    },
    {
      "constant": true,
      "inputs": [
        {
          "name": "",
          "type": "address"
        }
      ],
      "name": "authorized",
      "outputs": [
        {
          "name": "",
          "type": "bool"
        }
      ],
      "payable": false,
      "stateMutability": "view",
      "type": "function"
    },
    {
      "constant": true,
      "inputs": [],
      "name": "isHouseAuthorizedController",
      "outputs": [
        {
          "name": "",
          "type": "bool"
        }
      ],
      "payable": false,
      "stateMutability": "view",
      "type": "function"
    },
    {
      "constant": true,
      "inputs": [],
      "name": "house",
      "outputs": [
        {
          "name": "",
          "type": "address"
        }
      ],
      "payable": false,
      "stateMutability": "view",
      "type": "function"
    },
    {
      "inputs": [
        {
          "name": "_house",
          "type": "address"
        }
      ],
      "payable": false,
      "stateMutability": "nonpayable",
      "type": "constructor"
    },
    {
      "constant": false,
      "inputs": [
        {
          "name": "_address",
          "type": "address"
        }
      ],
      "name": "addToAuthorizedAddresses",
      "outputs": [
        {
          "name": "",
          "type": "bool"
        }
      ],
      "payable": false,
      "stateMutability": "nonpayable",
      "type": "function"
    },
    {
      "constant": false,
      "inputs": [
        {
          "name": "_address",
          "type": "address"
        }
      ],
      "name": "removeFromAuthorizedAddresses",
      "outputs": [
        {
          "name": "",
          "type": "bool"
        }
      ],
      "payable": false,
      "stateMutability": "nonpayable",
      "type": "function"
    }
  ],
  "bytecode": "0x60606040526001600060146101000a81548160ff021916908315150217905550341561002a57600080fd5b604051602080610c548339810160405280805190602001909190505060008173ffffffffffffffffffffffffffffffffffffffff161415151561006c57600080fd5b806000806101000a81548173ffffffffffffffffffffffffffffffffffffffff021916908373ffffffffffffffffffffffffffffffffffffffff1602179055506101626000809054906101000a900473ffffffffffffffffffffffffffffffffffffffff1673ffffffffffffffffffffffffffffffffffffffff16634d853ee56040518163ffffffff167c0100000000000000000000000000000000000000000000000000000000028152600401602060405180830381600087803b151561013357600080fd5b5af1151561014057600080fd5b5050506040518051905061016964010000000002610255176401000000009004565b50506103f1565b60008060009054906101000a900473ffffffffffffffffffffffffffffffffffffffff1673ffffffffffffffffffffffffffffffffffffffff16634d853ee56040518163ffffffff167c0100000000000000000000000000000000000000000000000000000000028152600401602060405180830381600087803b15156101ef57600080fd5b5af115156101fc57600080fd5b5050506040518051905073ffffffffffffffffffffffffffffffffffffffff163373ffffffffffffffffffffffffffffffffffffffff1614151561023f57600080fd5b600260008373ffffffffffffffffffffffffffffffffffffffff1673ffffffffffffffffffffffffffffffffffffffff16815260200190815260200160002060009054906101000a900460ff1615151561029857600080fd5b600180548060010182816102ac91906103a0565b9160005260206000209001600084909190916101000a81548173ffffffffffffffffffffffffffffffffffffffff021916908373ffffffffffffffffffffffffffffffffffffffff160217905550506001600260008473ffffffffffffffffffffffffffffffffffffffff1673ffffffffffffffffffffffffffffffffffffffff16815260200190815260200160002060006101000a81548160ff0219169083151502179055506103736003546001610382640100000000026107a0176401000000009004565b60038190555060019050919050565b600080828401905083811015151561039657fe5b8091505092915050565b8154818355818115116103c7578183600052602060002091820191016103c691906103cc565b5b505050565b6103ee91905b808211156103ea5760008160009055506001016103d2565b5090565b90565b610854806104006000396000f300606060405260043610610078576000357c0100000000000000000000000000000000000000000000000000000000900463ffffffff1680631bfd320f1461007d5780636980195a146100ce578063958746311461011f578063b918161114610182578063f7f8186a146101d3578063ff9b3acf14610200575b600080fd5b341561008857600080fd5b6100b4600480803573ffffffffffffffffffffffffffffffffffffffff16906020019091905050610255565b604051808215151515815260200191505060405180910390f35b34156100d957600080fd5b610105600480803573ffffffffffffffffffffffffffffffffffffffff1690602001909190505061045b565b604051808215151515815260200191505060405180910390f35b341561012a57600080fd5b6101406004808035906020019091905050610709565b604051808273ffffffffffffffffffffffffffffffffffffffff1673ffffffffffffffffffffffffffffffffffffffff16815260200191505060405180910390f35b341561018d57600080fd5b6101b9600480803573ffffffffffffffffffffffffffffffffffffffff16906020019091905050610748565b604051808215151515815260200191505060405180910390f35b34156101de57600080fd5b6101e6610768565b604051808215151515815260200191505060405180910390f35b341561020b57600080fd5b61021361077b565b604051808273ffffffffffffffffffffffffffffffffffffffff1673ffffffffffffffffffffffffffffffffffffffff16815260200191505060405180910390f35b60008060009054906101000a900473ffffffffffffffffffffffffffffffffffffffff1673ffffffffffffffffffffffffffffffffffffffff16634d853ee56040518163ffffffff167c0100000000000000000000000000000000000000000000000000000000028152600401602060405180830381600087803b15156102db57600080fd5b5af115156102e857600080fd5b5050506040518051905073ffffffffffffffffffffffffffffffffffffffff163373ffffffffffffffffffffffffffffffffffffffff1614151561032b57600080fd5b600260008373ffffffffffffffffffffffffffffffffffffffff1673ffffffffffffffffffffffffffffffffffffffff16815260200190815260200160002060009054906101000a900460ff1615151561038457600080fd5b6001805480600101828161039891906107d7565b9160005260206000209001600084909190916101000a81548173ffffffffffffffffffffffffffffffffffffffff021916908373ffffffffffffffffffffffffffffffffffffffff160217905550506001600260008473ffffffffffffffffffffffffffffffffffffffff1673ffffffffffffffffffffffffffffffffffffffff16815260200190815260200160002060006101000a81548160ff02191690831515021790555061044c60035460016107a0565b60038190555060019050919050565b6000806000809054906101000a900473ffffffffffffffffffffffffffffffffffffffff1673ffffffffffffffffffffffffffffffffffffffff16634d853ee56040518163ffffffff167c0100000000000000000000000000000000000000000000000000000000028152600401602060405180830381600087803b15156104e257600080fd5b5af115156104ef57600080fd5b5050506040518051905073ffffffffffffffffffffffffffffffffffffffff163373ffffffffffffffffffffffffffffffffffffffff1614151561053257600080fd5b3373ffffffffffffffffffffffffffffffffffffffff168373ffffffffffffffffffffffffffffffffffffffff161415151561056d57600080fd5b600260008473ffffffffffffffffffffffffffffffffffffffff1673ffffffffffffffffffffffffffffffffffffffff16815260200190815260200160002060009054906101000a900460ff1615156105c557600080fd5b600090505b6001805490508110156106ff578273ffffffffffffffffffffffffffffffffffffffff166001828154811015156105fd57fe5b906000526020600020900160009054906101000a900473ffffffffffffffffffffffffffffffffffffffff1673ffffffffffffffffffffffffffffffffffffffff1614156106f25760018181548110151561065457fe5b906000526020600020900160006101000a81549073ffffffffffffffffffffffffffffffffffffffff02191690556000600260008573ffffffffffffffffffffffffffffffffffffffff1673ffffffffffffffffffffffffffffffffffffffff16815260200190815260200160002060006101000a81548160ff0219169083151502179055506106e760035460016107be565b6003819055506106ff565b80806001019150506105ca565b6001915050919050565b60018181548110151561071857fe5b90600052602060002090016000915054906101000a900473ffffffffffffffffffffffffffffffffffffffff1681565b60026020528060005260406000206000915054906101000a900460ff1681565b600060149054906101000a900460ff1681565b6000809054906101000a900473ffffffffffffffffffffffffffffffffffffffff1681565b60008082840190508381101515156107b457fe5b8091505092915050565b60008282111515156107cc57fe5b818303905092915050565b8154818355818115116107fe578183600052602060002091820191016107fd9190610803565b5b505050565b61082591905b80821115610821576000816000905550600101610809565b5090565b905600a165627a7a72305820efff33d5c3b36baec6b9d6cf92abbd65dac600c1fbbabee874b772fdae7dce5c0029",
  "source": "pragma solidity 0.4.21;\n\nimport \"../House.sol\";\nimport \"../../Libraries/SafeMath.sol\";\n\ncontract HouseAuthorizedController is SafeMath {\n\n    // Variables\n    House public house;\n    bool public isHouseAuthorizedController = true;\n\n    // Authorized addresses.\n    address[] public authorizedAddresses;\n    mapping (address => bool) public authorized;\n    uint authorizedAddressCount;\n\n    function HouseAuthorizedController(address _house)\n    public {\n        require(_house != 0x0);\n        house = House(_house);\n        addToAuthorizedAddresses(house.founder());\n    }\n\n    // Modifiers\n    // Allows functions to execute only if the house contract sent the transaction.\n    modifier onlyHouse() {\n        require(msg.sender == address(house));\n        _;\n    }\n\n    modifier onlyFounder() {\n        require(msg.sender == house.founder());\n        _;\n    }\n\n    // Adds an address to the list of authorized addresses.\n    function addToAuthorizedAddresses(address _address)\n    onlyFounder\n    public\n    returns (bool) {\n        require(!authorized[_address]);\n        authorizedAddresses.push(_address);\n        authorized[_address] = true;\n        authorizedAddressCount = safeAdd(authorizedAddressCount, 1);\n        return true;\n    }\n\n    // Removes an address from the list of authorized addresses.\n    function removeFromAuthorizedAddresses(address _address)\n    onlyFounder\n    public\n    returns (bool) {\n        require(_address != msg.sender);\n        require(authorized[_address]);\n        for (uint i = 0; i < authorizedAddresses.length; i++) {\n            if (authorizedAddresses[i] == _address) {\n                delete authorizedAddresses[i];\n                authorized[_address] = false;\n                authorizedAddressCount = safeSub(authorizedAddressCount, 1);\n                break;\n            }\n        }\n        return true;\n    }\n\n}\n",
  "sourcePath": "/Users/dev/Projects/platform-contracts/contracts/House/Controllers/HouseAuthorizedController.sol",
  "compiler": {
    "name": "solc",
    "version": "0.4.21+commit.dfe3193c.Emscripten.clang"
  },
  "schemaVersion": "2.0.0",
  "updatedAt": "2018-05-28T22:01:55.276Z"
}