{
  "contractName": "HouseFundsController",
  "abi": [
    {
      "constant": true,
      "inputs": [],
      "name": "isHouseFundsController",
      "outputs": [
        {
          "name": "",
          "type": "bool"
        }
      ],
      "payable": false,
      "stateMutability": "view",
      "type": "function"
    },
    {
      "constant": true,
      "inputs": [],
      "name": "MIN_CREDIT_PURCHASE",
      "outputs": [
        {
          "name": "",
          "type": "uint256"
        }
      ],
      "payable": false,
      "stateMutability": "view",
      "type": "function"
    },
    {
      "constant": true,
      "inputs": [
        {
          "name": "",
          "type": "uint256"
        }
      ],
      "name": "houseFunds",
      "outputs": [
        {
          "name": "totalFunds",
          "type": "uint256"
        },
        {
          "name": "totalPurchasedUserCredits",
          "type": "uint256"
        },
        {
          "name": "totalUserCredits",
          "type": "uint256"
        },
        {
          "name": "totalHousePayouts",
          "type": "uint256"
        },
        {
          "name": "totalWithdrawn",
          "type": "uint256"
        },
        {
          "name": "totalUnregisteredOfferingProfits",
          "type": "uint256"
        },
        {
          "name": "profit",
          "type": "int256"
        }
      ],
      "payable": false,
      "stateMutability": "view",
      "type": "function"
    },
    {
      "constant": true,
      "inputs": [],
      "name": "decentBetToken",
      "outputs": [
        {
          "name": "",
          "type": "address"
        }
      ],
      "payable": false,
      "stateMutability": "view",
      "type": "function"
    },
    {
      "constant": true,
      "inputs": [],
      "name": "PROFIT_SHARE_PERCENT",
      "outputs": [
        {
          "name": "",
          "type": "uint256"
        }
      ],
      "payable": false,
      "stateMutability": "view",
      "type": "function"
    },
    {
      "inputs": [
        {
          "name": "_house",
          "type": "address"
        }
      ],
      "payable": false,
      "stateMutability": "nonpayable",
      "type": "constructor"
    },
    {
      "constant": false,
      "inputs": [
        {
          "name": "_address",
          "type": "address"
        },
        {
          "name": "amount",
          "type": "uint256"
        }
      ],
      "name": "purchaseCredits",
      "outputs": [
        {
          "name": "",
          "type": "uint256"
        }
      ],
      "payable": false,
      "stateMutability": "nonpayable",
      "type": "function"
    },
    {
      "constant": false,
      "inputs": [
        {
          "name": "_address",
          "type": "address"
        },
        {
          "name": "amount",
          "type": "uint256"
        }
      ],
      "name": "rollOverCredits",
      "outputs": [
        {
          "name": "",
          "type": "bool"
        }
      ],
      "payable": false,
      "stateMutability": "nonpayable",
      "type": "function"
    },
    {
      "constant": false,
      "inputs": [
        {
          "name": "_address",
          "type": "address"
        },
        {
          "name": "session",
          "type": "uint256"
        },
        {
          "name": "amount",
          "type": "uint256"
        }
      ],
      "name": "liquidateCredits",
      "outputs": [
        {
          "name": "",
          "type": "uint256"
        }
      ],
      "payable": false,
      "stateMutability": "nonpayable",
      "type": "function"
    },
    {
      "constant": false,
      "inputs": [
        {
          "name": "_address",
          "type": "address"
        }
      ],
      "name": "claimRolledOverCredits",
      "outputs": [
        {
          "name": "",
          "type": "uint256"
        },
        {
          "name": "",
          "type": "uint256"
        },
        {
          "name": "",
          "type": "uint256"
        }
      ],
      "payable": false,
      "stateMutability": "nonpayable",
      "type": "function"
    },
    {
      "constant": true,
      "inputs": [
        {
          "name": "session",
          "type": "uint256"
        }
      ],
      "name": "getPayoutPerCredit",
      "outputs": [
        {
          "name": "",
          "type": "uint256"
        }
      ],
      "payable": false,
      "stateMutability": "view",
      "type": "function"
    },
    {
      "constant": false,
      "inputs": [
        {
          "name": "session",
          "type": "uint256"
        },
        {
          "name": "amount",
          "type": "uint256"
        }
      ],
      "name": "addToSessionProfitsFromUnregisteredHouseOffering",
      "outputs": [
        {
          "name": "",
          "type": "bool"
        }
      ],
      "payable": false,
      "stateMutability": "nonpayable",
      "type": "function"
    },
    {
      "constant": false,
      "inputs": [
        {
          "name": "previousSessionTokens",
          "type": "uint256"
        },
        {
          "name": "allOfferingsWithdrawn",
          "type": "bool"
        }
      ],
      "name": "withdrawPreviousSessionTokensFromHouseOffering",
      "outputs": [
        {
          "name": "",
          "type": "bool"
        }
      ],
      "payable": false,
      "stateMutability": "nonpayable",
      "type": "function"
    },
    {
      "constant": false,
      "inputs": [
        {
          "name": "currentSessionTokens",
          "type": "uint256"
        },
        {
          "name": "allOfferingsWithdrawn",
          "type": "bool"
        }
      ],
      "name": "emergencyWithdrawCurrentSessionTokensFromHouseOffering",
      "outputs": [
        {
          "name": "",
          "type": "bool"
        }
      ],
      "payable": false,
      "stateMutability": "nonpayable",
      "type": "function"
    },
    {
      "constant": false,
      "inputs": [
        {
          "name": "_address",
          "type": "address"
        }
      ],
      "name": "emergencyWithdraw",
      "outputs": [
        {
          "name": "",
          "type": "uint256"
        },
        {
          "name": "",
          "type": "uint256"
        }
      ],
      "payable": false,
      "stateMutability": "nonpayable",
      "type": "function"
    },
    {
      "constant": true,
      "inputs": [
        {
          "name": "session",
          "type": "uint256"
        },
        {
          "name": "_address",
          "type": "address"
        }
      ],
      "name": "getUserCreditsForSession",
      "outputs": [
        {
          "name": "amount",
          "type": "uint256"
        },
        {
          "name": "liquidated",
          "type": "uint256"
        },
        {
          "name": "rolledOverToNextSession",
          "type": "uint256"
        },
        {
          "name": "claimedFromPreviousSession",
          "type": "uint256"
        },
        {
          "name": "totalFunds",
          "type": "uint256"
        },
        {
          "name": "totalUserCredits",
          "type": "uint256"
        }
      ],
      "payable": false,
      "stateMutability": "view",
      "type": "function"
    },
    {
      "constant": true,
      "inputs": [
        {
          "name": "session",
          "type": "uint256"
        }
      ],
      "name": "getProfitForSession",
      "outputs": [
        {
          "name": "",
          "type": "int256"
        }
      ],
      "payable": false,
      "stateMutability": "view",
      "type": "function"
    },
    {
      "constant": true,
      "inputs": [
        {
          "name": "session",
          "type": "uint256"
        },
        {
          "name": "index",
          "type": "uint256"
        }
      ],
      "name": "getUserForSession",
      "outputs": [
        {
          "name": "_address",
          "type": "address"
        }
      ],
      "payable": false,
      "stateMutability": "view",
      "type": "function"
    }
  ],
  "bytecode": "0x606060405260018060146101000a81548160ff021916908315150217905550670de0b6b3a7640000600255341561003557600080fd5b604051602080612ac58339810160405280805190602001909190505060008173ffffffffffffffffffffffffffffffffffffffff161415151561007757600080fd5b806000806101000a81548173ffffffffffffffffffffffffffffffffffffffff021916908373ffffffffffffffffffffffffffffffffffffffff1602179055506000809054906101000a900473ffffffffffffffffffffffffffffffffffffffff1673ffffffffffffffffffffffffffffffffffffffff1663cba44d4f6040518163ffffffff167c0100000000000000000000000000000000000000000000000000000000028152600401602060405180830381600087803b151561013b57600080fd5b5af1151561014857600080fd5b50505060405180519050600160006101000a81548173ffffffffffffffffffffffffffffffffffffffff021916908373ffffffffffffffffffffffffffffffffffffffff16021790555050612923806101a26000396000f3006060604052600436106100f1576000357c0100000000000000000000000000000000000000000000000000000000900463ffffffff168063139e0aa7146100f657806319cbc5a31461014c57806321bb5704146101795780633580e404146101a2578063457fe0b8146101fc578063467f48b614610257578063513b2b0a146102b85780636ff1c9bc146103245780638449e73514610378578063aee5597d146103f1578063babe82f614610435578063c05a1b3314610494578063c2088c3f146104da578063cba44d4f14610520578063ef0c0ff314610575578063f95e7ba2146105ac578063fb2240e3146105d5575b600080fd5b341561010157600080fd5b610136600480803573ffffffffffffffffffffffffffffffffffffffff1690602001909190803590602001909190505061060c565b6040518082815260200191505060405180910390f35b341561015757600080fd5b61015f610c5c565b604051808215151515815260200191505060405180910390f35b341561018457600080fd5b61018c610c6f565b6040518082815260200191505060405180910390f35b34156101ad57600080fd5b6101e2600480803573ffffffffffffffffffffffffffffffffffffffff16906020019091908035906020019091905050610c75565b604051808215151515815260200191505060405180910390f35b341561020757600080fd5b610233600480803573ffffffffffffffffffffffffffffffffffffffff169060200190919050506110dd565b60405180848152602001838152602001828152602001935050505060405180910390f35b341561026257600080fd5b61027860048080359060200190919050506117cb565b6040518088815260200187815260200186815260200185815260200184815260200183815260200182815260200197505050505050505060405180910390f35b34156102c357600080fd5b6102e2600480803590602001909190803590602001909190505061180d565b604051808273ffffffffffffffffffffffffffffffffffffffff1673ffffffffffffffffffffffffffffffffffffffff16815260200191505060405180910390f35b341561032f57600080fd5b61035b600480803573ffffffffffffffffffffffffffffffffffffffff16906020019091905050611866565b604051808381526020018281526020019250505060405180910390f35b341561038357600080fd5b6103b8600480803590602001909190803573ffffffffffffffffffffffffffffffffffffffff16906020019091905050611d32565b60405180878152602001868152602001858152602001848152602001838152602001828152602001965050505050505060405180910390f35b34156103fc57600080fd5b61041b6004808035906020019091908035906020019091905050611edb565b604051808215151515815260200191505060405180910390f35b341561044057600080fd5b61047e600480803573ffffffffffffffffffffffffffffffffffffffff16906020019091908035906020019091908035906020019091905050611faf565b6040518082815260200191505060405180910390f35b341561049f57600080fd5b6104c06004808035906020019091908035151590602001909190505061238a565b604051808215151515815260200191505060405180910390f35b34156104e557600080fd5b61050660048080359060200190919080351515906020019091905050612523565b604051808215151515815260200191505060405180910390f35b341561052b57600080fd5b6105336126d5565b604051808273ffffffffffffffffffffffffffffffffffffffff1673ffffffffffffffffffffffffffffffffffffffff16815260200191505060405180910390f35b341561058057600080fd5b61059660048080359060200190919050506126fb565b6040518082815260200191505060405180910390f35b34156105b757600080fd5b6105bf61271b565b6040518082815260200191505060405180910390f35b34156105e057600080fd5b6105f66004808035906020019091905050612720565b6040518082815260200191505060405180910390f35b600080838380600160009054906101000a900473ffffffffffffffffffffffffffffffffffffffff1673ffffffffffffffffffffffffffffffffffffffff166370a08231846040518263ffffffff167c0100000000000000000000000000000000000000000000000000000000028152600401808273ffffffffffffffffffffffffffffffffffffffff1673ffffffffffffffffffffffffffffffffffffffff168152602001915050602060405180830381600087803b15156106ce57600080fd5b5af115156106db57600080fd5b50505060405180519050101515156106f257600080fd5b6000809054906101000a900473ffffffffffffffffffffffffffffffffffffffff1673ffffffffffffffffffffffffffffffffffffffff163373ffffffffffffffffffffffffffffffffffffffff1614151561074d57600080fd5b600254851015151561075e57600080fd5b84600160009054906101000a900473ffffffffffffffffffffffffffffffffffffffff1673ffffffffffffffffffffffffffffffffffffffff1663dd62ed3e886000809054906101000a900473ffffffffffffffffffffffffffffffffffffffff166040518363ffffffff167c0100000000000000000000000000000000000000000000000000000000028152600401808373ffffffffffffffffffffffffffffffffffffffff1673ffffffffffffffffffffffffffffffffffffffff1681526020018273ffffffffffffffffffffffffffffffffffffffff1673ffffffffffffffffffffffffffffffffffffffff16815260200192505050602060405180830381600087803b151561087057600080fd5b5af1151561087d57600080fd5b505050604051805190501015151561089457600080fd5b6109396000809054906101000a900473ffffffffffffffffffffffffffffffffffffffff1673ffffffffffffffffffffffffffffffffffffffff1663d41667636040518163ffffffff167c0100000000000000000000000000000000000000000000000000000000028152600401602060405180830381600087803b151561091b57600080fd5b5af1151561092857600080fd5b50505060405180519050600161281e565b925061095b60036000858152602001908152602001600020600001548661281e565b600360008581526020019081526020016000206000018190555061099560036000858152602001908152602001600020600101548661281e565b60036000858152602001908152602001600020600101819055506109cf60036000858152602001908152602001600020600201548661281e565b6003600085815260200190815260200160002060020181905550610a496003600085815260200190815260200160002060030160008873ffffffffffffffffffffffffffffffffffffffff1673ffffffffffffffffffffffffffffffffffffffff168152602001908152602001600020600001548661281e565b6003600085815260200190815260200160002060030160008873ffffffffffffffffffffffffffffffffffffffff1673ffffffffffffffffffffffffffffffffffffffff16815260200190815260200160002060000181905550600015156003600085815260200190815260200160002060030160008873ffffffffffffffffffffffffffffffffffffffff1673ffffffffffffffffffffffffffffffffffffffff16815260200190815260200160002060050160009054906101000a900460ff1615151415610bfa57600360008481526020019081526020016000206005018054806001018281610b3b91906128a6565b9160005260206000209001600088909190916101000a81548173ffffffffffffffffffffffffffffffffffffffff021916908373ffffffffffffffffffffffffffffffffffffffff1602179055505060016003600085815260200190815260200160002060030160008873ffffffffffffffffffffffffffffffffffffffff1673ffffffffffffffffffffffffffffffffffffffff16815260200190815260200160002060050160006101000a81548160ff0219169083151502179055505b6003600084815260200190815260200160002060030160003373ffffffffffffffffffffffffffffffffffffffff1673ffffffffffffffffffffffffffffffffffffffff16815260200190815260200160002060000154935050505092915050565b600160149054906101000a900460ff1681565b60025481565b600080600080600080876000809054906101000a900473ffffffffffffffffffffffffffffffffffffffff1673ffffffffffffffffffffffffffffffffffffffff1663d41667636040518163ffffffff167c0100000000000000000000000000000000000000000000000000000000028152600401602060405180830381600087803b1515610d0357600080fd5b5af11515610d1057600080fd5b5050506040518051905088806003600084815260200190815260200160002060030160008573ffffffffffffffffffffffffffffffffffffffff1673ffffffffffffffffffffffffffffffffffffffff1681526020019081526020016000206000015410151515610d8057600080fd5b6000809054906101000a900473ffffffffffffffffffffffffffffffffffffffff1673ffffffffffffffffffffffffffffffffffffffff163373ffffffffffffffffffffffffffffffffffffffff16141515610ddb57600080fd5b6000809054906101000a900473ffffffffffffffffffffffffffffffffffffffff1673ffffffffffffffffffffffffffffffffffffffff1663d41667636040518163ffffffff167c0100000000000000000000000000000000000000000000000000000000028152600401602060405180830381600087803b1515610e5f57600080fd5b5af11515610e6c57600080fd5b505050604051805190509750600088111515610e8757600080fd5b6003600089815260200190815260200160002060030160008c73ffffffffffffffffffffffffffffffffffffffff1673ffffffffffffffffffffffffffffffffffffffff1681526020019081526020016000206000015496506003600089815260200190815260200160002060030160008c73ffffffffffffffffffffffffffffffffffffffff1673ffffffffffffffffffffffffffffffffffffffff168152602001908152602001600020600401549550610f43878b61283c565b600360008a815260200190815260200160002060030160008d73ffffffffffffffffffffffffffffffffffffffff1673ffffffffffffffffffffffffffffffffffffffff16815260200190815260200160002060000181905550610fa7868b61281e565b600360008a815260200190815260200160002060030160008d73ffffffffffffffffffffffffffffffffffffffff1673ffffffffffffffffffffffffffffffffffffffff1681526020019081526020016000206004018190555061100c88600161281e565b94506003600086815260200190815260200160002060030160008c73ffffffffffffffffffffffffffffffffffffffff1673ffffffffffffffffffffffffffffffffffffffff168152602001908152602001600020600201549350611071848b61281e565b6003600087815260200190815260200160002060030160008d73ffffffffffffffffffffffffffffffffffffffff1673ffffffffffffffffffffffffffffffffffffffff1681526020019081526020016000206002018190555060019850505050505050505092915050565b6000806000806000806000806000896000600360008060009054906101000a900473ffffffffffffffffffffffffffffffffffffffff1673ffffffffffffffffffffffffffffffffffffffff1663d41667636040518163ffffffff167c0100000000000000000000000000000000000000000000000000000000028152600401602060405180830381600087803b151561117657600080fd5b5af1151561118357600080fd5b50505060405180519050815260200190815260200160002060030160008373ffffffffffffffffffffffffffffffffffffffff1673ffffffffffffffffffffffffffffffffffffffff168152602001908152602001600020600201541115156111eb57600080fd5b6000809054906101000a900473ffffffffffffffffffffffffffffffffffffffff1673ffffffffffffffffffffffffffffffffffffffff163373ffffffffffffffffffffffffffffffffffffffff1614151561124657600080fd5b6000809054906101000a900473ffffffffffffffffffffffffffffffffffffffff1673ffffffffffffffffffffffffffffffffffffffff1663d41667636040518163ffffffff167c0100000000000000000000000000000000000000000000000000000000028152600401602060405180830381600087803b15156112ca57600080fd5b5af115156112d757600080fd5b5050506040518051905096506112ee87600161283c565b95506003600088815260200190815260200160002060030160008c73ffffffffffffffffffffffffffffffffffffffff1673ffffffffffffffffffffffffffffffffffffffff16815260200190815260200160002060020154945061135286612720565b935061136f6113618587612855565b670de0b6b3a7640000612890565b92506003600088815260200190815260200160002060030160008c73ffffffffffffffffffffffffffffffffffffffff1673ffffffffffffffffffffffffffffffffffffffff168152602001908152602001600020600001549150826003600089815260200190815260200160002060030160008d73ffffffffffffffffffffffffffffffffffffffff1673ffffffffffffffffffffffffffffffffffffffff1681526020019081526020016000206003018190555060006003600089815260200190815260200160002060030160008d73ffffffffffffffffffffffffffffffffffffffff1673ffffffffffffffffffffffffffffffffffffffff1681526020019081526020016000206002018190555061148b828461281e565b6003600089815260200190815260200160002060030160008d73ffffffffffffffffffffffffffffffffffffffff1673ffffffffffffffffffffffffffffffffffffffff16815260200190815260200160002060000181905550600015156003600089815260200190815260200160002060030160008d73ffffffffffffffffffffffffffffffffffffffff1673ffffffffffffffffffffffffffffffffffffffff16815260200190815260200160002060050160009054906101000a900460ff161515141561163c5760036000888152602001908152602001600020600501805480600101828161157d91906128a6565b916000526020600020900160008d909190916101000a81548173ffffffffffffffffffffffffffffffffffffffff021916908373ffffffffffffffffffffffffffffffffffffffff1602179055505060016003600089815260200190815260200160002060030160008d73ffffffffffffffffffffffffffffffffffffffff1673ffffffffffffffffffffffffffffffffffffffff16815260200190815260200160002060050160006101000a81548160ff0219169083151502179055505b61165c60036000898152602001908152602001600020600201548461281e565b600360008981526020019081526020016000206002018190555061169660036000898152602001908152602001600020600101548461281e565b60036000898152602001908152602001600020600101819055506116d060036000898152602001908152602001600020600001548461281e565b600360008981526020019081526020016000206000018190555061170a60036000888152602001908152602001600020600201548661283c565b600360008881526020019081526020016000206002018190555061174460036000888152602001908152602001600020600001548661283c565b60036000888152602001908152602001600020600001819055508285600360008a815260200190815260200160002060030160008e73ffffffffffffffffffffffffffffffffffffffff1673ffffffffffffffffffffffffffffffffffffffff16815260200190815260200160002060000154995099509950505050505050509193909250565b60036020528060005260406000206000915090508060000154908060010154908060020154908060060154908060070154908060080154908060090154905087565b6000600360008481526020019081526020016000206005018281548110151561183257fe5b906000526020600020900160009054906101000a900473ffffffffffffffffffffffffffffffffffffffff16905092915050565b6000806000806000806000809054906101000a900473ffffffffffffffffffffffffffffffffffffffff1673ffffffffffffffffffffffffffffffffffffffff163373ffffffffffffffffffffffffffffffffffffffff161415156118ca57600080fd5b6000809054906101000a900473ffffffffffffffffffffffffffffffffffffffff1673ffffffffffffffffffffffffffffffffffffffff1663d41667636040518163ffffffff167c0100000000000000000000000000000000000000000000000000000000028152600401602060405180830381600087803b151561194e57600080fd5b5af1151561195b57600080fd5b50505060405180519050935060006003600086815260200190815260200160002060030160008973ffffffffffffffffffffffffffffffffffffffff1673ffffffffffffffffffffffffffffffffffffffff168152602001908152602001600020600001541115156119cc57600080fd5b6119d584612720565b92506003600085815260200190815260200160002060030160008873ffffffffffffffffffffffffffffffffffffffff1673ffffffffffffffffffffffffffffffffffffffff168152602001908152602001600020600001549150611a4b611a3d8484612855565b670de0b6b3a7640000612890565b9050611aaa6003600086815260200190815260200160002060040160008973ffffffffffffffffffffffffffffffffffffffff1673ffffffffffffffffffffffffffffffffffffffff168152602001908152602001600020548261281e565b6003600086815260200190815260200160002060040160008973ffffffffffffffffffffffffffffffffffffffff1673ffffffffffffffffffffffffffffffffffffffff16815260200190815260200160002081905550611b2160036000868152602001908152602001600020600201548361283c565b6003600086815260200190815260200160002060020181905550611b5b60036000868152602001908152602001600020600001548361283c565b6003600086815260200190815260200160002060000181905550611bd56003600086815260200190815260200160002060030160008973ffffffffffffffffffffffffffffffffffffffff1673ffffffffffffffffffffffffffffffffffffffff168152602001908152602001600020600001548361283c565b6003600086815260200190815260200160002060030160008973ffffffffffffffffffffffffffffffffffffffff1673ffffffffffffffffffffffffffffffffffffffff16815260200190815260200160002060000181905550611c8f6003600086815260200190815260200160002060030160008973ffffffffffffffffffffffffffffffffffffffff1673ffffffffffffffffffffffffffffffffffffffff168152602001908152602001600020600101548361281e565b6003600086815260200190815260200160002060030160008973ffffffffffffffffffffffffffffffffffffffff1673ffffffffffffffffffffffffffffffffffffffff16815260200190815260200160002060010181905550611d0960036000868152602001908152602001600020600601548261281e565b600360008681526020019081526020016000206006018190555080829550955050505050915091565b6000806000806000806003600089815260200190815260200160002060030160008873ffffffffffffffffffffffffffffffffffffffff1673ffffffffffffffffffffffffffffffffffffffff16815260200190815260200160002060000154600360008a815260200190815260200160002060030160008973ffffffffffffffffffffffffffffffffffffffff1673ffffffffffffffffffffffffffffffffffffffff16815260200190815260200160002060010154600360008b815260200190815260200160002060030160008a73ffffffffffffffffffffffffffffffffffffffff1673ffffffffffffffffffffffffffffffffffffffff16815260200190815260200160002060040154600360008c815260200190815260200160002060030160008b73ffffffffffffffffffffffffffffffffffffffff1673ffffffffffffffffffffffffffffffffffffffff16815260200190815260200160002060030154600360008d815260200190815260200160002060000154600360008e8152602001908152602001600020600201549550955095509550955095509295509295509295565b60008060009054906101000a900473ffffffffffffffffffffffffffffffffffffffff1673ffffffffffffffffffffffffffffffffffffffff163373ffffffffffffffffffffffffffffffffffffffff16141515611f3857600080fd5b611f5860036000858152602001908152602001600020600801548361281e565b60036000858152602001908152602001600020600801819055508160036000858152602001908152602001600020600901540160036000858152602001908152602001600020600901819055506001905092915050565b60008060008060009054906101000a900473ffffffffffffffffffffffffffffffffffffffff1673ffffffffffffffffffffffffffffffffffffffff163373ffffffffffffffffffffffffffffffffffffffff1614151561200f57600080fd5b836003600087815260200190815260200160002060030160008873ffffffffffffffffffffffffffffffffffffffff1673ffffffffffffffffffffffffffffffffffffffff16815260200190815260200160002060000154101580156120755750600084115b151561208057600080fd5b61208985612720565b91506120a66120988386612855565b670de0b6b3a7640000612890565b90506121056003600087815260200190815260200160002060040160008873ffffffffffffffffffffffffffffffffffffffff1673ffffffffffffffffffffffffffffffffffffffff168152602001908152602001600020548261281e565b6003600087815260200190815260200160002060040160008873ffffffffffffffffffffffffffffffffffffffff1673ffffffffffffffffffffffffffffffffffffffff1681526020019081526020016000208190555061217c60036000878152602001908152602001600020600201548561283c565b60036000878152602001908152602001600020600201819055506121b660036000878152602001908152602001600020600001548561283c565b60036000878152602001908152602001600020600001819055506122306003600087815260200190815260200160002060030160008873ffffffffffffffffffffffffffffffffffffffff1673ffffffffffffffffffffffffffffffffffffffff168152602001908152602001600020600001548561283c565b6003600087815260200190815260200160002060030160008873ffffffffffffffffffffffffffffffffffffffff1673ffffffffffffffffffffffffffffffffffffffff168152602001908152602001600020600001819055506122ea6003600087815260200190815260200160002060030160008873ffffffffffffffffffffffffffffffffffffffff1673ffffffffffffffffffffffffffffffffffffffff168152602001908152602001600020600101548561281e565b6003600087815260200190815260200160002060030160008873ffffffffffffffffffffffffffffffffffffffff1673ffffffffffffffffffffffffffffffffffffffff1681526020019081526020016000206001018190555061236460036000878152602001908152602001600020600601548261281e565b600360008781526020019081526020016000206006018190555080925050509392505050565b6000806000809054906101000a900473ffffffffffffffffffffffffffffffffffffffff1673ffffffffffffffffffffffffffffffffffffffff163373ffffffffffffffffffffffffffffffffffffffff161415156123e857600080fd5b6000809054906101000a900473ffffffffffffffffffffffffffffffffffffffff1673ffffffffffffffffffffffffffffffffffffffff1663d41667636040518163ffffffff167c0100000000000000000000000000000000000000000000000000000000028152600401602060405180830381600087803b151561246c57600080fd5b5af1151561247957600080fd5b5050506040518051905090506124a560036000838152602001908152602001600020600701548561281e565b6003600083815260200190815260200160002060070181905550821561251857600360008281526020019081526020016000206000015460036000838152602001908152602001600020600701540360036000838152602001908152602001600020600901600082825401925050819055505b600191505092915050565b6000806000809054906101000a900473ffffffffffffffffffffffffffffffffffffffff1673ffffffffffffffffffffffffffffffffffffffff163373ffffffffffffffffffffffffffffffffffffffff1614151561258157600080fd5b6126266000809054906101000a900473ffffffffffffffffffffffffffffffffffffffff1673ffffffffffffffffffffffffffffffffffffffff1663d41667636040518163ffffffff167c0100000000000000000000000000000000000000000000000000000000028152600401602060405180830381600087803b151561260857600080fd5b5af1151561261557600080fd5b50505060405180519050600161283c565b905061264860036000838152602001908152602001600020600701548561281e565b600360008381526020019081526020016000206007018190555082156126ca57600360008281526020019081526020016000206000015460036000838152602001908152602001600020600701540360036000838152602001908152602001600020600901540160036000838152602001908152602001600020600901819055505b600191505092915050565b600160009054906101000a900473ffffffffffffffffffffffffffffffffffffffff1681565b600060036000838152602001908152602001600020600901549050919050565b605f81565b600080600080600080600080600080600360008c8152602001908152602001600020600701549850600360008c8152602001908152602001600020600801549750600360008c8152602001908152602001600020600901549650612784898961281e565b9550600360008c81526020019081526020016000206001015494506127ba6127b4670de0b6b3a764000088612855565b86612890565b9350600087131561280c576127d784670de0b6b3a764000061283c565b92506127ee6127e784605f612855565b6064612890565b9150612802670de0b6b3a76400008361281e565b9050809950612810565b8399505b505050505050505050919050565b600080828401905083811015151561283257fe5b8091505092915050565b600082821115151561284a57fe5b818303905092915050565b600080600084141561286a5760009150612889565b828402905082848281151561287b57fe5b0414151561288557fe5b8091505b5092915050565b6000818381151561289d57fe5b04905092915050565b8154818355818115116128cd578183600052602060002091820191016128cc91906128d2565b5b505050565b6128f491905b808211156128f05760008160009055506001016128d8565b5090565b905600a165627a7a7230582089eb31cdab14f7c009f3259efba2cd8f94d26b79c29c70d799fdc54919ecc6160029",
  "source": "pragma solidity 0.4.21;\n\nimport \"../House.sol\";\nimport \"../../Token/ERC20.sol\";\nimport \"../../Libraries/SafeMath.sol\";\n\n// All functionality related to house funds reside here.\n// House fund records are saved here to decouple the record keeping from the House contract to reduce gas costs on deployment.\ncontract HouseFundsController is SafeMath {\n\n    // Structs\n    struct UserCredits {\n        uint amount;\n        uint liquidated;\n        uint rolledOverFromPreviousSession;\n        uint claimedFromPreviousSession;\n        uint rolledOverToNextSession;\n        bool exists;\n    }\n\n    struct HouseFunds {\n        // Total funds available to house for this session.\n        uint totalFunds;\n        // Total credits purchased by users, does not change on liquidation.\n        uint totalPurchasedUserCredits;\n        // Current credits available to house, will reduce when users liquidate.\n        uint totalUserCredits;\n        mapping (address => UserCredits) userCredits;\n        mapping (address => uint) payouts;\n        // Credit holders in the house for this session.\n        address[] users;\n        // Total DBETs payed out by the house for this session.\n        uint totalHousePayouts;\n        // Total DBETs withdrawn from offerings by the house for this session.\n        uint totalWithdrawn;\n        // Total DBETs added to profits by the house for unregistered offerings from this session.\n        uint totalUnregisteredOfferingProfits;\n        // Total profit generated by the house for this session.\n        int profit;\n    }\n\n    // Variables\n    House house;\n    ERC20 public decentBetToken;\n\n    bool public isHouseFundsController = true;\n    uint public constant PROFIT_SHARE_PERCENT = 95;\n    uint public MIN_CREDIT_PURCHASE = 1 ether;\n\n    // Mappings\n    // House funds per session\n    mapping (uint => HouseFunds) public houseFunds;\n\n    // Constructor\n    function HouseFundsController(address _house)\n    public {\n        require(_house != 0x0);\n        house = House(_house);\n        decentBetToken = ERC20(house.decentBetToken());\n    }\n\n    // Modifiers\n    // Allows functions to execute only if the house contract sent the transaction.\n    modifier onlyHouse() {\n        require(msg.sender == address(house));\n        _;\n    }\n\n    // Allows functions to execute only if users have \"amount\" credits available for \"session\".\n    modifier areCreditsAvailable(address _address, uint session, uint amount) {\n        require(houseFunds[session].userCredits[_address].amount >= amount);\n        _;\n    }\n\n    // Allows functions to execute only if users have \"amount\" tokens in their balance.\n    modifier areTokensAvailable(address _address, uint amount) {\n        require(decentBetToken.balanceOf(_address) >= amount);\n        _;\n    }\n\n    // Allows functions to execute only if rolled over credits from the previous session are available.\n    modifier areRolledOverCreditsAvailable(address _address) {\n        require(houseFunds[house.currentSession()].userCredits[_address].rolledOverFromPreviousSession > 0);\n        _;\n    }\n\n    // Functions\n    // Transfers DBETs from users to house contract address and generates credits in return.\n    // House contract must be approved to transfer amount from msg.sender to house.\n    function purchaseCredits(address _address, uint amount)\n    public\n    areTokensAvailable(_address, amount)\n    onlyHouse\n    returns (uint) {\n        // The minimum credit purchase needs to be 1 DBET\n        require(amount >= MIN_CREDIT_PURCHASE);\n        require(decentBetToken.allowance(_address, address(house)) >= amount);\n\n        // Issue credits to user equivalent to amount transferred.\n        uint nextSession = safeAdd(house.currentSession(), 1);\n\n        // Add to house and user funds.\n        houseFunds[nextSession].totalFunds =\n            safeAdd(houseFunds[nextSession].totalFunds, amount);\n        houseFunds[nextSession].totalPurchasedUserCredits =\n            safeAdd(houseFunds[nextSession].totalPurchasedUserCredits, amount);\n        houseFunds[nextSession].totalUserCredits =\n            safeAdd(houseFunds[nextSession].totalUserCredits, amount);\n        houseFunds[nextSession].userCredits[_address].amount =\n            safeAdd(houseFunds[nextSession].userCredits[_address].amount, amount);\n\n        // Add user to house users array for UI iteration purposes.\n        if (houseFunds[nextSession].userCredits[_address].exists == false) {\n            houseFunds[nextSession].users.push(_address);\n            houseFunds[nextSession].userCredits[_address].exists = true;\n        }\n\n        return houseFunds[nextSession].userCredits[msg.sender].amount;\n    }\n\n\n    // Allows users holding credits in the current session to roll over their credits to the\n    // next session.\n    function rollOverCredits(address _address, uint amount)\n    public\n    areCreditsAvailable(_address, house.currentSession(), amount)\n    onlyHouse\n    returns (bool) {\n        uint currentSession = house.currentSession();\n        require(currentSession > 0);\n\n        // Payout and current session variables.\n        uint available =\n            houseFunds[currentSession].userCredits[_address].amount;\n        uint rolledOverToNextSession =\n            houseFunds[currentSession].userCredits[_address].rolledOverToNextSession;\n\n        // Rollover credits from current session to next.\n        houseFunds[currentSession].userCredits[_address].amount =\n            safeSub(available, amount);\n        houseFunds[currentSession].userCredits[_address].rolledOverToNextSession =\n            safeAdd(rolledOverToNextSession, amount);\n\n        // Next session variables.\n        uint nextSession =\n            safeAdd(currentSession, 1);\n\n        uint rolledOverFromPreviousSession =\n            houseFunds[nextSession].userCredits[_address].rolledOverFromPreviousSession;\n\n        // Add to credits for next session.\n        houseFunds[nextSession].userCredits[_address].rolledOverFromPreviousSession =\n            safeAdd(rolledOverFromPreviousSession, amount);\n\n        return true;\n    }\n\n    // Allows users to return credits and receive tokens along with profit in return.\n    function liquidateCredits(address _address, uint session, uint amount)\n    public\n    onlyHouse\n    returns (uint) {\n        require(\n            houseFunds[session].userCredits[_address].amount >= amount &&\n            amount > 0\n        );\n\n        // Payout variables\n        uint payoutPerCredit =\n            getPayoutPerCredit(session);\n        // (Payout per credit * amount of credits)\n        uint payout =\n            safeDiv(safeMul(payoutPerCredit, amount), 1 ether);\n\n        // Payout users for current session and liquidate credits.\n        houseFunds[session].payouts[_address] =\n            safeAdd(houseFunds[session].payouts[_address], payout);\n        houseFunds[session].totalUserCredits =\n            safeSub(houseFunds[session].totalUserCredits, amount);\n        houseFunds[session].totalFunds =\n            safeSub(houseFunds[session].totalFunds, amount);\n        houseFunds[session].userCredits[_address].amount =\n            safeSub(houseFunds[session].userCredits[_address].amount, amount);\n        houseFunds[session].userCredits[_address].liquidated =\n            safeAdd(houseFunds[session].userCredits[_address].liquidated, amount);\n        houseFunds[session].totalHousePayouts =\n            safeAdd(houseFunds[session].totalHousePayouts, payout);\n\n        return (payout);\n    }\n\n    // Allows users who've rolled over credits from a session to claim credits in the next session based on the\n    // payout per credit for the previous session.\n    function claimRolledOverCredits(address _address)\n    public\n    areRolledOverCreditsAvailable(_address)\n    onlyHouse\n    returns (uint, uint, uint) {\n        uint currentSession = house.currentSession();\n        uint previousSession = safeSub(currentSession, 1);\n        uint rolledOverFromPreviousSession =\n            houseFunds[currentSession].userCredits[_address].rolledOverFromPreviousSession;\n\n        // Payout variables\n        uint payoutPerCredit =\n            getPayoutPerCredit(previousSession);\n        // (Payout per credit * amount of credits)\n        uint adjustedCredits =\n            safeDiv(safeMul(payoutPerCredit, rolledOverFromPreviousSession), 1 ether);\n        uint userSessionCredits =\n            houseFunds[currentSession].userCredits[_address].amount;\n\n        houseFunds[currentSession].userCredits[_address].claimedFromPreviousSession =\n            adjustedCredits;\n        houseFunds[currentSession].userCredits[_address].rolledOverFromPreviousSession =\n            0;\n        houseFunds[currentSession].userCredits[_address].amount =\n            safeAdd(userSessionCredits, adjustedCredits);\n\n        if (houseFunds[currentSession].userCredits[_address].exists == false) {\n            houseFunds[currentSession].users.push(_address);\n            houseFunds[currentSession].userCredits[_address].exists = true;\n        }\n\n        houseFunds[currentSession].totalUserCredits =\n            safeAdd(houseFunds[currentSession].totalUserCredits, adjustedCredits);\n        houseFunds[currentSession].totalPurchasedUserCredits =\n            safeAdd(houseFunds[currentSession].totalPurchasedUserCredits, adjustedCredits);\n        houseFunds[currentSession].totalFunds =\n            safeAdd(houseFunds[currentSession].totalFunds, adjustedCredits);\n\n        houseFunds[previousSession].totalUserCredits =\n            safeSub(houseFunds[previousSession].totalUserCredits, rolledOverFromPreviousSession);\n        houseFunds[previousSession].totalFunds =\n            safeSub(houseFunds[previousSession].totalFunds, rolledOverFromPreviousSession);\n\n        return (\n            adjustedCredits,\n            rolledOverFromPreviousSession,\n            houseFunds[currentSession].userCredits[_address].amount\n        );\n    }\n\n    // Returns the payout per credit based on the total profit generated (Total funds collected from offerings/total purchased user credits)\n    // If the session was profitable, 5% of the profit generated is excluded to be deposited in the house lottery.\n    function getPayoutPerCredit(uint session)\n    public\n    view\n    returns (uint) {\n        uint totalWithdrawn =\n            houseFunds[session].totalWithdrawn;\n        uint totalUnregisteredOfferingProfits =\n            houseFunds[session].totalUnregisteredOfferingProfits;\n        int totalProfit =\n            houseFunds[session].profit;\n\n        uint totalPayout =\n            safeAdd(totalWithdrawn, totalUnregisteredOfferingProfits);\n        uint totalPurchasedUserCredits =\n            houseFunds[session].totalPurchasedUserCredits;\n\n        uint basePayoutPerCredit =\n            safeDiv(safeMul(1 ether, totalPayout), totalPurchasedUserCredits);\n\n        // Is a profitable session\n        if(totalProfit > 0) {\n            uint profitPerCredit =\n                safeSub(basePayoutPerCredit, 1 ether);\n            uint adjustedProfitPerCredit =\n                safeDiv(safeMul(profitPerCredit, PROFIT_SHARE_PERCENT), 100);\n            uint payoutPerCredit =\n                safeAdd(1 ether, adjustedProfitPerCredit);\n            return payoutPerCredit;\n        } else\n            // No profit\n            return basePayoutPerCredit;\n    }\n\n    // Profits from house offerings deployed independent of the house, can be deposited into the\n    // House contract using this function.\n    function addToSessionProfitsFromUnregisteredHouseOffering(\n        uint session,\n        uint amount\n    )\n    public\n    onlyHouse\n    returns (bool) {\n        // Add to totalUnregisteredOfferingProfits for the session\n        houseFunds[session].totalUnregisteredOfferingProfits =\n            safeAdd(houseFunds[session].totalUnregisteredOfferingProfits, amount);\n\n        // Add to profit for the session\n        houseFunds[session].profit =\n            houseFunds[session].profit + (int) (amount);\n\n        return true;\n    }\n\n    // Withdraws session tokens for the previously ended session from a house offering.\n    function withdrawPreviousSessionTokensFromHouseOffering(\n        uint previousSessionTokens,\n        bool allOfferingsWithdrawn\n    )\n    public\n    onlyHouse\n    returns (bool) {\n        uint previousSession = safeSub(house.currentSession(), 1);\n        houseFunds[previousSession].totalWithdrawn =\n            safeAdd(\n                houseFunds[previousSession].totalWithdrawn,\n                previousSessionTokens\n            );\n\n        if(allOfferingsWithdrawn)\n            houseFunds[previousSession].profit =\n                (int)(houseFunds[previousSession].profit +\n                (int)(\n                        houseFunds[previousSession].totalWithdrawn -\n                        houseFunds[previousSession].totalFunds\n                     )\n                );\n\n        return true;\n    }\n\n    // Allow authorized addresses to add profits for offerings that haven't been registered\n    // with the house for the current session.\n    function emergencyWithdrawCurrentSessionTokensFromHouseOffering(uint currentSessionTokens,\n        bool allOfferingsWithdrawn)\n    public\n    onlyHouse\n    returns (bool) {\n        uint currentSession = house.currentSession();\n        houseFunds[currentSession].totalWithdrawn =\n            safeAdd(houseFunds[currentSession].totalWithdrawn, currentSessionTokens);\n\n        if(allOfferingsWithdrawn)\n            houseFunds[currentSession].profit +=\n                (int)(\n                    houseFunds[currentSession].totalWithdrawn -\n                    houseFunds[currentSession].totalFunds\n                );\n\n        return true;\n    }\n\n    // Allows users to withdraw their funds if the house is in an emergencyPaused state.\n    function emergencyWithdraw(address _address)\n    public\n    onlyHouse\n    returns (uint, uint) {\n        uint session = house.currentSession();\n        require(houseFunds[session].userCredits[_address].amount > 0);\n\n        // Payout variables\n        uint payoutPerCredit =\n            getPayoutPerCredit(session);\n        uint amount =\n            houseFunds[session].userCredits[_address].amount;\n        // (Payout per credit * amount of credits)\n        uint payout =\n            safeDiv(safeMul(payoutPerCredit, amount), 1 ether);\n\n        // Payout users for current session and liquidate credits.\n        houseFunds[session].payouts[_address] =\n            safeAdd(houseFunds[session].payouts[_address], payout);\n        houseFunds[session].totalUserCredits =\n            safeSub(houseFunds[session].totalUserCredits, amount);\n        houseFunds[session].totalFunds =\n            safeSub(houseFunds[session].totalFunds, amount);\n        houseFunds[session].userCredits[_address].amount =\n            safeSub(houseFunds[session].userCredits[_address].amount, amount);\n        houseFunds[session].userCredits[_address].liquidated =\n            safeAdd(houseFunds[session].userCredits[_address].liquidated, amount);\n        houseFunds[session].totalHousePayouts =\n            safeAdd(houseFunds[session].totalHousePayouts, payout);\n\n        return (payout, amount);\n    }\n\n    // Utility functions for front-end purposes.\n\n    // Returns house funds and user specific credit info for a session.\n    function getUserCreditsForSession(uint session, address _address)\n    public\n    view\n    returns (\n        uint amount,\n        uint liquidated,\n        uint rolledOverToNextSession,\n        uint claimedFromPreviousSession,\n        uint totalFunds,\n        uint totalUserCredits\n    ) {\n        return (\n            houseFunds[session].userCredits[_address].amount,\n            houseFunds[session].userCredits[_address].liquidated,\n            houseFunds[session].userCredits[_address].rolledOverToNextSession,\n            houseFunds[session].userCredits[_address].claimedFromPreviousSession,\n            houseFunds[session].totalFunds,\n            houseFunds[session].totalUserCredits\n        );\n    }\n\n    function getProfitForSession(uint session)\n    public\n    view\n    returns (int) {\n        return houseFunds[session].profit;\n    }\n\n    // Returns a user address for a session.\n    function getUserForSession(uint session, uint index)\n    public\n    view\n    returns (address _address) {\n        return houseFunds[session].users[index];\n    }\n\n}\n",
  "sourcePath": "/Users/dev/Projects/platform-contracts/contracts/House/Controllers/HouseFundsController.sol",
  "compiler": {
    "name": "solc",
    "version": "0.4.21+commit.dfe3193c.Emscripten.clang"
  },
  "schemaVersion": "2.0.0",
  "updatedAt": "2018-05-31T12:38:37.147Z"
}