{
  "contractName": "HouseSessionsController",
  "abi": [
    {
      "constant": true,
      "inputs": [],
      "name": "isHouseSessionsController",
      "outputs": [
        {
          "name": "",
          "type": "bool"
        }
      ],
      "payable": false,
      "stateMutability": "view",
      "type": "function"
    },
    {
      "constant": true,
      "inputs": [
        {
          "name": "",
          "type": "uint256"
        }
      ],
      "name": "offeringAddresses",
      "outputs": [
        {
          "name": "",
          "type": "address"
        }
      ],
      "payable": false,
      "stateMutability": "view",
      "type": "function"
    },
    {
      "constant": true,
      "inputs": [
        {
          "name": "",
          "type": "uint256"
        }
      ],
      "name": "sessions",
      "outputs": [
        {
          "name": "startTime",
          "type": "uint256"
        },
        {
          "name": "endTime",
          "type": "uint256"
        },
        {
          "name": "active",
          "type": "bool"
        },
        {
          "name": "offeringCount",
          "type": "uint256"
        },
        {
          "name": "withdrawCount",
          "type": "uint256"
        },
        {
          "name": "totalTokensAllocated",
          "type": "uint256"
        },
        {
          "name": "finalizedTokenAllocations",
          "type": "bool"
        },
        {
          "name": "depositedAllocations",
          "type": "uint256"
        }
      ],
      "payable": false,
      "stateMutability": "view",
      "type": "function"
    },
    {
      "constant": true,
      "inputs": [],
      "name": "decentBetToken",
      "outputs": [
        {
          "name": "",
          "type": "address"
        }
      ],
      "payable": false,
      "stateMutability": "view",
      "type": "function"
    },
    {
      "inputs": [
        {
          "name": "_house",
          "type": "address"
        }
      ],
      "payable": false,
      "stateMutability": "nonpayable",
      "type": "constructor"
    },
    {
      "constant": false,
      "inputs": [
        {
          "name": "houseOfferingAddress",
          "type": "address"
        }
      ],
      "name": "addHouseOffering",
      "outputs": [],
      "payable": false,
      "stateMutability": "nonpayable",
      "type": "function"
    },
    {
      "constant": false,
      "inputs": [
        {
          "name": "houseOfferingAddress",
          "type": "address"
        }
      ],
      "name": "addOfferingToNextSession",
      "outputs": [],
      "payable": false,
      "stateMutability": "nonpayable",
      "type": "function"
    },
    {
      "constant": false,
      "inputs": [
        {
          "name": "houseOfferingAddress",
          "type": "address"
        }
      ],
      "name": "removeOfferingFromNextSession",
      "outputs": [],
      "payable": false,
      "stateMutability": "nonpayable",
      "type": "function"
    },
    {
      "constant": false,
      "inputs": [
        {
          "name": "houseOffering",
          "type": "address"
        }
      ],
      "name": "withdrawPreviousSessionTokensFromHouseOffering",
      "outputs": [
        {
          "name": "",
          "type": "uint256"
        },
        {
          "name": "",
          "type": "bool"
        }
      ],
      "payable": false,
      "stateMutability": "nonpayable",
      "type": "function"
    },
    {
      "constant": false,
      "inputs": [
        {
          "name": "percentage",
          "type": "uint256"
        },
        {
          "name": "houseOffering",
          "type": "address"
        }
      ],
      "name": "allocateTokensForHouseOffering",
      "outputs": [
        {
          "name": "",
          "type": "bool"
        }
      ],
      "payable": false,
      "stateMutability": "nonpayable",
      "type": "function"
    },
    {
      "constant": false,
      "inputs": [],
      "name": "finalizeTokenAllocations",
      "outputs": [
        {
          "name": "",
          "type": "bool"
        }
      ],
      "payable": false,
      "stateMutability": "nonpayable",
      "type": "function"
    },
    {
      "constant": false,
      "inputs": [
        {
          "name": "houseOffering",
          "type": "address"
        }
      ],
      "name": "depositAllocatedTokensToHouseOffering",
      "outputs": [
        {
          "name": "",
          "type": "bool"
        }
      ],
      "payable": false,
      "stateMutability": "nonpayable",
      "type": "function"
    },
    {
      "constant": false,
      "inputs": [
        {
          "name": "houseOffering",
          "type": "address"
        }
      ],
      "name": "emergencyWithdrawCurrentSessionTokensFromHouseOffering",
      "outputs": [
        {
          "name": "",
          "type": "uint256"
        },
        {
          "name": "",
          "type": "bool"
        }
      ],
      "payable": false,
      "stateMutability": "nonpayable",
      "type": "function"
    },
    {
      "constant": false,
      "inputs": [
        {
          "name": "startTime",
          "type": "uint256"
        },
        {
          "name": "endTime",
          "type": "uint256"
        },
        {
          "name": "sessionZeroStartTime",
          "type": "uint256"
        }
      ],
      "name": "beginNextSession",
      "outputs": [
        {
          "name": "",
          "type": "bool"
        }
      ],
      "payable": false,
      "stateMutability": "nonpayable",
      "type": "function"
    },
    {
      "constant": true,
      "inputs": [
        {
          "name": "session",
          "type": "uint256"
        }
      ],
      "name": "getSessionTime",
      "outputs": [
        {
          "name": "",
          "type": "uint256"
        },
        {
          "name": "",
          "type": "uint256"
        }
      ],
      "payable": false,
      "stateMutability": "view",
      "type": "function"
    },
    {
      "constant": true,
      "inputs": [
        {
          "name": "session",
          "type": "uint256"
        }
      ],
      "name": "isSessionActive",
      "outputs": [
        {
          "name": "",
          "type": "bool"
        }
      ],
      "payable": false,
      "stateMutability": "view",
      "type": "function"
    },
    {
      "constant": true,
      "inputs": [
        {
          "name": "_offering",
          "type": "address"
        }
      ],
      "name": "doesOfferingExist",
      "outputs": [
        {
          "name": "",
          "type": "bool"
        }
      ],
      "payable": false,
      "stateMutability": "view",
      "type": "function"
    },
    {
      "constant": true,
      "inputs": [
        {
          "name": "session",
          "type": "uint256"
        },
        {
          "name": "index",
          "type": "uint256"
        }
      ],
      "name": "getSessionOffering",
      "outputs": [
        {
          "name": "offering",
          "type": "address"
        }
      ],
      "payable": false,
      "stateMutability": "view",
      "type": "function"
    },
    {
      "constant": true,
      "inputs": [
        {
          "name": "session",
          "type": "uint256"
        }
      ],
      "name": "getSessionTimes",
      "outputs": [
        {
          "name": "",
          "type": "uint256"
        },
        {
          "name": "",
          "type": "uint256"
        }
      ],
      "payable": false,
      "stateMutability": "view",
      "type": "function"
    },
    {
      "constant": true,
      "inputs": [
        {
          "name": "session",
          "type": "uint256"
        },
        {
          "name": "_address",
          "type": "address"
        }
      ],
      "name": "getOfferingDetails",
      "outputs": [
        {
          "name": "",
          "type": "uint256"
        },
        {
          "name": "",
          "type": "bool"
        },
        {
          "name": "",
          "type": "bool"
        }
      ],
      "payable": false,
      "stateMutability": "view",
      "type": "function"
    },
    {
      "constant": true,
      "inputs": [
        {
          "name": "session",
          "type": "uint256"
        }
      ],
      "name": "areSessionTokenAllocationsFinalized",
      "outputs": [
        {
          "name": "",
          "type": "bool"
        }
      ],
      "payable": false,
      "stateMutability": "view",
      "type": "function"
    },
    {
      "constant": true,
      "inputs": [
        {
          "name": "session",
          "type": "uint256"
        }
      ],
      "name": "getSessionOfferingsLength",
      "outputs": [
        {
          "name": "",
          "type": "uint256"
        }
      ],
      "payable": false,
      "stateMutability": "view",
      "type": "function"
    },
    {
      "constant": true,
      "inputs": [
        {
          "name": "session",
          "type": "uint256"
        },
        {
          "name": "index",
          "type": "uint256"
        }
      ],
      "name": "getSessionOfferingAddress",
      "outputs": [
        {
          "name": "",
          "type": "address"
        }
      ],
      "payable": false,
      "stateMutability": "view",
      "type": "function"
    },
    {
      "constant": true,
      "inputs": [],
      "name": "getOfferingAddressesLength",
      "outputs": [
        {
          "name": "",
          "type": "uint256"
        }
      ],
      "payable": false,
      "stateMutability": "view",
      "type": "function"
    },
    {
      "constant": true,
      "inputs": [
        {
          "name": "session",
          "type": "uint256"
        },
        {
          "name": "offering",
          "type": "address"
        }
      ],
      "name": "isOfferingWithdrawn",
      "outputs": [
        {
          "name": "",
          "type": "bool"
        }
      ],
      "payable": false,
      "stateMutability": "view",
      "type": "function"
    },
    {
      "constant": true,
      "inputs": [
        {
          "name": "session",
          "type": "uint256"
        }
      ],
      "name": "haveAllOfferingsBeenWithdrawn",
      "outputs": [
        {
          "name": "",
          "type": "bool"
        }
      ],
      "payable": false,
      "stateMutability": "view",
      "type": "function"
    }
  ],
  "bytecode": "0x60606040526001600360006101000a81548160ff021916908315150217905550341561002a57600080fd5b604051602080620033408339810160405280805190602001909190505060008173ffffffffffffffffffffffffffffffffffffffff161415151561006d57600080fd5b806000806101000a81548173ffffffffffffffffffffffffffffffffffffffff021916908373ffffffffffffffffffffffffffffffffffffffff1602179055506000809054906101000a900473ffffffffffffffffffffffffffffffffffffffff1673ffffffffffffffffffffffffffffffffffffffff1663cba44d4f6040518163ffffffff167c0100000000000000000000000000000000000000000000000000000000028152600401602060405180830381600087803b151561013157600080fd5b5af1151561013e57600080fd5b50505060405180519050600160006101000a81548173ffffffffffffffffffffffffffffffffffffffff021916908373ffffffffffffffffffffffffffffffffffffffff160217905550506131a780620001996000396000f300606060405260043610610149576000357c0100000000000000000000000000000000000000000000000000000000900463ffffffff168063043e57fb1461014e5780632e59bb56146101a85780633081a48414610214578063383738f11461024f5780633cb16f38146102a75780633e4238ff146102d45780633e43c789146103015780633e5658511461033a5780633e87d3ba1461038b578063427b2081146103c6578063501339c11461042957806353a38a7f146104625780635582b475146104af578063610f9a031461051b5780637888494b146105595780637ac6adcb1461058257806381528eeb146105bb578063832487671461061557806383c4b7a314610681578063890e6bf4146106f1578063927ef336146107285780639406d16614610780578063aa24aaca146107be578063b9f2ef30146107f9578063cba44d4f1461084a575b600080fd5b341561015957600080fd5b61018e600480803590602001909190803573ffffffffffffffffffffffffffffffffffffffff1690602001909190505061089f565b604051808215151515815260200191505060405180910390f35b34156101b357600080fd5b6101e8600480803590602001909190803573ffffffffffffffffffffffffffffffffffffffff16906020019091905050610ce3565b604051808481526020018315151515815260200182151515158152602001935050505060405180910390f35b341561021f57600080fd5b6102356004808035906020019091905050610e14565b604051808215151515815260200191505060405180910390f35b341561025a57600080fd5b610286600480803573ffffffffffffffffffffffffffffffffffffffff16906020019091905050610e41565b60405180838152602001821515151581526020019250505060405180910390f35b34156102b257600080fd5b6102ba611295565b604051808215151515815260200191505060405180910390f35b34156102df57600080fd5b6102e7611577565b604051808215151515815260200191505060405180910390f35b341561030c57600080fd5b610338600480803573ffffffffffffffffffffffffffffffffffffffff1690602001909190505061158a565b005b341561034557600080fd5b610371600480803573ffffffffffffffffffffffffffffffffffffffff16906020019091905050611a30565b604051808215151515815260200191505060405180910390f35b341561039657600080fd5b6103ac6004808035906020019091905050611a89565b604051808215151515815260200191505060405180910390f35b34156103d157600080fd5b6103e76004808035906020019091905050611c02565b604051808273ffffffffffffffffffffffffffffffffffffffff1673ffffffffffffffffffffffffffffffffffffffff16815260200191505060405180910390f35b341561043457600080fd5b610460600480803573ffffffffffffffffffffffffffffffffffffffff16906020019091905050611c41565b005b341561046d57600080fd5b6104956004808035906020019091908035906020019091908035906020019091905050611fa7565b604051808215151515815260200191505060405180910390f35b34156104ba57600080fd5b6104d9600480803590602001909190803590602001909190505061220c565b604051808273ffffffffffffffffffffffffffffffffffffffff1673ffffffffffffffffffffffffffffffffffffffff16815260200191505060405180910390f35b341561052657600080fd5b61053c6004808035906020019091905050612265565b604051808381526020018281526020019250505060405180910390f35b341561056457600080fd5b61056c61229f565b6040518082815260200191505060405180910390f35b341561058d57600080fd5b6105b9600480803573ffffffffffffffffffffffffffffffffffffffff169060200190919050506122ac565b005b34156105c657600080fd5b6105fb600480803590602001909190803573ffffffffffffffffffffffffffffffffffffffff169060200190919050506125cd565b604051808215151515815260200191505060405180910390f35b341561062057600080fd5b61063f6004808035906020019091908035906020019091905050612638565b604051808273ffffffffffffffffffffffffffffffffffffffff1673ffffffffffffffffffffffffffffffffffffffff16815260200191505060405180910390f35b341561068c57600080fd5b6106a26004808035906020019091905050612691565b6040518089815260200188815260200187151515158152602001868152602001858152602001848152602001831515151581526020018281526020019850505050505050505060405180910390f35b34156106fc57600080fd5b61071260048080359060200190919050506126f3565b6040518082815260200191505060405180910390f35b341561073357600080fd5b61075f600480803573ffffffffffffffffffffffffffffffffffffffff16906020019091905050612716565b60405180838152602001821515151581526020019250505060405180910390f35b341561078b57600080fd5b6107a16004808035906020019091905050612c98565b604051808381526020018281526020019250505060405180910390f35b34156107c957600080fd5b6107df6004808035906020019091905050612cd2565b604051808215151515815260200191505060405180910390f35b341561080457600080fd5b610830600480803573ffffffffffffffffffffffffffffffffffffffff16906020019091905050612d0a565b604051808215151515815260200191505060405180910390f35b341561085557600080fd5b61085d6130cd565b604051808273ffffffffffffffffffffffffffffffffffffffff1673ffffffffffffffffffffffffffffffffffffffff16815260200191505060405180910390f35b60008060008361094a6000809054906101000a900473ffffffffffffffffffffffffffffffffffffffff1673ffffffffffffffffffffffffffffffffffffffff1663d41667636040518163ffffffff167c0100000000000000000000000000000000000000000000000000000000028152600401602060405180830381600087803b151561092c57600080fd5b5af1151561093957600080fd5b5050506040518051905060016130f3565b600460008373ffffffffffffffffffffffffffffffffffffffff1673ffffffffffffffffffffffffffffffffffffffff16815260200190815260200160002060000160149054906101000a900460ff1615156109a557600080fd5b6005600082815260200190815260200160002060070160008373ffffffffffffffffffffffffffffffffffffffff1673ffffffffffffffffffffffffffffffffffffffff16815260200190815260200160002060010160019054906101000a900460ff161515610a1457600080fd5b6000809054906101000a900473ffffffffffffffffffffffffffffffffffffffff1673ffffffffffffffffffffffffffffffffffffffff163373ffffffffffffffffffffffffffffffffffffffff16141515610a6f57600080fd5b60016000809054906101000a900473ffffffffffffffffffffffffffffffffffffffff1673ffffffffffffffffffffffffffffffffffffffff1663d41667636040518163ffffffff167c0100000000000000000000000000000000000000000000000000000000028152600401602060405180830381600087803b1515610af557600080fd5b5af11515610b0257600080fd5b505050604051805190500193506005600085815260200190815260200160002060090160009054906101000a900460ff16151515610b3f57600080fd5b6064610b616005600087815260200190815260200160002060080154896130f3565b11151515610b6e57600080fd5b6005600085815260200190815260200160002060070160008773ffffffffffffffffffffffffffffffffffffffff1673ffffffffffffffffffffffffffffffffffffffff16815260200190815260200160002060010160009054906101000a900460ff16151515610bde57600080fd5b6005600085815260200190815260200160002060070160008773ffffffffffffffffffffffffffffffffffffffff1673ffffffffffffffffffffffffffffffffffffffff168152602001908152602001600020600001549250866005600086815260200190815260200160002060070160008873ffffffffffffffffffffffffffffffffffffffff1673ffffffffffffffffffffffffffffffffffffffff16815260200190815260200160002060000181905550610cbb610cb56005600087815260200190815260200160002060080154896130f3565b84613111565b6005600086815260200190815260200160002060080181905550600194505050505092915050565b60008060006005600086815260200190815260200160002060070160008573ffffffffffffffffffffffffffffffffffffffff1673ffffffffffffffffffffffffffffffffffffffff168152602001908152602001600020600001546005600087815260200190815260200160002060070160008673ffffffffffffffffffffffffffffffffffffffff1673ffffffffffffffffffffffffffffffffffffffff16815260200190815260200160002060010160009054906101000a900460ff166005600088815260200190815260200160002060070160008773ffffffffffffffffffffffffffffffffffffffff1673ffffffffffffffffffffffffffffffffffffffff16815260200190815260200160002060010160019054906101000a900460ff169250925092509250925092565b60006005600083815260200190815260200160002060090160009054906101000a900460ff169050919050565b6000806000806000856000809054906101000a900473ffffffffffffffffffffffffffffffffffffffff1673ffffffffffffffffffffffffffffffffffffffff1663d41667636040518163ffffffff167c0100000000000000000000000000000000000000000000000000000000028152600401602060405180830381600087803b1515610ece57600080fd5b5af11515610edb57600080fd5b50505060405180519050600460008373ffffffffffffffffffffffffffffffffffffffff1673ffffffffffffffffffffffffffffffffffffffff16815260200190815260200160002060000160149054906101000a900460ff161515610f4057600080fd5b6005600082815260200190815260200160002060070160008373ffffffffffffffffffffffffffffffffffffffff1673ffffffffffffffffffffffffffffffffffffffff16815260200190815260200160002060010160019054906101000a900460ff161515610faf57600080fd5b6000809054906101000a900473ffffffffffffffffffffffffffffffffffffffff1673ffffffffffffffffffffffffffffffffffffffff163373ffffffffffffffffffffffffffffffffffffffff1614151561100a57600080fd5b6000809054906101000a900473ffffffffffffffffffffffffffffffffffffffff1673ffffffffffffffffffffffffffffffffffffffff1663d41667636040518163ffffffff167c0100000000000000000000000000000000000000000000000000000000028152600401602060405180830381600087803b151561108e57600080fd5b5af1151561109b57600080fd5b505050604051805190509450600460008973ffffffffffffffffffffffffffffffffffffffff1673ffffffffffffffffffffffffffffffffffffffff16815260200190815260200160002060000160009054906101000a900473ffffffffffffffffffffffffffffffffffffffff1673ffffffffffffffffffffffffffffffffffffffff1662fdd58e89876040518363ffffffff167c0100000000000000000000000000000000000000000000000000000000028152600401808373ffffffffffffffffffffffffffffffffffffffff1673ffffffffffffffffffffffffffffffffffffffff16815260200182815260200192505050602060405180830381600087803b15156111aa57600080fd5b5af115156111b757600080fd5b50505060405180519050935060016005600087815260200190815260200160002060050160008a73ffffffffffffffffffffffffffffffffffffffff1673ffffffffffffffffffffffffffffffffffffffff16815260200190815260200160002060006101000a81548160ff02191690831515021790555060016005600087815260200190815260200160002060060160008282540192505081905550600560008681526020019081526020016000206004015460056000878152602001908152602001600020600601541492508383965096505050505050915091565b60008060008060009054906101000a900473ffffffffffffffffffffffffffffffffffffffff1673ffffffffffffffffffffffffffffffffffffffff163373ffffffffffffffffffffffffffffffffffffffff161415156112f557600080fd5b60016000809054906101000a900473ffffffffffffffffffffffffffffffffffffffff1673ffffffffffffffffffffffffffffffffffffffff1663d41667636040518163ffffffff167c0100000000000000000000000000000000000000000000000000000000028152600401602060405180830381600087803b151561137b57600080fd5b5af1151561138857600080fd5b50505060405180519050019150600090505b60056000838152602001908152602001600020600301805490508110156114ea57600060056000848152602001908152602001600020600301828154811015156113e057fe5b906000526020600020900160009054906101000a900473ffffffffffffffffffffffffffffffffffffffff1673ffffffffffffffffffffffffffffffffffffffff161415156114dd576000600560008481526020019081526020016000206007016000600560008681526020019081526020016000206003018481548110151561146657fe5b906000526020600020900160009054906101000a900473ffffffffffffffffffffffffffffffffffffffff1673ffffffffffffffffffffffffffffffffffffffff1673ffffffffffffffffffffffffffffffffffffffff168152602001908152602001600020600001541115156114dc57600080fd5b5b808060010191505061139a565b6064600560008481526020019081526020016000206008015414151561150f57600080fd5b6005600083815260200190815260200160002060090160009054906101000a900460ff1615151561153f57600080fd5b60016005600084815260200190815260200160002060090160006101000a81548160ff02191690831515021790555060019250505090565b600360009054906101000a900460ff1681565b600080826116336000809054906101000a900473ffffffffffffffffffffffffffffffffffffffff1673ffffffffffffffffffffffffffffffffffffffff1663d41667636040518163ffffffff167c0100000000000000000000000000000000000000000000000000000000028152600401602060405180830381600087803b151561161557600080fd5b5af1151561162257600080fd5b5050506040518051905060016130f3565b600460008373ffffffffffffffffffffffffffffffffffffffff1673ffffffffffffffffffffffffffffffffffffffff16815260200190815260200160002060000160149054906101000a900460ff16151561168e57600080fd5b6005600082815260200190815260200160002060070160008373ffffffffffffffffffffffffffffffffffffffff1673ffffffffffffffffffffffffffffffffffffffff16815260200190815260200160002060010160019054906101000a900460ff1615156116fd57600080fd5b6000809054906101000a900473ffffffffffffffffffffffffffffffffffffffff1673ffffffffffffffffffffffffffffffffffffffff16634d853ee56040518163ffffffff167c0100000000000000000000000000000000000000000000000000000000028152600401602060405180830381600087803b151561178157600080fd5b5af1151561178e57600080fd5b5050506040518051905073ffffffffffffffffffffffffffffffffffffffff163373ffffffffffffffffffffffffffffffffffffffff161415156117d157600080fd5b6118766000809054906101000a900473ffffffffffffffffffffffffffffffffffffffff1673ffffffffffffffffffffffffffffffffffffffff1663d41667636040518163ffffffff167c0100000000000000000000000000000000000000000000000000000000028152600401602060405180830381600087803b151561185857600080fd5b5af1151561186557600080fd5b5050506040518051905060016130f3565b9350600092505b600560008581526020019081526020016000206003018054905083101561197f578473ffffffffffffffffffffffffffffffffffffffff1660056000868152602001908152602001600020600301848154811015156118d857fe5b906000526020600020900160009054906101000a900473ffffffffffffffffffffffffffffffffffffffff1673ffffffffffffffffffffffffffffffffffffffff16141561197257600560008581526020019081526020016000206003018381548110151561194357fe5b906000526020600020900160006101000a81549073ffffffffffffffffffffffffffffffffffffffff02191690555b828060010193505061187d565b6119a060056000868152602001908152602001600020600401546001613111565b600560008681526020019081526020016000206004018190555060006005600086815260200190815260200160002060070160008773ffffffffffffffffffffffffffffffffffffffff1673ffffffffffffffffffffffffffffffffffffffff16815260200190815260200160002060010160016101000a81548160ff0219169083151502179055505050505050565b6000600460008373ffffffffffffffffffffffffffffffffffffffff1673ffffffffffffffffffffffffffffffffffffffff16815260200190815260200160002060000160149054906101000a900460ff169050919050565b600060056000838152602001908152602001600020600001546000809054906101000a900473ffffffffffffffffffffffffffffffffffffffff1673ffffffffffffffffffffffffffffffffffffffff1663557ed1ba6040518163ffffffff167c0100000000000000000000000000000000000000000000000000000000028152600401602060405180830381600087803b1515611b2657600080fd5b5af11515611b3357600080fd5b5050506040518051905010158015611bfb575060056000838152602001908152602001600020600101546000809054906101000a900473ffffffffffffffffffffffffffffffffffffffff1673ffffffffffffffffffffffffffffffffffffffff1663557ed1ba6040518163ffffffff167c0100000000000000000000000000000000000000000000000000000000028152600401602060405180830381600087803b1515611be157600080fd5b5af11515611bee57600080fd5b5050506040518051905011155b9050919050565b600281815481101515611c1157fe5b90600052602060002090016000915054906101000a900473ffffffffffffffffffffffffffffffffffffffff1681565b60008060009054906101000a900473ffffffffffffffffffffffffffffffffffffffff1673ffffffffffffffffffffffffffffffffffffffff16634d853ee56040518163ffffffff167c0100000000000000000000000000000000000000000000000000000000028152600401602060405180830381600087803b1515611cc757600080fd5b5af11515611cd457600080fd5b5050506040518051905073ffffffffffffffffffffffffffffffffffffffff163373ffffffffffffffffffffffffffffffffffffffff16141515611d1757600080fd5b600460008373ffffffffffffffffffffffffffffffffffffffff1673ffffffffffffffffffffffffffffffffffffffff16815260200190815260200160002060000160149054906101000a900460ff161515611d7257600080fd5b6005600082815260200190815260200160002060070160008373ffffffffffffffffffffffffffffffffffffffff1673ffffffffffffffffffffffffffffffffffffffff16815260200190815260200160002060010160019054906101000a900460ff16151515611de257600080fd5b60016000809054906101000a900473ffffffffffffffffffffffffffffffffffffffff1673ffffffffffffffffffffffffffffffffffffffff1663d41667636040518163ffffffff167c0100000000000000000000000000000000000000000000000000000000028152600401602060405180830381600087803b1515611e6857600080fd5b5af11515611e7557600080fd5b50505060405180519050019050600560008281526020019081526020016000206003018054806001018281611eaa919061312a565b9160005260206000209001600084909190916101000a81548173ffffffffffffffffffffffffffffffffffffffff021916908373ffffffffffffffffffffffffffffffffffffffff16021790555050611f1a600560008381526020019081526020016000206004015460016130f3565b600560008381526020019081526020016000206004018190555060016005600083815260200190815260200160002060070160008473ffffffffffffffffffffffffffffffffffffffff1673ffffffffffffffffffffffffffffffffffffffff16815260200190815260200160002060010160016101000a81548160ff0219169083151502179055505050565b60008060008060009054906101000a900473ffffffffffffffffffffffffffffffffffffffff1673ffffffffffffffffffffffffffffffffffffffff163373ffffffffffffffffffffffffffffffffffffffff1614151561200757600080fd5b6000809054906101000a900473ffffffffffffffffffffffffffffffffffffffff1673ffffffffffffffffffffffffffffffffffffffff1663d41667636040518163ffffffff167c0100000000000000000000000000000000000000000000000000000000028152600401602060405180830381600087803b151561208b57600080fd5b5af1151561209857600080fd5b5050506040518051905091506000821480156120b45750600084145b156121235760006005600084815260200190815260200160002060020160006101000a81548160ff0219169083151502179055508560056000848152602001908152602001600020600001819055508460056000848152602001908152602001600020600101819055506121ff565b61212e826001613111565b905060006005600083815260200190815260200160002060020160006101000a81548160ff02191690831515021790555060016005600084815260200190815260200160002060020160006101000a81548160ff021916908315150217905550856005600084815260200190815260200160002060000181905550846005600084815260200190815260200160002060010181905550600560008381526020019081526020016000206004015460056000848152602001908152602001600020600a01541415156121fe57600080fd5b5b6001925050509392505050565b6000600560008481526020019081526020016000206003018281548110151561223157fe5b906000526020600020900160009054906101000a900473ffffffffffffffffffffffffffffffffffffffff16905092915050565b6000806005600084815260200190815260200160002060000154600560008581526020019081526020016000206001015491509150915091565b6000600280549050905090565b6000809054906101000a900473ffffffffffffffffffffffffffffffffffffffff1673ffffffffffffffffffffffffffffffffffffffff16634d853ee56040518163ffffffff167c0100000000000000000000000000000000000000000000000000000000028152600401602060405180830381600087803b151561233057600080fd5b5af1151561233d57600080fd5b5050506040518051905073ffffffffffffffffffffffffffffffffffffffff163373ffffffffffffffffffffffffffffffffffffffff1614151561238057600080fd5b60008173ffffffffffffffffffffffffffffffffffffffff16141515156123a657600080fd5b8073ffffffffffffffffffffffffffffffffffffffff16630795be776040518163ffffffff167c0100000000000000000000000000000000000000000000000000000000028152600401602060405180830381600087803b151561240957600080fd5b5af1151561241657600080fd5b50505060405180519050151561242b57600080fd5b600460008273ffffffffffffffffffffffffffffffffffffffff1673ffffffffffffffffffffffffffffffffffffffff16815260200190815260200160002060000160149054906101000a900460ff1615151561248757600080fd5b6002805480600101828161249b919061312a565b9160005260206000209001600083909190916101000a81548173ffffffffffffffffffffffffffffffffffffffff021916908373ffffffffffffffffffffffffffffffffffffffff1602179055505060408051908101604052808273ffffffffffffffffffffffffffffffffffffffff16815260200160011515815250600460008373ffffffffffffffffffffffffffffffffffffffff1673ffffffffffffffffffffffffffffffffffffffff16815260200190815260200160002060008201518160000160006101000a81548173ffffffffffffffffffffffffffffffffffffffff021916908373ffffffffffffffffffffffffffffffffffffffff16021790555060208201518160000160146101000a81548160ff0219169083151502179055509050506125ca81611c41565b50565b60006005600084815260200190815260200160002060050160008373ffffffffffffffffffffffffffffffffffffffff1673ffffffffffffffffffffffffffffffffffffffff16815260200190815260200160002060009054906101000a900460ff16905092915050565b6000600560008481526020019081526020016000206003018281548110151561265d57fe5b906000526020600020900160009054906101000a900473ffffffffffffffffffffffffffffffffffffffff16905092915050565b60056020528060005260406000206000915090508060000154908060010154908060020160009054906101000a900460ff16908060040154908060060154908060080154908060090160009054906101000a900460ff169080600a0154905088565b600060056000838152602001908152602001600020600301805490509050919050565b6000806000806000856127c46000809054906101000a900473ffffffffffffffffffffffffffffffffffffffff1673ffffffffffffffffffffffffffffffffffffffff1663d41667636040518163ffffffff167c0100000000000000000000000000000000000000000000000000000000028152600401602060405180830381600087803b15156127a657600080fd5b5af115156127b357600080fd5b505050604051805190506001613111565b600460008373ffffffffffffffffffffffffffffffffffffffff1673ffffffffffffffffffffffffffffffffffffffff16815260200190815260200160002060000160149054906101000a900460ff16151561281f57600080fd5b6005600082815260200190815260200160002060070160008373ffffffffffffffffffffffffffffffffffffffff1673ffffffffffffffffffffffffffffffffffffffff16815260200190815260200160002060010160019054906101000a900460ff16151561288e57600080fd5b6000809054906101000a900473ffffffffffffffffffffffffffffffffffffffff1673ffffffffffffffffffffffffffffffffffffffff163373ffffffffffffffffffffffffffffffffffffffff161415156128e957600080fd5b6000809054906101000a900473ffffffffffffffffffffffffffffffffffffffff1673ffffffffffffffffffffffffffffffffffffffff1663d41667636040518163ffffffff167c0100000000000000000000000000000000000000000000000000000000028152600401602060405180830381600087803b151561296d57600080fd5b5af1151561297a57600080fd5b505050604051805190509450612991856001613111565b93506001851115156129a257600080fd5b6202a3006005600086815260200190815260200160002060010154016000809054906101000a900473ffffffffffffffffffffffffffffffffffffffff1673ffffffffffffffffffffffffffffffffffffffff1663557ed1ba6040518163ffffffff167c0100000000000000000000000000000000000000000000000000000000028152600401602060405180830381600087803b1515612a4257600080fd5b5af11515612a4f57600080fd5b5050506040518051905010151515612a6657600080fd5b6005600085815260200190815260200160002060050160008973ffffffffffffffffffffffffffffffffffffffff1673ffffffffffffffffffffffffffffffffffffffff16815260200190815260200160002060009054906101000a900460ff16151515612ad357600080fd5b600460008973ffffffffffffffffffffffffffffffffffffffff1673ffffffffffffffffffffffffffffffffffffffff16815260200190815260200160002060000160009054906101000a900473ffffffffffffffffffffffffffffffffffffffff1673ffffffffffffffffffffffffffffffffffffffff1662fdd58e89866040518363ffffffff167c0100000000000000000000000000000000000000000000000000000000028152600401808373ffffffffffffffffffffffffffffffffffffffff1673ffffffffffffffffffffffffffffffffffffffff16815260200182815260200192505050602060405180830381600087803b1515612bd657600080fd5b5af11515612be357600080fd5b50505060405180519050925060016005600086815260200190815260200160002060050160008a73ffffffffffffffffffffffffffffffffffffffff1673ffffffffffffffffffffffffffffffffffffffff16815260200190815260200160002060006101000a81548160ff0219169083151502179055506001600560008681526020019081526020016000206006016000828254019250508190555082612c8a85612cd2565b965096505050505050915091565b6000806005600084815260200190815260200160002060000154600560008581526020019081526020016000206001015491509150915091565b600060056000838152602001908152602001600020600401546005600084815260200190815260200160002060060154149050919050565b60008082612db36000809054906101000a900473ffffffffffffffffffffffffffffffffffffffff1673ffffffffffffffffffffffffffffffffffffffff1663d41667636040518163ffffffff167c0100000000000000000000000000000000000000000000000000000000028152600401602060405180830381600087803b1515612d9557600080fd5b5af11515612da257600080fd5b5050506040518051905060016130f3565b600460008373ffffffffffffffffffffffffffffffffffffffff1673ffffffffffffffffffffffffffffffffffffffff16815260200190815260200160002060000160149054906101000a900460ff161515612e0e57600080fd5b6005600082815260200190815260200160002060070160008373ffffffffffffffffffffffffffffffffffffffff1673ffffffffffffffffffffffffffffffffffffffff16815260200190815260200160002060010160019054906101000a900460ff161515612e7d57600080fd5b6000809054906101000a900473ffffffffffffffffffffffffffffffffffffffff1673ffffffffffffffffffffffffffffffffffffffff163373ffffffffffffffffffffffffffffffffffffffff16141515612ed857600080fd5b60016000809054906101000a900473ffffffffffffffffffffffffffffffffffffffff1673ffffffffffffffffffffffffffffffffffffffff1663d41667636040518163ffffffff167c0100000000000000000000000000000000000000000000000000000000028152600401602060405180830381600087803b1515612f5e57600080fd5b5af11515612f6b57600080fd5b505050604051805190500192506005600084815260200190815260200160002060090160009054906101000a900460ff161515612fa757600080fd5b6005600084815260200190815260200160002060070160008673ffffffffffffffffffffffffffffffffffffffff1673ffffffffffffffffffffffffffffffffffffffff16815260200190815260200160002060010160009054906101000a900460ff1615151561301757600080fd5b60016005600085815260200190815260200160002060070160008773ffffffffffffffffffffffffffffffffffffffff1673ffffffffffffffffffffffffffffffffffffffff16815260200190815260200160002060010160006101000a81548160ff0219169083151502179055506130a760056000858152602001908152602001600020600a015460016130f3565b60056000858152602001908152602001600020600a018190555060019350505050919050565b600160009054906101000a900473ffffffffffffffffffffffffffffffffffffffff1681565b600080828401905083811015151561310757fe5b8091505092915050565b600082821115151561311f57fe5b818303905092915050565b815481835581811511613151578183600052602060002091820191016131509190613156565b5b505050565b61317891905b8082111561317457600081600090555060010161315c565b5090565b905600a165627a7a7230582050e4e725962e59bc68e56a4088439abedb86b1365860d38470b682d4fcfc379c0029",
  "source": "pragma solidity 0.4.21;\n\nimport \"../HouseOffering.sol\";\n\nimport \"../House.sol\";\nimport \"../../Token/ERC20.sol\";\nimport \"../../Libraries/SafeMath.sol\";\n\n// All functionality related to house sessions and offerings reside here.\n// House sessions records are saved here to decouple the record keeping from the House contract to reduce gas costs on deployment.\ncontract HouseSessionsController is SafeMath {\n\n    // Structs\n    struct Session {\n        uint startTime;\n        uint endTime;\n        bool active;\n        // Offerings available for this session.\n        address[] offerings;\n        // Number of offerings available\n        uint offeringCount;\n        // Offerings that have been withdrawn from in this session.\n        // All offerings must be withdrawn to switch to the next session.\n        mapping (address => bool) withdrawnOfferings;\n        uint withdrawCount;\n        // Details for an offering for a session.\n        mapping (address => OfferingDetails) offeringDetails;\n        // Total % of tokens allocated, must be equal before switching to next session.\n        uint totalTokensAllocated;\n        // Have the token allocations been finalized? (Possible only if all offerings have been\n        // allocated tokens and totalTokensAllocated == 100)\n        bool finalizedTokenAllocations;\n        // Increments by 1 after each deposit to an offering allocation.\n        uint depositedAllocations;\n    }\n\n    struct OfferingDetails {\n        // Amount allocated to offering.\n        uint allocation;\n        // True if tokens have been deposited to offering.\n        bool deposited;\n        // True if offering has been added to session.\n        bool addedToSession;\n    }\n\n    struct Offering {\n        HouseOffering houseOffering;\n        bool exists;\n    }\n\n    // Variables\n    House house;\n    ERC20 public decentBetToken;\n    address[] public offeringAddresses;\n\n    bool public isHouseSessionsController = true;\n\n    // Mappings\n    // House offerings available for house.\n    mapping (address => Offering) offerings;\n\n    // Session statistics.\n    mapping (uint => Session) public sessions;\n\n    function HouseSessionsController(address _house)\n    public {\n        require(_house != 0x0);\n        house = House(_house);\n        decentBetToken = ERC20(house.decentBetToken());\n    }\n\n    // Modifiers\n    // Allows functions to execute only if the house contract sent the transaction.\n    modifier onlyHouse() {\n        require(msg.sender == address(house));\n        _;\n    }\n\n    modifier onlyFounder() {\n        require(msg.sender == house.founder());\n        _;\n    }\n\n    // Allows functions to execute only if the house offering exists.\n    modifier isValidHouseOffering(address offering, uint session) {\n        require(offerings[offering].exists);\n        require(sessions[session].offeringDetails[offering].addedToSession);\n        _;\n    }\n\n    // Adds a new offering to the house.\n    function addHouseOffering(address houseOfferingAddress)\n    public\n    onlyFounder {\n        // Valid address\n        require(houseOfferingAddress != 0x0);\n        // Is a house offering\n        require(HouseOffering(houseOfferingAddress).isHouseOffering());\n        // Should not already be added\n        require(!offerings[houseOfferingAddress].exists);\n        offeringAddresses.push(houseOfferingAddress);\n\n        offerings[houseOfferingAddress] = Offering({\n            houseOffering: HouseOffering(houseOfferingAddress),\n            exists: true\n        });\n        addOfferingToNextSession(houseOfferingAddress);\n    }\n\n    // Adds a house offering to the next session\n    function addOfferingToNextSession(address houseOfferingAddress)\n    public\n    onlyFounder {\n        require(offerings[houseOfferingAddress].exists);\n        require(!sessions[nextSession].offeringDetails[houseOfferingAddress].addedToSession);\n        uint nextSession = house.currentSession() + 1;\n        sessions[nextSession].offerings.push(houseOfferingAddress);\n        sessions[nextSession].offeringCount = safeAdd(sessions[nextSession].offeringCount, 1);\n        sessions[nextSession].offeringDetails[houseOfferingAddress].addedToSession = true;\n    }\n\n    // Remove an offering from the next session\n    function removeOfferingFromNextSession(address houseOfferingAddress)\n    public\n    isValidHouseOffering(\n        houseOfferingAddress,\n        safeAdd(house.currentSession(), 1)\n    )\n    onlyFounder {\n        // TODO: Look into support for current session - freeze contract, allow token withdrawals etc.\n        uint nextSession = safeAdd(house.currentSession(), 1);\n        for(uint i = 0; i < sessions[nextSession].offerings.length; i++) {\n            if(sessions[nextSession].offerings[i] == houseOfferingAddress)\n                delete sessions[nextSession].offerings[i];\n        }\n        sessions[nextSession].offeringCount =\n            safeSub(sessions[nextSession].offeringCount, 1);\n        sessions[nextSession].offeringDetails[houseOfferingAddress].addedToSession =\n            false;\n    }\n\n    // Withdraws session tokens for the previously ended session from a house offering.\n    function withdrawPreviousSessionTokensFromHouseOffering(address houseOffering)\n    public\n    isValidHouseOffering(houseOffering, safeSub(house.currentSession(), 1))\n    onlyHouse\n    returns (uint, bool) {\n        uint currentSession = house.currentSession();\n        uint previousSession = safeSub(currentSession, 1);\n        // Withdrawals are only allowed after session 1.\n        require(currentSession > 1);\n\n        // Tokens can only be withdrawn from offerings by house 48h after the previous session has ended to account\n        // for pending bets/game outcomes.\n        require(house.getTime() >= (sessions[previousSession].endTime + 2 days));\n\n        // Allow only if offering has not been withdrawn.\n        require(!sessions[previousSession].withdrawnOfferings[houseOffering]);\n\n        uint previousSessionTokens =\n            offerings[houseOffering].houseOffering.balanceOf(houseOffering, previousSession);\n\n        sessions[previousSession].withdrawnOfferings[houseOffering] = true;\n        sessions[previousSession].withdrawCount += 1;\n\n        return (\n            previousSessionTokens,\n            haveAllOfferingsBeenWithdrawn(previousSession)\n        );\n    }\n\n    // Allocates a %age of tokens for a house offering for the next session\n    function allocateTokensForHouseOffering(uint percentage, address houseOffering)\n    public\n    isValidHouseOffering(\n        houseOffering,\n        safeAdd(house.currentSession(), 1)\n    )\n    onlyHouse\n    returns (bool) {\n        uint nextSession = house.currentSession() + 1;\n\n        // Can not allocate if allocation has been finalized\n        require(!sessions[nextSession].finalizedTokenAllocations);\n\n        // Total %age of tokens can't be above 100.\n        require(safeAdd(sessions[nextSession].totalTokensAllocated, percentage) <= 100);\n\n        // Tokens have already been deposited to offering.\n        require(!sessions[nextSession].offeringDetails[houseOffering].deposited);\n\n        uint previousAllocation =\n            sessions[nextSession].offeringDetails[houseOffering].allocation;\n        sessions[nextSession].offeringDetails[houseOffering].allocation =\n            percentage;\n        sessions[nextSession].totalTokensAllocated =\n            safeSub(safeAdd(sessions[nextSession].totalTokensAllocated, percentage), previousAllocation);\n\n        return true;\n    }\n\n    // Finalizes token allocation for the next session after allocating to all offerings\n    function finalizeTokenAllocations()\n    public\n    onlyHouse\n    returns (bool) {\n        uint nextSession = house.currentSession() + 1;\n\n        // All offerings should be allocated tokens\n        for(uint i = 0; i < sessions[nextSession].offerings.length; i++) {\n            // If an offering has been deleted from the session, the address would be 0x0. Ignore them.\n            if(sessions[nextSession].offerings[i] != 0x0)\n                require(\n                    sessions[nextSession].offeringDetails\n                        [sessions[nextSession].offerings[i]].allocation > 0\n                );\n        }\n\n        // Total tokens allocated must be 100%\n        require(sessions[nextSession].totalTokensAllocated == 100);\n\n        // Token allocation can not already be finalized\n        require(!sessions[nextSession].finalizedTokenAllocations);\n\n        sessions[nextSession].finalizedTokenAllocations = true;\n\n        return true;\n    }\n\n    function depositAllocatedTokensToHouseOffering(address houseOffering)\n    public\n    isValidHouseOffering(\n        houseOffering,\n        safeAdd(house.currentSession(), 1)\n    )\n    onlyHouse\n    returns (bool) {\n        uint nextSession = house.currentSession() + 1;\n\n        // Can not deposit if token allocation has not been finalized\n        require(sessions[nextSession].finalizedTokenAllocations);\n\n        // Tokens have already been deposited to offering.\n        require(!sessions[nextSession].offeringDetails[houseOffering].deposited);\n\n        sessions[nextSession].offeringDetails[houseOffering].deposited =\n            true;\n        sessions[nextSession].depositedAllocations =\n            safeAdd(sessions[nextSession].depositedAllocations, 1);\n\n        return true;\n    }\n\n    function emergencyWithdrawCurrentSessionTokensFromHouseOffering(address houseOffering)\n    public\n    isValidHouseOffering(\n        houseOffering,\n        house.currentSession()\n    )\n    onlyHouse\n    returns (uint, bool) {\n        uint currentSession = house.currentSession();\n        uint sessionTokens =\n            offerings[houseOffering].houseOffering.balanceOf(houseOffering, currentSession);\n\n        sessions[currentSession].withdrawnOfferings[houseOffering] = true;\n        sessions[currentSession].withdrawCount += 1;\n\n        // All offerings have been withdrawn.\n        bool allOfferingsWithdrawn =\n            sessions[currentSession].withdrawCount == sessions[currentSession].offeringCount;\n\n        return (sessionTokens, allOfferingsWithdrawn);\n    }\n\n    // Starts the next session.\n    // Call this function once after setting up the house to begin the initial credit buying period.\n    function beginNextSession(uint startTime, uint endTime, uint sessionZeroStartTime)\n    public\n    onlyHouse\n    returns (bool) {\n        uint currentSession = house.currentSession();\n\n        if (currentSession == 0 && sessionZeroStartTime == 0) {\n            sessions[currentSession].active = false;\n            sessions[currentSession].startTime = startTime;\n            sessions[currentSession].endTime = endTime;\n        } else {\n            uint previousSession = safeSub(currentSession, 1);\n            // currentSession has been set to nextSession in House contract.\n            sessions[previousSession].active = false;\n\n            // For a session to be considered active, getTime() would need to be between startTime and endTime\n            // AND session should be active.\n            sessions[currentSession].active = true;\n            sessions[currentSession].startTime = startTime;\n            sessions[currentSession].endTime = endTime;\n\n            // All offerings should have deposited allocated tokens before switching to next session.\n            require(\n                sessions[currentSession].depositedAllocations ==\n                sessions[currentSession].offeringCount\n            );\n        }\n\n        return true;\n    }\n\n    // Utility functions for front-end purposes.\n\n    // Returns session start and end time.\n    function getSessionTime(uint session)\n    public\n    view\n    returns (uint, uint) {\n        return (\n            sessions[session].startTime,\n            sessions[session].endTime\n        );\n    }\n\n    // Returns whether a session is active.\n    function isSessionActive(uint session)\n    public\n    view\n    returns (bool) {\n        return house.getTime() >= sessions[session].startTime &&\n               house.getTime() <= sessions[session].endTime;\n    }\n\n    // Returns whether an offering exists.\n    function doesOfferingExist(address _offering)\n    public\n    view\n    returns (bool) {\n        return offerings[_offering].exists;\n    }\n\n    // Returns an offering for a session.\n    function getSessionOffering(uint session, uint index)\n    public\n    view\n    returns (address offering) {\n        return sessions[session].offerings[index];\n    }\n\n    function getSessionTimes(uint session)\n    public\n    view\n    returns (uint, uint) {\n        return (sessions[session].startTime, sessions[session].endTime);\n    }\n\n    // Returns offering token allocations and deposits.\n    function getOfferingDetails(uint session, address _address)\n    public\n    view\n    returns (uint, bool, bool) {\n        return (\n            sessions[session].offeringDetails[_address].allocation,\n            sessions[session].offeringDetails[_address].deposited,\n            sessions[session].offeringDetails[_address].addedToSession\n        );\n    }\n\n    // Returns total tokens allocated to offering\n    function areSessionTokenAllocationsFinalized(uint session)\n    public\n    view\n    returns (bool) {\n        return sessions[session].finalizedTokenAllocations;\n    }\n\n    function getSessionOfferingsLength(uint session)\n    public\n    view\n    returns (uint) {\n        return sessions[session].offerings.length;\n    }\n\n    function getSessionOfferingAddress(uint session, uint index)\n    public\n    view\n    returns (address) {\n        return sessions[session].offerings[index];\n    }\n\n    function getOfferingAddressesLength()\n    public\n    view\n    returns (uint) {\n        return offeringAddresses.length;\n    }\n\n    function isOfferingWithdrawn(uint session, address offering)\n    public\n    view\n    returns (bool) {\n        return sessions[session].withdrawnOfferings[offering];\n    }\n\n    function haveAllOfferingsBeenWithdrawn(uint session)\n    public\n    view\n    returns (bool) {\n        return (\n            sessions[session].withdrawCount ==\n            sessions[session].offeringCount\n        );\n    }\n\n}\n",
  "sourcePath": "/Users/dev/Projects/platform-contracts/contracts/House/Controllers/HouseSessionsController.sol",
  "compiler": {
    "name": "solc",
    "version": "0.4.21+commit.dfe3193c.Emscripten.clang"
  },
  "schemaVersion": "2.0.0",
  "updatedAt": "2018-05-31T12:38:37.164Z"
}