{
  "contractName": "House",
  "abi": [
    {
      "constant": true,
      "inputs": [],
      "name": "timeController",
      "outputs": [
        {
          "name": "",
          "type": "address"
        }
      ],
      "payable": false,
      "stateMutability": "view",
      "type": "function"
    },
    {
      "constant": true,
      "inputs": [],
      "name": "emergencyWithdrawalsEnabled",
      "outputs": [
        {
          "name": "",
          "type": "bool"
        }
      ],
      "payable": false,
      "stateMutability": "view",
      "type": "function"
    },
    {
      "constant": true,
      "inputs": [],
      "name": "emergencyPaused",
      "outputs": [
        {
          "name": "",
          "type": "bool"
        }
      ],
      "payable": false,
      "stateMutability": "view",
      "type": "function"
    },
    {
      "constant": true,
      "inputs": [],
      "name": "isMock",
      "outputs": [
        {
          "name": "",
          "type": "bool"
        }
      ],
      "payable": false,
      "stateMutability": "view",
      "type": "function"
    },
    {
      "constant": false,
      "inputs": [],
      "name": "enableEmergencyWithdrawals",
      "outputs": [],
      "payable": false,
      "stateMutability": "nonpayable",
      "type": "function"
    },
    {
      "constant": false,
      "inputs": [
        {
          "name": "time",
          "type": "uint256"
        }
      ],
      "name": "setTime",
      "outputs": [],
      "payable": false,
      "stateMutability": "nonpayable",
      "type": "function"
    },
    {
      "constant": true,
      "inputs": [],
      "name": "founder",
      "outputs": [
        {
          "name": "",
          "type": "address"
        }
      ],
      "payable": false,
      "stateMutability": "view",
      "type": "function"
    },
    {
      "constant": false,
      "inputs": [],
      "name": "emergencyPause",
      "outputs": [],
      "payable": false,
      "stateMutability": "nonpayable",
      "type": "function"
    },
    {
      "constant": true,
      "inputs": [],
      "name": "getTime",
      "outputs": [
        {
          "name": "",
          "type": "uint256"
        }
      ],
      "payable": false,
      "stateMutability": "view",
      "type": "function"
    },
    {
      "constant": false,
      "inputs": [],
      "name": "disableEmergencyWithdrawals",
      "outputs": [],
      "payable": false,
      "stateMutability": "nonpayable",
      "type": "function"
    },
    {
      "constant": false,
      "inputs": [],
      "name": "emergencyUnPause",
      "outputs": [],
      "payable": false,
      "stateMutability": "nonpayable",
      "type": "function"
    },
    {
      "constant": false,
      "inputs": [
        {
          "name": "_emergencyController",
          "type": "address"
        }
      ],
      "name": "setEmergencyController",
      "outputs": [],
      "payable": false,
      "stateMutability": "nonpayable",
      "type": "function"
    },
    {
      "constant": true,
      "inputs": [],
      "name": "emergencyController",
      "outputs": [
        {
          "name": "",
          "type": "address"
        }
      ],
      "payable": false,
      "stateMutability": "view",
      "type": "function"
    },
    {
      "constant": true,
      "inputs": [],
      "name": "decentBetToken",
      "outputs": [
        {
          "name": "",
          "type": "address"
        }
      ],
      "payable": false,
      "stateMutability": "view",
      "type": "function"
    },
    {
      "constant": true,
      "inputs": [],
      "name": "currentSession",
      "outputs": [
        {
          "name": "",
          "type": "uint256"
        }
      ],
      "payable": false,
      "stateMutability": "view",
      "type": "function"
    },
    {
      "constant": false,
      "inputs": [
        {
          "name": "_isMock",
          "type": "bool"
        }
      ],
      "name": "toggleMockTime",
      "outputs": [],
      "payable": false,
      "stateMutability": "nonpayable",
      "type": "function"
    },
    {
      "constant": true,
      "inputs": [],
      "name": "houseLotteryController",
      "outputs": [
        {
          "name": "",
          "type": "address"
        }
      ],
      "payable": false,
      "stateMutability": "view",
      "type": "function"
    },
    {
      "constant": true,
      "inputs": [],
      "name": "sessionZeroStartTime",
      "outputs": [
        {
          "name": "",
          "type": "uint256"
        }
      ],
      "payable": false,
      "stateMutability": "view",
      "type": "function"
    },
    {
      "inputs": [
        {
          "name": "decentBetTokenAddress",
          "type": "address"
        },
        {
          "name": "kycManagerAddress",
          "type": "address"
        }
      ],
      "payable": false,
      "stateMutability": "nonpayable",
      "type": "constructor"
    },
    {
      "payable": false,
      "stateMutability": "nonpayable",
      "type": "fallback"
    },
    {
      "anonymous": false,
      "inputs": [
        {
          "indexed": false,
          "name": "creditHolder",
          "type": "address"
        },
        {
          "indexed": false,
          "name": "session",
          "type": "uint256"
        },
        {
          "indexed": false,
          "name": "amount",
          "type": "uint256"
        },
        {
          "indexed": false,
          "name": "balance",
          "type": "uint256"
        }
      ],
      "name": "LogPurchasedCredits",
      "type": "event"
    },
    {
      "anonymous": false,
      "inputs": [
        {
          "indexed": false,
          "name": "creditHolder",
          "type": "address"
        },
        {
          "indexed": false,
          "name": "session",
          "type": "uint256"
        },
        {
          "indexed": false,
          "name": "amount",
          "type": "uint256"
        },
        {
          "indexed": false,
          "name": "payout",
          "type": "uint256"
        }
      ],
      "name": "LogLiquidateCredits",
      "type": "event"
    },
    {
      "anonymous": false,
      "inputs": [
        {
          "indexed": false,
          "name": "creditHolder",
          "type": "address"
        },
        {
          "indexed": false,
          "name": "session",
          "type": "uint256"
        },
        {
          "indexed": false,
          "name": "amount",
          "type": "uint256"
        }
      ],
      "name": "LogRolledOverCredits",
      "type": "event"
    },
    {
      "anonymous": false,
      "inputs": [
        {
          "indexed": false,
          "name": "creditHolder",
          "type": "address"
        },
        {
          "indexed": false,
          "name": "session",
          "type": "uint256"
        },
        {
          "indexed": false,
          "name": "rolledOver",
          "type": "uint256"
        },
        {
          "indexed": false,
          "name": "adjusted",
          "type": "uint256"
        },
        {
          "indexed": false,
          "name": "creditsForCurrentSession",
          "type": "uint256"
        }
      ],
      "name": "LogClaimRolledOverCredits",
      "type": "event"
    },
    {
      "anonymous": false,
      "inputs": [
        {
          "indexed": false,
          "name": "session",
          "type": "uint256"
        },
        {
          "indexed": false,
          "name": "startTimestamp",
          "type": "uint256"
        },
        {
          "indexed": false,
          "name": "startBlockNumber",
          "type": "uint256"
        },
        {
          "indexed": false,
          "name": "endTimestamp",
          "type": "uint256"
        },
        {
          "indexed": false,
          "name": "endBlockNumber",
          "type": "uint256"
        }
      ],
      "name": "LogNewSession",
      "type": "event"
    },
    {
      "anonymous": false,
      "inputs": [
        {
          "indexed": false,
          "name": "offeringAddress",
          "type": "address"
        },
        {
          "indexed": false,
          "name": "name",
          "type": "bytes32"
        }
      ],
      "name": "LogNewHouseOffering",
      "type": "event"
    },
    {
      "anonymous": false,
      "inputs": [
        {
          "indexed": false,
          "name": "session",
          "type": "uint256"
        }
      ],
      "name": "LogPickLotteryWinner",
      "type": "event"
    },
    {
      "anonymous": false,
      "inputs": [
        {
          "indexed": false,
          "name": "session",
          "type": "uint256"
        },
        {
          "indexed": false,
          "name": "ticketNumber",
          "type": "uint256"
        },
        {
          "indexed": false,
          "name": "_address",
          "type": "address"
        }
      ],
      "name": "LogWinningTicket",
      "type": "event"
    },
    {
      "anonymous": false,
      "inputs": [
        {
          "indexed": false,
          "name": "session",
          "type": "uint256"
        },
        {
          "indexed": false,
          "name": "offering",
          "type": "address"
        },
        {
          "indexed": false,
          "name": "percentage",
          "type": "uint256"
        }
      ],
      "name": "LogOfferingAllocation",
      "type": "event"
    },
    {
      "anonymous": false,
      "inputs": [
        {
          "indexed": false,
          "name": "session",
          "type": "uint256"
        },
        {
          "indexed": false,
          "name": "offering",
          "type": "address"
        },
        {
          "indexed": false,
          "name": "percentage",
          "type": "uint256"
        },
        {
          "indexed": false,
          "name": "amount",
          "type": "uint256"
        }
      ],
      "name": "LogOfferingDeposit",
      "type": "event"
    },
    {
      "anonymous": false,
      "inputs": [
        {
          "indexed": false,
          "name": "session",
          "type": "uint256"
        },
        {
          "indexed": false,
          "name": "offering",
          "type": "address"
        },
        {
          "indexed": false,
          "name": "amount",
          "type": "uint256"
        }
      ],
      "name": "LogAddToSessionProfitsFromUnregisteredHouseOffering",
      "type": "event"
    },
    {
      "anonymous": false,
      "inputs": [
        {
          "indexed": false,
          "name": "creditHolder",
          "type": "address"
        },
        {
          "indexed": false,
          "name": "session",
          "type": "uint256"
        },
        {
          "indexed": false,
          "name": "amount",
          "type": "uint256"
        },
        {
          "indexed": false,
          "name": "payout",
          "type": "uint256"
        }
      ],
      "name": "LogEmergencyWithdraw",
      "type": "event"
    },
    {
      "anonymous": false,
      "inputs": [
        {
          "indexed": false,
          "name": "time",
          "type": "uint256"
        }
      ],
      "name": "LogUpdatedTime",
      "type": "event"
    },
    {
      "constant": false,
      "inputs": [
        {
          "name": "_address",
          "type": "address"
        }
      ],
      "name": "setHouseAuthorizedControllerAddress",
      "outputs": [],
      "payable": false,
      "stateMutability": "nonpayable",
      "type": "function"
    },
    {
      "constant": false,
      "inputs": [
        {
          "name": "_address",
          "type": "address"
        }
      ],
      "name": "setHouseFundsControllerAddress",
      "outputs": [],
      "payable": false,
      "stateMutability": "nonpayable",
      "type": "function"
    },
    {
      "constant": false,
      "inputs": [
        {
          "name": "_address",
          "type": "address"
        }
      ],
      "name": "setHouseSessionsControllerAddress",
      "outputs": [],
      "payable": false,
      "stateMutability": "nonpayable",
      "type": "function"
    },
    {
      "constant": false,
      "inputs": [
        {
          "name": "_address",
          "type": "address"
        }
      ],
      "name": "setHouseLotteryControllerAddress",
      "outputs": [],
      "payable": false,
      "stateMutability": "nonpayable",
      "type": "function"
    },
    {
      "constant": false,
      "inputs": [
        {
          "name": "amount",
          "type": "uint256"
        }
      ],
      "name": "purchaseCredits",
      "outputs": [],
      "payable": false,
      "stateMutability": "nonpayable",
      "type": "function"
    },
    {
      "constant": false,
      "inputs": [
        {
          "name": "session",
          "type": "uint256"
        }
      ],
      "name": "liquidateCredits",
      "outputs": [],
      "payable": false,
      "stateMutability": "nonpayable",
      "type": "function"
    },
    {
      "constant": false,
      "inputs": [
        {
          "name": "amount",
          "type": "uint256"
        }
      ],
      "name": "rollOverCredits",
      "outputs": [],
      "payable": false,
      "stateMutability": "nonpayable",
      "type": "function"
    },
    {
      "constant": false,
      "inputs": [],
      "name": "claimRolledOverCredits",
      "outputs": [],
      "payable": false,
      "stateMutability": "nonpayable",
      "type": "function"
    },
    {
      "constant": false,
      "inputs": [
        {
          "name": "houseOffering",
          "type": "address"
        }
      ],
      "name": "withdrawPreviousSessionTokensFromHouseOffering",
      "outputs": [],
      "payable": false,
      "stateMutability": "nonpayable",
      "type": "function"
    },
    {
      "constant": false,
      "inputs": [
        {
          "name": "unregisteredOffering",
          "type": "address"
        },
        {
          "name": "session",
          "type": "uint256"
        },
        {
          "name": "amount",
          "type": "uint256"
        }
      ],
      "name": "addToSessionProfitsFromUnregisteredHouseOffering",
      "outputs": [],
      "payable": false,
      "stateMutability": "nonpayable",
      "type": "function"
    },
    {
      "constant": false,
      "inputs": [
        {
          "name": "percentage",
          "type": "uint256"
        },
        {
          "name": "houseOffering",
          "type": "address"
        }
      ],
      "name": "allocateTokensForHouseOffering",
      "outputs": [],
      "payable": false,
      "stateMutability": "nonpayable",
      "type": "function"
    },
    {
      "constant": false,
      "inputs": [
        {
          "name": "houseOffering",
          "type": "address"
        }
      ],
      "name": "depositAllocatedTokensToHouseOffering",
      "outputs": [],
      "payable": false,
      "stateMutability": "nonpayable",
      "type": "function"
    },
    {
      "constant": false,
      "inputs": [
        {
          "name": "session",
          "type": "uint256"
        }
      ],
      "name": "pickLotteryWinner",
      "outputs": [
        {
          "name": "",
          "type": "bool"
        }
      ],
      "payable": true,
      "stateMutability": "payable",
      "type": "function"
    },
    {
      "constant": false,
      "inputs": [
        {
          "name": "session",
          "type": "uint256"
        }
      ],
      "name": "claimLotteryWinnings",
      "outputs": [
        {
          "name": "",
          "type": "uint256"
        },
        {
          "name": "",
          "type": "uint256"
        }
      ],
      "payable": false,
      "stateMutability": "nonpayable",
      "type": "function"
    },
    {
      "constant": false,
      "inputs": [],
      "name": "beginNextSession",
      "outputs": [],
      "payable": false,
      "stateMutability": "nonpayable",
      "type": "function"
    },
    {
      "constant": false,
      "inputs": [
        {
          "name": "houseOffering",
          "type": "address"
        }
      ],
      "name": "emergencyWithdrawCurrentSessionTokensFromHouseOffering",
      "outputs": [],
      "payable": false,
      "stateMutability": "nonpayable",
      "type": "function"
    },
    {
      "constant": false,
      "inputs": [],
      "name": "emergencyWithdraw",
      "outputs": [],
      "payable": false,
      "stateMutability": "nonpayable",
      "type": "function"
    },
    {
      "constant": true,
      "inputs": [],
      "name": "getHouseControllers",
      "outputs": [
        {
          "name": "",
          "type": "address"
        },
        {
          "name": "",
          "type": "address"
        },
        {
          "name": "",
          "type": "address"
        }
      ],
      "payable": false,
      "stateMutability": "view",
      "type": "function"
    }
  ],
  "bytecode": "0x6060604052426001556000600455600060055534156200001e57600080fd5b6040516040806200542283398101604052808051906020019091908051906020019091905050336000806101000a81548173ffffffffffffffffffffffffffffffffffffffff021916908373ffffffffffffffffffffffffffffffffffffffff16021790555060008273ffffffffffffffffffffffffffffffffffffffff1614151515620000ab57600080fd5b33600360006101000a81548173ffffffffffffffffffffffffffffffffffffffff021916908373ffffffffffffffffffffffffffffffffffffffff16021790555081600660006101000a81548173ffffffffffffffffffffffffffffffffffffffff021916908373ffffffffffffffffffffffffffffffffffffffff16021790555080600b60006101000a81548173ffffffffffffffffffffffffffffffffffffffff021916908373ffffffffffffffffffffffffffffffffffffffff1602179055506001600060166101000a81548160ff021916908315150217905550620001a833620001b064010000000002620051ae176401000000009004565b5050620001f4565b80600260006101000a81548173ffffffffffffffffffffffffffffffffffffffff021916908373ffffffffffffffffffffffffffffffffffffffff16021790555050565b61521e80620002046000396000f3006060604052600436106101c2576000357c0100000000000000000000000000000000000000000000000000000000900463ffffffff168063043e57fb146101d2578063075b0649146102145780630fd63997146102525780631a102add1461028b5780631bcf970b146102e0578063261e5bc3146103195780632646750714610352578063275160751461037557806327c830a9146103a257806328ccaa29146103cf578063303b069f146103fc578063383738f1146104115780633beb26c41461044a5780634d853ee51461046d57806351325e1a146104c257806351858e271461050d578063557ed1ba146105225780636300a5e21461054b5780636736d580146105605780636ca7dc891461057557806370741aae146105ae5780637a936beb146105c35780637d0c8101146106185780638d579d3914610651578063927ef33614610666578063b9f2ef301461069f578063bef101fb146106d8578063c2b3202c146106fb578063cba44d4f1461072b578063d416676314610780578063d563ce19146107a9578063d6631a51146107ce578063d8945437146107f1578063db2e21bc146108ac578063edecbc7b146108c1578063f2639b4214610916575b34156101cd57600080fd5b600080fd5b34156101dd57600080fd5b610212600480803590602001909190803573ffffffffffffffffffffffffffffffffffffffff1690602001909190505061093f565b005b341561021f57600080fd5b6102356004808035906020019091905050610c94565b604051808381526020018281526020019250505060405180910390f35b341561025d57600080fd5b610289600480803573ffffffffffffffffffffffffffffffffffffffff16906020019091905050611227565b005b341561029657600080fd5b61029e611372565b604051808273ffffffffffffffffffffffffffffffffffffffff1673ffffffffffffffffffffffffffffffffffffffff16815260200191505060405180910390f35b34156102eb57600080fd5b610317600480803573ffffffffffffffffffffffffffffffffffffffff16906020019091905050611398565b005b341561032457600080fd5b610350600480803573ffffffffffffffffffffffffffffffffffffffff169060200190919050506114e3565b005b341561035d57600080fd5b610373600480803590602001909190505061162e565b005b341561038057600080fd5b6103886119cf565b604051808215151515815260200191505060405180910390f35b34156103ad57600080fd5b6103b56119e2565b604051808215151515815260200191505060405180910390f35b34156103da57600080fd5b6103e26119f5565b604051808215151515815260200191505060405180910390f35b341561040757600080fd5b61040f611a08565b005b341561041c57600080fd5b610448600480803573ffffffffffffffffffffffffffffffffffffffff16906020019091905050611a9b565b005b341561045557600080fd5b61046b6004808035906020019091905050611e1c565b005b341561047857600080fd5b610480611eb9565b604051808273ffffffffffffffffffffffffffffffffffffffff1673ffffffffffffffffffffffffffffffffffffffff16815260200191505060405180910390f35b34156104cd57600080fd5b61050b600480803573ffffffffffffffffffffffffffffffffffffffff16906020019091908035906020019091908035906020019091905050611edf565b005b341561051857600080fd5b61052061242d565b005b341561052d57600080fd5b6105356124a5565b6040518082815260200191505060405180910390f35b341561055657600080fd5b61055e6124c9565b005b341561056b57600080fd5b610573612540565b005b341561058057600080fd5b6105ac600480803573ffffffffffffffffffffffffffffffffffffffff169060200190919050506125d1565b005b34156105b957600080fd5b6105c161266f565b005b34156105ce57600080fd5b6105d6612cc6565b604051808273ffffffffffffffffffffffffffffffffffffffff1673ffffffffffffffffffffffffffffffffffffffff16815260200191505060405180910390f35b341561062357600080fd5b61064f600480803573ffffffffffffffffffffffffffffffffffffffff16906020019091905050612ceb565b005b341561065c57600080fd5b610664612e36565b005b341561067157600080fd5b61069d600480803573ffffffffffffffffffffffffffffffffffffffff1690602001909190505061362e565b005b34156106aa57600080fd5b6106d6600480803573ffffffffffffffffffffffffffffffffffffffff1690602001909190505061392d565b005b34156106e357600080fd5b6106f96004808035906020019091905050613fdf565b005b610711600480803590602001909190505061447d565b604051808215151515815260200191505060405180910390f35b341561073657600080fd5b61073e614818565b604051808273ffffffffffffffffffffffffffffffffffffffff1673ffffffffffffffffffffffffffffffffffffffff16815260200191505060405180910390f35b341561078b57600080fd5b61079361483e565b6040518082815260200191505060405180910390f35b34156107b457600080fd5b6107cc60048080351515906020019091905050614844565b005b34156107d957600080fd5b6107ef60048080359060200190919050506148bd565b005b34156107fc57600080fd5b610804614e01565b604051808473ffffffffffffffffffffffffffffffffffffffff1673ffffffffffffffffffffffffffffffffffffffff1681526020018373ffffffffffffffffffffffffffffffffffffffff1673ffffffffffffffffffffffffffffffffffffffff1681526020018273ffffffffffffffffffffffffffffffffffffffff1673ffffffffffffffffffffffffffffffffffffffff168152602001935050505060405180910390f35b34156108b757600080fd5b6108bf614e7a565b005b34156108cc57600080fd5b6108d46150fa565b604051808273ffffffffffffffffffffffffffffffffffffffff1673ffffffffffffffffffffffffffffffffffffffff16815260200191505060405180910390f35b341561092157600080fd5b610929615120565b6040518082815260200191505060405180910390f35b600080600454141561095e5760006005541415151561095d57600080fd5b5b600a60009054906101000a900473ffffffffffffffffffffffffffffffffffffffff1673ffffffffffffffffffffffffffffffffffffffff16639406d1666004546040518263ffffffff167c0100000000000000000000000000000000000000000000000000000000028152600401808281526020019150506040805180830381600087803b15156109ef57600080fd5b5af115156109fc57600080fd5b50505060405180519060200180519050905080915050610a1f8162127500615126565b610a276124a5565b10158015610a485750610a3d8162093a80615126565b610a456124a5565b11155b1515610a5357600080fd5b600860009054906101000a900473ffffffffffffffffffffffffffffffffffffffff1673ffffffffffffffffffffffffffffffffffffffff1663b9181611336040518263ffffffff167c0100000000000000000000000000000000000000000000000000000000028152600401808273ffffffffffffffffffffffffffffffffffffffff1673ffffffffffffffffffffffffffffffffffffffff168152602001915050602060405180830381600087803b1515610b0f57600080fd5b5af11515610b1c57600080fd5b505050604051805190501515610b3157600080fd5b600a60009054906101000a900473ffffffffffffffffffffffffffffffffffffffff1673ffffffffffffffffffffffffffffffffffffffff1663043e57fb84846040518363ffffffff167c0100000000000000000000000000000000000000000000000000000000028152600401808381526020018273ffffffffffffffffffffffffffffffffffffffff1673ffffffffffffffffffffffffffffffffffffffff16815260200192505050602060405180830381600087803b1515610bf557600080fd5b5af11515610c0257600080fd5b505050604051805190501515610c1757600080fd5b7fc1520f1171a70e97696be02c2c018fb1bd1d75b5d84cb93911751d95e7af06126001600454018385604051808481526020018373ffffffffffffffffffffffffffffffffffffffff1673ffffffffffffffffffffffffffffffffffffffff168152602001828152602001935050505060405180910390a1505050565b6000806000806000600b60009054906101000a900473ffffffffffffffffffffffffffffffffffffffff1673ffffffffffffffffffffffffffffffffffffffff16630b9aa06730336040518363ffffffff167c0100000000000000000000000000000000000000000000000000000000028152600401808373ffffffffffffffffffffffffffffffffffffffff1673ffffffffffffffffffffffffffffffffffffffff1681526020018273ffffffffffffffffffffffffffffffffffffffff1673ffffffffffffffffffffffffffffffffffffffff16815260200192505050602060405180830381600087803b1515610d8c57600080fd5b5af11515610d9957600080fd5b505050604051805190501515610dae57600080fd5b856000806000808414151515610dc357600080fd5b600a60009054906101000a900473ffffffffffffffffffffffffffffffffffffffff1673ffffffffffffffffffffffffffffffffffffffff166383c4b7a3856040518263ffffffff167c01000000000000000000000000000000000000000000000000000000000281526004018082815260200191505060c060405180830381600087803b1515610e5357600080fd5b5af11515610e6057600080fd5b50505060405180519060200180519060200180519060200180519060200180519060200180519050909192939450909192509050508093508194505050600a60009054906101000a900473ffffffffffffffffffffffffffffffffffffffff1673ffffffffffffffffffffffffffffffffffffffff1663890e6bf4856040518263ffffffff167c010000000000000000000000000000000000000000000000000000000002815260040180828152602001915050602060405180830381600087803b1515610f2d57600080fd5b5af11515610f3a57600080fd5b505050604051805190509050620546008301610f546124a5565b10151515610f6157600080fd5b8082141515610f6f57600080fd5b600960009054906101000a900473ffffffffffffffffffffffffffffffffffffffff1673ffffffffffffffffffffffffffffffffffffffff1663ef0c0ff38b6040518263ffffffff167c010000000000000000000000000000000000000000000000000000000002815260040180828152602001915050602060405180830381600087803b1515610fff57600080fd5b5af1151561100c57600080fd5b50505060405180519050965060008713151561102757600080fd5b86955061103f61103887600561513f565b606461517a565b9450600760009054906101000a900473ffffffffffffffffffffffffffffffffffffffff1673ffffffffffffffffffffffffffffffffffffffff166317df021c8b33886040518463ffffffff167c0100000000000000000000000000000000000000000000000000000000028152600401808481526020018373ffffffffffffffffffffffffffffffffffffffff1673ffffffffffffffffffffffffffffffffffffffff1681526020018281526020019350505050602060405180830381600087803b151561110d57600080fd5b5af1151561111a57600080fd5b50505060405180519050151561112f57600080fd5b600660009054906101000a900473ffffffffffffffffffffffffffffffffffffffff1673ffffffffffffffffffffffffffffffffffffffff1663a9059cbb33876040518363ffffffff167c0100000000000000000000000000000000000000000000000000000000028152600401808373ffffffffffffffffffffffffffffffffffffffff1673ffffffffffffffffffffffffffffffffffffffff16815260200182815260200192505050602060405180830381600087803b15156111f357600080fd5b5af1151561120057600080fd5b50505060405180519050151561121557600080fd5b85859850985050505050505050915091565b600360009054906101000a900473ffffffffffffffffffffffffffffffffffffffff1673ffffffffffffffffffffffffffffffffffffffff163373ffffffffffffffffffffffffffffffffffffffff1614151561128357600080fd5b60008173ffffffffffffffffffffffffffffffffffffffff16141515156112a957600080fd5b8073ffffffffffffffffffffffffffffffffffffffff16633e4238ff6040518163ffffffff167c0100000000000000000000000000000000000000000000000000000000028152600401602060405180830381600087803b151561130c57600080fd5b5af1151561131957600080fd5b50505060405180519050151561132e57600080fd5b80600a60006101000a81548173ffffffffffffffffffffffffffffffffffffffff021916908373ffffffffffffffffffffffffffffffffffffffff16021790555050565b600260009054906101000a900473ffffffffffffffffffffffffffffffffffffffff1681565b600360009054906101000a900473ffffffffffffffffffffffffffffffffffffffff1673ffffffffffffffffffffffffffffffffffffffff163373ffffffffffffffffffffffffffffffffffffffff161415156113f457600080fd5b60008173ffffffffffffffffffffffffffffffffffffffff161415151561141a57600080fd5b8073ffffffffffffffffffffffffffffffffffffffff1663f7f8186a6040518163ffffffff167c0100000000000000000000000000000000000000000000000000000000028152600401602060405180830381600087803b151561147d57600080fd5b5af1151561148a57600080fd5b50505060405180519050151561149f57600080fd5b80600860006101000a81548173ffffffffffffffffffffffffffffffffffffffff021916908373ffffffffffffffffffffffffffffffffffffffff16021790555050565b600360009054906101000a900473ffffffffffffffffffffffffffffffffffffffff1673ffffffffffffffffffffffffffffffffffffffff163373ffffffffffffffffffffffffffffffffffffffff1614151561153f57600080fd5b60008173ffffffffffffffffffffffffffffffffffffffff161415151561156557600080fd5b8073ffffffffffffffffffffffffffffffffffffffff16636359c4036040518163ffffffff167c0100000000000000000000000000000000000000000000000000000000028152600401602060405180830381600087803b15156115c857600080fd5b5af115156115d557600080fd5b5050506040518051905015156115ea57600080fd5b80600760006101000a81548173ffffffffffffffffffffffffffffffffffffffff021916908373ffffffffffffffffffffffffffffffffffffffff16021790555050565b600b60009054906101000a900473ffffffffffffffffffffffffffffffffffffffff1673ffffffffffffffffffffffffffffffffffffffff16630b9aa06730336040518363ffffffff167c0100000000000000000000000000000000000000000000000000000000028152600401808373ffffffffffffffffffffffffffffffffffffffff1673ffffffffffffffffffffffffffffffffffffffff1681526020018273ffffffffffffffffffffffffffffffffffffffff1673ffffffffffffffffffffffffffffffffffffffff16815260200192505050602060405180830381600087803b151561171e57600080fd5b5af1151561172b57600080fd5b50505060405180519050151561174057600080fd5b600060149054906101000a900460ff1615151561175c57600080fd5b600080600454141561177b5760006005541415151561177a57600080fd5b5b600a60009054906101000a900473ffffffffffffffffffffffffffffffffffffffff1673ffffffffffffffffffffffffffffffffffffffff16639406d1666004546040518263ffffffff167c0100000000000000000000000000000000000000000000000000000000028152600401808281526020019150506040805180830381600087803b151561180c57600080fd5b5af1151561181957600080fd5b5050506040518051906020018051905090508091505061183c8162127500615126565b6118446124a5565b10158015611865575061185a8162093a80615126565b6118626124a5565b11155b151561187057600080fd5b600960009054906101000a900473ffffffffffffffffffffffffffffffffffffffff1673ffffffffffffffffffffffffffffffffffffffff16633580e40433846040518363ffffffff167c0100000000000000000000000000000000000000000000000000000000028152600401808373ffffffffffffffffffffffffffffffffffffffff1673ffffffffffffffffffffffffffffffffffffffff16815260200182815260200192505050602060405180830381600087803b151561193457600080fd5b5af1151561194157600080fd5b50505060405180519050151561195657600080fd5b7f4aa297e36c6515eb13f01737cfbdc55623049e3419964c3f0e26c102eb9185f13360045484604051808473ffffffffffffffffffffffffffffffffffffffff1673ffffffffffffffffffffffffffffffffffffffff168152602001838152602001828152602001935050505060405180910390a15050565b600060159054906101000a900460ff1681565b600060149054906101000a900460ff1681565b600060169054906101000a900460ff1681565b600060149054906101000a900460ff161515611a2357600080fd5b6000809054906101000a900473ffffffffffffffffffffffffffffffffffffffff1673ffffffffffffffffffffffffffffffffffffffff163373ffffffffffffffffffffffffffffffffffffffff16141515611a7e57600080fd5b6001600060156101000a81548160ff021916908315150217905550565b600080600060149054906101000a900460ff161515611ab957600080fd5b600360009054906101000a900473ffffffffffffffffffffffffffffffffffffffff1673ffffffffffffffffffffffffffffffffffffffff163373ffffffffffffffffffffffffffffffffffffffff16141515611b1557600080fd5b600a60009054906101000a900473ffffffffffffffffffffffffffffffffffffffff1673ffffffffffffffffffffffffffffffffffffffff166381528eeb600454856040518363ffffffff167c0100000000000000000000000000000000000000000000000000000000028152600401808381526020018273ffffffffffffffffffffffffffffffffffffffff1673ffffffffffffffffffffffffffffffffffffffff16815260200192505050602060405180830381600087803b1515611bdb57600080fd5b5af11515611be857600080fd5b50505060405180519050151515611bfe57600080fd5b600a60009054906101000a900473ffffffffffffffffffffffffffffffffffffffff1673ffffffffffffffffffffffffffffffffffffffff1663383738f1846040518263ffffffff167c0100000000000000000000000000000000000000000000000000000000028152600401808273ffffffffffffffffffffffffffffffffffffffff1673ffffffffffffffffffffffffffffffffffffffff1681526020019150506040805180830381600087803b1515611cb957600080fd5b5af11515611cc657600080fd5b505050604051805190602001805190508092508193505050600960009054906101000a900473ffffffffffffffffffffffffffffffffffffffff1673ffffffffffffffffffffffffffffffffffffffff1663c05a1b3383836040518363ffffffff167c0100000000000000000000000000000000000000000000000000000000028152600401808381526020018215151515815260200192505050602060405180830381600087803b1515611d7a57600080fd5b5af11515611d8757600080fd5b50505060405180519050508273ffffffffffffffffffffffffffffffffffffffff16639a72df7a6040518163ffffffff167c0100000000000000000000000000000000000000000000000000000000028152600401602060405180830381600087803b1515611df557600080fd5b5af11515611e0257600080fd5b505050604051805190501515611e1757600080fd5b505050565b600260009054906101000a900473ffffffffffffffffffffffffffffffffffffffff1673ffffffffffffffffffffffffffffffffffffffff163373ffffffffffffffffffffffffffffffffffffffff16141515611e7857600080fd5b806001819055507fddb30991472728014becfdc873e13fc7a4bbad9d6e1b45632cbdf2098d249a79816040518082815260200191505060405180910390a150565b600360009054906101000a900473ffffffffffffffffffffffffffffffffffffffff1681565b600860009054906101000a900473ffffffffffffffffffffffffffffffffffffffff1673ffffffffffffffffffffffffffffffffffffffff1663b9181611336040518263ffffffff167c0100000000000000000000000000000000000000000000000000000000028152600401808273ffffffffffffffffffffffffffffffffffffffff1673ffffffffffffffffffffffffffffffffffffffff168152602001915050602060405180830381600087803b1515611f9b57600080fd5b5af11515611fa857600080fd5b505050604051805190501515611fbd57600080fd5b600060045414151515611fcf57600080fd5b600454821480611fea5750611fe76004546001615126565b82145b1515611ff557600080fd5b80600660009054906101000a900473ffffffffffffffffffffffffffffffffffffffff1673ffffffffffffffffffffffffffffffffffffffff166370a08231336040518263ffffffff167c0100000000000000000000000000000000000000000000000000000000028152600401808273ffffffffffffffffffffffffffffffffffffffff1673ffffffffffffffffffffffffffffffffffffffff168152602001915050602060405180830381600087803b15156120b257600080fd5b5af115156120bf57600080fd5b50505060405180519050101515156120d657600080fd5b80600660009054906101000a900473ffffffffffffffffffffffffffffffffffffffff1673ffffffffffffffffffffffffffffffffffffffff1663dd62ed3e33306040518363ffffffff167c0100000000000000000000000000000000000000000000000000000000028152600401808373ffffffffffffffffffffffffffffffffffffffff1673ffffffffffffffffffffffffffffffffffffffff1681526020018273ffffffffffffffffffffffffffffffffffffffff1673ffffffffffffffffffffffffffffffffffffffff16815260200192505050602060405180830381600087803b15156121c757600080fd5b5af115156121d457600080fd5b50505060405180519050101515156121eb57600080fd5b600960009054906101000a900473ffffffffffffffffffffffffffffffffffffffff1673ffffffffffffffffffffffffffffffffffffffff1663aee5597d83836040518363ffffffff167c01000000000000000000000000000000000000000000000000000000000281526004018083815260200182815260200192505050602060405180830381600087803b151561228357600080fd5b5af1151561229057600080fd5b5050506040518051905050600660009054906101000a900473ffffffffffffffffffffffffffffffffffffffff1673ffffffffffffffffffffffffffffffffffffffff166323b872dd3330846040518463ffffffff167c0100000000000000000000000000000000000000000000000000000000028152600401808473ffffffffffffffffffffffffffffffffffffffff1673ffffffffffffffffffffffffffffffffffffffff1681526020018373ffffffffffffffffffffffffffffffffffffffff1673ffffffffffffffffffffffffffffffffffffffff1681526020018281526020019350505050602060405180830381600087803b151561239357600080fd5b5af115156123a057600080fd5b5050506040518051905015156123b557600080fd5b7f8a0006da46ae2a6160336038210be4151da35d82d57ce9aa7f5cc85b6b7611ac828483604051808481526020018373ffffffffffffffffffffffffffffffffffffffff1673ffffffffffffffffffffffffffffffffffffffff168152602001828152602001935050505060405180910390a1505050565b6000809054906101000a900473ffffffffffffffffffffffffffffffffffffffff1673ffffffffffffffffffffffffffffffffffffffff163373ffffffffffffffffffffffffffffffffffffffff1614151561248857600080fd5b6001600060146101000a81548160ff021916908315150217905550565b60008060169054906101000a900460ff166124c057426124c4565b6001545b905090565b6000809054906101000a900473ffffffffffffffffffffffffffffffffffffffff1673ffffffffffffffffffffffffffffffffffffffff163373ffffffffffffffffffffffffffffffffffffffff1614151561252457600080fd5b60008060156101000a81548160ff021916908315150217905550565b6000809054906101000a900473ffffffffffffffffffffffffffffffffffffffff1673ffffffffffffffffffffffffffffffffffffffff163373ffffffffffffffffffffffffffffffffffffffff1614151561259b57600080fd5b60008060146101000a81548160ff02191690831515021790555060008060156101000a81548160ff021916908315150217905550565b6000809054906101000a900473ffffffffffffffffffffffffffffffffffffffff1673ffffffffffffffffffffffffffffffffffffffff163373ffffffffffffffffffffffffffffffffffffffff1614151561262c57600080fd5b806000806101000a81548173ffffffffffffffffffffffffffffffffffffffff021916908373ffffffffffffffffffffffffffffffffffffffff16021790555050565b6000806000806000600a60009054906101000a900473ffffffffffffffffffffffffffffffffffffffff1673ffffffffffffffffffffffffffffffffffffffff16639406d1666004546040518263ffffffff167c0100000000000000000000000000000000000000000000000000000000028152600401808281526020019150506040805180830381600087803b151561270857600080fd5b5af1151561271557600080fd5b50505060405180519060200180519050905080915050600060045414801561273d5750600081145b8061274f57508061274c6124a5565b10155b151561275a57600080fd5b600860009054906101000a900473ffffffffffffffffffffffffffffffffffffffff1673ffffffffffffffffffffffffffffffffffffffff1663b9181611336040518263ffffffff167c0100000000000000000000000000000000000000000000000000000000028152600401808273ffffffffffffffffffffffffffffffffffffffff1673ffffffffffffffffffffffffffffffffffffffff168152602001915050602060405180830381600087803b151561281657600080fd5b5af1151561282357600080fd5b50505060405180519050151561283857600080fd5b6128456004546001615190565b945061284f6124a5565b9350600060045414801561286557506000600554145b156129aa576128726124a5565b6005819055506128858462127500615190565b9250600a60009054906101000a900473ffffffffffffffffffffffffffffffffffffffff1673ffffffffffffffffffffffffffffffffffffffff166353a38a7f858560006040518463ffffffff167c0100000000000000000000000000000000000000000000000000000000028152600401808481526020018381526020018281526020019350505050602060405180830381600087803b151561292857600080fd5b5af1151561293557600080fd5b50505060405180519050151561294a57600080fd5b7f26e32cdac32e02b102d578e8043c11894b274140b95cd8508879654739af11a7600454856000866000604051808681526020018581526020018481526020018381526020018281526020019550505050505060405180910390a1612cbf565b846004819055506129be84626ebe00615190565b9250600a60009054906101000a900473ffffffffffffffffffffffffffffffffffffffff1673ffffffffffffffffffffffffffffffffffffffff166353a38a7f85856005546040518463ffffffff167c0100000000000000000000000000000000000000000000000000000000028152600401808481526020018381526020018281526020019350505050602060405180830381600087803b1515612a6257600080fd5b5af11515612a6f57600080fd5b505050604051805190501515612a8457600080fd5b600091505b600a60009054906101000a900473ffffffffffffffffffffffffffffffffffffffff1673ffffffffffffffffffffffffffffffffffffffff16637888494b6040518163ffffffff167c0100000000000000000000000000000000000000000000000000000000028152600401602060405180830381600087803b1515612b0e57600080fd5b5af11515612b1b57600080fd5b50505060405180519050821015612c6557600a60009054906101000a900473ffffffffffffffffffffffffffffffffffffffff1673ffffffffffffffffffffffffffffffffffffffff1663427b2081836040518263ffffffff167c010000000000000000000000000000000000000000000000000000000002815260040180828152602001915050602060405180830381600087803b1515612bbc57600080fd5b5af11515612bc957600080fd5b5050506040518051905073ffffffffffffffffffffffffffffffffffffffff16639102fa87866040518263ffffffff167c010000000000000000000000000000000000000000000000000000000002815260040180828152602001915050602060405180830381600087803b1515612c4057600080fd5b5af11515612c4d57600080fd5b50505060405180519050508180600101925050612a89565b7f26e32cdac32e02b102d578e8043c11894b274140b95cd8508879654739af11a785856000866000604051808681526020018581526020018481526020018381526020018281526020019550505050505060405180910390a15b5050505050565b6000809054906101000a900473ffffffffffffffffffffffffffffffffffffffff1681565b600360009054906101000a900473ffffffffffffffffffffffffffffffffffffffff1673ffffffffffffffffffffffffffffffffffffffff163373ffffffffffffffffffffffffffffffffffffffff16141515612d4757600080fd5b60008173ffffffffffffffffffffffffffffffffffffffff1614151515612d6d57600080fd5b8073ffffffffffffffffffffffffffffffffffffffff166319cbc5a36040518163ffffffff167c0100000000000000000000000000000000000000000000000000000000028152600401602060405180830381600087803b1515612dd057600080fd5b5af11515612ddd57600080fd5b505050604051805190501515612df257600080fd5b80600960006101000a81548173ffffffffffffffffffffffffffffffffffffffff021916908373ffffffffffffffffffffffffffffffffffffffff16021790555050565b60008060008060008060008060149054906101000a900460ff16151515612e5c57600080fd5b6000806000600454111515612e7057600080fd5b600a60009054906101000a900473ffffffffffffffffffffffffffffffffffffffff1673ffffffffffffffffffffffffffffffffffffffff16639406d1666004546040518263ffffffff167c0100000000000000000000000000000000000000000000000000000000028152600401808281526020019150506040805180830381600087803b1515612f0157600080fd5b5af11515612f0e57600080fd5b50505060405180519060200180519050809250819350505081612f2f6124a5565b10158015612f495750621275008103612f466124a5565b11155b1515612f5457600080fd5b600960009054906101000a900473ffffffffffffffffffffffffffffffffffffffff1673ffffffffffffffffffffffffffffffffffffffff1663457fe0b8336040518263ffffffff167c0100000000000000000000000000000000000000000000000000000000028152600401808273ffffffffffffffffffffffffffffffffffffffff1673ffffffffffffffffffffffffffffffffffffffff168152602001915050606060405180830381600087803b151561301057600080fd5b5af1151561301d57600080fd5b50505060405180519060200180519060200180519050809950819a50829b50505050600095505b600a60009054906101000a900473ffffffffffffffffffffffffffffffffffffffff1673ffffffffffffffffffffffffffffffffffffffff1663890e6bf46004546040518263ffffffff167c010000000000000000000000000000000000000000000000000000000002815260040180828152602001915050602060405180830381600087803b15156130d657600080fd5b5af115156130e357600080fd5b505050604051805190508610156134ae57600a60009054906101000a900473ffffffffffffffffffffffffffffffffffffffff1673ffffffffffffffffffffffffffffffffffffffff16635582b475600454886040518363ffffffff167c01000000000000000000000000000000000000000000000000000000000281526004018083815260200182815260200192505050602060405180830381600087803b151561318e57600080fd5b5af1151561319b57600080fd5b505050604051805190509450600a60009054906101000a900473ffffffffffffffffffffffffffffffffffffffff1673ffffffffffffffffffffffffffffffffffffffff16638f7a367d600454876040518363ffffffff167c0100000000000000000000000000000000000000000000000000000000028152600401808381526020018273ffffffffffffffffffffffffffffffffffffffff1673ffffffffffffffffffffffffffffffffffffffff168152602001925050506040805180830381600087803b151561326c57600080fd5b5af1151561327957600080fd5b5050506040518051906020018051905050809450506132a261329b8a8661513f565b606461517a565b9250600660009054906101000a900473ffffffffffffffffffffffffffffffffffffffff1673ffffffffffffffffffffffffffffffffffffffff1663095ea7b386856040518363ffffffff167c0100000000000000000000000000000000000000000000000000000000028152600401808373ffffffffffffffffffffffffffffffffffffffff1673ffffffffffffffffffffffffffffffffffffffff16815260200182815260200192505050602060405180830381600087803b151561336857600080fd5b5af1151561337557600080fd5b50505060405180519050151561338a57600080fd5b8473ffffffffffffffffffffffffffffffffffffffff16636858acad846004546040518363ffffffff167c01000000000000000000000000000000000000000000000000000000000281526004018083815260200182815260200192505050602060405180830381600087803b151561340257600080fd5b5af1151561340f57600080fd5b50505060405180519050151561342457600080fd5b7fc74af56e8accef7062ae3db649310f4a651d9b3379431853301b25b76373b317600454868686604051808581526020018473ffffffffffffffffffffffffffffffffffffffff1673ffffffffffffffffffffffffffffffffffffffff16815260200183815260200182815260200194505050505060405180910390a18580600101965050613044565b600760009054906101000a900473ffffffffffffffffffffffffffffffffffffffff1673ffffffffffffffffffffffffffffffffffffffff166332d549c3600454338c6040518463ffffffff167c0100000000000000000000000000000000000000000000000000000000028152600401808481526020018373ffffffffffffffffffffffffffffffffffffffff1673ffffffffffffffffffffffffffffffffffffffff1681526020018281526020019350505050602060405180830381600087803b151561357c57600080fd5b5af1151561358957600080fd5b50505060405180519050151561359e57600080fd5b7f995faa75558bd2e2a15d6ebc544d86ebb5b220a365b56dd6a0fd97394625b4c8336004548a8c8b604051808673ffffffffffffffffffffffffffffffffffffffff1673ffffffffffffffffffffffffffffffffffffffff1681526020018581526020018481526020018381526020018281526020019550505050505060405180910390a1505050505050505050565b600080600860009054906101000a900473ffffffffffffffffffffffffffffffffffffffff1673ffffffffffffffffffffffffffffffffffffffff1663b9181611336040518263ffffffff167c0100000000000000000000000000000000000000000000000000000000028152600401808273ffffffffffffffffffffffffffffffffffffffff1673ffffffffffffffffffffffffffffffffffffffff168152602001915050602060405180830381600087803b15156136ed57600080fd5b5af115156136fa57600080fd5b50505060405180519050151561370f57600080fd5b600a60009054906101000a900473ffffffffffffffffffffffffffffffffffffffff1673ffffffffffffffffffffffffffffffffffffffff1663927ef336846040518263ffffffff167c0100000000000000000000000000000000000000000000000000000000028152600401808273ffffffffffffffffffffffffffffffffffffffff1673ffffffffffffffffffffffffffffffffffffffff1681526020019150506040805180830381600087803b15156137ca57600080fd5b5af115156137d757600080fd5b505050604051805190602001805190508092508193505050600960009054906101000a900473ffffffffffffffffffffffffffffffffffffffff1673ffffffffffffffffffffffffffffffffffffffff1663c2088c3f83836040518363ffffffff167c0100000000000000000000000000000000000000000000000000000000028152600401808381526020018215151515815260200192505050602060405180830381600087803b151561388b57600080fd5b5af1151561389857600080fd5b50505060405180519050508273ffffffffffffffffffffffffffffffffffffffff166336d699536040518163ffffffff167c0100000000000000000000000000000000000000000000000000000000028152600401602060405180830381600087803b151561390657600080fd5b5af1151561391357600080fd5b50505060405180519050151561392857600080fd5b505050565b6000806000806000600a60009054906101000a900473ffffffffffffffffffffffffffffffffffffffff1673ffffffffffffffffffffffffffffffffffffffff16639406d1666004546040518263ffffffff167c0100000000000000000000000000000000000000000000000000000000028152600401808281526020019150506040805180830381600087803b15156139c657600080fd5b5af115156139d357600080fd5b5050506040518051906020018051905090508091505060006004541415613a06576000600554111515613a0557600080fd5b5b613a138162093a80615126565b613a1b6124a5565b10158015613a30575080613a2d6124a5565b11155b1515613a3b57600080fd5b600860009054906101000a900473ffffffffffffffffffffffffffffffffffffffff1673ffffffffffffffffffffffffffffffffffffffff1663b9181611336040518263ffffffff167c0100000000000000000000000000000000000000000000000000000000028152600401808273ffffffffffffffffffffffffffffffffffffffff1673ffffffffffffffffffffffffffffffffffffffff168152602001915050602060405180830381600087803b1515613af757600080fd5b5af11515613b0457600080fd5b505050604051805190501515613b1957600080fd5b6001600454019450600960009054906101000a900473ffffffffffffffffffffffffffffffffffffffff1673ffffffffffffffffffffffffffffffffffffffff1663467f48b6866040518263ffffffff167c01000000000000000000000000000000000000000000000000000000000281526004018082815260200191505060e060405180830381600087803b1515613bb157600080fd5b5af11515613bbe57600080fd5b5050506040518051906020018051906020018051906020018051906020018051906020018051906020018051905090919293945090919293509091925090915090505080945050600a60009054906101000a900473ffffffffffffffffffffffffffffffffffffffff1673ffffffffffffffffffffffffffffffffffffffff16638f7a367d86886040518363ffffffff167c0100000000000000000000000000000000000000000000000000000000028152600401808381526020018273ffffffffffffffffffffffffffffffffffffffff1673ffffffffffffffffffffffffffffffffffffffff168152602001925050506040805180830381600087803b1515613cc857600080fd5b5af11515613cd557600080fd5b505050604051805190602001805190505080935050613cfe613cf7858561513f565b606461517a565b9150600a60009054906101000a900473ffffffffffffffffffffffffffffffffffffffff1673ffffffffffffffffffffffffffffffffffffffff1663b9f2ef30876040518263ffffffff167c0100000000000000000000000000000000000000000000000000000000028152600401808273ffffffffffffffffffffffffffffffffffffffff1673ffffffffffffffffffffffffffffffffffffffff168152602001915050602060405180830381600087803b1515613dbc57600080fd5b5af11515613dc957600080fd5b505050604051805190501515613dde57600080fd5b600660009054906101000a900473ffffffffffffffffffffffffffffffffffffffff1673ffffffffffffffffffffffffffffffffffffffff1663095ea7b387846040518363ffffffff167c0100000000000000000000000000000000000000000000000000000000028152600401808373ffffffffffffffffffffffffffffffffffffffff1673ffffffffffffffffffffffffffffffffffffffff16815260200182815260200192505050602060405180830381600087803b1515613ea257600080fd5b5af11515613eaf57600080fd5b505050604051805190501515613ec457600080fd5b8573ffffffffffffffffffffffffffffffffffffffff16636858acad83876040518363ffffffff167c01000000000000000000000000000000000000000000000000000000000281526004018083815260200182815260200192505050602060405180830381600087803b1515613f3a57600080fd5b5af11515613f4757600080fd5b505050604051805190501515613f5c57600080fd5b7fc74af56e8accef7062ae3db649310f4a651d9b3379431853301b25b76373b31785878585604051808581526020018473ffffffffffffffffffffffffffffffffffffffff1673ffffffffffffffffffffffffffffffffffffffff16815260200183815260200182815260200194505050505060405180910390a1505050505050565b600080600b60009054906101000a900473ffffffffffffffffffffffffffffffffffffffff1673ffffffffffffffffffffffffffffffffffffffff16630b9aa06730336040518363ffffffff167c0100000000000000000000000000000000000000000000000000000000028152600401808373ffffffffffffffffffffffffffffffffffffffff1673ffffffffffffffffffffffffffffffffffffffff1681526020018273ffffffffffffffffffffffffffffffffffffffff1673ffffffffffffffffffffffffffffffffffffffff16815260200192505050602060405180830381600087803b15156140d257600080fd5b5af115156140df57600080fd5b5050506040518051905015156140f457600080fd5b600060149054906101000a900460ff1615151561411057600080fd5b600960009054906101000a900473ffffffffffffffffffffffffffffffffffffffff1673ffffffffffffffffffffffffffffffffffffffff1663139e0aa733856040518363ffffffff167c0100000000000000000000000000000000000000000000000000000000028152600401808373ffffffffffffffffffffffffffffffffffffffff1673ffffffffffffffffffffffffffffffffffffffff16815260200182815260200192505050602060405180830381600087803b15156141d457600080fd5b5af115156141e157600080fd5b5050506040518051905091506001600454019050600760009054906101000a900473ffffffffffffffffffffffffffffffffffffffff1673ffffffffffffffffffffffffffffffffffffffff166332d549c38233866040518463ffffffff167c0100000000000000000000000000000000000000000000000000000000028152600401808481526020018373ffffffffffffffffffffffffffffffffffffffff1673ffffffffffffffffffffffffffffffffffffffff1681526020018281526020019350505050602060405180830381600087803b15156142c157600080fd5b5af115156142ce57600080fd5b5050506040518051905015156142e357600080fd5b600660009054906101000a900473ffffffffffffffffffffffffffffffffffffffff1673ffffffffffffffffffffffffffffffffffffffff166323b872dd3330866040518463ffffffff167c0100000000000000000000000000000000000000000000000000000000028152600401808473ffffffffffffffffffffffffffffffffffffffff1673ffffffffffffffffffffffffffffffffffffffff1681526020018373ffffffffffffffffffffffffffffffffffffffff1673ffffffffffffffffffffffffffffffffffffffff1681526020018281526020019350505050602060405180830381600087803b15156143db57600080fd5b5af115156143e857600080fd5b5050506040518051905015156143fd57600080fd5b7fe8f974585656155b2cd9adf2cabc0ad9660a963a15a779b3860348d686694eae33828585604051808573ffffffffffffffffffffffffffffffffffffffff1673ffffffffffffffffffffffffffffffffffffffff16815260200184815260200183815260200182815260200194505050505060405180910390a1505050565b6000600860009054906101000a900473ffffffffffffffffffffffffffffffffffffffff1673ffffffffffffffffffffffffffffffffffffffff1663b9181611336040518263ffffffff167c0100000000000000000000000000000000000000000000000000000000028152600401808273ffffffffffffffffffffffffffffffffffffffff1673ffffffffffffffffffffffffffffffffffffffff168152602001915050602060405180830381600087803b151561453b57600080fd5b5af1151561454857600080fd5b50505060405180519050151561455d57600080fd5b81600080600080841415151561457257600080fd5b600a60009054906101000a900473ffffffffffffffffffffffffffffffffffffffff1673ffffffffffffffffffffffffffffffffffffffff166383c4b7a3856040518263ffffffff167c01000000000000000000000000000000000000000000000000000000000281526004018082815260200191505060c060405180830381600087803b151561460257600080fd5b5af1151561460f57600080fd5b50505060405180519060200180519060200180519060200180519060200180519060200180519050909192939450909192509050508093508194505050600a60009054906101000a900473ffffffffffffffffffffffffffffffffffffffff1673ffffffffffffffffffffffffffffffffffffffff1663890e6bf4856040518263ffffffff167c010000000000000000000000000000000000000000000000000000000002815260040180828152602001915050602060405180830381600087803b15156146dc57600080fd5b5af115156146e957600080fd5b5050506040518051905090506205460083016147036124a5565b1015151561471057600080fd5b808214151561471e57600080fd5b600760009054906101000a900473ffffffffffffffffffffffffffffffffffffffff1673ffffffffffffffffffffffffffffffffffffffff1663f737d21d6004546040518263ffffffff167c010000000000000000000000000000000000000000000000000000000002815260040180828152602001915050602060405180830381600087803b15156147b057600080fd5b5af115156147bd57600080fd5b5050506040518051905015156147d257600080fd5b7fd4aebaf9c709c58ba6f81cfb545cf3691ae6a9899d94b268565ed4d3fa14003a6004546040518082815260200191505060405180910390a16001945050505050919050565b600660009054906101000a900473ffffffffffffffffffffffffffffffffffffffff1681565b60045481565b600260009054906101000a900473ffffffffffffffffffffffffffffffffffffffff1673ffffffffffffffffffffffffffffffffffffffff163373ffffffffffffffffffffffffffffffffffffffff161415156148a057600080fd5b80600060166101000a81548160ff02191690831515021790555050565b600080600b60009054906101000a900473ffffffffffffffffffffffffffffffffffffffff1673ffffffffffffffffffffffffffffffffffffffff16630b9aa06730336040518363ffffffff167c0100000000000000000000000000000000000000000000000000000000028152600401808373ffffffffffffffffffffffffffffffffffffffff1673ffffffffffffffffffffffffffffffffffffffff1681526020018273ffffffffffffffffffffffffffffffffffffffff1673ffffffffffffffffffffffffffffffffffffffff16815260200192505050602060405180830381600087803b15156149b057600080fd5b5af115156149bd57600080fd5b5050506040518051905015156149d257600080fd5b600060149054906101000a900460ff161515156149ee57600080fd5b826000806000808414151515614a0357600080fd5b600a60009054906101000a900473ffffffffffffffffffffffffffffffffffffffff1673ffffffffffffffffffffffffffffffffffffffff166383c4b7a3856040518263ffffffff167c01000000000000000000000000000000000000000000000000000000000281526004018082815260200191505060c060405180830381600087803b1515614a9357600080fd5b5af11515614aa057600080fd5b50505060405180519060200180519060200180519060200180519060200180519060200180519050909192939450909192509050508093508194505050600a60009054906101000a900473ffffffffffffffffffffffffffffffffffffffff1673ffffffffffffffffffffffffffffffffffffffff1663890e6bf4856040518263ffffffff167c010000000000000000000000000000000000000000000000000000000002815260040180828152602001915050602060405180830381600087803b1515614b6d57600080fd5b5af11515614b7a57600080fd5b505050604051805190509050620546008301614b946124a5565b10151515614ba157600080fd5b8082141515614baf57600080fd5b600960009054906101000a900473ffffffffffffffffffffffffffffffffffffffff1673ffffffffffffffffffffffffffffffffffffffff16632cf219ba33896040518363ffffffff167c0100000000000000000000000000000000000000000000000000000000028152600401808373ffffffffffffffffffffffffffffffffffffffff1673ffffffffffffffffffffffffffffffffffffffff168152602001828152602001925050506040805180830381600087803b1515614c7257600080fd5b5af11515614c7f57600080fd5b505050604051805190602001805190508096508197505050600660009054906101000a900473ffffffffffffffffffffffffffffffffffffffff1673ffffffffffffffffffffffffffffffffffffffff1663a9059cbb33886040518363ffffffff167c0100000000000000000000000000000000000000000000000000000000028152600401808373ffffffffffffffffffffffffffffffffffffffff1673ffffffffffffffffffffffffffffffffffffffff16815260200182815260200192505050602060405180830381600087803b1515614d5b57600080fd5b5af11515614d6857600080fd5b505050604051805190501515614d7d57600080fd5b7f50f8d2e2126e73e7ee08beda72a73f02d18dcf096ddddf88220325a8cde5c48c33888789604051808573ffffffffffffffffffffffffffffffffffffffff1673ffffffffffffffffffffffffffffffffffffffff16815260200184815260200183815260200182815260200194505050505060405180910390a150505050505050565b6000806000600860009054906101000a900473ffffffffffffffffffffffffffffffffffffffff16600960009054906101000a900473ffffffffffffffffffffffffffffffffffffffff16600a60009054906101000a900473ffffffffffffffffffffffffffffffffffffffff16925092509250909192565b600080600060149054906101000a900460ff161515614e9857600080fd5b600060159054906101000a900460ff161515614eb357600080fd5b600960009054906101000a900473ffffffffffffffffffffffffffffffffffffffff1673ffffffffffffffffffffffffffffffffffffffff16636ff1c9bc336040518263ffffffff167c0100000000000000000000000000000000000000000000000000000000028152600401808273ffffffffffffffffffffffffffffffffffffffff1673ffffffffffffffffffffffffffffffffffffffff1681526020019150506040805180830381600087803b1515614f6e57600080fd5b5af11515614f7b57600080fd5b505050604051805190602001805190508092508193505050600660009054906101000a900473ffffffffffffffffffffffffffffffffffffffff1673ffffffffffffffffffffffffffffffffffffffff1663a9059cbb33846040518363ffffffff167c0100000000000000000000000000000000000000000000000000000000028152600401808373ffffffffffffffffffffffffffffffffffffffff1673ffffffffffffffffffffffffffffffffffffffff16815260200182815260200192505050602060405180830381600087803b151561505757600080fd5b5af1151561506457600080fd5b50505060405180519050151561507957600080fd5b7f453bbd7e5b709fe2efb7402401a4565ba2de7e957fbdb9e4c8dfb323883a413f336004548385604051808573ffffffffffffffffffffffffffffffffffffffff1673ffffffffffffffffffffffffffffffffffffffff16815260200184815260200183815260200182815260200194505050505060405180910390a15050565b600760009054906101000a900473ffffffffffffffffffffffffffffffffffffffff1681565b60055481565b600082821115151561513457fe5b818303905092915050565b60008060008414156151545760009150615173565b828402905082848281151561516557fe5b0414151561516f57fe5b8091505b5092915050565b6000818381151561518757fe5b04905092915050565b60008082840190508381101515156151a457fe5b8091505092915050565b80600260006101000a81548173ffffffffffffffffffffffffffffffffffffffff021916908373ffffffffffffffffffffffffffffffffffffffff160217905550505600a165627a7a72305820d9ac3b72156c0524b61cb742bf8228372e4058102265d08e56db8b95d79f49390029",
  "source": "pragma solidity 0.4.21;\n\nimport '../Libraries/SafeMath.sol';\nimport '../Token/ERC20.sol';\nimport '../Libraries/EmergencyOptions.sol';\nimport '../Libraries/TimeProvider.sol';\n\nimport './HouseOffering.sol';\n\nimport './Controllers/HouseAuthorizedController.sol';\nimport './Controllers/HouseFundsController.sol';\nimport './Controllers/HouseLotteryController.sol';\nimport './Controllers/HouseSessionsController.sol';\n\nimport '../Kyc/KycManager.sol';\n\n// Decent.bet House Contract.\n// All credits and payouts are in DBETs and are 18 decimal places in length.\ncontract House is SafeMath, EmergencyOptions, TimeProvider {\n\n    // Variables\n    address public founder;\n\n    // Starting session will be at 0.\n    // This would be the credit buying period for the 1st session of the house and lasts only for 1 week.\n    uint public currentSession = 0;\n\n    // Time session 0 begins.\n    uint public sessionZeroStartTime = 0;\n\n    // External Contracts\n    ERC20 public decentBetToken;\n    HouseLotteryController public houseLotteryController;\n    HouseAuthorizedController houseAuthorizedController;\n    HouseFundsController houseFundsController;\n    HouseSessionsController houseSessionsController;\n    KycManager kycManager;\n\n    // Constructor\n    function House(address decentBetTokenAddress, address kycManagerAddress)\n    public {\n        require(decentBetTokenAddress != 0x0);\n        founder = msg.sender;\n        decentBetToken = ERC20(decentBetTokenAddress);\n        kycManager = KycManager(kycManagerAddress);\n\n        // If on local testRPC/testnet and need to set mock times\n        // Leave this here for development purposes.\n        // TODO: Remove TimeProvider before publishing to mainnet.\n        isMock = true;\n        setTimeController(msg.sender);\n    }\n\n    // Modifiers //\n    modifier onlyFounder() {\n        require(msg.sender == founder);\n        _;\n    }\n\n    modifier onlyAuthorized() {\n        require(houseAuthorizedController.authorized(msg.sender));\n        _;\n    }\n\n    // If this is the last week of a session - signifying the period when token deposits can be made to house offerings.\n    modifier isLastWeekForSession() {\n        uint endTime;\n        (,endTime) = houseSessionsController.getSessionTimes(currentSession);\n        if(currentSession == 0)\n            require(sessionZeroStartTime > 0);\n        require(getTime() >= (safeSub(endTime, 1 weeks)) && getTime() <= (endTime));\n        _;\n    }\n\n    // Allows functions to execute only if users have \"amount\" tokens in their balance.\n    modifier areTokensAvailable(uint amount) {\n        require(decentBetToken.balanceOf(msg.sender) >= amount);\n        _;\n    }\n\n    // Allows functions to execute only if it is the end of the current session.\n    modifier isEndOfSession() {\n        uint endTime;\n        (,endTime) = houseSessionsController.getSessionTimes(currentSession);\n        require((currentSession == 0 && endTime == 0) || getTime() >= endTime);\n        _;\n    }\n\n    // Allows functions to execute if they happen during an \"active\" period for a session i.e,\n    // Not during a credit buying/token allocation period\n    modifier isSessionActivePeriod() {\n        require(currentSession > 0);\n        uint startTime;\n        uint endTime;\n        (startTime,endTime) = houseSessionsController.getSessionTimes(currentSession);\n        require(getTime() >= startTime && getTime() <= (endTime - 2 weeks));\n        _;\n    }\n\n    // Allows functions to execute only if it's currently a credit-buying period i.e\n    // 1 week before the end of the current session.\n    modifier isCreditBuyingPeriod() {\n        if(currentSession == 0)\n            require(sessionZeroStartTime != 0);\n        uint endTime;\n        (,endTime) = houseSessionsController.getSessionTimes(currentSession);\n        require(getTime() >= (safeSub(endTime, 2 weeks)) &&\n                getTime() <= (safeSub(endTime, 1 weeks)));\n        _;\n    }\n\n    // Allows functions to execute only if the profit distribution period is going on i.e\n    // after the end of the previous session and after all offering credits have been withdrawn.\n    modifier isProfitDistributionPeriod(uint session) {\n        require(session != 0);\n        uint endTime;\n        uint withdrawCount;\n        (,endTime,,withdrawCount,,) = houseSessionsController.sessions(session);\n        uint sessionOfferingsLength = houseSessionsController.getSessionOfferingsLength(session);\n        require(getTime() >= (endTime + 4 days));\n        require(withdrawCount == sessionOfferingsLength);\n        _;\n    }\n\n    // Allows functions to execute only if the sender has been KYC verified.\n    modifier isSenderKycVerified() {\n        require(kycManager.isVerified(address(this), msg.sender));\n        _;\n    }\n\n    // Events\n    event LogPurchasedCredits(\n        address creditHolder,\n        uint session,\n        uint amount,\n        uint balance\n    );\n\n    event LogLiquidateCredits(\n        address creditHolder,\n        uint session,\n        uint amount,\n        uint payout\n    );\n\n    event LogRolledOverCredits(\n        address creditHolder,\n        uint session,\n        uint amount\n    );\n\n    event LogClaimRolledOverCredits(\n        address creditHolder,\n        uint session,\n        uint rolledOver,\n        uint adjusted,\n        uint creditsForCurrentSession\n    );\n\n    event LogNewSession(\n        uint session,\n        uint startTimestamp,\n        uint startBlockNumber,\n        uint endTimestamp,\n        uint endBlockNumber\n    );\n\n    event LogNewHouseOffering(\n        address offeringAddress,\n        bytes32 name\n    );\n\n    event LogPickLotteryWinner(uint session);\n\n    event LogWinningTicket(\n        uint session,\n        uint ticketNumber,\n        address _address\n    );\n\n    event LogOfferingAllocation(\n        uint session,\n        address offering,\n        uint percentage\n    );\n\n    event LogOfferingDeposit(\n        uint session,\n        address offering,\n        uint percentage,\n        uint amount\n    );\n\n    event LogAddToSessionProfitsFromUnregisteredHouseOffering(\n        uint session,\n        address offering,\n        uint amount\n    );\n\n    event LogEmergencyWithdraw(\n        address creditHolder,\n        uint session,\n        uint amount,\n        uint payout\n    );\n\n    // Sets the house funds controller address.\n    function setHouseAuthorizedControllerAddress(address _address)\n    public\n    onlyFounder {\n        require(_address != 0x0);\n        require(HouseAuthorizedController(_address).isHouseAuthorizedController());\n        houseAuthorizedController = HouseAuthorizedController(_address);\n    }\n\n    // Sets the house funds controller address.\n    function setHouseFundsControllerAddress(address _address)\n    public\n    onlyFounder {\n        require(_address != 0x0);\n        require(HouseFundsController(_address).isHouseFundsController());\n        houseFundsController = HouseFundsController(_address);\n    }\n\n    // Sets the house sessions controller address.\n    function setHouseSessionsControllerAddress(address _address)\n    public\n    onlyFounder {\n        require(_address != 0x0);\n        require(HouseSessionsController(_address).isHouseSessionsController());\n        houseSessionsController = HouseSessionsController(_address);\n    }\n\n    // Sets the lottery address.\n    function setHouseLotteryControllerAddress(address _address)\n    public\n    onlyFounder {\n        require(_address != 0x0);\n        require(HouseLotteryController(_address).isHouseLotteryController());\n        houseLotteryController = HouseLotteryController(_address);\n    }\n\n    // Transfers DBETs from users to house contract address and generates credits in return.\n    // House contract must be approved to transfer amount from msg.sender to house.\n    function purchaseCredits(uint amount)\n    public\n    isSenderKycVerified\n    isNotEmergencyPaused {\n        uint userCredits = houseFundsController.purchaseCredits(msg.sender, amount);\n        uint nextSession = currentSession + 1;\n\n        if(!houseLotteryController.allotLotteryTickets(nextSession, msg.sender, amount)) revert();\n\n        // Transfer tokens to house contract address.\n        if (!decentBetToken.transferFrom(msg.sender, address(this), amount)) revert();\n\n        emit LogPurchasedCredits(msg.sender, nextSession, amount, userCredits);\n    }\n\n    // Allows users to return credits and receive tokens along with profit in return.\n    function liquidateCredits(uint session)\n    public\n    isSenderKycVerified\n    isNotEmergencyPaused\n    isProfitDistributionPeriod(session) {\n        uint payout;\n        uint amount;\n\n        (payout, amount) = houseFundsController.liquidateCredits(msg.sender, session);\n\n        // Transfers from house to user.\n        if (!decentBetToken.transfer(msg.sender, payout)) revert();\n\n        emit LogLiquidateCredits(msg.sender, session, amount, payout);\n    }\n\n    // Returns the payout per credit based on the house winnings for a session.\n\n    /* NOTE:\n        Since solidity cannot handle floating point types, to avoid instances where the payout per credit may lose value\n        due to loss of precision with using 1 as the base amount - The resulting payoutPerCredit uses 1 ether as a base\n        amount which means that the resulting payoutPerCredit would have to be multiplied by the actual amount\n        of credits and then divided by 1 ether to get the final payout amount.\n    */\n\n    // Allows users holding credits in the current session to roll over their credits to the\n    // next session.\n    function rollOverCredits(uint amount)\n    public\n    isSenderKycVerified\n    isNotEmergencyPaused\n    isCreditBuyingPeriod {\n        if(!houseFundsController.rollOverCredits(msg.sender, amount)) revert();\n\n        emit LogRolledOverCredits(msg.sender, currentSession, amount);\n    }\n\n    // Allows users who've rolled over credits from a session to claim credits in the next session based on the\n    // payout per credit for the previous session.\n    function claimRolledOverCredits()\n    public\n    isNotEmergencyPaused\n    isSessionActivePeriod {\n        uint adjustedCredits;\n        uint rolledOverFromPreviousSession;\n        uint creditsForCurrentSession;\n\n        (adjustedCredits, rolledOverFromPreviousSession, creditsForCurrentSession) =\n            houseFundsController.claimRolledOverCredits(msg.sender);\n\n        for(uint i = 0; i < houseSessionsController.getSessionOfferingsLength(currentSession); i++) {\n            address houseOffering = houseSessionsController.getSessionOffering(currentSession, i);\n            uint allocation;\n            (allocation,) = houseSessionsController.getOfferingTokenAllocations(currentSession, houseOffering);\n            uint tokenAmount = safeDiv(safeMul(adjustedCredits, allocation), 100);\n\n            if(!decentBetToken.approve(houseOffering, tokenAmount))\n                revert();\n\n            if(!HouseOffering(houseOffering).houseDeposit(tokenAmount, currentSession))\n                revert();\n\n            emit LogOfferingDeposit(currentSession, houseOffering, allocation, tokenAmount);\n        }\n\n        if (!houseLotteryController.allotLotteryTickets(currentSession, msg.sender, adjustedCredits)) revert();\n\n        emit LogClaimRolledOverCredits(msg.sender, currentSession, rolledOverFromPreviousSession, adjustedCredits,\n            creditsForCurrentSession);\n    }\n\n    // Withdraws session tokens for the previously ended session from a house offering.\n    function withdrawPreviousSessionTokensFromHouseOffering(address houseOffering)\n    public\n    onlyAuthorized {\n        uint previousSessionTokens;\n        bool allOfferingsWithdrawn;\n\n        (previousSessionTokens, allOfferingsWithdrawn) =\n            houseSessionsController.withdrawPreviousSessionTokensFromHouseOffering(houseOffering);\n\n        houseFundsController.withdrawPreviousSessionTokensFromHouseOffering(\n            previousSessionTokens,\n            allOfferingsWithdrawn\n        );\n\n        // Withdraw from previous session\n        if(!HouseOffering(houseOffering).withdrawPreviousSessionTokens()) revert();\n    }\n\n    // Allow authorized addresses to add profits for offerings that haven't been registered\n    // with the house for the current session.\n    function addToSessionProfitsFromUnregisteredHouseOffering(\n        address unregisteredOffering,\n        uint session,\n        uint amount\n    )\n    public\n    onlyAuthorized {\n        // Session zero doesn't have profits\n        require(currentSession != 0);\n\n        // Can only be for current and previous sessions\n        require(session == currentSession || session == (safeSub(currentSession, 1)));\n\n        // Check if a balance is available with offering\n        require(decentBetToken.balanceOf(msg.sender) >= amount);\n\n        require(decentBetToken.allowance(msg.sender, address(this)) >= amount);\n\n        houseFundsController\n            .addToSessionProfitsFromUnregisteredHouseOffering(session, amount);\n\n        if(!decentBetToken.transferFrom(msg.sender, address(this), amount)) revert();\n\n        emit LogAddToSessionProfitsFromUnregisteredHouseOffering(session, unregisteredOffering, amount);\n    }\n\n    // Allocates a %age of tokens for a house offering for the next session\n    function allocateTokensForHouseOffering(uint percentage, address houseOffering)\n    public\n    isCreditBuyingPeriod\n    onlyAuthorized {\n        if(!houseSessionsController.allocateTokensForHouseOffering(percentage, houseOffering)) revert();\n        emit LogOfferingAllocation((currentSession + 1), houseOffering, percentage);\n    }\n\n    function depositAllocatedTokensToHouseOffering(address houseOffering)\n    public\n    isLastWeekForSession\n    onlyAuthorized {\n        uint nextSession = currentSession + 1;\n\n        uint totalSessionFunds;\n        (totalSessionFunds,,,,,,) = houseFundsController.houseFunds(nextSession);\n\n        uint allocation;\n        (allocation, )= houseSessionsController.getOfferingTokenAllocations(nextSession, houseOffering);\n\n        uint tokenAmount = safeDiv(safeMul(totalSessionFunds, allocation), 100);\n\n        if(!houseSessionsController.depositAllocatedTokensToHouseOffering(houseOffering))\n            revert();\n\n        if(!decentBetToken.approve(houseOffering, tokenAmount))\n            revert();\n\n        if(!HouseOffering(houseOffering).houseDeposit(tokenAmount, nextSession))\n            revert();\n\n        emit LogOfferingDeposit(nextSession, houseOffering, allocation, tokenAmount);\n    }\n\n    // Get house lottery to retrieve random ticket winner using oraclize as RNG.\n    function pickLotteryWinner(uint session)\n    public\n    payable\n    onlyAuthorized\n    isProfitDistributionPeriod(session)\n    returns (bool) {\n        if(!houseLotteryController.pickWinner(currentSession)) revert();\n        emit LogPickLotteryWinner(currentSession);\n        return true;\n    }\n\n    // Allows a winner to withdraw lottery winnings.\n    function claimLotteryWinnings(uint session)\n    public\n    isSenderKycVerified\n    isProfitDistributionPeriod(session)\n    returns (uint, uint){\n        int sessionProfit = houseFundsController.getProfitForSession(session);\n\n        require(sessionProfit > 0);\n\n        uint uSessionProfit = (uint) (sessionProfit);\n\n        uint lotteryPayout = safeDiv(safeMul(uSessionProfit, 5), 100);\n\n        if(!houseLotteryController.updateLotteryPayout(session, msg.sender, lotteryPayout)) revert();\n\n        if(!decentBetToken.transfer(msg.sender, lotteryPayout)) revert();\n\n        return (uSessionProfit, lotteryPayout);\n    }\n\n    // Starts the next session.\n    // Call this function once after setting up the house to begin the initial credit buying period.\n    function beginNextSession()\n    public\n    isEndOfSession\n    onlyAuthorized {\n        uint nextSession = safeAdd(currentSession, 1);\n        uint startTime;\n        uint endTime;\n        startTime = getTime();\n\n        if (currentSession == 0 && sessionZeroStartTime == 0) {\n            sessionZeroStartTime = getTime();\n            endTime = safeAdd(startTime, 2 weeks);\n            if(!houseSessionsController.beginNextSession(startTime, endTime, 0)) revert();\n            emit LogNewSession(currentSession, startTime, 0, endTime, 0);\n        } else {\n            currentSession = nextSession;\n            endTime = safeAdd(startTime, 12 weeks);\n\n            if(!houseSessionsController.beginNextSession(startTime, endTime, sessionZeroStartTime)) revert();\n            for(uint i = 0; i < houseSessionsController.getOfferingAddressesLength(); i++)\n                HouseOffering(houseSessionsController.offeringAddresses(i)).setSession(nextSession);\n\n            emit LogNewSession(nextSession, startTime, 0, endTime, 0);\n        }\n    }\n\n    // Emergency features\n    // Emergency withdraws current session tokens from a house offering.\n    function emergencyWithdrawCurrentSessionTokensFromHouseOffering(address houseOffering)\n    public\n    isEmergencyPaused\n    onlyFounder {\n        // If offering has already been withdrawn, revert.\n        require(!houseSessionsController.isOfferingWithdrawn(currentSession, houseOffering));\n\n        uint sessionTokens;\n        bool allOfferingsWithdrawn;\n\n        (sessionTokens, allOfferingsWithdrawn) =\n            houseSessionsController.emergencyWithdrawCurrentSessionTokensFromHouseOffering(\n                houseOffering\n            );\n\n        houseFundsController.emergencyWithdrawCurrentSessionTokensFromHouseOffering(\n            sessionTokens,\n            allOfferingsWithdrawn\n        );\n\n        // Withdraw from previous session\n        if(!HouseOffering(houseOffering).emergencyWithdrawCurrentSessionTokens()) revert();\n    }\n\n    // Allows users to withdraw tokens if the contract is in an emergencyPaused state.\n    function emergencyWithdraw()\n    public\n    isEmergencyPaused\n    isEmergencyWithdrawalsEnabled {\n        uint payout;\n        uint amount;\n\n        (payout, amount) = houseFundsController.emergencyWithdraw(msg.sender);\n\n        if(!decentBetToken.transfer(msg.sender, payout)) revert();\n\n        emit LogEmergencyWithdraw(msg.sender, currentSession, amount, payout);\n    }\n\n    function getHouseControllers()\n    public\n    view\n    returns (address, address, address) {\n        return (\n            address(houseAuthorizedController),\n            address(houseFundsController),\n            address(houseSessionsController)\n        );\n    }\n\n    // Do not accept ETH sent to this contract.\n    function()\n    public {\n        revert();\n    }\n\n}\n",
  "sourcePath": "/srv/platform-contracts/contracts/House/House.sol",
  "compiler": {
    "name": "solc",
    "version": "0.4.21+commit.dfe3193c.Emscripten.clang"
  },
  "schemaVersion": "2.0.0",
  "updatedAt": "2018-06-04T15:40:06.184Z"
}