{
  "contractName": "HouseLotteryController",
  "abi": [
    {
      "constant": true,
      "inputs": [
        {
          "name": "",
          "type": "uint256"
        },
        {
          "name": "",
          "type": "uint256"
        }
      ],
      "name": "lotteryTicketHolders",
      "outputs": [
        {
          "name": "",
          "type": "address"
        }
      ],
      "payable": false,
      "stateMutability": "view",
      "type": "function"
    },
    {
      "constant": true,
      "inputs": [
        {
          "name": "",
          "type": "uint256"
        }
      ],
      "name": "lotteries",
      "outputs": [
        {
          "name": "ticketCount",
          "type": "uint256"
        },
        {
          "name": "winningTicket",
          "type": "uint256"
        },
        {
          "name": "payout",
          "type": "uint256"
        },
        {
          "name": "id",
          "type": "bytes32"
        },
        {
          "name": "claimed",
          "type": "bool"
        },
        {
          "name": "finalized",
          "type": "bool"
        }
      ],
      "payable": false,
      "stateMutability": "view",
      "type": "function"
    },
    {
      "constant": true,
      "inputs": [],
      "name": "isHouseLotteryController",
      "outputs": [
        {
          "name": "",
          "type": "bool"
        }
      ],
      "payable": false,
      "stateMutability": "view",
      "type": "function"
    },
    {
      "constant": true,
      "inputs": [],
      "name": "owner",
      "outputs": [
        {
          "name": "",
          "type": "address"
        }
      ],
      "payable": false,
      "stateMutability": "view",
      "type": "function"
    },
    {
      "constant": true,
      "inputs": [
        {
          "name": "",
          "type": "uint256"
        }
      ],
      "name": "rngIds",
      "outputs": [
        {
          "name": "",
          "type": "bytes32"
        }
      ],
      "payable": false,
      "stateMutability": "view",
      "type": "function"
    },
    {
      "constant": true,
      "inputs": [
        {
          "name": "",
          "type": "uint256"
        },
        {
          "name": "",
          "type": "address"
        },
        {
          "name": "",
          "type": "uint256"
        }
      ],
      "name": "lotteryUserTickets",
      "outputs": [
        {
          "name": "",
          "type": "uint256"
        }
      ],
      "payable": false,
      "stateMutability": "view",
      "type": "function"
    },
    {
      "constant": true,
      "inputs": [],
      "name": "currentSession",
      "outputs": [
        {
          "name": "",
          "type": "uint256"
        }
      ],
      "payable": false,
      "stateMutability": "view",
      "type": "function"
    },
    {
      "constant": true,
      "inputs": [],
      "name": "house",
      "outputs": [
        {
          "name": "",
          "type": "address"
        }
      ],
      "payable": false,
      "stateMutability": "view",
      "type": "function"
    },
    {
      "inputs": [
        {
          "name": "oraclize",
          "type": "address"
        }
      ],
      "payable": false,
      "stateMutability": "nonpayable",
      "type": "constructor"
    },
    {
      "payable": false,
      "stateMutability": "nonpayable",
      "type": "fallback"
    },
    {
      "anonymous": false,
      "inputs": [
        {
          "indexed": false,
          "name": "session",
          "type": "uint256"
        },
        {
          "indexed": false,
          "name": "number",
          "type": "uint256"
        },
        {
          "indexed": false,
          "name": "randomInRange",
          "type": "uint256"
        },
        {
          "indexed": false,
          "name": "ticketCount",
          "type": "uint256"
        },
        {
          "indexed": false,
          "name": "winner",
          "type": "address"
        }
      ],
      "name": "LogWinner",
      "type": "event"
    },
    {
      "anonymous": false,
      "inputs": [
        {
          "indexed": false,
          "name": "message",
          "type": "string"
        }
      ],
      "name": "LogCallback",
      "type": "event"
    },
    {
      "anonymous": false,
      "inputs": [
        {
          "indexed": false,
          "name": "price",
          "type": "uint256"
        }
      ],
      "name": "LogOraclizePricingError",
      "type": "event"
    },
    {
      "constant": false,
      "inputs": [
        {
          "name": "_house",
          "type": "address"
        }
      ],
      "name": "setHouse",
      "outputs": [],
      "payable": false,
      "stateMutability": "nonpayable",
      "type": "function"
    },
    {
      "constant": false,
      "inputs": [
        {
          "name": "session",
          "type": "uint256"
        },
        {
          "name": "_address",
          "type": "address"
        },
        {
          "name": "tokenAmount",
          "type": "uint256"
        }
      ],
      "name": "allotLotteryTickets",
      "outputs": [
        {
          "name": "",
          "type": "bool"
        }
      ],
      "payable": false,
      "stateMutability": "nonpayable",
      "type": "function"
    },
    {
      "constant": false,
      "inputs": [
        {
          "name": "session",
          "type": "uint256"
        }
      ],
      "name": "pickWinner",
      "outputs": [
        {
          "name": "",
          "type": "bool"
        }
      ],
      "payable": true,
      "stateMutability": "payable",
      "type": "function"
    },
    {
      "constant": false,
      "inputs": [
        {
          "name": "id",
          "type": "bytes32"
        },
        {
          "name": "_result",
          "type": "string"
        }
      ],
      "name": "__callback",
      "outputs": [],
      "payable": false,
      "stateMutability": "nonpayable",
      "type": "function"
    },
    {
      "constant": false,
      "inputs": [
        {
          "name": "myid",
          "type": "bytes32"
        },
        {
          "name": "result",
          "type": "string"
        },
        {
          "name": "proof",
          "type": "bytes"
        }
      ],
      "name": "__callback",
      "outputs": [],
      "payable": false,
      "stateMutability": "nonpayable",
      "type": "function"
    },
    {
      "constant": true,
      "inputs": [
        {
          "name": "_result",
          "type": "string"
        }
      ],
      "name": "parseOraclizeResult",
      "outputs": [
        {
          "name": "",
          "type": "uint256"
        }
      ],
      "payable": false,
      "stateMutability": "pure",
      "type": "function"
    },
    {
      "constant": false,
      "inputs": [
        {
          "name": "session",
          "type": "uint256"
        },
        {
          "name": "sender",
          "type": "address"
        },
        {
          "name": "payout",
          "type": "uint256"
        }
      ],
      "name": "updateLotteryPayout",
      "outputs": [
        {
          "name": "",
          "type": "bool"
        }
      ],
      "payable": false,
      "stateMutability": "nonpayable",
      "type": "function"
    },
    {
      "constant": true,
      "inputs": [
        {
          "name": "number",
          "type": "uint256"
        },
        {
          "name": "tickets",
          "type": "uint256"
        }
      ],
      "name": "randomInRange",
      "outputs": [
        {
          "name": "",
          "type": "uint256"
        }
      ],
      "payable": false,
      "stateMutability": "pure",
      "type": "function"
    },
    {
      "constant": true,
      "inputs": [
        {
          "name": "session",
          "type": "uint256"
        }
      ],
      "name": "isLotteryFinalized",
      "outputs": [
        {
          "name": "",
          "type": "bool"
        }
      ],
      "payable": false,
      "stateMutability": "view",
      "type": "function"
    },
    {
      "constant": true,
      "inputs": [
        {
          "name": "session",
          "type": "uint256"
        }
      ],
      "name": "isLotteryClaimed",
      "outputs": [
        {
          "name": "",
          "type": "bool"
        }
      ],
      "payable": false,
      "stateMutability": "view",
      "type": "function"
    },
    {
      "constant": true,
      "inputs": [
        {
          "name": "session",
          "type": "uint256"
        },
        {
          "name": "_address",
          "type": "address"
        }
      ],
      "name": "getUserTicketCount",
      "outputs": [
        {
          "name": "",
          "type": "uint256"
        }
      ],
      "payable": false,
      "stateMutability": "view",
      "type": "function"
    },
    {
      "constant": true,
      "inputs": [
        {
          "name": "session",
          "type": "uint256"
        }
      ],
      "name": "getLotteryWinner",
      "outputs": [
        {
          "name": "",
          "type": "address"
        }
      ],
      "payable": false,
      "stateMutability": "view",
      "type": "function"
    }
  ],
  "bytecode": "0x60606040526001600860006101000a81548160ff021916908315150217905550341561002a57600080fd5b604051602080612ff78339810160405280805190602001909190505033600560006101000a81548173ffffffffffffffffffffffffffffffffffffffff021916908373ffffffffffffffffffffffffffffffffffffffff160217905550806000806101000a81548173ffffffffffffffffffffffffffffffffffffffff021916908373ffffffffffffffffffffffffffffffffffffffff16021790555050612f20806100d76000396000f300606060405260043610610112576000357c0100000000000000000000000000000000000000000000000000000000900463ffffffff1680630d8c8683146101225780630fd82c05146101625780631398e076146101ce57806317a02b891461023857806317df021c146102a957806327dc297e1461030c57806332d549c31461037657806338bbfa50146103d957806359b642f7146104865780636359c403146104c15780636f6d5e12146104ee5780637f2a8a801461052957806383ab96f0146105625780638da5cb5b146105b85780638f8ca3bc1461060d578063a47a385714610670578063ba47a6ef146106af578063d41667631461070e578063f737d21d14610737578063ff9b3acf14610767575b341561011d57600080fd5b600080fd5b341561012d57600080fd5b61014c60048080359060200190919080359060200190919050506107bc565b6040518082815260200191505060405180910390f35b341561016d57600080fd5b61018c60048080359060200190919080359060200190919050506107ff565b604051808273ffffffffffffffffffffffffffffffffffffffff1673ffffffffffffffffffffffffffffffffffffffff16815260200191505060405180910390f35b34156101d957600080fd5b6101ef6004808035906020019091905050610841565b6040518087815260200186815260200185815260200184600019166000191681526020018315151515815260200182151515158152602001965050505050505060405180910390f35b341561024357600080fd5b610293600480803590602001908201803590602001908080601f01602080910402602001604051908101604052809392919081815260200183838082843782019150505050505091905050610897565b6040518082815260200191505060405180910390f35b34156102b457600080fd5b6102f2600480803590602001909190803573ffffffffffffffffffffffffffffffffffffffff169060200190919080359060200190919050506109e4565b604051808215151515815260200191505060405180910390f35b341561031757600080fd5b61037460048080356000191690602001909190803590602001908201803590602001908080601f01602080910402602001604051908101604052809392919081815260200183838082843782019150505050505091905050610b02565b005b341561038157600080fd5b6103bf600480803590602001909190803573ffffffffffffffffffffffffffffffffffffffff16906020019091908035906020019091905050610d39565b604051808215151515815260200191505060405180910390f35b34156103e457600080fd5b61048460048080356000191690602001909190803590602001908201803590602001908080601f0160208091040260200160405190810160405280939291908181526020018383808284378201915050505050509190803590602001908201803590602001908080601f01602080910402602001604051908101604052809392919081815260200183838082843782019150505050505091905050610fbd565b005b341561049157600080fd5b6104a76004808035906020019091905050610fc2565b604051808215151515815260200191505060405180910390f35b34156104cc57600080fd5b6104d4610fef565b604051808215151515815260200191505060405180910390f35b34156104f957600080fd5b61050f6004808035906020019091905050611002565b604051808215151515815260200191505060405180910390f35b341561053457600080fd5b610560600480803573ffffffffffffffffffffffffffffffffffffffff1690602001909190505061102f565b005b341561056d57600080fd5b6105a2600480803590602001909190803573ffffffffffffffffffffffffffffffffffffffff169060200190919050506110cf565b6040518082815260200191505060405180910390f35b34156105c357600080fd5b6105cb61112d565b604051808273ffffffffffffffffffffffffffffffffffffffff1673ffffffffffffffffffffffffffffffffffffffff16815260200191505060405180910390f35b341561061857600080fd5b61062e6004808035906020019091905050611153565b604051808273ffffffffffffffffffffffffffffffffffffffff1673ffffffffffffffffffffffffffffffffffffffff16815260200191505060405180910390f35b341561067b57600080fd5b61069160048080359060200190919050506111e6565b60405180826000191660001916815260200191505060405180910390f35b34156106ba57600080fd5b6106f8600480803590602001909190803573ffffffffffffffffffffffffffffffffffffffff169060200190919080359060200190919050506111fe565b6040518082815260200191505060405180910390f35b341561071957600080fd5b61072161123c565b6040518082815260200191505060405180910390f35b61074d6004808035906020019091905050611242565b604051808215151515815260200191505060405180910390f35b341561077257600080fd5b61077a6115b5565b604051808273ffffffffffffffffffffffffffffffffffffffff1673ffffffffffffffffffffffffffffffffffffffff16815260200191505060405180910390f35b60008060006289543f91506107e66107e06107da87620f42406115db565b866115f4565b8361162f565b9050838111156107f4578390505b809250505092915050565b600a6020528160005260406000206020528060005260406000206000915091509054906101000a900473ffffffffffffffffffffffffffffffffffffffff1681565b60096020528060005260406000206000915090508060000154908060010154908060020154908060030154908060040160009054906101000a900460ff16908060040160019054906101000a900460ff16905086565b6000806108a2612dfb565b6108aa612e0f565b60006108b4612dfb565b6108bc612e0f565b60206040519081016040528060008152509450879350600092505b6001845103831115156109d65760016040518059106108f35750595b9080825280601f01601f19166020018201604052509150819050838381518110151561091b57fe5b9060200101517f010000000000000000000000000000000000000000000000000000000000000090047f01000000000000000000000000000000000000000000000000000000000000000281600081518110151561097557fe5b9060200101907effffffffffffffffffffffffffffffffffffffffffffffffffffffffffffff1916908160001a9053506109af8582611645565b945060018451038314156109c9576109c685611692565b95505b82806001019350506108d7565b859650505050505050919050565b6000600660009054906101000a900473ffffffffffffffffffffffffffffffffffffffff1673ffffffffffffffffffffffffffffffffffffffff163373ffffffffffffffffffffffffffffffffffffffff16141515610a4257600080fd5b610a4b84610fc2565b1515610a5657600080fd5b610a5f84611002565b151515610a6b57600080fd5b8273ffffffffffffffffffffffffffffffffffffffff16610a8b85611153565b73ffffffffffffffffffffffffffffffffffffffff16141515610aad57600080fd5b81600960008681526020019081526020016000206002018190555060016009600086815260200190815260200160002060040160006101000a81548160ff021916908315150217905550600190509392505050565b60008060007fdf0d639497cc473f17b4a61a4ce18909e586df773ce6da057bb8de78427b1a076040518080602001828103825260118152602001807f63616c6c6261636b20726563656976656400000000000000000000000000000081525060200191505060405180910390a1610b776116a6565b73ffffffffffffffffffffffffffffffffffffffff163373ffffffffffffffffffffffffffffffffffffffff16141515610bb057600080fd5b610bb984610897565b9250610bc860075460016115db565b9150610bea8360096000858152602001908152602001600020600001546107bc565b90508060096000848152602001908152602001600020600101819055508460096000848152602001908152602001600020600301816000191690555060016009600084815260200190815260200160002060040160016101000a81548160ff0219169083151502179055507fb4c9574f52318b88c49b5768327131ba250062d7b16ffc91bb01df897e95e3b48284836009600087815260200190815260200160002060000154600a6000888152602001908152602001600020600087815260200190815260200160002060009054906101000a900473ffffffffffffffffffffffffffffffffffffffff16604051808681526020018581526020018481526020018381526020018273ffffffffffffffffffffffffffffffffffffffff1673ffffffffffffffffffffffffffffffffffffffff1681526020019550505050505060405180910390a15050505050565b6000806000806000600660009054906101000a900473ffffffffffffffffffffffffffffffffffffffff1673ffffffffffffffffffffffffffffffffffffffff163373ffffffffffffffffffffffffffffffffffffffff16141515610d9d57600080fd5b610db086683635c9adc5dea0000061162f565b9350600b600089815260200190815260200160002060008873ffffffffffffffffffffffffffffffffffffffff1673ffffffffffffffffffffffffffffffffffffffff16815260200190815260200160002080549050925060096000898152602001908152602001600020600001549150600583108015610e315750600084115b15610fae57600090505b83811015610f9257600b600089815260200190815260200160002060008873ffffffffffffffffffffffffffffffffffffffff1673ffffffffffffffffffffffffffffffffffffffff1681526020019081526020016000208054806001018281610ea59190612e23565b91600052602060002090016000849091909150555086600a60008a8152602001908152602001600020600084806001019550815260200190815260200160002060006101000a81548173ffffffffffffffffffffffffffffffffffffffff021916908373ffffffffffffffffffffffffffffffffffffffff1602179055506005600b60008a815260200190815260200160002060008973ffffffffffffffffffffffffffffffffffffffff1673ffffffffffffffffffffffffffffffffffffffff16815260200190815260200160002080549050101515610f8557610f92565b8080600101915050610e3b565b81600960008a8152602001908152602001600020600001819055505b60019450505050509392505050565b505050565b60006009600083815260200190815260200160002060040160019054906101000a900460ff169050919050565b600860009054906101000a900460ff1681565b60006009600083815260200190815260200160002060040160009054906101000a900460ff169050919050565b600560009054906101000a900473ffffffffffffffffffffffffffffffffffffffff1673ffffffffffffffffffffffffffffffffffffffff163373ffffffffffffffffffffffffffffffffffffffff1614151561108b57600080fd5b80600660006101000a81548173ffffffffffffffffffffffffffffffffffffffff021916908373ffffffffffffffffffffffffffffffffffffffff16021790555050565b6000600b600084815260200190815260200160002060008373ffffffffffffffffffffffffffffffffffffffff1673ffffffffffffffffffffffffffffffffffffffff16815260200190815260200160002080549050905092915050565b600560009054906101000a900473ffffffffffffffffffffffffffffffffffffffff1681565b60006009600083815260200190815260200160002060040160019054906101000a900460ff16151561118457600080fd5b600a600083815260200190815260200160002060006009600085815260200190815260200160002060010154815260200190815260200160002060009054906101000a900473ffffffffffffffffffffffffffffffffffffffff169050919050565b600c6020528060005260406000206000915090505481565b600b6020528260005260406000206020528160005260406000208181548110151561122557fe5b906000526020600020900160009250925050505481565b60075481565b600080600660009054906101000a900473ffffffffffffffffffffffffffffffffffffffff1673ffffffffffffffffffffffffffffffffffffffff163373ffffffffffffffffffffffffffffffffffffffff161415156112a157600080fd5b60008314806112b257506007548311155b156112bc57600080fd5b6112c583610fc2565b1515156112d157600080fd5b826007819055503073ffffffffffffffffffffffffffffffffffffffff163161132e6040805190810160405280600c81526020017f576f6c6672616d416c7068610000000000000000000000000000000000000000815250611995565b1115611461577fdf0d639497cc473f17b4a61a4ce18909e586df773ce6da057bb8de78427b1a0760405180806020018281038252604b8152602001807f4f7261636c697a6520717565727920776173204e4f542073656e742c20706c6581526020017f6173652061646420736f6d652045544820746f20636f76657220666f7220746881526020017f652071756572792066656500000000000000000000000000000000000000000081525060600191505060405180910390a17f1106d9776bd856542560c441c3dcf105f4f917a6437c1a3aabc647cc8a96349a6114476040805190810160405280600c81526020017f576f6c6672616d416c7068610000000000000000000000000000000000000000815250611995565b6040518082815260200191505060405180910390a16115ab565b7fdf0d639497cc473f17b4a61a4ce18909e586df773ce6da057bb8de78427b1a076040518080602001828103825260358152602001807f4f7261636c697a65207175657279207761732073656e742c207374616e64696e81526020017f6720627920666f722074686520616e737765722e2e000000000000000000000081525060400191505060405180910390a161158a6040805190810160405280600c81526020017f576f6c6672616d416c7068610000000000000000000000000000000000000000815250606060405190810160405280602981526020017f72616e646f6d206e756d626572206265747765656e203130303030303020616e81526020017f6420393939393939390000000000000000000000000000000000000000000000815250611cf6565b905080600c6000600754815260200190815260200160002081600019169055505b6001915050919050565b600660009054906101000a900473ffffffffffffffffffffffffffffffffffffffff1681565b60008282111515156115e957fe5b818303905092915050565b60008060008414156116095760009150611628565b828402905082848281151561161a57fe5b0414151561162457fe5b8091505b5092915050565b6000818381151561163c57fe5b04905092915050565b61164d612dfb565b61168a8383602060405190810160405280600081525060206040519081016040528060008152506020604051908101604052806000815250612204565b905092915050565b600061169f82600061263c565b9050919050565b6000806000809054906101000a900473ffffffffffffffffffffffffffffffffffffffff1673ffffffffffffffffffffffffffffffffffffffff161480611716575060006117146000809054906101000a900473ffffffffffffffffffffffffffffffffffffffff16612936565b145b15611727576117256000612941565b505b6000809054906101000a900473ffffffffffffffffffffffffffffffffffffffff1673ffffffffffffffffffffffffffffffffffffffff166338cc48316040518163ffffffff167c0100000000000000000000000000000000000000000000000000000000028152600401602060405180830381600087803b15156117ab57600080fd5b5af115156117b857600080fd5b5050506040518051905073ffffffffffffffffffffffffffffffffffffffff16600160009054906101000a900473ffffffffffffffffffffffffffffffffffffffff1673ffffffffffffffffffffffffffffffffffffffff161415156118f4576000809054906101000a900473ffffffffffffffffffffffffffffffffffffffff1673ffffffffffffffffffffffffffffffffffffffff166338cc48316040518163ffffffff167c0100000000000000000000000000000000000000000000000000000000028152600401602060405180830381600087803b151561189c57600080fd5b5af115156118a957600080fd5b50505060405180519050600160006101000a81548173ffffffffffffffffffffffffffffffffffffffff021916908373ffffffffffffffffffffffffffffffffffffffff1602179055505b600160009054906101000a900473ffffffffffffffffffffffffffffffffffffffff1673ffffffffffffffffffffffffffffffffffffffff1663c281d19e6040518163ffffffff167c0100000000000000000000000000000000000000000000000000000000028152600401602060405180830381600087803b151561197957600080fd5b5af1151561198657600080fd5b50505060405180519050905090565b6000806000809054906101000a900473ffffffffffffffffffffffffffffffffffffffff1673ffffffffffffffffffffffffffffffffffffffff161480611a0557506000611a036000809054906101000a900473ffffffffffffffffffffffffffffffffffffffff16612936565b145b15611a1657611a146000612941565b505b6000809054906101000a900473ffffffffffffffffffffffffffffffffffffffff1673ffffffffffffffffffffffffffffffffffffffff166338cc48316040518163ffffffff167c0100000000000000000000000000000000000000000000000000000000028152600401602060405180830381600087803b1515611a9a57600080fd5b5af11515611aa757600080fd5b5050506040518051905073ffffffffffffffffffffffffffffffffffffffff16600160009054906101000a900473ffffffffffffffffffffffffffffffffffffffff1673ffffffffffffffffffffffffffffffffffffffff16141515611be3576000809054906101000a900473ffffffffffffffffffffffffffffffffffffffff1673ffffffffffffffffffffffffffffffffffffffff166338cc48316040518163ffffffff167c0100000000000000000000000000000000000000000000000000000000028152600401602060405180830381600087803b1515611b8b57600080fd5b5af11515611b9857600080fd5b50505060405180519050600160006101000a81548173ffffffffffffffffffffffffffffffffffffffff021916908373ffffffffffffffffffffffffffffffffffffffff1602179055505b600160009054906101000a900473ffffffffffffffffffffffffffffffffffffffff1673ffffffffffffffffffffffffffffffffffffffff1663524f3889836040518263ffffffff167c01000000000000000000000000000000000000000000000000000000000281526004018080602001828103825283818151815260200191508051906020019080838360005b83811015611c8d578082015181840152602081019050611c72565b50505050905090810190601f168015611cba5780820380516001836020036101000a031916815260200191505b5092505050602060405180830381600087803b1515611cd857600080fd5b5af11515611ce557600080fd5b505050604051805190509050919050565b60008060008060009054906101000a900473ffffffffffffffffffffffffffffffffffffffff1673ffffffffffffffffffffffffffffffffffffffff161480611d6857506000611d666000809054906101000a900473ffffffffffffffffffffffffffffffffffffffff16612936565b145b15611d7957611d776000612941565b505b6000809054906101000a900473ffffffffffffffffffffffffffffffffffffffff1673ffffffffffffffffffffffffffffffffffffffff166338cc48316040518163ffffffff167c0100000000000000000000000000000000000000000000000000000000028152600401602060405180830381600087803b1515611dfd57600080fd5b5af11515611e0a57600080fd5b5050506040518051905073ffffffffffffffffffffffffffffffffffffffff16600160009054906101000a900473ffffffffffffffffffffffffffffffffffffffff1673ffffffffffffffffffffffffffffffffffffffff16141515611f46576000809054906101000a900473ffffffffffffffffffffffffffffffffffffffff1673ffffffffffffffffffffffffffffffffffffffff166338cc48316040518163ffffffff167c0100000000000000000000000000000000000000000000000000000000028152600401602060405180830381600087803b1515611eee57600080fd5b5af11515611efb57600080fd5b50505060405180519050600160006101000a81548173ffffffffffffffffffffffffffffffffffffffff021916908373ffffffffffffffffffffffffffffffffffffffff1602179055505b600160009054906101000a900473ffffffffffffffffffffffffffffffffffffffff1673ffffffffffffffffffffffffffffffffffffffff1663524f3889856040518263ffffffff167c01000000000000000000000000000000000000000000000000000000000281526004018080602001828103825283818151815260200191508051906020019080838360005b83811015611ff0578082015181840152602081019050611fd5565b50505050905090810190601f16801561201d5780820380516001836020036101000a031916815260200191505b5092505050602060405180830381600087803b151561203b57600080fd5b5af1151561204857600080fd5b50505060405180519050905062030d403a02670de0b6b3a76400000181111561207757600060010291506121fd565b600160009054906101000a900473ffffffffffffffffffffffffffffffffffffffff1673ffffffffffffffffffffffffffffffffffffffff1663adf59f9982600087876040518563ffffffff167c0100000000000000000000000000000000000000000000000000000000028152600401808481526020018060200180602001838103835285818151815260200191508051906020019080838360005b8381101561212f578082015181840152602081019050612114565b50505050905090810190601f16801561215c5780820380516001836020036101000a031916815260200191505b50838103825284818151815260200191508051906020019080838360005b8381101561219557808201518184015260208101905061217a565b50505050905090810190601f1680156121c25780820380516001836020036101000a031916815260200191505b50955050505050506020604051808303818588803b15156121e257600080fd5b5af115156121ef57600080fd5b505050506040518051905091505b5092915050565b61220c612dfb565b612214612e0f565b61221c612e0f565b612224612e0f565b61222c612e0f565b612234612e0f565b61223c612dfb565b612244612e0f565b6000808e98508d97508c96508b95508a94508451865188518a518c51010101016040518059106122715750595b9080825280601f01601f1916602001820160405250935083925060009150600090505b88518110156123475788818151811015156122ab57fe5b9060200101517f010000000000000000000000000000000000000000000000000000000000000090047f010000000000000000000000000000000000000000000000000000000000000002838380600101945081518110151561230a57fe5b9060200101907effffffffffffffffffffffffffffffffffffffffffffffffffffffffffffff1916908160001a9053508080600101915050612294565b600090505b87518110156123ff57878181518110151561236357fe5b9060200101517f010000000000000000000000000000000000000000000000000000000000000090047f01000000000000000000000000000000000000000000000000000000000000000283838060010194508151811015156123c257fe5b9060200101907effffffffffffffffffffffffffffffffffffffffffffffffffffffffffffff1916908160001a905350808060010191505061234c565b600090505b86518110156124b757868181518110151561241b57fe5b9060200101517f010000000000000000000000000000000000000000000000000000000000000090047f010000000000000000000000000000000000000000000000000000000000000002838380600101945081518110151561247a57fe5b9060200101907effffffffffffffffffffffffffffffffffffffffffffffffffffffffffffff1916908160001a9053508080600101915050612404565b600090505b855181101561256f5785818151811015156124d357fe5b9060200101517f010000000000000000000000000000000000000000000000000000000000000090047f010000000000000000000000000000000000000000000000000000000000000002838380600101945081518110151561253257fe5b9060200101907effffffffffffffffffffffffffffffffffffffffffffffffffffffffffffff1916908160001a90535080806001019150506124bc565b600090505b845181101561262757848181518110151561258b57fe5b9060200101517f010000000000000000000000000000000000000000000000000000000000000090047f01000000000000000000000000000000000000000000000000000000000000000283838060010194508151811015156125ea57fe5b9060200101907effffffffffffffffffffffffffffffffffffffffffffffffffffffffffffff1916908160001a9053508080600101915050612574565b82995050505050505050505095945050505050565b6000612646612e0f565b60008060008693506000925060009150600090505b83518110156129175760307f010000000000000000000000000000000000000000000000000000000000000002848281518110151561269657fe5b9060200101517f010000000000000000000000000000000000000000000000000000000000000090047f0100000000000000000000000000000000000000000000000000000000000000027effffffffffffffffffffffffffffffffffffffffffffffffffffffffffffff1916101580156127ae575060397f010000000000000000000000000000000000000000000000000000000000000002848281518110151561273e57fe5b9060200101517f010000000000000000000000000000000000000000000000000000000000000090047f0100000000000000000000000000000000000000000000000000000000000000027effffffffffffffffffffffffffffffffffffffffffffffffffffffffffffff191611155b1561285f5781156127d15760008614156127c757612917565b8580600190039650505b600a83029250603084828151811015156127e757fe5b9060200101517f010000000000000000000000000000000000000000000000000000000000000090047f0100000000000000000000000000000000000000000000000000000000000000027f01000000000000000000000000000000000000000000000000000000000000009004038301925061290a565b602e7f010000000000000000000000000000000000000000000000000000000000000002848281518110151561289157fe5b9060200101517f010000000000000000000000000000000000000000000000000000000000000090047f0100000000000000000000000000000000000000000000000000000000000000027effffffffffffffffffffffffffffffffffffffffffffffffffffffffffffff1916141561290957600191505b5b808060010191505061265b565b60008611156129295785600a0a830292505b8294505050505092915050565b6000813b9050919050565b600061294b612952565b9050919050565b600080612972731d3b2638a7cc9f2cb3d298a3da7a90b67e5506ed612936565b1115612a1357731d3b2638a7cc9f2cb3d298a3da7a90b67e5506ed6000806101000a81548173ffffffffffffffffffffffffffffffffffffffff021916908373ffffffffffffffffffffffffffffffffffffffff160217905550612a0a6040805190810160405280600b81526020017f6574685f6d61696e6e6574000000000000000000000000000000000000000000815250612de1565b60019050612dde565b6000612a3273c03a2615d5efaf5f49f60b7bb6583eaec212fdf1612936565b1115612ad35773c03a2615d5efaf5f49f60b7bb6583eaec212fdf16000806101000a81548173ffffffffffffffffffffffffffffffffffffffff021916908373ffffffffffffffffffffffffffffffffffffffff160217905550612aca6040805190810160405280600c81526020017f6574685f726f707374656e330000000000000000000000000000000000000000815250612de1565b60019050612dde565b6000612af273b7a07bcf2ba2f2703b24c0691b5278999c59ac7e612936565b1115612b935773b7a07bcf2ba2f2703b24c0691b5278999c59ac7e6000806101000a81548173ffffffffffffffffffffffffffffffffffffffff021916908373ffffffffffffffffffffffffffffffffffffffff160217905550612b8a6040805190810160405280600981526020017f6574685f6b6f76616e0000000000000000000000000000000000000000000000815250612de1565b60019050612dde565b6000612bb273146500cfd35b22e4a392fe0adc06de1a1368ed48612936565b1115612c535773146500cfd35b22e4a392fe0adc06de1a1368ed486000806101000a81548173ffffffffffffffffffffffffffffffffffffffff021916908373ffffffffffffffffffffffffffffffffffffffff160217905550612c4a6040805190810160405280600b81526020017f6574685f72696e6b656279000000000000000000000000000000000000000000815250612de1565b60019050612dde565b6000612c72736f485c8bf6fc43ea212e93bbf8ce046c7f1cb475612936565b1115612cd557736f485c8bf6fc43ea212e93bbf8ce046c7f1cb4756000806101000a81548173ffffffffffffffffffffffffffffffffffffffff021916908373ffffffffffffffffffffffffffffffffffffffff16021790555060019050612dde565b6000612cf47320e12a1f859b3feae5fb2a0a32c18f5a65555bbf612936565b1115612d57577320e12a1f859b3feae5fb2a0a32c18f5a65555bbf6000806101000a81548173ffffffffffffffffffffffffffffffffffffffff021916908373ffffffffffffffffffffffffffffffffffffffff16021790555060019050612dde565b6000612d767351efaf4c8b3c9afbd5ab9f4bbc82784ab6ef8faa612936565b1115612dd9577351efaf4c8b3c9afbd5ab9f4bbc82784ab6ef8faa6000806101000a81548173ffffffffffffffffffffffffffffffffffffffff021916908373ffffffffffffffffffffffffffffffffffffffff16021790555060019050612dde565b600090505b90565b8060029080519060200190612df7929190612e4f565b5050565b602060405190810160405280600081525090565b602060405190810160405280600081525090565b815481835581811511612e4a57818360005260206000209182019101612e499190612ecf565b5b505050565b828054600181600116156101000203166002900490600052602060002090601f016020900481019282601f10612e9057805160ff1916838001178555612ebe565b82800160010185558215612ebe579182015b82811115612ebd578251825591602001919060010190612ea2565b5b509050612ecb9190612ecf565b5090565b612ef191905b80821115612eed576000816000905550600101612ed5565b5090565b905600a165627a7a72305820f46a2a9bc0f7637e3c2e7f677ffbe80f6dd4f87f2bf53ce19240c7ff4c3e9f370029",
  "source": "pragma solidity 0.4.21;\n\n\nimport '../HouseOffering.sol';\nimport '../../Libraries/SafeMath.sol';\nimport '../../Token/ERC20.sol';\nimport '../../Libraries/oraclizeAPI.sol';\n\ncontract HouseLotteryController is SafeMath, usingOraclize {\n\n    // Structs\n    struct Lottery {\n        // Number of tickets allotted.\n        uint ticketCount;\n        // Winning ticket.\n        uint winningTicket;\n        // Payout for winning ticket in this session.\n        uint payout;\n        // Oraclize callback request ID\n        bytes32 id;\n        // Toggled when winnings are claimed.\n        bool claimed;\n        // Toggled when a winning ticket has been set.\n        bool finalized;\n    }\n\n    // Variables\n    address public owner;\n    address public house;\n    uint public currentSession;\n    bool public isHouseLotteryController = true;\n\n    // Mappings\n    // Winners for each session\n    mapping (uint => Lottery) public lotteries;\n\n    // Ticket holders for a session's lottery.\n    mapping (uint => mapping(uint => address)) public lotteryTicketHolders;\n\n    // Number of tickets in session lottery for a user.\n    mapping (uint => mapping(address => uint[])) public lotteryUserTickets;\n\n    // IDs generated for RNG during each session.\n    mapping (uint => bytes32) public rngIds;\n\n    // Modifiers\n    modifier onlyOwner() {\n        require(msg.sender == owner);\n        _;\n    }\n\n    modifier onlyHouse() {\n        require(msg.sender == house);\n        _;\n    }\n\n    // Events\n    event LogWinner(\n        uint session,\n        uint number,\n        uint randomInRange,\n        uint ticketCount,\n        address winner\n    );\n\n    event LogCallback(string message);\n\n    event LogOraclizePricingError(uint price);\n\n    function HouseLotteryController(address oraclize)\n    public {\n        owner = msg.sender;\n        OAR = OraclizeAddrResolverI(oraclize);\n    }\n\n    function setHouse(address _house)\n    public\n    onlyOwner {\n        house = _house;\n    }\n\n    function allotLotteryTickets (uint session, address _address, uint tokenAmount)\n    external\n    onlyHouse\n    returns (bool) {\n        uint numberOfTickets = safeDiv(tokenAmount, 1000 ether);\n        uint userTicketCount = lotteryUserTickets[session][_address].length;\n        uint ticketCount = lotteries[session].ticketCount;\n\n        // Allot lottery tickets for credit holders.\n        if (userTicketCount < 5 && numberOfTickets > 0) {\n            for (uint i = 0; i < numberOfTickets; i++) {\n                lotteryUserTickets[session][_address].push(ticketCount);\n                lotteryTicketHolders[session][ticketCount++] = _address;\n                if (lotteryUserTickets[session][_address].length >= 5)\n                    break;\n            }\n            lotteries[session].ticketCount = ticketCount;\n        }\n\n        return true;\n    }\n\n    function pickWinner(uint session) payable\n    external\n    onlyHouse\n    returns (bool) {\n        // Throw if session passed from the house is less than currentSession set in the lottery contract\n        if (session == 0 || session <= currentSession) revert();\n\n        // Should only work if the winning number has not been finalized.\n        require(!isLotteryFinalized(session));\n\n        // This is where currentSession is initialized in the contract.\n        // It will only be set when the house would like to pick a winner for a session\n        currentSession = session;\n\n        // Sufficient ETH needs to be sent with this transaction.\n        if (oraclize_getPrice(\"WolframAlpha\") > address(this).balance) {\n            emit LogCallback(\"Oraclize query was NOT sent, please add some ETH to cover for the query fee\");\n            emit LogOraclizePricingError(oraclize_getPrice(\"WolframAlpha\"));\n        }\n        else {\n            emit LogCallback(\"Oraclize query was sent, standing by for the answer..\");\n            bytes32 rngId = oraclize_query(\n            \"WolframAlpha\",\n            \"random number between 1000000 and 9999999\");\n            rngIds[currentSession] = rngId;\n        }\n\n        return true;\n    }\n\n    function __callback(bytes32 id, string _result)\n    public {\n        emit LogCallback(\"callback received\");\n        require(msg.sender == oraclize_cbAddress());\n        uint number = parseOraclizeResult(_result);\n        uint previousSession = safeSub(currentSession, 1);\n        uint randomNumber = randomInRange(number, lotteries[previousSession].ticketCount);\n        lotteries[previousSession].winningTicket = randomNumber;\n        lotteries[previousSession].id = id;\n        lotteries[previousSession].finalized = true;\n        emit LogWinner(previousSession,\n                  number,\n                  randomNumber,\n                  lotteries[previousSession].ticketCount,\n                  lotteryTicketHolders[previousSession][randomNumber]);\n    }\n\n    function parseOraclizeResult(string _result)\n    public\n    pure\n    returns (uint) {\n        uint number;\n        string memory temp = '';\n        bytes memory result = bytes(_result);\n        // Example _result: [1245343]\n        for (uint i = 0; i <= result.length - 1; i++) {\n            string memory char = new string(1);\n            bytes memory _char = bytes(char);\n            _char[0] = result[i];\n            temp = strConcat(temp, string(_char));\n            if (i == result.length - 1) {\n                number = parseInt(string(temp));\n            }\n        }\n        return number;\n    }\n\n    function updateLotteryPayout(uint session, address sender, uint payout)\n    external\n    onlyHouse\n    returns (bool) {\n        // Should only work after the winning number has been finalized.\n        require(isLotteryFinalized(session));\n        // Should not work if the winnings have already been claimed.\n        require(!isLotteryClaimed(session));\n        // Only holder of the winning ticket can withdraw.\n        require(getLotteryWinner(session) == sender);\n\n        lotteries[session].payout = payout;\n        lotteries[session].claimed = true;\n        return true;\n    }\n\n    // Number = 7 digit random number from random.org\n    // Participants = Number of participants in this session\n    function randomInRange(uint number, uint tickets)\n    public\n    pure\n    returns (uint) {\n        uint range = 8999999;\n        uint numberInRange = safeDiv(safeMul(safeSub(number, 1000000), tickets), range);\n        // ((2995848 - 1000000) * (5)/8999999)\n        if (numberInRange > tickets)\n            numberInRange = tickets;\n        return numberInRange;\n    }\n\n    function isLotteryFinalized(uint session)\n    public\n    view\n    returns (bool) {\n        return lotteries[session].finalized;\n    }\n\n    function isLotteryClaimed(uint session)\n    public\n    view\n    returns (bool) {\n        return lotteries[session].claimed;\n    }\n\n    function getUserTicketCount(uint session, address _address)\n    public\n    view\n    returns (uint) {\n        return lotteryUserTickets[session][_address].length;\n    }\n\n    function getLotteryWinner(uint session)\n    public\n    view\n    returns (address) {\n        require(lotteries[session].finalized);\n        return lotteryTicketHolders[session][lotteries[session].winningTicket];\n    }\n\n    // Do not accept payments in ETH\n    function() public {\n        revert();\n    }\n\n}\n",
  "sourcePath": "/srv/platform-contracts/contracts/House/Controllers/HouseLotteryController.sol",
  "compiler": {
    "name": "solc",
    "version": "0.4.21+commit.dfe3193c.Emscripten.clang"
  },
  "schemaVersion": "2.0.0",
  "updatedAt": "2018-06-04T15:40:06.077Z"
}