{
  "contractName": "KycManager",
  "abi": [
    {
      "constant": true,
      "inputs": [
        {
          "name": "",
          "type": "address"
        }
      ],
      "name": "kycEnabledContracts",
      "outputs": [
        {
          "name": "exists",
          "type": "bool"
        }
      ],
      "payable": false,
      "stateMutability": "view",
      "type": "function"
    },
    {
      "constant": true,
      "inputs": [],
      "name": "founder",
      "outputs": [
        {
          "name": "",
          "type": "address"
        }
      ],
      "payable": false,
      "stateMutability": "view",
      "type": "function"
    },
    {
      "constant": true,
      "inputs": [
        {
          "name": "",
          "type": "uint256"
        }
      ],
      "name": "authorizedAddressList",
      "outputs": [
        {
          "name": "",
          "type": "address"
        }
      ],
      "payable": false,
      "stateMutability": "view",
      "type": "function"
    },
    {
      "constant": true,
      "inputs": [
        {
          "name": "",
          "type": "address"
        }
      ],
      "name": "authorized",
      "outputs": [
        {
          "name": "",
          "type": "bool"
        }
      ],
      "payable": false,
      "stateMutability": "view",
      "type": "function"
    },
    {
      "constant": true,
      "inputs": [
        {
          "name": "",
          "type": "uint256"
        }
      ],
      "name": "kycEnabledContractList",
      "outputs": [
        {
          "name": "",
          "type": "address"
        }
      ],
      "payable": false,
      "stateMutability": "view",
      "type": "function"
    },
    {
      "inputs": [],
      "payable": false,
      "stateMutability": "nonpayable",
      "type": "constructor"
    },
    {
      "anonymous": false,
      "inputs": [
        {
          "indexed": false,
          "name": "_address",
          "type": "address"
        },
        {
          "indexed": false,
          "name": "authorized",
          "type": "address"
        }
      ],
      "name": "LogNewKycEnabledContract",
      "type": "event"
    },
    {
      "anonymous": false,
      "inputs": [
        {
          "indexed": false,
          "name": "_address",
          "type": "address"
        },
        {
          "indexed": false,
          "name": "authorized",
          "type": "address"
        }
      ],
      "name": "LogRemovedKycEnabledContract",
      "type": "event"
    },
    {
      "anonymous": false,
      "inputs": [
        {
          "indexed": false,
          "name": "_address",
          "type": "address"
        }
      ],
      "name": "LogNewAuthorizedAddress",
      "type": "event"
    },
    {
      "anonymous": false,
      "inputs": [
        {
          "indexed": false,
          "name": "_address",
          "type": "address"
        }
      ],
      "name": "LogRemoveAuthorizedAddress",
      "type": "event"
    },
    {
      "anonymous": false,
      "inputs": [
        {
          "indexed": false,
          "name": "_contract",
          "type": "address"
        },
        {
          "indexed": false,
          "name": "_address",
          "type": "address"
        },
        {
          "indexed": false,
          "name": "index",
          "type": "uint256"
        }
      ],
      "name": "LogNewApprovedAddress",
      "type": "event"
    },
    {
      "anonymous": false,
      "inputs": [
        {
          "indexed": false,
          "name": "_contract",
          "type": "address"
        },
        {
          "indexed": false,
          "name": "_address",
          "type": "address"
        }
      ],
      "name": "LogRemoveApprovedAddress",
      "type": "event"
    },
    {
      "constant": false,
      "inputs": [
        {
          "name": "_address",
          "type": "address"
        }
      ],
      "name": "addKycEnabledContract",
      "outputs": [],
      "payable": false,
      "stateMutability": "nonpayable",
      "type": "function"
    },
    {
      "constant": false,
      "inputs": [
        {
          "name": "_address",
          "type": "address"
        },
        {
          "name": "index",
          "type": "uint256"
        }
      ],
      "name": "removeKycEnabledContract",
      "outputs": [],
      "payable": false,
      "stateMutability": "nonpayable",
      "type": "function"
    },
    {
      "constant": false,
      "inputs": [
        {
          "name": "_address",
          "type": "address"
        }
      ],
      "name": "addAuthorizedAddress",
      "outputs": [],
      "payable": false,
      "stateMutability": "nonpayable",
      "type": "function"
    },
    {
      "constant": false,
      "inputs": [
        {
          "name": "_address",
          "type": "address"
        },
        {
          "name": "index",
          "type": "uint256"
        }
      ],
      "name": "removeAuthorizedAddress",
      "outputs": [],
      "payable": false,
      "stateMutability": "nonpayable",
      "type": "function"
    },
    {
      "constant": false,
      "inputs": [
        {
          "name": "_contract",
          "type": "address"
        },
        {
          "name": "_address",
          "type": "address"
        },
        {
          "name": "applicantId",
          "type": "string"
        },
        {
          "name": "checkId",
          "type": "string"
        },
        {
          "name": "v",
          "type": "uint8"
        },
        {
          "name": "r",
          "type": "bytes32"
        },
        {
          "name": "s",
          "type": "bytes32"
        }
      ],
      "name": "approveAddress",
      "outputs": [],
      "payable": false,
      "stateMutability": "nonpayable",
      "type": "function"
    },
    {
      "constant": false,
      "inputs": [
        {
          "name": "_contract",
          "type": "address"
        },
        {
          "name": "_address",
          "type": "address"
        },
        {
          "name": "index",
          "type": "uint256"
        }
      ],
      "name": "removeApprovedAddress",
      "outputs": [],
      "payable": false,
      "stateMutability": "nonpayable",
      "type": "function"
    },
    {
      "constant": true,
      "inputs": [
        {
          "name": "_contract",
          "type": "address"
        },
        {
          "name": "_address",
          "type": "address"
        }
      ],
      "name": "isVerified",
      "outputs": [
        {
          "name": "",
          "type": "bool"
        }
      ],
      "payable": false,
      "stateMutability": "view",
      "type": "function"
    },
    {
      "constant": true,
      "inputs": [
        {
          "name": "_contract",
          "type": "address"
        },
        {
          "name": "_address",
          "type": "address"
        }
      ],
      "name": "getKYCEnabledContractUser",
      "outputs": [
        {
          "name": "",
          "type": "bool"
        },
        {
          "name": "",
          "type": "string"
        },
        {
          "name": "",
          "type": "string"
        },
        {
          "name": "",
          "type": "uint8"
        },
        {
          "name": "",
          "type": "bytes32"
        },
        {
          "name": "",
          "type": "bytes32"
        }
      ],
      "payable": false,
      "stateMutability": "view",
      "type": "function"
    }
  ],
  "bytecode": "0x606060405234156200001057600080fd5b336000806101000a81548173ffffffffffffffffffffffffffffffffffffffff021916908373ffffffffffffffffffffffffffffffffffffffff1602179055506200006f33620000756401000000000262000e3c176401000000009004565b620002a4565b6000809054906101000a900473ffffffffffffffffffffffffffffffffffffffff1673ffffffffffffffffffffffffffffffffffffffff163373ffffffffffffffffffffffffffffffffffffffff16141515620000d157600080fd5b600160008273ffffffffffffffffffffffffffffffffffffffff1673ffffffffffffffffffffffffffffffffffffffff16815260200190815260200160002060009054906101000a900460ff161515156200012b57600080fd5b60018060008373ffffffffffffffffffffffffffffffffffffffff1673ffffffffffffffffffffffffffffffffffffffff16815260200190815260200160002060006101000a81548160ff021916908315150217905550600280548060010182816200019891906200024d565b9160005260206000209001600083909190916101000a81548173ffffffffffffffffffffffffffffffffffffffff021916908373ffffffffffffffffffffffffffffffffffffffff160217905550507f0f69157a6d24496c9187fd09e0b02f03630941feda2668aacec7b9027f47975f81604051808273ffffffffffffffffffffffffffffffffffffffff1673ffffffffffffffffffffffffffffffffffffffff16815260200191505060405180910390a150565b81548183558181151162000277578183600052602060002091820191016200027691906200027c565b5b505050565b620002a191905b808211156200029d57600081600090555060010162000283565b5090565b90565b611fd080620002b46000396000f3006060604052600436106100c4576000357c0100000000000000000000000000000000000000000000000000000000900463ffffffff16806236bbe3146100c9578063058e9f8f1461010257806308494ae2146102755780630b9aa067146102c657806342f1181e146103365780634d853ee51461036f578063560f2b64146103c45780637e9faa8814610427578063819c95b814610469578063b9181611146104ca578063c30a82db1461051b578063d97803311461061f578063fa3bddb214610682575b600080fd5b34156100d457600080fd5b610100600480803573ffffffffffffffffffffffffffffffffffffffff169060200190919050506106c4565b005b341561010d57600080fd5b610158600480803573ffffffffffffffffffffffffffffffffffffffff1690602001909190803573ffffffffffffffffffffffffffffffffffffffff169060200190919050506108e8565b604051808715151515815260200180602001806020018660ff1660ff16815260200185600019166000191681526020018460001916600019168152602001838103835288818151815260200191508051906020019080838360005b838110156101ce5780820151818401526020810190506101b3565b50505050905090810190601f1680156101fb5780820380516001836020036101000a031916815260200191505b50838103825287818151815260200191508051906020019080838360005b83811015610234578082015181840152602081019050610219565b50505050905090810190601f1680156102615780820380516001836020036101000a031916815260200191505b509850505050505050505060405180910390f35b341561028057600080fd5b6102ac600480803573ffffffffffffffffffffffffffffffffffffffff16906020019091905050610d77565b604051808215151515815260200191505060405180910390f35b34156102d157600080fd5b61031c600480803573ffffffffffffffffffffffffffffffffffffffff1690602001909190803573ffffffffffffffffffffffffffffffffffffffff16906020019091905050610da2565b604051808215151515815260200191505060405180910390f35b341561034157600080fd5b61036d600480803573ffffffffffffffffffffffffffffffffffffffff16906020019091905050610e3c565b005b341561037a57600080fd5b610382611010565b604051808273ffffffffffffffffffffffffffffffffffffffff1673ffffffffffffffffffffffffffffffffffffffff16815260200191505060405180910390f35b34156103cf57600080fd5b6103e56004808035906020019091905050611035565b604051808273ffffffffffffffffffffffffffffffffffffffff1673ffffffffffffffffffffffffffffffffffffffff16815260200191505060405180910390f35b341561043257600080fd5b610467600480803573ffffffffffffffffffffffffffffffffffffffff16906020019091908035906020019091905050611074565b005b341561047457600080fd5b6104c8600480803573ffffffffffffffffffffffffffffffffffffffff1690602001909190803573ffffffffffffffffffffffffffffffffffffffff169060200190919080359060200190919050506112ce565b005b34156104d557600080fd5b610501600480803573ffffffffffffffffffffffffffffffffffffffff16906020019091905050611684565b604051808215151515815260200191505060405180910390f35b341561052657600080fd5b61061d600480803573ffffffffffffffffffffffffffffffffffffffff1690602001909190803573ffffffffffffffffffffffffffffffffffffffff1690602001909190803590602001908201803590602001908080601f0160208091040260200160405190810160405280939291908181526020018383808284378201915050505050509190803590602001908201803590602001908080601f0160208091040260200160405190810160405280939291908181526020018383808284378201915050505050509190803560ff1690602001909190803560001916906020019091908035600019169060200190919050506116a4565b005b341561062a57600080fd5b6106406004808035906020019091905050611c5d565b604051808273ffffffffffffffffffffffffffffffffffffffff1673ffffffffffffffffffffffffffffffffffffffff16815260200191505060405180910390f35b341561068d57600080fd5b6106c2600480803573ffffffffffffffffffffffffffffffffffffffff16906020019091908035906020019091905050611c9c565b005b806000813b90506000811115156106da57600080fd5b600160003373ffffffffffffffffffffffffffffffffffffffff1673ffffffffffffffffffffffffffffffffffffffff16815260200190815260200160002060009054906101000a900460ff16151561073257600080fd5b600360008473ffffffffffffffffffffffffffffffffffffffff1673ffffffffffffffffffffffffffffffffffffffff16815260200190815260200160002060020160009054906101000a900460ff1615151561078e57600080fd5b600480548060010182816107a29190611ebf565b9160005260206000209001600085909190916101000a81548173ffffffffffffffffffffffffffffffffffffffff021916908373ffffffffffffffffffffffffffffffffffffffff160217905550506001600360008573ffffffffffffffffffffffffffffffffffffffff1673ffffffffffffffffffffffffffffffffffffffff16815260200190815260200160002060020160006101000a81548160ff0219169083151502179055507f63e5b52115369cf88f5ef26d143eec960080c5449a8cfaa48acb2f3b15f5ba188333604051808373ffffffffffffffffffffffffffffffffffffffff1673ffffffffffffffffffffffffffffffffffffffff1681526020018273ffffffffffffffffffffffffffffffffffffffff1673ffffffffffffffffffffffffffffffffffffffff1681526020019250505060405180910390a1505050565b60006108f2611eeb565b6108fa611eeb565b6000806000600360008973ffffffffffffffffffffffffffffffffffffffff1673ffffffffffffffffffffffffffffffffffffffff16815260200190815260200160002060000160008873ffffffffffffffffffffffffffffffffffffffff1673ffffffffffffffffffffffffffffffffffffffff16815260200190815260200160002060000160149054906101000a900460ff16600360008a73ffffffffffffffffffffffffffffffffffffffff1673ffffffffffffffffffffffffffffffffffffffff16815260200190815260200160002060000160008973ffffffffffffffffffffffffffffffffffffffff1673ffffffffffffffffffffffffffffffffffffffff168152602001908152602001600020600101600360008b73ffffffffffffffffffffffffffffffffffffffff1673ffffffffffffffffffffffffffffffffffffffff16815260200190815260200160002060000160008a73ffffffffffffffffffffffffffffffffffffffff1673ffffffffffffffffffffffffffffffffffffffff168152602001908152602001600020600201600360008c73ffffffffffffffffffffffffffffffffffffffff1673ffffffffffffffffffffffffffffffffffffffff16815260200190815260200160002060000160008b73ffffffffffffffffffffffffffffffffffffffff1673ffffffffffffffffffffffffffffffffffffffff16815260200190815260200160002060030160009054906101000a900460ff16600360008d73ffffffffffffffffffffffffffffffffffffffff1673ffffffffffffffffffffffffffffffffffffffff16815260200190815260200160002060000160008c73ffffffffffffffffffffffffffffffffffffffff1673ffffffffffffffffffffffffffffffffffffffff16815260200190815260200160002060040154600360008e73ffffffffffffffffffffffffffffffffffffffff1673ffffffffffffffffffffffffffffffffffffffff16815260200190815260200160002060000160008d73ffffffffffffffffffffffffffffffffffffffff1673ffffffffffffffffffffffffffffffffffffffff16815260200190815260200160002060050154848054600181600116156101000203166002900480601f016020809104026020016040519081016040528092919081815260200182805460018160011615610100020316600290048015610cbe5780601f10610c9357610100808354040283529160200191610cbe565b820191906000526020600020905b815481529060010190602001808311610ca157829003601f168201915b50505050509450838054600181600116156101000203166002900480601f016020809104026020016040519081016040528092919081815260200182805460018160011615610100020316600290048015610d5a5780601f10610d2f57610100808354040283529160200191610d5a565b820191906000526020600020905b815481529060010190602001808311610d3d57829003601f168201915b505050505093509550955095509550955095509295509295509295565b60036020528060005260406000206000915090508060020160009054906101000a900460ff16905081565b6000600360008473ffffffffffffffffffffffffffffffffffffffff1673ffffffffffffffffffffffffffffffffffffffff16815260200190815260200160002060000160008373ffffffffffffffffffffffffffffffffffffffff1673ffffffffffffffffffffffffffffffffffffffff16815260200190815260200160002060000160149054906101000a900460ff16905092915050565b6000809054906101000a900473ffffffffffffffffffffffffffffffffffffffff1673ffffffffffffffffffffffffffffffffffffffff163373ffffffffffffffffffffffffffffffffffffffff16141515610e9757600080fd5b600160008273ffffffffffffffffffffffffffffffffffffffff1673ffffffffffffffffffffffffffffffffffffffff16815260200190815260200160002060009054906101000a900460ff16151515610ef057600080fd5b60018060008373ffffffffffffffffffffffffffffffffffffffff1673ffffffffffffffffffffffffffffffffffffffff16815260200190815260200160002060006101000a81548160ff02191690831515021790555060028054806001018281610f5b9190611ebf565b9160005260206000209001600083909190916101000a81548173ffffffffffffffffffffffffffffffffffffffff021916908373ffffffffffffffffffffffffffffffffffffffff160217905550507f0f69157a6d24496c9187fd09e0b02f03630941feda2668aacec7b9027f47975f81604051808273ffffffffffffffffffffffffffffffffffffffff1673ffffffffffffffffffffffffffffffffffffffff16815260200191505060405180910390a150565b6000809054906101000a900473ffffffffffffffffffffffffffffffffffffffff1681565b60028181548110151561104457fe5b90600052602060002090016000915054906101000a900473ffffffffffffffffffffffffffffffffffffffff1681565b600160003373ffffffffffffffffffffffffffffffffffffffff1673ffffffffffffffffffffffffffffffffffffffff16815260200190815260200160002060009054906101000a900460ff1615156110cc57600080fd5b600360008373ffffffffffffffffffffffffffffffffffffffff1673ffffffffffffffffffffffffffffffffffffffff16815260200190815260200160002060020160009054906101000a900460ff16151561112757600080fd5b8173ffffffffffffffffffffffffffffffffffffffff1660048281548110151561114d57fe5b906000526020600020900160009054906101000a900473ffffffffffffffffffffffffffffffffffffffff1673ffffffffffffffffffffffffffffffffffffffff1614151561119b57600080fd5b6004818154811015156111aa57fe5b906000526020600020900160006101000a81549073ffffffffffffffffffffffffffffffffffffffff02191690556000600360008473ffffffffffffffffffffffffffffffffffffffff1673ffffffffffffffffffffffffffffffffffffffff16815260200190815260200160002060020160006101000a81548160ff0219169083151502179055507fa9b722acca5277b05713cca808aec248146f02d97b9334063b9e5b1ff1d2453b8233604051808373ffffffffffffffffffffffffffffffffffffffff1673ffffffffffffffffffffffffffffffffffffffff1681526020018273ffffffffffffffffffffffffffffffffffffffff1673ffffffffffffffffffffffffffffffffffffffff1681526020019250505060405180910390a15050565b600160003373ffffffffffffffffffffffffffffffffffffffff1673ffffffffffffffffffffffffffffffffffffffff16815260200190815260200160002060009054906101000a900460ff16151561132657600080fd5b600360008473ffffffffffffffffffffffffffffffffffffffff1673ffffffffffffffffffffffffffffffffffffffff16815260200190815260200160002060020160009054906101000a900460ff16151561138157600080fd5b600360008473ffffffffffffffffffffffffffffffffffffffff1673ffffffffffffffffffffffffffffffffffffffff16815260200190815260200160002060000160008373ffffffffffffffffffffffffffffffffffffffff1673ffffffffffffffffffffffffffffffffffffffff16815260200190815260200160002060000160149054906101000a900460ff16151561141c57600080fd5b8173ffffffffffffffffffffffffffffffffffffffff16600360008573ffffffffffffffffffffffffffffffffffffffff1673ffffffffffffffffffffffffffffffffffffffff1681526020019081526020016000206001018281548110151561148257fe5b906000526020600020900160009054906101000a900473ffffffffffffffffffffffffffffffffffffffff1673ffffffffffffffffffffffffffffffffffffffff161415156114d057600080fd5b6000600360008573ffffffffffffffffffffffffffffffffffffffff1673ffffffffffffffffffffffffffffffffffffffff16815260200190815260200160002060000160008473ffffffffffffffffffffffffffffffffffffffff1673ffffffffffffffffffffffffffffffffffffffff16815260200190815260200160002060000160146101000a81548160ff021916908315150217905550600360008473ffffffffffffffffffffffffffffffffffffffff1673ffffffffffffffffffffffffffffffffffffffff168152602001908152602001600020600101818154811015156115ba57fe5b906000526020600020900160006101000a81549073ffffffffffffffffffffffffffffffffffffffff02191690557f0108ffc0cff862588a042bab94fe1faab516772b382a056638543e8e28007e258383604051808373ffffffffffffffffffffffffffffffffffffffff1673ffffffffffffffffffffffffffffffffffffffff1681526020018273ffffffffffffffffffffffffffffffffffffffff1673ffffffffffffffffffffffffffffffffffffffff1681526020019250505060405180910390a1505050565b60016020528060005260406000206000915054906101000a900460ff1681565b6000600160003373ffffffffffffffffffffffffffffffffffffffff1673ffffffffffffffffffffffffffffffffffffffff16815260200190815260200160002060009054906101000a900460ff1615156116fe57600080fd5b600360008973ffffffffffffffffffffffffffffffffffffffff1673ffffffffffffffffffffffffffffffffffffffff16815260200190815260200160002060020160009054906101000a900460ff16151561175957600080fd5b600360008973ffffffffffffffffffffffffffffffffffffffff1673ffffffffffffffffffffffffffffffffffffffff16815260200190815260200160002060000160008873ffffffffffffffffffffffffffffffffffffffff1673ffffffffffffffffffffffffffffffffffffffff16815260200190815260200160002060000160149054906101000a900460ff161515156117f557600080fd5b856040518082805190602001908083835b60208310151561182b5780518252602082019150602081019050602083039250611806565b6001836020036101000a03801982511681845116808217855250505050505090500191505060405180910390209050600181858585604051600081526020016040526040518085600019166000191681526020018460ff1660ff1681526020018360001916600019168152602001826000191660001916815260200194505050505060206040516020810390808403906000865af115156118cb57600080fd5b50506020604051035173ffffffffffffffffffffffffffffffffffffffff168773ffffffffffffffffffffffffffffffffffffffff1614151561190d57600080fd5b60e0604051908101604052808873ffffffffffffffffffffffffffffffffffffffff1681526020016001151581526020018781526020018681526020018560ff168152602001846000191681526020018360001916815250600360008a73ffffffffffffffffffffffffffffffffffffffff1673ffffffffffffffffffffffffffffffffffffffff16815260200190815260200160002060000160008973ffffffffffffffffffffffffffffffffffffffff1673ffffffffffffffffffffffffffffffffffffffff16815260200190815260200160002060008201518160000160006101000a81548173ffffffffffffffffffffffffffffffffffffffff021916908373ffffffffffffffffffffffffffffffffffffffff16021790555060208201518160000160146101000a81548160ff0219169083151502179055506040820151816001019080519060200190611a67929190611eff565b506060820151816002019080519060200190611a84929190611eff565b5060808201518160030160006101000a81548160ff021916908360ff16021790555060a0820151816004019060001916905560c08201518160050190600019169055905050600360008973ffffffffffffffffffffffffffffffffffffffff1673ffffffffffffffffffffffffffffffffffffffff1681526020019081526020016000206001018054806001018281611b1d9190611ebf565b9160005260206000209001600089909190916101000a81548173ffffffffffffffffffffffffffffffffffffffff021916908373ffffffffffffffffffffffffffffffffffffffff160217905550507fcabe7f3245ff2039199a1bd34469cc126b8ab104d6b6da866f42a0d0605bb69588886001600360008d73ffffffffffffffffffffffffffffffffffffffff1673ffffffffffffffffffffffffffffffffffffffff1681526020019081526020016000206001018054905003604051808473ffffffffffffffffffffffffffffffffffffffff1673ffffffffffffffffffffffffffffffffffffffff1681526020018373ffffffffffffffffffffffffffffffffffffffff1673ffffffffffffffffffffffffffffffffffffffff168152602001828152602001935050505060405180910390a15050505050505050565b600481815481101515611c6c57fe5b90600052602060002090016000915054906101000a900473ffffffffffffffffffffffffffffffffffffffff1681565b6000809054906101000a900473ffffffffffffffffffffffffffffffffffffffff1673ffffffffffffffffffffffffffffffffffffffff163373ffffffffffffffffffffffffffffffffffffffff16141515611cf757600080fd5b600160008373ffffffffffffffffffffffffffffffffffffffff1673ffffffffffffffffffffffffffffffffffffffff16815260200190815260200160002060009054906101000a900460ff161515611d4f57600080fd5b8173ffffffffffffffffffffffffffffffffffffffff16600282815481101515611d7557fe5b906000526020600020900160009054906101000a900473ffffffffffffffffffffffffffffffffffffffff1673ffffffffffffffffffffffffffffffffffffffff16141515611dc357600080fd5b6000600160008473ffffffffffffffffffffffffffffffffffffffff1673ffffffffffffffffffffffffffffffffffffffff16815260200190815260200160002060006101000a81548160ff021916908315150217905550600281815481101515611e2a57fe5b906000526020600020900160006101000a81549073ffffffffffffffffffffffffffffffffffffffff02191690557f51ae984b43fa12e901d55db05e78bf85fe83236fbacce5277f5483f5786ca3db82604051808273ffffffffffffffffffffffffffffffffffffffff1673ffffffffffffffffffffffffffffffffffffffff16815260200191505060405180910390a15050565b815481835581811511611ee657818360005260206000209182019101611ee59190611f7f565b5b505050565b602060405190810160405280600081525090565b828054600181600116156101000203166002900490600052602060002090601f016020900481019282601f10611f4057805160ff1916838001178555611f6e565b82800160010185558215611f6e579182015b82811115611f6d578251825591602001919060010190611f52565b5b509050611f7b9190611f7f565b5090565b611fa191905b80821115611f9d576000816000905550600101611f85565b5090565b905600a165627a7a72305820477da9f0f34c1aa75aee7459569576ed4fd555642d60ad9ea7954fc4c9f1fa450029",
  "source": "pragma solidity 0.4.21;\n\n// KYC manager contract allowing authorized addresses to add/update/remove approved addresses\n// Approved addresses can be accessed from House/Gaming contracts\ncontract KycManager {\n\n    // Structs\n    struct User {\n        address _address;\n        bool approved;\n        string applicantId;\n        string checkId;\n        uint8 v;\n        bytes32 r;\n        bytes32 s;\n    }\n\n    struct KycEnabledContract {\n        // User mapping\n        mapping (address => User) users;\n        // List of approved users for contract\n        address[] approvedAddressList;\n        // Exists\n        bool exists;\n    }\n\n    // Variables\n    address public founder;\n\n    mapping (address => bool) public authorized;\n    address[] public authorizedAddressList;\n\n    mapping(address => KycEnabledContract) public kycEnabledContracts;\n    address[] public kycEnabledContractList;\n\n    // Events\n    event LogNewKycEnabledContract (\n        address _address,\n        address authorized\n    );\n\n    event LogRemovedKycEnabledContract(\n        address _address,\n        address authorized\n    );\n\n    event LogNewAuthorizedAddress (address _address);\n\n    event LogRemoveAuthorizedAddress (address _address);\n\n    event LogNewApprovedAddress (\n        address _contract,\n        address _address,\n        uint index\n    );\n\n    event LogRemoveApprovedAddress (\n        address _contract,\n        address _address\n    );\n\n    function KycManager()\n    public {\n        founder = msg.sender;\n        addAuthorizedAddress(msg.sender);\n    }\n\n    // Allows only founder to execute a function\n    modifier onlyFounder() {\n        require(msg.sender == founder);\n        _;\n    }\n\n    // Allows only authorized addresses to execute a function\n    modifier onlyAuthorized() {\n        require(authorized[msg.sender]);\n        _;\n    }\n\n    // Allows function to execute only if passed address is of a contract\n    modifier isContract(address _address) {\n        uint size;\n        assembly { size := extcodesize(_address) }\n        require(size > 0);\n        _;\n    }\n\n    // Allows authorized addresses to add a KYC enabled contract\n    function addKycEnabledContract(address _address)\n    public\n    isContract(_address)\n    onlyAuthorized {\n        require(!kycEnabledContracts[_address].exists);\n        kycEnabledContractList.push(_address);\n        kycEnabledContracts[_address].exists = true;\n        emit LogNewKycEnabledContract(_address, msg.sender);\n    }\n\n    // Allows authorized addresses to remove a KYC enabled contract\n    function removeKycEnabledContract(\n        address _address,\n        uint index\n    )\n    public\n    onlyAuthorized {\n        require(kycEnabledContracts[_address].exists);\n        require(kycEnabledContractList[index] == _address);\n        delete kycEnabledContractList[index];\n        kycEnabledContracts[_address].exists = false;\n        emit LogRemovedKycEnabledContract(_address, msg.sender);\n    }\n\n    // Adds an authorized address\n    function addAuthorizedAddress(\n        address _address\n    )\n    public\n    onlyFounder {\n        require(!authorized[_address]);\n        authorized[_address] = true;\n        authorizedAddressList.push(_address);\n        emit LogNewAuthorizedAddress(_address);\n    }\n\n    // Removes an authorized address\n    function removeAuthorizedAddress(\n        address _address,\n        uint index\n    )\n    public\n    onlyFounder {\n        require(authorized[_address]);\n        require(authorizedAddressList[index] == _address);\n        authorized[_address] = false;\n        delete authorizedAddressList[index];\n        emit LogRemoveAuthorizedAddress(_address);\n    }\n\n    // Approves a user address after KYC checks from onfido backend\n    // checkId would be the checkId for a successful verification from the onfido backend\n    // Signed message would be of the format sgn(sha3(applicantId))\n    function approveAddress(\n        address _contract,\n        address _address,\n        string applicantId,\n        string checkId,\n        uint8 v,\n        bytes32 r,\n        bytes32 s\n    )\n    public\n    onlyAuthorized {\n        require(kycEnabledContracts[_contract].exists);\n        require(!kycEnabledContracts[_contract].users[_address].approved);\n        bytes32 hash = keccak256(applicantId);\n        require(_address == ecrecover(hash, v, r, s));\n        kycEnabledContracts[_contract].users[_address] = User({\n            _address:      _address,\n            approved:      true,\n            applicantId:   applicantId,\n            checkId:       checkId,\n            v:             v,\n            r:             r,\n            s:             s\n        });\n        kycEnabledContracts[_contract].approvedAddressList.push(_address);\n        emit LogNewApprovedAddress(_contract, _address, kycEnabledContracts[_contract].approvedAddressList.length - 1);\n    }\n\n    // Removes an address from the KYC approved list\n    function removeApprovedAddress(\n        address _contract,\n        address _address,\n        uint index\n    )\n    public\n    onlyAuthorized {\n        require(kycEnabledContracts[_contract].exists);\n        require(kycEnabledContracts[_contract].users[_address].approved);\n        require(kycEnabledContracts[_contract].approvedAddressList[index] == _address);\n\n        kycEnabledContracts[_contract].users[_address].approved = false;\n        delete kycEnabledContracts[_contract].approvedAddressList[index];\n        emit LogRemoveApprovedAddress(_contract, _address);\n    }\n\n    // Returns whether an address has been verified for a contract.\n    // Works even if KYC enabled contract has been removed from this contract.\n    function isVerified(\n        address _contract,\n        address _address\n    )\n    public\n    view\n    returns (bool) {\n        return kycEnabledContracts[_contract].users[_address].approved;\n    }\n\n    // Returns a KYC enabled contract user.\n    function getKYCEnabledContractUser(\n        address _contract,\n        address _address\n    )\n    public\n    view\n    returns (bool, string, string, uint8, bytes32, bytes32) {\n        return (kycEnabledContracts[_contract].users[_address].approved,\n                kycEnabledContracts[_contract].users[_address].applicantId,\n                kycEnabledContracts[_contract].users[_address].checkId,\n                kycEnabledContracts[_contract].users[_address].v,\n                kycEnabledContracts[_contract].users[_address].r,\n                kycEnabledContracts[_contract].users[_address].s);\n    }\n\n}\n",
  "sourcePath": "/srv/platform-contracts/contracts/Kyc/KycManager.sol",
  "compiler": {
    "name": "solc",
    "version": "0.4.21+commit.dfe3193c.Emscripten.clang"
  },
  "schemaVersion": "2.0.0",
  "updatedAt": "2018-06-04T15:40:06.133Z"
}