{
  "contractName": "SlotsChannelManager",
  "abi": [
    {
      "constant": true,
      "inputs": [],
      "name": "name",
      "outputs": [
        {
          "name": "",
          "type": "bytes32"
        }
      ],
      "payable": false,
      "stateMutability": "view",
      "type": "function"
    },
    {
      "constant": true,
      "inputs": [],
      "name": "isHouseOffering",
      "outputs": [
        {
          "name": "",
          "type": "bool"
        }
      ],
      "payable": false,
      "stateMutability": "view",
      "type": "function"
    },
    {
      "constant": true,
      "inputs": [
        {
          "name": "self",
          "type": "string"
        },
        {
          "name": "startIndex",
          "type": "uint256"
        }
      ],
      "name": "toBytes32",
      "outputs": [
        {
          "name": "b",
          "type": "bytes32"
        }
      ],
      "payable": false,
      "stateMutability": "pure",
      "type": "function"
    },
    {
      "constant": true,
      "inputs": [],
      "name": "slotsChannelFinalizer",
      "outputs": [
        {
          "name": "",
          "type": "address"
        }
      ],
      "payable": false,
      "stateMutability": "view",
      "type": "function"
    },
    {
      "constant": true,
      "inputs": [
        {
          "name": "_string",
          "type": "string"
        }
      ],
      "name": "strLen",
      "outputs": [
        {
          "name": "",
          "type": "uint256"
        }
      ],
      "payable": false,
      "stateMutability": "pure",
      "type": "function"
    },
    {
      "constant": true,
      "inputs": [
        {
          "name": "x",
          "type": "bytes32"
        }
      ],
      "name": "bytes32ToString",
      "outputs": [
        {
          "name": "",
          "type": "string"
        }
      ],
      "payable": false,
      "stateMutability": "pure",
      "type": "function"
    },
    {
      "constant": true,
      "inputs": [
        {
          "name": "v",
          "type": "uint256"
        }
      ],
      "name": "uintToBytes",
      "outputs": [
        {
          "name": "ret",
          "type": "bytes32"
        }
      ],
      "payable": false,
      "stateMutability": "pure",
      "type": "function"
    },
    {
      "constant": true,
      "inputs": [],
      "name": "channelCount",
      "outputs": [
        {
          "name": "",
          "type": "uint256"
        }
      ],
      "payable": false,
      "stateMutability": "view",
      "type": "function"
    },
    {
      "constant": true,
      "inputs": [
        {
          "name": "char",
          "type": "bytes1"
        }
      ],
      "name": "toByte",
      "outputs": [
        {
          "name": "c",
          "type": "bytes1"
        }
      ],
      "payable": false,
      "stateMutability": "pure",
      "type": "function"
    },
    {
      "constant": true,
      "inputs": [
        {
          "name": "",
          "type": "bytes32"
        },
        {
          "name": "",
          "type": "bool"
        }
      ],
      "name": "finalBalances",
      "outputs": [
        {
          "name": "",
          "type": "uint256"
        }
      ],
      "payable": false,
      "stateMutability": "view",
      "type": "function"
    },
    {
      "constant": true,
      "inputs": [],
      "name": "currentSession",
      "outputs": [
        {
          "name": "",
          "type": "uint256"
        }
      ],
      "payable": false,
      "stateMutability": "view",
      "type": "function"
    },
    {
      "constant": true,
      "inputs": [],
      "name": "houseAddress",
      "outputs": [
        {
          "name": "",
          "type": "address"
        }
      ],
      "payable": false,
      "stateMutability": "view",
      "type": "function"
    },
    {
      "constant": true,
      "inputs": [
        {
          "name": "b",
          "type": "bool"
        }
      ],
      "name": "boolToString",
      "outputs": [
        {
          "name": "",
          "type": "string"
        }
      ],
      "payable": false,
      "stateMutability": "pure",
      "type": "function"
    },
    {
      "constant": true,
      "inputs": [
        {
          "name": "s",
          "type": "string"
        },
        {
          "name": "index",
          "type": "uint256"
        }
      ],
      "name": "getCharAt",
      "outputs": [
        {
          "name": "",
          "type": "string"
        }
      ],
      "payable": false,
      "stateMutability": "pure",
      "type": "function"
    },
    {
      "constant": true,
      "inputs": [
        {
          "name": "s1",
          "type": "string"
        },
        {
          "name": "s2",
          "type": "string"
        }
      ],
      "name": "strCompare",
      "outputs": [
        {
          "name": "",
          "type": "bool"
        }
      ],
      "payable": false,
      "stateMutability": "pure",
      "type": "function"
    },
    {
      "constant": true,
      "inputs": [
        {
          "name": "n",
          "type": "uint256"
        }
      ],
      "name": "uintToString",
      "outputs": [
        {
          "name": "",
          "type": "string"
        }
      ],
      "payable": false,
      "stateMutability": "pure",
      "type": "function"
    },
    {
      "constant": true,
      "inputs": [
        {
          "name": "",
          "type": "bytes32"
        },
        {
          "name": "",
          "type": "bool"
        }
      ],
      "name": "channelDeposits",
      "outputs": [
        {
          "name": "",
          "type": "uint256"
        }
      ],
      "payable": false,
      "stateMutability": "view",
      "type": "function"
    },
    {
      "constant": true,
      "inputs": [
        {
          "name": "b",
          "type": "bytes32"
        }
      ],
      "name": "bytes32ToBool",
      "outputs": [
        {
          "name": "",
          "type": "bool"
        }
      ],
      "payable": false,
      "stateMutability": "pure",
      "type": "function"
    },
    {
      "constant": true,
      "inputs": [
        {
          "name": "",
          "type": "address"
        },
        {
          "name": "",
          "type": "uint256"
        }
      ],
      "name": "depositedTokens",
      "outputs": [
        {
          "name": "",
          "type": "uint256"
        }
      ],
      "payable": false,
      "stateMutability": "view",
      "type": "function"
    },
    {
      "constant": true,
      "inputs": [
        {
          "name": "",
          "type": "bytes32"
        },
        {
          "name": "",
          "type": "bool"
        }
      ],
      "name": "players",
      "outputs": [
        {
          "name": "",
          "type": "address"
        }
      ],
      "payable": false,
      "stateMutability": "view",
      "type": "function"
    },
    {
      "inputs": [
        {
          "name": "_house",
          "type": "address"
        },
        {
          "name": "_token",
          "type": "address"
        },
        {
          "name": "_slotsHelper",
          "type": "address"
        },
        {
          "name": "_slotsChannelFinalizer",
          "type": "address"
        },
        {
          "name": "_kycManager",
          "type": "address"
        }
      ],
      "payable": false,
      "stateMutability": "nonpayable",
      "type": "constructor"
    },
    {
      "anonymous": false,
      "inputs": [
        {
          "indexed": false,
          "name": "id",
          "type": "bytes32"
        },
        {
          "indexed": true,
          "name": "user",
          "type": "address"
        },
        {
          "indexed": false,
          "name": "initialDeposit",
          "type": "uint256"
        },
        {
          "indexed": false,
          "name": "timestamp",
          "type": "uint256"
        }
      ],
      "name": "LogNewChannel",
      "type": "event"
    },
    {
      "anonymous": false,
      "inputs": [
        {
          "indexed": true,
          "name": "id",
          "type": "bytes32"
        },
        {
          "indexed": false,
          "name": "isHouse",
          "type": "bool"
        }
      ],
      "name": "LogChannelFinalized",
      "type": "event"
    },
    {
      "anonymous": false,
      "inputs": [
        {
          "indexed": true,
          "name": "id",
          "type": "bytes32"
        },
        {
          "indexed": false,
          "name": "user",
          "type": "address"
        },
        {
          "indexed": false,
          "name": "finalUserHash",
          "type": "string"
        }
      ],
      "name": "LogChannelDeposit",
      "type": "event"
    },
    {
      "anonymous": false,
      "inputs": [
        {
          "indexed": true,
          "name": "id",
          "type": "bytes32"
        },
        {
          "indexed": false,
          "name": "user",
          "type": "address"
        },
        {
          "indexed": false,
          "name": "finalSeedHash",
          "type": "string"
        },
        {
          "indexed": false,
          "name": "finalReelHash",
          "type": "string"
        }
      ],
      "name": "LogChannelActivate",
      "type": "event"
    },
    {
      "anonymous": false,
      "inputs": [
        {
          "indexed": true,
          "name": "id",
          "type": "bytes32"
        },
        {
          "indexed": false,
          "name": "isHouse",
          "type": "bool"
        },
        {
          "indexed": false,
          "name": "timestamp",
          "type": "uint256"
        }
      ],
      "name": "LogClaimChannelTokens",
      "type": "event"
    },
    {
      "anonymous": false,
      "inputs": [
        {
          "indexed": false,
          "name": "_address",
          "type": "address"
        },
        {
          "indexed": false,
          "name": "amount",
          "type": "uint256"
        },
        {
          "indexed": false,
          "name": "session",
          "type": "uint256"
        },
        {
          "indexed": false,
          "name": "balance",
          "type": "uint256"
        }
      ],
      "name": "LogDeposit",
      "type": "event"
    },
    {
      "anonymous": false,
      "inputs": [
        {
          "indexed": false,
          "name": "_address",
          "type": "address"
        },
        {
          "indexed": false,
          "name": "amount",
          "type": "uint256"
        },
        {
          "indexed": false,
          "name": "session",
          "type": "uint256"
        },
        {
          "indexed": false,
          "name": "balance",
          "type": "uint256"
        }
      ],
      "name": "LogWithdraw",
      "type": "event"
    },
    {
      "constant": false,
      "inputs": [
        {
          "name": "initialDeposit",
          "type": "uint256"
        }
      ],
      "name": "createChannel",
      "outputs": [],
      "payable": false,
      "stateMutability": "nonpayable",
      "type": "function"
    },
    {
      "constant": false,
      "inputs": [
        {
          "name": "amount",
          "type": "uint256"
        },
        {
          "name": "session",
          "type": "uint256"
        }
      ],
      "name": "houseDeposit",
      "outputs": [
        {
          "name": "",
          "type": "bool"
        }
      ],
      "payable": false,
      "stateMutability": "nonpayable",
      "type": "function"
    },
    {
      "constant": false,
      "inputs": [],
      "name": "withdrawPreviousSessionTokens",
      "outputs": [
        {
          "name": "",
          "type": "bool"
        }
      ],
      "payable": false,
      "stateMutability": "nonpayable",
      "type": "function"
    },
    {
      "constant": false,
      "inputs": [],
      "name": "emergencyWithdrawCurrentSessionTokens",
      "outputs": [
        {
          "name": "",
          "type": "bool"
        }
      ],
      "payable": false,
      "stateMutability": "nonpayable",
      "type": "function"
    },
    {
      "constant": false,
      "inputs": [
        {
          "name": "amount",
          "type": "uint256"
        }
      ],
      "name": "deposit",
      "outputs": [
        {
          "name": "",
          "type": "bool"
        }
      ],
      "payable": false,
      "stateMutability": "nonpayable",
      "type": "function"
    },
    {
      "constant": false,
      "inputs": [
        {
          "name": "amount",
          "type": "uint256"
        },
        {
          "name": "session",
          "type": "uint256"
        }
      ],
      "name": "withdraw",
      "outputs": [
        {
          "name": "",
          "type": "bool"
        }
      ],
      "payable": false,
      "stateMutability": "nonpayable",
      "type": "function"
    },
    {
      "constant": false,
      "inputs": [
        {
          "name": "session",
          "type": "uint256"
        }
      ],
      "name": "setSession",
      "outputs": [
        {
          "name": "",
          "type": "bool"
        }
      ],
      "payable": false,
      "stateMutability": "nonpayable",
      "type": "function"
    },
    {
      "constant": false,
      "inputs": [
        {
          "name": "id",
          "type": "bytes32"
        },
        {
          "name": "_initialUserNumber",
          "type": "string"
        },
        {
          "name": "_finalUserHash",
          "type": "string"
        }
      ],
      "name": "depositChannel",
      "outputs": [
        {
          "name": "",
          "type": "bool"
        }
      ],
      "payable": false,
      "stateMutability": "nonpayable",
      "type": "function"
    },
    {
      "constant": false,
      "inputs": [
        {
          "name": "id",
          "type": "bytes32"
        }
      ],
      "name": "withdrawChannelDeposit",
      "outputs": [],
      "payable": false,
      "stateMutability": "nonpayable",
      "type": "function"
    },
    {
      "constant": false,
      "inputs": [
        {
          "name": "id",
          "type": "bytes32"
        },
        {
          "name": "_finalSeedHash",
          "type": "string"
        },
        {
          "name": "_finalReelHash",
          "type": "string"
        }
      ],
      "name": "activateChannel",
      "outputs": [
        {
          "name": "",
          "type": "bool"
        }
      ],
      "payable": false,
      "stateMutability": "nonpayable",
      "type": "function"
    },
    {
      "constant": false,
      "inputs": [
        {
          "name": "id",
          "type": "bytes32"
        },
        {
          "name": "userBalance",
          "type": "uint256"
        },
        {
          "name": "houseBalance",
          "type": "uint256"
        },
        {
          "name": "nonce",
          "type": "uint256"
        },
        {
          "name": "turn",
          "type": "bool"
        }
      ],
      "name": "setFinal",
      "outputs": [],
      "payable": false,
      "stateMutability": "nonpayable",
      "type": "function"
    },
    {
      "constant": false,
      "inputs": [
        {
          "name": "id",
          "type": "bytes32"
        }
      ],
      "name": "claim",
      "outputs": [],
      "payable": false,
      "stateMutability": "nonpayable",
      "type": "function"
    },
    {
      "constant": true,
      "inputs": [
        {
          "name": "_address",
          "type": "address"
        },
        {
          "name": "session",
          "type": "uint256"
        }
      ],
      "name": "balanceOf",
      "outputs": [
        {
          "name": "",
          "type": "uint256"
        }
      ],
      "payable": false,
      "stateMutability": "view",
      "type": "function"
    },
    {
      "constant": true,
      "inputs": [
        {
          "name": "id",
          "type": "bytes32"
        },
        {
          "name": "isHouse",
          "type": "bool"
        }
      ],
      "name": "channelBalanceOf",
      "outputs": [
        {
          "name": "",
          "type": "uint256"
        }
      ],
      "payable": false,
      "stateMutability": "view",
      "type": "function"
    },
    {
      "constant": true,
      "inputs": [
        {
          "name": "id",
          "type": "bytes32"
        },
        {
          "name": "hash",
          "type": "bytes32"
        },
        {
          "name": "sig",
          "type": "bytes"
        },
        {
          "name": "turn",
          "type": "bool"
        }
      ],
      "name": "checkSig",
      "outputs": [
        {
          "name": "",
          "type": "bool"
        }
      ],
      "payable": false,
      "stateMutability": "view",
      "type": "function"
    },
    {
      "constant": true,
      "inputs": [
        {
          "name": "_msg",
          "type": "bytes32"
        },
        {
          "name": "v",
          "type": "uint8"
        },
        {
          "name": "r",
          "type": "bytes32"
        },
        {
          "name": "s",
          "type": "bytes32"
        }
      ],
      "name": "getSigAddress",
      "outputs": [
        {
          "name": "",
          "type": "address"
        }
      ],
      "payable": false,
      "stateMutability": "pure",
      "type": "function"
    },
    {
      "constant": true,
      "inputs": [
        {
          "name": "id",
          "type": "bytes32"
        },
        {
          "name": "_address",
          "type": "address"
        }
      ],
      "name": "isParticipant",
      "outputs": [
        {
          "name": "",
          "type": "bool"
        }
      ],
      "payable": false,
      "stateMutability": "view",
      "type": "function"
    },
    {
      "constant": true,
      "inputs": [
        {
          "name": "id",
          "type": "bytes32"
        }
      ],
      "name": "getChannelInfo",
      "outputs": [
        {
          "name": "",
          "type": "address"
        },
        {
          "name": "",
          "type": "bool"
        },
        {
          "name": "",
          "type": "bool"
        },
        {
          "name": "",
          "type": "bool"
        },
        {
          "name": "",
          "type": "uint256"
        },
        {
          "name": "",
          "type": "uint256"
        },
        {
          "name": "",
          "type": "uint256"
        }
      ],
      "payable": false,
      "stateMutability": "view",
      "type": "function"
    },
    {
      "constant": true,
      "inputs": [
        {
          "name": "id",
          "type": "bytes32"
        }
      ],
      "name": "getChannelHashes",
      "outputs": [
        {
          "name": "",
          "type": "string"
        },
        {
          "name": "",
          "type": "string"
        },
        {
          "name": "",
          "type": "string"
        },
        {
          "name": "",
          "type": "string"
        }
      ],
      "payable": false,
      "stateMutability": "view",
      "type": "function"
    },
    {
      "constant": true,
      "inputs": [
        {
          "name": "id",
          "type": "bytes32"
        }
      ],
      "name": "getChannelFinalized",
      "outputs": [
        {
          "name": "",
          "type": "bool"
        },
        {
          "name": "",
          "type": "uint256"
        }
      ],
      "payable": false,
      "stateMutability": "view",
      "type": "function"
    },
    {
      "constant": true,
      "inputs": [
        {
          "name": "id",
          "type": "bytes32"
        },
        {
          "name": "isHouse",
          "type": "bool"
        }
      ],
      "name": "getPlayer",
      "outputs": [
        {
          "name": "",
          "type": "address"
        }
      ],
      "payable": false,
      "stateMutability": "view",
      "type": "function"
    },
    {
      "constant": true,
      "inputs": [
        {
          "name": "id",
          "type": "bytes32"
        }
      ],
      "name": "isChannelClosed",
      "outputs": [
        {
          "name": "",
          "type": "bool"
        }
      ],
      "payable": false,
      "stateMutability": "view",
      "type": "function"
    },
    {
      "constant": true,
      "inputs": [],
      "name": "getTime",
      "outputs": [
        {
          "name": "",
          "type": "uint256"
        }
      ],
      "payable": false,
      "stateMutability": "view",
      "type": "function"
    }
  ],
  "bytecode": "0x606060405234156200001057600080fd5b60405160a080620059568339810160405280805190602001909190805190602001909190805190602001909190805190602001909190805190602001909190505060008060008773ffffffffffffffffffffffffffffffffffffffff16141515156200007b57600080fd5b60008673ffffffffffffffffffffffffffffffffffffffff1614151515620000a257600080fd5b60008573ffffffffffffffffffffffffffffffffffffffff1614151515620000c957600080fd5b60008473ffffffffffffffffffffffffffffffffffffffff1614151515620000f057600080fd5b60008373ffffffffffffffffffffffffffffffffffffffff16141515156200011757600080fd5b866001806101000a81548173ffffffffffffffffffffffffffffffffffffffff021916908373ffffffffffffffffffffffffffffffffffffffff16021790555085600560006101000a81548173ffffffffffffffffffffffffffffffffffffffff021916908373ffffffffffffffffffffffffffffffffffffffff16021790555086600660006101000a81548173ffffffffffffffffffffffffffffffffffffffff021916908373ffffffffffffffffffffffffffffffffffffffff16021790555082600a60006101000a81548173ffffffffffffffffffffffffffffffffffffffff021916908373ffffffffffffffffffffffffffffffffffffffff160217905550600660009054906101000a900473ffffffffffffffffffffffffffffffffffffffff1673ffffffffffffffffffffffffffffffffffffffff1663d89454376040518163ffffffff167c0100000000000000000000000000000000000000000000000000000000028152600401606060405180830381600087803b1515620002a057600080fd5b5af11515620002ae57600080fd5b505050604051805190602001805190602001805190509050809250819350505060008273ffffffffffffffffffffffffffffffffffffffff1614151515620002f557600080fd5b60008173ffffffffffffffffffffffffffffffffffffffff16141515156200031c57600080fd5b81600760006101000a81548173ffffffffffffffffffffffffffffffffffffffff021916908373ffffffffffffffffffffffffffffffffffffffff16021790555080600860006101000a81548173ffffffffffffffffffffffffffffffffffffffff021916908373ffffffffffffffffffffffffffffffffffffffff16021790555084600960006101000a81548173ffffffffffffffffffffffffffffffffffffffff021916908373ffffffffffffffffffffffffffffffffffffffff16021790555083600260006101000a81548173ffffffffffffffffffffffffffffffffffffffff021916908373ffffffffffffffffffffffffffffffffffffffff160217905550600960009054906101000a900473ffffffffffffffffffffffffffffffffffffffff1673ffffffffffffffffffffffffffffffffffffffff166358c602a86040518163ffffffff167c0100000000000000000000000000000000000000000000000000000000028152600401602060405180830381600087803b1515620004a657600080fd5b5af11515620004b457600080fd5b505050604051805190501515620004ca57600080fd5b7f536c6f7473204368616e6e656c204d616e6167657200000000000000000000006000816000191690555060018060006101000a81548160ff0219169083151502179055505050505050505061543080620005266000396000f30060606040526004361061020e576000357c0100000000000000000000000000000000000000000000000000000000900463ffffffff168062fdd58e1461021357806306fdde03146102695780630795be771461029a5780630af70aee146102c757806310cc998014610349578063115d0ec91461052d5780632ed92ba6146105ca57806336d699531461061f57806337d77e481461064c578063441a3e7014610692578063465949c7146106d6578063557ed1ba146107485780635bda673b146107715780636858acad1461079457806370d16127146107d85780637c475c8b146108495780638a1034de1461088f5780639102fa87146109295780639201de551461096457806394e8767d14610a045780639a72df7a14610a435780639c4218aa14610a70578063acf8bf2a14610b35578063b6b55f2514610b5e578063b89783aa14610b99578063bd66528a14610c36578063c44a892314610c5d578063c59b3f3714610cbb578063cf386d7614610cfa578063cfc4b1d114610d40578063d416676314610d8d578063d7cee31e14610db6578063e0784ff514610e0b578063e665919714610e32578063e74b666a14610ed0578063e864165214610faf578063e939567914611067578063f53aadf714611103578063f7302d7b14611149578063f77e74d314611188578063fb12fef41461124d578063fb1b11a4146112da578063fe2623e814611330575b600080fd5b341561021e57600080fd5b610253600480803573ffffffffffffffffffffffffffffffffffffffff169060200190919080359060200190919050506113a2565b6040518082815260200191505060405180910390f35b341561027457600080fd5b61027c6113fd565b60405180826000191660001916815260200191505060405180910390f35b34156102a557600080fd5b6102ad611403565b604051808215151515815260200191505060405180910390f35b34156102d257600080fd5b61032b600480803590602001908201803590602001908080601f01602080910402602001604051908101604052809392919081815260200183838082843782019150505050505091908035906020019091905050611416565b60405180826000191660001916815260200191505060405180910390f35b341561035457600080fd5b61036e6004808035600019169060200190919050506114eb565b6040518080602001806020018060200180602001858103855289818151815260200191508051906020019080838360005b838110156103ba57808201518184015260208101905061039f565b50505050905090810190601f1680156103e75780820380516001836020036101000a031916815260200191505b50858103845288818151815260200191508051906020019080838360005b83811015610420578082015181840152602081019050610405565b50505050905090810190601f16801561044d5780820380516001836020036101000a031916815260200191505b50858103835287818151815260200191508051906020019080838360005b8381101561048657808201518184015260208101905061046b565b50505050905090810190601f1680156104b35780820380516001836020036101000a031916815260200191505b50858103825286818151815260200191508051906020019080838360005b838110156104ec5780820151818401526020810190506104d1565b50505050905090810190601f1680156105195780820380516001836020036101000a031916815260200191505b509850505050505050505060405180910390f35b341561053857600080fd5b610552600480803560001916906020019091905050611802565b604051808873ffffffffffffffffffffffffffffffffffffffff1673ffffffffffffffffffffffffffffffffffffffff16815260200187151515158152602001861515151581526020018515151515815260200184815260200183815260200182815260200197505050505050505060405180910390f35b34156105d557600080fd5b6105dd611958565b604051808273ffffffffffffffffffffffffffffffffffffffff1673ffffffffffffffffffffffffffffffffffffffff16815260200191505060405180910390f35b341561062a57600080fd5b61063261197e565b604051808215151515815260200191505060405180910390f35b341561065757600080fd5b610671600480803560001916906020019091905050611be4565b60405180831515151581526020018281526020019250505060405180910390f35b341561069d57600080fd5b6106bc6004808035906020019091908035906020019091905050611c3b565b604051808215151515815260200191505060405180910390f35b34156106e157600080fd5b6107066004808035600019169060200190919080351515906020019091905050611f29565b604051808273ffffffffffffffffffffffffffffffffffffffff1673ffffffffffffffffffffffffffffffffffffffff16815260200191505060405180910390f35b341561075357600080fd5b61075b611f84565b6040518082815260200191505060405180910390f35b341561077c57600080fd5b6107926004808035906020019091905050611f8c565b005b341561079f57600080fd5b6107be60048080359060200190919080359060200190919050506125ac565b604051808215151515815260200191505060405180910390f35b34156107e357600080fd5b610833600480803590602001908201803590602001908080601f0160208091040260200160405190810160405280939291908181526020018383808284378201915050505050509190505061296d565b6040518082815260200191505060405180910390f35b341561085457600080fd5b6108796004808035600019169060200190919080351515906020019091905050612987565b6040518082815260200191505060405180910390f35b341561089a57600080fd5b61090f6004808035600019169060200190919080356000191690602001909190803590602001908201803590602001908080601f0160208091040260200160405190810160405280939291908181526020018383808284378201915050505050509190803515159060200190919050506129c2565b604051808215151515815260200191505060405180910390f35b341561093457600080fd5b61094a6004808035906020019091905050612b48565b604051808215151515815260200191505060405180910390f35b341561096f57600080fd5b610989600480803560001916906020019091905050612bb5565b6040518080602001828103825283818151815260200191508051906020019080838360005b838110156109c95780820151818401526020810190506109ae565b50505050905090810190601f1680156109f65780820380516001836020036101000a031916815260200191505b509250505060405180910390f35b3415610a0f57600080fd5b610a256004808035906020019091905050612da2565b60405180826000191660001916815260200191505060405180910390f35b3415610a4e57600080fd5b610a56612e4b565b604051808215151515815260200191505060405180910390f35b3415610a7b57600080fd5b610b1b60048080356000191690602001909190803590602001908201803590602001908080601f0160208091040260200160405190810160405280939291908181526020018383808284378201915050505050509190803590602001908201803590602001908080601f0160208091040260200160405190810160405280939291908181526020018383808284378201915050505050509190505061314c565b604051808215151515815260200191505060405180910390f35b3415610b4057600080fd5b610b48613628565b6040518082815260200191505060405180910390f35b3415610b6957600080fd5b610b7f600480803590602001909190505061362e565b604051808215151515815260200191505060405180910390f35b3415610ba457600080fd5b610bdc60048080357effffffffffffffffffffffffffffffffffffffffffffffffffffffffffffff19169060200190919050506139b7565b60405180827effffffffffffffffffffffffffffffffffffffffffffffffffffffffffffff19167effffffffffffffffffffffffffffffffffffffffffffffffffffffffffffff1916815260200191505060405180910390f35b3415610c4157600080fd5b610c5b600480803560001916906020019091905050613a89565b005b3415610c6857600080fd5b610ca160048080356000191690602001909190803573ffffffffffffffffffffffffffffffffffffffff16906020019091905050613d34565b604051808215151515815260200191505060405180910390f35b3415610cc657600080fd5b610ce0600480803560001916906020019091905050613e97565b604051808215151515815260200191505060405180910390f35b3415610d0557600080fd5b610d2a6004808035600019169060200190919080351515906020019091905050613efc565b6040518082815260200191505060405180910390f35b3415610d4b57600080fd5b610d8b6004808035600019169060200190919080359060200190919080359060200190919080359060200190919080351515906020019091905050613f21565b005b3415610d9857600080fd5b610da061411f565b6040518082815260200191505060405180910390f35b3415610dc157600080fd5b610dc9614125565b604051808273ffffffffffffffffffffffffffffffffffffffff1673ffffffffffffffffffffffffffffffffffffffff16815260200191505060405180910390f35b3415610e1657600080fd5b610e3060048080356000191690602001909190505061414a565b005b3415610e3d57600080fd5b610e55600480803515159060200190919050506144eb565b6040518080602001828103825283818151815260200191508051906020019080838360005b83811015610e95578082015181840152602081019050610e7a565b50505050905090810190601f168015610ec25780820380516001836020036101000a031916815260200191505b509250505060405180910390f35b3415610edb57600080fd5b610f34600480803590602001908201803590602001908080601f0160208091040260200160405190810160405280939291908181526020018383808284378201915050505050509190803590602001909190505061458d565b6040518080602001828103825283818151815260200191508051906020019080838360005b83811015610f74578082015181840152602081019050610f59565b50505050905090810190601f168015610fa15780820380516001836020036101000a031916815260200191505b509250505060405180910390f35b3415610fba57600080fd5b61104d600480803590602001908201803590602001908080601f0160208091040260200160405190810160405280939291908181526020018383808284378201915050505050509190803590602001908201803590602001908080601f0160208091040260200160405190810160405280939291908181526020018383808284378201915050505050509190505061467d565b604051808215151515815260200191505060405180910390f35b341561107257600080fd5b61108860048080359060200190919050506146b2565b6040518080602001828103825283818151815260200191508051906020019080838360005b838110156110c85780820151818401526020810190506110ad565b50505050905090810190601f1680156110f55780820380516001836020036101000a031916815260200191505b509250505060405180910390f35b341561110e57600080fd5b61113360048080356000191690602001909190803515159060200190919050506146d8565b6040518082815260200191505060405180910390f35b341561115457600080fd5b61116e6004808035600019169060200190919050506146fd565b604051808215151515815260200191505060405180910390f35b341561119357600080fd5b61123360048080356000191690602001909190803590602001908201803590602001908080601f0160208091040260200160405190810160405280939291908181526020018383808284378201915050505050509190803590602001908201803590602001908080601f01602080910402602001604051908101604052809392919081815260200183838082843782019150505050505091905050614739565b604051808215151515815260200191505060405180910390f35b341561125857600080fd5b61129860048080356000191690602001909190803560ff169060200190919080356000191690602001909190803560001916906020019091905050614b96565b604051808273ffffffffffffffffffffffffffffffffffffffff1673ffffffffffffffffffffffffffffffffffffffff16815260200191505060405180910390f35b34156112e557600080fd5b61131a600480803573ffffffffffffffffffffffffffffffffffffffff16906020019091908035906020019091905050614c39565b6040518082815260200191505060405180910390f35b341561133b57600080fd5b6113606004808035600019169060200190919080351515906020019091905050614c5e565b604051808273ffffffffffffffffffffffffffffffffffffffff1673ffffffffffffffffffffffffffffffffffffffff16815260200191505060405180910390f35b6000600f60008473ffffffffffffffffffffffffffffffffffffffff1673ffffffffffffffffffffffffffffffffffffffff168152602001908152602001600020600083815260200190815260200160002054905092915050565b60005481565b600160009054906101000a900460ff1681565b60008061142161529d565b600060209250611432868685614ca0565b9150600090505b828110156114e25780600184030360080260020a828281518110151561145b57fe5b9060200101517f010000000000000000000000000000000000000000000000000000000000000090047f0100000000000000000000000000000000000000000000000000000000000000027f010000000000000000000000000000000000000000000000000000000000000090040284600190040160010293508080600101915050611439565b50505092915050565b6114f36152b1565b6114fb6152b1565b6115036152b1565b61150b6152b1565b600b60008660001916600019168152602001908152602001600020600201600b60008760001916600019168152602001908152602001600020600301600b60008860001916600019168152602001908152602001600020600501600b60008960001916600019168152602001908152602001600020600601838054600181600116156101000203166002900480601f0160208091040260200160405190810160405280929190818152602001828054600181600116156101000203166002900480156116185780601f106115ed57610100808354040283529160200191611618565b820191906000526020600020905b8154815290600101906020018083116115fb57829003601f168201915b50505050509350828054600181600116156101000203166002900480601f0160208091040260200160405190810160405280929190818152602001828054600181600116156101000203166002900480156116b45780601f10611689576101008083540402835291602001916116b4565b820191906000526020600020905b81548152906001019060200180831161169757829003601f168201915b50505050509250818054600181600116156101000203166002900480601f0160208091040260200160405190810160405280929190818152602001828054600181600116156101000203166002900480156117505780601f1061172557610100808354040283529160200191611750565b820191906000526020600020905b81548152906001019060200180831161173357829003601f168201915b50505050509150808054600181600116156101000203166002900480601f0160208091040260200160405190810160405280929190818152602001828054600181600116156101000203166002900480156117ec5780601f106117c1576101008083540402835291602001916117ec565b820191906000526020600020905b8154815290600101906020018083116117cf57829003601f168201915b5050505050905093509350935093509193509193565b6000806000806000806000600e6000896000191660001916815260200190815260200160002060008015151515815260200190815260200160002060009054906101000a900473ffffffffffffffffffffffffffffffffffffffff16600b60008a6000191660001916815260200190815260200160002060000160009054906101000a900460ff16600b60008b6000191660001916815260200190815260200160002060000160019054906101000a900460ff16600b60008c6000191660001916815260200190815260200160002060000160029054906101000a900460ff16600b60008d6000191660001916815260200190815260200160002060040154600b60008e6000191660001916815260200190815260200160002060070154600b60008f60001916600019168152602001908152602001600020600101549650965096509650965096509650919395979092949650565b600260009054906101000a900473ffffffffffffffffffffffffffffffffffffffff1681565b60008060006001809054906101000a900473ffffffffffffffffffffffffffffffffffffffff1673ffffffffffffffffffffffffffffffffffffffff163373ffffffffffffffffffffffffffffffffffffffff161415156119de57600080fd5b6119eb6004546001614ebe565b91506000600f60003073ffffffffffffffffffffffffffffffffffffffff1673ffffffffffffffffffffffffffffffffffffffff168152602001908152602001600020600084815260200190815260200160002054111515611a4c57600080fd5b600f60003073ffffffffffffffffffffffffffffffffffffffff1673ffffffffffffffffffffffffffffffffffffffff16815260200190815260200160002060008381526020019081526020016000205490506000600f60003073ffffffffffffffffffffffffffffffffffffffff1673ffffffffffffffffffffffffffffffffffffffff168152602001908152602001600020600084815260200190815260200160002081905550600560009054906101000a900473ffffffffffffffffffffffffffffffffffffffff1673ffffffffffffffffffffffffffffffffffffffff1663a9059cbb33836040518363ffffffff167c0100000000000000000000000000000000000000000000000000000000028152600401808373ffffffffffffffffffffffffffffffffffffffff1673ffffffffffffffffffffffffffffffffffffffff16815260200182815260200192505050602060405180830381600087803b1515611bb957600080fd5b5af11515611bc657600080fd5b505050604051805190501515611bdb57600080fd5b60019250505090565b600080600b6000846000191660001916815260200190815260200160002060000160029054906101000a900460ff16600b600085600019166000191681526020019081526020016000206007015491509150915091565b6000816004548111158015611c51575060008114155b1515611c5c57600080fd5b838381600f60003373ffffffffffffffffffffffffffffffffffffffff1673ffffffffffffffffffffffffffffffffffffffff16815260200190815260200160002060008381526020019081526020016000205410151515611cbd57600080fd5b611d17600f60003373ffffffffffffffffffffffffffffffffffffffff1673ffffffffffffffffffffffffffffffffffffffff16815260200190815260200160002060008781526020019081526020016000205487614ebe565b600f60003373ffffffffffffffffffffffffffffffffffffffff1673ffffffffffffffffffffffffffffffffffffffff168152602001908152602001600020600087815260200190815260200160002081905550600560009054906101000a900473ffffffffffffffffffffffffffffffffffffffff1673ffffffffffffffffffffffffffffffffffffffff1663a9059cbb33886040518363ffffffff167c0100000000000000000000000000000000000000000000000000000000028152600401808373ffffffffffffffffffffffffffffffffffffffff1673ffffffffffffffffffffffffffffffffffffffff16815260200182815260200192505050602060405180830381600087803b1515611e2f57600080fd5b5af11515611e3c57600080fd5b505050604051805190501515611e5157600080fd5b7f9744d0a120f7c7d7906cfe3c05b50669fb49aa6d778b099d5d6edc386dee5b59338787600f60003373ffffffffffffffffffffffffffffffffffffffff1673ffffffffffffffffffffffffffffffffffffffff16815260200190815260200160002060008a815260200190815260200160002054604051808573ffffffffffffffffffffffffffffffffffffffff1673ffffffffffffffffffffffffffffffffffffffff16815260200184815260200183815260200182815260200194505050505060405180910390a16001935050505092915050565b6000600e6000846000191660001916815260200190815260200160002060008315151515815260200190815260200160002060009054906101000a900473ffffffffffffffffffffffffffffffffffffffff16905092915050565b600042905090565b6000600a60009054906101000a900473ffffffffffffffffffffffffffffffffffffffff1673ffffffffffffffffffffffffffffffffffffffff16630b9aa06730336040518363ffffffff167c0100000000000000000000000000000000000000000000000000000000028152600401808373ffffffffffffffffffffffffffffffffffffffff1673ffffffffffffffffffffffffffffffffffffffff1681526020018273ffffffffffffffffffffffffffffffffffffffff1673ffffffffffffffffffffffffffffffffffffffff16815260200192505050602060405180830381600087803b151561207e57600080fd5b5af1151561208b57600080fd5b5050506040518051905015156120a057600080fd5b600660009054906101000a900473ffffffffffffffffffffffffffffffffffffffff1673ffffffffffffffffffffffffffffffffffffffff166327c830a96040518163ffffffff167c0100000000000000000000000000000000000000000000000000000000028152600401602060405180830381600087803b151561212557600080fd5b5af1151561213257600080fd5b5050506040518051905015151561214857600080fd5b600860009054906101000a900473ffffffffffffffffffffffffffffffffffffffff1673ffffffffffffffffffffffffffffffffffffffff16633e87d3ba6004546040518263ffffffff167c010000000000000000000000000000000000000000000000000000000002815260040180828152602001915050602060405180830381600087803b15156121da57600080fd5b5af115156121e757600080fd5b5050506040518051905015156121fc57600080fd5b674563918244f40000821015801561221e575069010f0cf064dd592000008211155b151561222957600080fd5b81612236336004546113a2565b1015151561224357600080fd5b6003543361224f611f84565b604051808481526020018373ffffffffffffffffffffffffffffffffffffffff1673ffffffffffffffffffffffffffffffffffffffff166c010000000000000000000000000281526014018281526020019350505050604051809103902090506101a060405190810160405280600015158152602001600015158152602001600015158152602001600081526020016020604051908101604052806000815250815260200160206040519081016040528060008152508152602001838152602001602060405190810160405280600081525081526020016020604051908101604052806000815250815260200160008152602001600015158152602001600454815260200160011515815250600b6000836000191660001916815260200190815260200160002060008201518160000160006101000a81548160ff02191690831515021790555060208201518160000160016101000a81548160ff02191690831515021790555060408201518160000160026101000a81548160ff0219169083151502179055506060820151816001015560808201518160020190805190602001906123fc9291906152c5565b5060a08201518160030190805190602001906124199291906152c5565b5060c0820151816004015560e08201518160050190805190602001906124409291906152c5565b5061010082015181600601908051906020019061245e9291906152c5565b5061012082015181600701556101408201518160080160006101000a81548160ff021916908315150217905550610160820151816009015561018082015181600a0160006101000a81548160ff02191690831515021790555090505033600e6000836000191660001916815260200190815260200160002060008015151515815260200190815260200160002060006101000a81548173ffffffffffffffffffffffffffffffffffffffff021916908373ffffffffffffffffffffffffffffffffffffffff1602179055503373ffffffffffffffffffffffffffffffffffffffff167f57a0ff56018b90634df2de66e550ef1bb351dcdb22b3f1c030152b1f1d1d6d94828461256b611f84565b604051808460001916600019168152602001838152602001828152602001935050505060405180910390a26003600081548092919060010191905055505050565b6000600660009054906101000a900473ffffffffffffffffffffffffffffffffffffffff1673ffffffffffffffffffffffffffffffffffffffff166327c830a96040518163ffffffff167c0100000000000000000000000000000000000000000000000000000000028152600401602060405180830381600087803b151561263357600080fd5b5af1151561264057600080fd5b5050506040518051905015151561265657600080fd5b6001809054906101000a900473ffffffffffffffffffffffffffffffffffffffff1673ffffffffffffffffffffffffffffffffffffffff163373ffffffffffffffffffffffffffffffffffffffff161415156126b157600080fd5b6004548214806126c5575060016004540182145b15156126d057600080fd5b61272a600f60003073ffffffffffffffffffffffffffffffffffffffff1673ffffffffffffffffffffffffffffffffffffffff16815260200190815260200160002060008481526020019081526020016000205484614ed7565b600f60003073ffffffffffffffffffffffffffffffffffffffff1673ffffffffffffffffffffffffffffffffffffffff168152602001908152602001600020600084815260200190815260200160002081905550600560009054906101000a900473ffffffffffffffffffffffffffffffffffffffff1673ffffffffffffffffffffffffffffffffffffffff166323b872dd3330866040518463ffffffff167c0100000000000000000000000000000000000000000000000000000000028152600401808473ffffffffffffffffffffffffffffffffffffffff1673ffffffffffffffffffffffffffffffffffffffff1681526020018373ffffffffffffffffffffffffffffffffffffffff1673ffffffffffffffffffffffffffffffffffffffff1681526020018281526020019350505050602060405180830381600087803b151561287657600080fd5b5af1151561288357600080fd5b50505060405180519050151561289857600080fd5b7f4b2bcb0ca50531683faa51870e1018aa0d7272c7f2acc5399389b0c0493865d9308484600f60003073ffffffffffffffffffffffffffffffffffffffff1673ffffffffffffffffffffffffffffffffffffffff168152602001908152602001600020600087815260200190815260200160002054604051808573ffffffffffffffffffffffffffffffffffffffff1673ffffffffffffffffffffffffffffffffffffffff16815260200184815260200183815260200182815260200194505050505060405180910390a16001905092915050565b600061298061297b83614ef5565b614f23565b9050919050565b6000600d6000846000191660001916815260200190815260200160002060008315151515815260200190815260200160002054905092915050565b600073__ECVerify______________________________6339cdde328585600e60008a6000191660001916815260200190815260200160002060008715151515815260200190815260200160002060009054906101000a900473ffffffffffffffffffffffffffffffffffffffff166040518463ffffffff167c0100000000000000000000000000000000000000000000000000000000028152600401808460001916600019168152602001806020018373ffffffffffffffffffffffffffffffffffffffff1673ffffffffffffffffffffffffffffffffffffffff168152602001828103825284818151815260200191508051906020019080838360005b83811015612adc578082015181840152602081019050612ac1565b50505050905090810190601f168015612b095780820380516001836020036101000a031916815260200191505b5094505050505060206040518083038186803b1515612b2757600080fd5b5af41515612b3457600080fd5b505050604051805190509050949350505050565b60006001809054906101000a900473ffffffffffffffffffffffffffffffffffffffff1673ffffffffffffffffffffffffffffffffffffffff163373ffffffffffffffffffffffffffffffffffffffff16141515612ba557600080fd5b8160048190555060019050919050565b612bbd6152b1565b612bc561529d565b6000806000612bd261529d565b6020604051805910612be15750595b9080825280601f01601f1916602001820160405250945060009350600092505b6020831015612cbf578260080260020a876001900402600102915060007f010000000000000000000000000000000000000000000000000000000000000002827effffffffffffffffffffffffffffffffffffffffffffffffffffffffffffff1916141515612cb257818585815181101515612c7957fe5b9060200101907effffffffffffffffffffffffffffffffffffffffffffffffffffffffffffff1916908160001a90535083806001019450505b8280600101935050612c01565b83604051805910612ccd5750595b9080825280601f01601f19166020018201604052509050600092505b83831015612d95578483815181101515612cff57fe5b9060200101517f010000000000000000000000000000000000000000000000000000000000000090047f0100000000000000000000000000000000000000000000000000000000000000028184815181101515612d5857fe5b9060200101907effffffffffffffffffffffffffffffffffffffffffffffffffffffffffffff1916908160001a9053508280600101935050612ce9565b8095505050505050919050565b600080821415612dd4577f30000000000000000000000000000000000000000000000000000000000000009050612e43565b5b6000821115612e42576101008160019004811515612def57fe5b0460010290507f01000000000000000000000000000000000000000000000000000000000000006030600a84811515612e2457fe5b06010260010281179050600a82811515612e3a57fe5b049150612dd5565b5b809050919050565b6000806001809054906101000a900473ffffffffffffffffffffffffffffffffffffffff1673ffffffffffffffffffffffffffffffffffffffff163373ffffffffffffffffffffffffffffffffffffffff16141515612ea957600080fd5b600660009054906101000a900473ffffffffffffffffffffffffffffffffffffffff1673ffffffffffffffffffffffffffffffffffffffff166327c830a96040518163ffffffff167c0100000000000000000000000000000000000000000000000000000000028152600401602060405180830381600087803b1515612f2e57600080fd5b5af11515612f3b57600080fd5b505050604051805190501515612f5057600080fd5b6000600f60003073ffffffffffffffffffffffffffffffffffffffff1673ffffffffffffffffffffffffffffffffffffffff1681526020019081526020016000206000600454815260200190815260200160002054111515612fb157600080fd5b600f60003073ffffffffffffffffffffffffffffffffffffffff1673ffffffffffffffffffffffffffffffffffffffff168152602001908152602001600020600060045481526020019081526020016000205490506000600f60003073ffffffffffffffffffffffffffffffffffffffff1673ffffffffffffffffffffffffffffffffffffffff1681526020019081526020016000206000600454815260200190815260200160002081905550600560009054906101000a900473ffffffffffffffffffffffffffffffffffffffff1673ffffffffffffffffffffffffffffffffffffffff1663a9059cbb33836040518363ffffffff167c0100000000000000000000000000000000000000000000000000000000028152600401808373ffffffffffffffffffffffffffffffffffffffff1673ffffffffffffffffffffffffffffffffffffffff16815260200182815260200192505050602060405180830381600087803b151561312257600080fd5b5af1151561312f57600080fd5b50505060405180519050151561314457600080fd5b600191505090565b6000600a60009054906101000a900473ffffffffffffffffffffffffffffffffffffffff1673ffffffffffffffffffffffffffffffffffffffff16630b9aa06730336040518363ffffffff167c0100000000000000000000000000000000000000000000000000000000028152600401808373ffffffffffffffffffffffffffffffffffffffff1673ffffffffffffffffffffffffffffffffffffffff1681526020018273ffffffffffffffffffffffffffffffffffffffff1673ffffffffffffffffffffffffffffffffffffffff16815260200192505050602060405180830381600087803b151561323e57600080fd5b5af1151561324b57600080fd5b50505060405180519050151561326057600080fd5b600660009054906101000a900473ffffffffffffffffffffffffffffffffffffffff1673ffffffffffffffffffffffffffffffffffffffff166327c830a96040518163ffffffff167c0100000000000000000000000000000000000000000000000000000000028152600401602060405180830381600087803b15156132e557600080fd5b5af115156132f257600080fd5b5050506040518051905015151561330857600080fd5b83600e6000826000191660001916815260200190815260200160002060008015151515815260200190815260200160002060009054906101000a900473ffffffffffffffffffffffffffffffffffffffff1673ffffffffffffffffffffffffffffffffffffffff163373ffffffffffffffffffffffffffffffffffffffff1614151561339357600080fd5b84600b6000826000191660001916815260200190815260200160002060000160009054906101000a900460ff161515156133cc57600080fd5b60406133d78561296d565b1415156133e357600080fd5b60406133ee8661296d565b1415156133fa57600080fd5b600b600087600019166000191681526020019081526020016000206004015461344133600b60008a60001916600019168152602001908152602001600020600901546113a2565b1015151561344e57600080fd5b84600b600088600019166000191681526020019081526020016000206003019080519060200190613480929190615345565b5083600b6000886000191660001916815260200190815260200160002060020190805190602001906134b3929190615345565b506001600b6000886000191660001916815260200190815260200160002060000160006101000a81548160ff0219169083151502179055506134f6866000614fe9565b85600019167ffd0a3ad532636586795bffebf912f4e47a0efa7d20c36d4899ee8e6dbda33cfa600e6000896000191660001916815260200190815260200160002060008015151515815260200190815260200160002060009054906101000a900473ffffffffffffffffffffffffffffffffffffffff1686604051808373ffffffffffffffffffffffffffffffffffffffff1673ffffffffffffffffffffffffffffffffffffffff16815260200180602001828103825283818151815260200191508051906020019080838360005b838110156135e05780820151818401526020810190506135c5565b50505050905090810190601f16801561360d5780820380516001836020036101000a031916815260200191505b50935050505060405180910390a26001925050509392505050565b60035481565b60008180600560009054906101000a900473ffffffffffffffffffffffffffffffffffffffff1673ffffffffffffffffffffffffffffffffffffffff166370a08231336040518263ffffffff167c0100000000000000000000000000000000000000000000000000000000028152600401808273ffffffffffffffffffffffffffffffffffffffff1673ffffffffffffffffffffffffffffffffffffffff168152602001915050602060405180830381600087803b15156136ee57600080fd5b5af115156136fb57600080fd5b505050604051805190501015151561371257600080fd5b61376e600f60003373ffffffffffffffffffffffffffffffffffffffff1673ffffffffffffffffffffffffffffffffffffffff168152602001908152602001600020600060045481526020019081526020016000205484614ed7565b600f60003373ffffffffffffffffffffffffffffffffffffffff1673ffffffffffffffffffffffffffffffffffffffff1681526020019081526020016000206000600454815260200190815260200160002081905550600560009054906101000a900473ffffffffffffffffffffffffffffffffffffffff1673ffffffffffffffffffffffffffffffffffffffff166323b872dd3330866040518463ffffffff167c0100000000000000000000000000000000000000000000000000000000028152600401808473ffffffffffffffffffffffffffffffffffffffff1673ffffffffffffffffffffffffffffffffffffffff1681526020018373ffffffffffffffffffffffffffffffffffffffff1673ffffffffffffffffffffffffffffffffffffffff1681526020018281526020019350505050602060405180830381600087803b15156138bc57600080fd5b5af115156138c957600080fd5b5050506040518051905015156138de57600080fd5b7f4b2bcb0ca50531683faa51870e1018aa0d7272c7f2acc5399389b0c0493865d93384600454600f60003373ffffffffffffffffffffffffffffffffffffffff1673ffffffffffffffffffffffffffffffffffffffff1681526020019081526020016000206000600454815260200190815260200160002054604051808573ffffffffffffffffffffffffffffffffffffffff1673ffffffffffffffffffffffffffffffffffffffff16815260200184815260200183815260200182815260200194505050505060405180910390a16001915050919050565b60006057827f0100000000000000000000000000000000000000000000000000000000000000900460ff161115613a38576057827f01000000000000000000000000000000000000000000000000000000000000009004037f0100000000000000000000000000000000000000000000000000000000000000029050613a84565b6030827f01000000000000000000000000000000000000000000000000000000000000009004037f01000000000000000000000000000000000000000000000000000000000000000290505b919050565b6000806000613a988433613d34565b1515613aa357600080fd5b3373ffffffffffffffffffffffffffffffffffffffff16600e600086600019166000191681526020019081526020016000206000600115151515815260200190815260200160002060009054906101000a900473ffffffffffffffffffffffffffffffffffffffff1673ffffffffffffffffffffffffffffffffffffffff16149250613b2e84613e97565b15613d2957600d600085600019166000191681526020019081526020016000206000841515151581526020019081526020016000205491506000821115613d24576000600d60008660001916600019168152602001908152602001600020600085151515158152602001908152602001600020819055506000600c600086600019166000191681526020019081526020016000206000851515151581526020019081526020016000208190555082613be65733613be8565b305b9050613c62600f60008373ffffffffffffffffffffffffffffffffffffffff1673ffffffffffffffffffffffffffffffffffffffff1681526020019081526020016000206000600b600088600019166000191681526020019081526020016000206009015481526020019081526020016000205483614ed7565b600f60008373ffffffffffffffffffffffffffffffffffffffff1673ffffffffffffffffffffffffffffffffffffffff1681526020019081526020016000206000600b600088600019166000191681526020019081526020016000206009015481526020019081526020016000208190555083600019167f3d47704ed0293834c807e841247ca71e0078b71ff63527316f1b7a8c3138c42684613d03611f84565b60405180831515151581526020018281526020019250505060405180910390a25b613d2e565b600080fd5b50505050565b6000600760009054906101000a900473ffffffffffffffffffffffffffffffffffffffff1673ffffffffffffffffffffffffffffffffffffffff1663b9181611836040518263ffffffff167c0100000000000000000000000000000000000000000000000000000000028152600401808273ffffffffffffffffffffffffffffffffffffffff1673ffffffffffffffffffffffffffffffffffffffff168152602001915050602060405180830381600087803b1515613df257600080fd5b5af11515613dff57600080fd5b5050506040518051905080613e8f5750600e6000846000191660001916815260200190815260200160002060008015151515815260200190815260200160002060009054906101000a900473ffffffffffffffffffffffffffffffffffffffff1673ffffffffffffffffffffffffffffffffffffffff168273ffffffffffffffffffffffffffffffffffffffff16145b905092915050565b6000600b6000836000191660001916815260200190815260200160002060000160029054906101000a900460ff168015613ef55750600b6000836000191660001916815260200190815260200160002060010154613ef3611f84565b115b9050919050565b600d602052816000526040600020602052806000526040600020600091509150505481565b600260009054906101000a900473ffffffffffffffffffffffffffffffffffffffff1673ffffffffffffffffffffffffffffffffffffffff163373ffffffffffffffffffffffffffffffffffffffff16141515613f7d57600080fd5b83600d600087600019166000191681526020019081526020016000206000801515151581526020019081526020016000208190555082600d60008760001916600019168152602001908152602001600020600060011515151581526020019081526020016000208190555081600b600087600019166000191681526020019081526020016000206007018190555080600b6000876000191660001916815260200190815260200160002060080160006101000a81548160ff021916908315150217905550603c61404b611f84565b01600b6000876000191660001916815260200190815260200160002060010181905550600b6000866000191660001916815260200190815260200160002060000160029054906101000a900460ff1615156140d8576001600b6000876000191660001916815260200190815260200160002060000160026101000a81548160ff0219169083151502179055505b84600019167f1d4717d75b1cc81f43731f4e6858701dbafd65c18b71e48c64c47e47bdeec2a182604051808215151515815260200191505060405180910390a25050505050565b60045481565b6001809054906101000a900473ffffffffffffffffffffffffffffffffffffffff1681565b6000600a60009054906101000a900473ffffffffffffffffffffffffffffffffffffffff1673ffffffffffffffffffffffffffffffffffffffff16630b9aa06730336040518363ffffffff167c0100000000000000000000000000000000000000000000000000000000028152600401808373ffffffffffffffffffffffffffffffffffffffff1673ffffffffffffffffffffffffffffffffffffffff1681526020018273ffffffffffffffffffffffffffffffffffffffff1673ffffffffffffffffffffffffffffffffffffffff16815260200192505050602060405180830381600087803b151561423c57600080fd5b5af1151561424957600080fd5b50505060405180519050151561425e57600080fd5b81600e6000826000191660001916815260200190815260200160002060008015151515815260200190815260200160002060009054906101000a900473ffffffffffffffffffffffffffffffffffffffff1673ffffffffffffffffffffffffffffffffffffffff163373ffffffffffffffffffffffffffffffffffffffff161415156142e957600080fd5b82600b6000826000191660001916815260200190815260200160002060000160009054906101000a900460ff16151561432157600080fd5b83600b6000826000191660001916815260200190815260200160002060000160019054906101000a900460ff1615151561435a57600080fd5b600c600086600019166000191681526020019081526020016000206000801515151581526020019081526020016000205493506000600c600087600019166000191681526020019081526020016000206000801515151581526020019081526020016000208190555061443b600f60003373ffffffffffffffffffffffffffffffffffffffff1673ffffffffffffffffffffffffffffffffffffffff1681526020019081526020016000206000600b600089600019166000191681526020019081526020016000206009015481526020019081526020016000205485614ed7565b600f60003373ffffffffffffffffffffffffffffffffffffffff1673ffffffffffffffffffffffffffffffffffffffff1681526020019081526020016000206000600b60008960001916600019168152602001908152602001600020600901548152602001908152602001600020819055506000600b6000876000191660001916815260200190815260200160002060000160006101000a81548160ff0219169083151502179055505050505050565b6144f36152b1565b60011515821515141561453d576040805190810160405280600481526020017f74727565000000000000000000000000000000000000000000000000000000008152509050614588565b600015158215151415614587576040805190810160405280600581526020017f66616c73650000000000000000000000000000000000000000000000000000008152509050614588565b5b919050565b6145956152b1565b61459d61529d565b6145a56152b1565b6145ad61529d565b85925060016040518059106145bf5750595b9080825280601f01601f1916602001820160405250915081905082858151811015156145e757fe5b9060200101517f010000000000000000000000000000000000000000000000000000000000000090047f01000000000000000000000000000000000000000000000000000000000000000281600081518110151561464157fe5b9060200101907effffffffffffffffffffffffffffffffffffffffffffffffffffffffffffff1916908160001a90535080935050505092915050565b6000806146a361468c84614ef5565b61469586614ef5565b6151e390919063ffffffff16565b90506000811491505092915050565b6146ba6152b1565b60006146c583612da2565b90506146d081612bb5565b915050919050565b600c602052816000526040600020602052806000526040600020600091509150505481565b600080600102826000191614156147175760009050614734565b600180028260001916141561472f5760019050614734565b600080fd5b919050565b6000600760009054906101000a900473ffffffffffffffffffffffffffffffffffffffff1673ffffffffffffffffffffffffffffffffffffffff1663b9181611336040518263ffffffff167c0100000000000000000000000000000000000000000000000000000000028152600401808273ffffffffffffffffffffffffffffffffffffffff1673ffffffffffffffffffffffffffffffffffffffff168152602001915050602060405180830381600087803b15156147f757600080fd5b5af1151561480457600080fd5b50505060405180519050151561481957600080fd5b83600b6000826000191660001916815260200190815260200160002060000160019054906101000a900460ff1615151561485257600080fd5b84600b6000826000191660001916815260200190815260200160002060000160009054906101000a900460ff16151561488a57600080fd5b600b60008760001916600019168152602001908152602001600020600401546148d130600b60008a60001916600019168152602001908152602001600020600901546113a2565b101515156148de57600080fd5b83600b600088600019166000191681526020019081526020016000206005019080519060200190614910929190615345565b5084600b600088600019166000191681526020019081526020016000206006019080519060200190614943929190615345565b506001600b6000886000191660001916815260200190815260200160002060000160016101000a81548160ff02191690831515021790555033600e600088600019166000191681526020019081526020016000206000600115151515815260200190815260200160002060006101000a81548173ffffffffffffffffffffffffffffffffffffffff021916908373ffffffffffffffffffffffffffffffffffffffff1602179055506149f6866001614fe9565b85600019167f116e358e5f38c4551863787ac8cf8e7c288418902a3321525d971493a7cc0a96600e600089600019166000191681526020019081526020016000206000600115151515815260200190815260200160002060009054906101000a900473ffffffffffffffffffffffffffffffffffffffff168787604051808473ffffffffffffffffffffffffffffffffffffffff1673ffffffffffffffffffffffffffffffffffffffff1681526020018060200180602001838103835285818151815260200191508051906020019080838360005b83811015614ae6578082015181840152602081019050614acb565b50505050905090810190601f168015614b135780820380516001836020036101000a031916815260200191505b50838103825284818151815260200191508051906020019080838360005b83811015614b4c578082015181840152602081019050614b31565b50505050905090810190601f168015614b795780820380516001836020036101000a031916815260200191505b509550505050505060405180910390a26001925050509392505050565b60006001856040518082600019166000191681526020019150506040518091039020858585604051600081526020016040526040518085600019166000191681526020018460ff1660ff1681526020018360001916600019168152602001826000191660001916815260200194505050505060206040516020810390808403906000865af11515614c2657600080fd5b5050602060405103519050949350505050565b600f602052816000526040600020602052806000526040600020600091509150505481565b600e6020528160005260406000206020528060005260406000206000915091509054906101000a900473ffffffffffffffffffffffffffffffffffffffff1681565b614ca861529d565b614cb061529d565b614cb861529d565b600080600088945086604051805910614cce5750595b9080825280601f01601f19166020018201604052509350600287028886510310614cfd57600287028801614d02565b878551035b92508791505b82821015614eaf578782039050600281811515614d2157fe5b0660010360100a614d898684815181101515614d3957fe5b9060200101517f010000000000000000000000000000000000000000000000000000000000000090047f0100000000000000000000000000000000000000000000000000000000000000026139b7565b7f010000000000000000000000000000000000000000000000000000000000000090040284600283811515614dba57fe5b04815181101515614dc757fe5b9060200101517f010000000000000000000000000000000000000000000000000000000000000090047f0100000000000000000000000000000000000000000000000000000000000000027f01000000000000000000000000000000000000000000000000000000000000009004017f01000000000000000000000000000000000000000000000000000000000000000284600283811515614e6557fe5b04815181101515614e7257fe5b9060200101907effffffffffffffffffffffffffffffffffffffffffffffffffffffffffffff1916908160001a9053508180600101925050614d08565b83955050505050509392505050565b6000828211151515614ecc57fe5b818303905092915050565b6000808284019050838110151515614eeb57fe5b8091505092915050565b614efd6153c5565b600060208301905060408051908101604052808451815260200182815250915050919050565b6000806000806000601f8660200151039350856000015184019250600091505b82841015614fdd5760ff845116905060808160ff161015614f6957600184019350614fd0565b60e08160ff161015614f8057600284019350614fcf565b60f08160ff161015614f9757600384019350614fce565b60f88160ff161015614fae57600484019350614fcd565b60fc8160ff161015614fc557600584019350614fcc565b6006840193505b5b5b5b5b8180600101925050614f43565b81945050505050919050565b60008161504657600e6000846000191660001916815260200190815260200160002060008015151515815260200190815260200160002060009054906101000a900473ffffffffffffffffffffffffffffffffffffffff16615048565b305b90506150a2600c6000856000191660001916815260200190815260200160002060008415151515815260200190815260200160002054600b6000866000191660001916815260200190815260200160002060040154614ed7565b600c600085600019166000191681526020019081526020016000206000841515151581526020019081526020016000208190555061516c600f60008373ffffffffffffffffffffffffffffffffffffffff1673ffffffffffffffffffffffffffffffffffffffff1681526020019081526020016000206000600b6000876000191660001916815260200190815260200160002060090154815260200190815260200160002054600b6000866000191660001916815260200190815260200160002060040154614ebe565b600f60008373ffffffffffffffffffffffffffffffffffffffff1673ffffffffffffffffffffffffffffffffffffffff1681526020019081526020016000206000600b6000876000191660001916815260200190815260200160002060090154815260200190815260200160002081905550505050565b60008060008060008060008060008a6000015197508a600001518a60000151101561521057896000015197505b8a60200151965089602001519550600094505b87851015615281578651935085519250828414151561526a57600185896020030160080260020a031991508183168285160390506000811415156152695780985061528f565b5b602087019650602086019550602085019450615223565b89600001518b600001510398505b505050505050505092915050565b602060405190810160405280600081525090565b602060405190810160405280600081525090565b828054600181600116156101000203166002900490600052602060002090601f016020900481019282601f1061530657805160ff1916838001178555615334565b82800160010185558215615334579182015b82811115615333578251825591602001919060010190615318565b5b50905061534191906153df565b5090565b828054600181600116156101000203166002900490600052602060002090601f016020900481019282601f1061538657805160ff19168380011785556153b4565b828001600101855582156153b4579182015b828111156153b3578251825591602001919060010190615398565b5b5090506153c191906153df565b5090565b604080519081016040528060008152602001600081525090565b61540191905b808211156153fd5760008160009055506001016153e5565b5090565b905600a165627a7a723058206730ec73fba71d76e3889e5a0e8b510c4b5cf3cc3a52154ff446433af122877b0029",
  "source": "pragma solidity 0.4.21;\n\nimport './SlotsImplementation.sol';\nimport './SlotsHelper.sol';\nimport '../../Token/ERC20.sol';\nimport '../../House/House.sol';\nimport '../../House/Controllers/HouseAuthorizedController.sol';\nimport '../../House/Controllers/HouseSessionsController.sol';\nimport '../../House/HouseOffering.sol';\n\nimport '../../Libraries/ECVerify.sol';\nimport '../../Libraries/SafeMath.sol';\nimport '../../Libraries/strings.sol';\nimport '../../Libraries/Utils.sol';\n\nimport '../../Kyc/KycManager.sol';\n\n// A State channel contract to handle slot games on the Decent.bet platform\ncontract SlotsChannelManager is SlotsImplementation, HouseOffering, SafeMath, Utils {\n\n    using strings for *;\n    using ECVerify for *;\n\n    /* Slot specific */\n\n    // 5 DBETs minimum deposit. Minimum 1 spin (@ 5 DBETs per spin), Maximum 500 spins (@0.01 DBET per spin)\n    uint constant MIN_DEPOSIT = 5 ether;\n\n    // 5000 DBETs maximum deposit. Minimum 1000 spins (@ 5 DBETs per spin), Maximum 500000 spins (@0.01 DBET per spin)\n    uint constant MAX_DEPOSIT = 5000 ether;\n\n    /* END */\n\n    /* Variables */\n\n    // Address of the house contract - passed through during contract creation\n    address public houseAddress;\n\n    // Address of the slots channel finalizer contract - passed through during contract creation\n    address public slotsChannelFinalizer;\n\n    // Used to create incremented channel ids.\n    uint public channelCount;\n\n    // Current house session.\n    uint public currentSession;\n\n    /* Contracts */\n    ERC20 decentBetToken;\n\n    House house;\n    HouseAuthorizedController houseAuthorizedController;\n    HouseSessionsController houseSessionsController;\n    SlotsHelper slotsHelper;\n    KycManager kycManager;\n\n    /* Mappings */\n\n    // Channels created.\n    mapping (bytes32 => Channel) channels;\n\n    // Amount of DBETs deposited by user and house for a channel.\n    mapping (bytes32 => mapping(bool => uint)) public channelDeposits;\n\n    // Finalized balances for user and house for a channel.\n    mapping (bytes32 => mapping(bool => uint)) public finalBalances;\n\n    // Addresses of the players involved - false = user, true = house for a channel.\n    mapping (bytes32 => mapping(bool => address)) public players;\n\n    // Users need to deposit/withdraw tokens for a session with the provider before creating channels.\n    // These can be withdrawn at any time.\n    // mapping (userAddress => mapping (sessionNumber => amount))\n    mapping (address => mapping (uint => uint)) public depositedTokens;\n\n    /* Events */\n    event LogNewChannel(\n        bytes32 id,\n        address indexed user,\n        uint initialDeposit,\n        uint timestamp\n    );\n\n    event LogChannelFinalized(\n        bytes32 indexed id,\n        bool isHouse\n    );\n\n    event LogChannelDeposit(\n        bytes32 indexed id,\n        address user,\n        string finalUserHash\n    );\n\n    event LogChannelActivate(\n        bytes32 indexed id,\n        address user,\n        string finalSeedHash,\n        string finalReelHash\n    );\n\n    event LogClaimChannelTokens(\n        bytes32 indexed id,\n        bool isHouse,\n        uint timestamp\n    );\n\n    event LogDeposit(\n        address _address,\n        uint amount,\n        uint session,\n        uint balance\n    );\n\n    event LogWithdraw(\n        address _address,\n        uint amount,\n        uint session,\n        uint balance\n    );\n\n    /* Constructor */\n\n    function SlotsChannelManager(\n        address _house,\n        address _token,\n        address _slotsHelper,\n        address _slotsChannelFinalizer,\n        address _kycManager\n    )\n    public {\n        require(_house != 0x0);\n        require(_token != 0x0);\n        require(_slotsHelper != 0x0);\n        require(_slotsChannelFinalizer != 0x0);\n        require(_kycManager != 0x0);\n\n        houseAddress = _house;\n        decentBetToken = ERC20(_token);\n        house = House(_house);\n        kycManager = KycManager(_kycManager);\n\n        address houseAuthorizedControllerAddress;\n        address houseSessionsControllerAddress;\n\n        (houseAuthorizedControllerAddress,, houseSessionsControllerAddress) = house.getHouseControllers();\n\n        require(houseAuthorizedControllerAddress != 0x0);\n        require(houseSessionsControllerAddress != 0x0);\n\n        houseAuthorizedController = HouseAuthorizedController(houseAuthorizedControllerAddress);\n        houseSessionsController   = HouseSessionsController(houseSessionsControllerAddress);\n\n        slotsHelper = SlotsHelper(_slotsHelper);\n        slotsChannelFinalizer = _slotsChannelFinalizer;\n        require(slotsHelper.isSlotsHelper());\n        name = 'Slots Channel Manager';\n        isHouseOffering = true;\n    }\n\n    /* Modifiers */\n\n    modifier onlyHouse() {\n        require(msg.sender == houseAddress);\n        _;\n    }\n\n    modifier onlyAuthorized() {\n        require(houseAuthorizedController.authorized(msg.sender));\n        _;\n    }\n\n    // Allows functions to be executed only if the house is in an emergency paused state\n    modifier isHouseEmergency() {\n        require(house.emergencyPaused());\n        _;\n    }\n\n    // Allows functions to be execute only if the house is not in an emergency paused state\n    modifier isNotHouseEmergency() {\n        require(!house.emergencyPaused());\n        _;\n    }\n\n    // Allows functions to execute only if users have \"amount\" dbets in their token contract balance.\n    modifier isDbetsAvailable(uint amount) {\n        require(decentBetToken.balanceOf(msg.sender) >= amount);\n        _;\n    }\n\n    // Allow functions to execute only if the current session is active\n    modifier isSessionActive() {\n        require(houseSessionsController.isSessionActive(currentSession));\n        _;\n    }\n\n    // Allows functions to execute only if the session is prior or equal to current house session\n    // and if session is not 0.\n    modifier isValidPriorSession(uint session) {\n        require(session <= currentSession && session != 0);\n        _;\n    }\n\n    // Allows functions to execute only if users have \"amount\" tokens in their depositedTokens balance.\n    modifier isTokensAvailable(uint amount, uint session) {\n        require(depositedTokens[msg.sender][session] >= amount);\n        _;\n    }\n\n    // Allows only the player to proceed\n    modifier isPlayer(bytes32 id) {\n        require(msg.sender == players[id][false]);\n        _;\n    }\n\n    // Allows only if the user is ready\n    modifier isUserReady(bytes32 id) {\n        require(channels[id].ready);\n        _;\n    }\n\n    // Allows only if the user is not ready\n    modifier isUserNotReady(bytes32 id) {\n        require(!channels[id].ready);\n        _;\n    }\n\n    // Allows only if channel has not been activated\n    modifier isNotActivated(bytes32 id) {\n        require(!channels[id].activated);\n        _;\n    }\n\n    // Allows functions to execute only if the sender has been KYC verified.\n    modifier isSenderKycVerified() {\n        require(kycManager.isVerified(address(this), msg.sender));\n        _;\n    }\n\n    /* Functions */\n    function createChannel(uint initialDeposit)\n    public\n    isSenderKycVerified\n    isNotHouseEmergency\n    isSessionActive {\n        // Deposit in DBETs. Use ether since 1 DBET = 18 Decimals i.e same as ether decimals.\n        require(initialDeposit >= MIN_DEPOSIT && initialDeposit <= MAX_DEPOSIT);\n        require(balanceOf(msg.sender, currentSession) >= initialDeposit);\n        bytes32 channelId = keccak256(channelCount, msg.sender, getTime());\n        channels[channelId] = Channel({\n            ready: false,\n            activated: false,\n            finalized: false,\n            endTime: 0,\n            finalUserHash: '',\n            initialUserNumber: '',\n            initialDeposit: initialDeposit,\n            finalReelHash: '',\n            finalSeedHash: '',\n            finalNonce: 0,\n            finalTurn: false,\n            session: currentSession,\n            exists: true\n        });\n        players[channelId][false] = msg.sender;\n        emit LogNewChannel(channelId, msg.sender, initialDeposit, getTime());\n        channelCount++;\n    }\n\n    // Allows the house to add funds to the provider for this session or the next.\n    function houseDeposit(uint amount, uint session)\n    public\n    isNotHouseEmergency\n    onlyHouse\n    returns (bool) {\n        // House deposits are allowed only for this session or the next.\n        require(session == currentSession || session == currentSession + 1);\n\n        // Record the total number of tokens deposited into the house.\n        depositedTokens[address(this)][session] = safeAdd(depositedTokens[address(this)][session], amount);\n\n        // Transfer tokens from house to betting provider.\n        if(!decentBetToken.transferFrom(msg.sender, address(this), amount)) revert();\n\n        emit LogDeposit(address(this), amount, session, depositedTokens[address(this)][session]);\n        return true;\n    }\n\n    // Allows house to withdraw session tokens for the previous session.\n    function withdrawPreviousSessionTokens()\n    public\n    onlyHouse\n    returns (bool) {\n        uint previousSession = safeSub(currentSession, 1);\n        require(depositedTokens[address(this)][previousSession] > 0);\n        uint previousSessionTokens = depositedTokens[address(this)][previousSession];\n        depositedTokens[address(this)][previousSession] = 0;\n        if(!decentBetToken.transfer(msg.sender, previousSessionTokens)) revert();\n        return true;\n    }\n\n    // Allows house to withdraw current session tokens if the house is in an emergency pause state.\n    function emergencyWithdrawCurrentSessionTokens()\n    public\n    onlyHouse\n    isHouseEmergency\n    returns (bool) {\n        require(depositedTokens[address(this)][currentSession] > 0);\n        uint currentSessionTokens = depositedTokens[address(this)][currentSession];\n        depositedTokens[address(this)][currentSession] = 0;\n        if(!decentBetToken.transfer(msg.sender, currentSessionTokens)) revert();\n        return true;\n    }\n\n    // Deposits DBET to contract for the current session.\n    // User needs to approve contract address for amount prior to calling this function.\n    function deposit(uint amount)\n    public\n    isDbetsAvailable(amount)\n    returns (bool) {\n        depositedTokens[msg.sender][currentSession] =\n        safeAdd(depositedTokens[msg.sender][currentSession], amount);\n        if(!decentBetToken.transferFrom(msg.sender, address(this), amount)) revert();\n        emit LogDeposit(msg.sender, amount, currentSession, depositedTokens[msg.sender][currentSession]);\n        return true;\n    }\n\n    // Withdraw DBETS from contract to sender address.\n    function withdraw(uint amount, uint session)\n    public\n    isValidPriorSession(session)\n    isTokensAvailable(amount, session)\n    returns (bool) {\n        depositedTokens[msg.sender][session] = safeSub(depositedTokens[msg.sender][session], amount);\n        if(!decentBetToken.transfer(msg.sender, amount)) revert();\n        emit LogWithdraw(msg.sender, amount, session, depositedTokens[msg.sender][session]);\n        return true;\n    }\n\n    function setSession(uint session)\n    public\n    onlyHouse returns (bool) {\n        currentSession = session;\n        return true;\n    }\n\n    // User deposits DBETs into contract and saves the AES-256 encrypted string of the initial random numbers\n    // used to generate all hashes\n    function depositChannel(bytes32 id, string _initialUserNumber, string _finalUserHash) // 584k gas\n    isSenderKycVerified\n    isNotHouseEmergency\n    isPlayer(id)\n    isUserNotReady(id)\n    public\n    returns (bool) {\n        require(strLen(_finalUserHash) == 64);\n        require(strLen(_initialUserNumber) == 64);\n        require(balanceOf(msg.sender, channels[id].session) >= channels[id].initialDeposit);\n        channels[id].initialUserNumber = _initialUserNumber;\n        channels[id].finalUserHash = _finalUserHash;\n        channels[id].ready = true;\n        transferTokensToChannel(id, false);\n        emit LogChannelDeposit(id, players[id][false], _finalUserHash);\n        return true;\n    }\n\n    // Allows users to remove their deposit from a channel IF the channel hasn't\n    // been activated yet and the user is ready.\n    function withdrawChannelDeposit(bytes32 id)\n    isSenderKycVerified\n    isPlayer(id)\n    isUserReady(id)\n    isNotActivated(id)\n    public {\n        uint channelDeposit = channelDeposits[id][false];\n        channelDeposits[id][false] = 0;\n        depositedTokens[msg.sender][channels[id].session] =\n            safeAdd(depositedTokens[msg.sender][channels[id].session], channelDeposit);\n        channels[id].ready = false;\n    }\n\n    // House sends the final reel and seed hashes to activate the channel along with the initial house seed hash\n    // to verify the blended seed after a channel is closed\n    function activateChannel(\n        bytes32 id,\n        string _finalSeedHash,\n        string _finalReelHash\n    ) // 373k gas\n    public\n    onlyAuthorized\n    isNotActivated(id)\n    isUserReady(id)\n    returns (bool) {\n        // The house will be unable to activate a channel IF it doesn't have enough tokens\n        // in it's balance - which could happen organically or at the end of a session.\n        require(balanceOf(address(this), channels[id].session) >= channels[id].initialDeposit);\n        channels[id].finalReelHash = _finalReelHash;\n        channels[id].finalSeedHash = _finalSeedHash;\n        channels[id].activated = true;\n        players[id][true] = msg.sender;\n        transferTokensToChannel(id, true);\n        emit LogChannelActivate(id, players[id][true], _finalSeedHash, _finalReelHash);\n        return true;\n    }\n\n    // Transfers tokens to a channel.\n    function transferTokensToChannel(bytes32 id, bool isHouse)\n    private {\n        // Transfer from house address instead of authorized addresses sending txs on behalf of the house\n        address _address = isHouse ? address(this) : players[id][false];\n        channelDeposits[id][isHouse] =\n        safeAdd(channelDeposits[id][isHouse], channels[id].initialDeposit);\n        depositedTokens[_address][channels[id].session] =\n        safeSub(depositedTokens[_address][channels[id].session], channels[id].initialDeposit);\n    }\n\n    // Sets the final spin for the channel\n    function setFinal(\n        bytes32 id,\n        uint userBalance,\n        uint houseBalance,\n        uint nonce,\n        bool turn\n    )\n    external {\n        require(msg.sender == address(slotsChannelFinalizer));\n\n        finalBalances[id][false] = userBalance;\n        finalBalances[id][true] = houseBalance;\n        channels[id].finalNonce = nonce;\n        channels[id].finalTurn = turn;\n        channels[id].endTime = getTime() + 1 minutes;\n        // Set at 1 minute only for Testnet\n        if (!channels[id].finalized) channels[id].finalized = true;\n        emit LogChannelFinalized(id, turn);\n    }\n\n    // Allows player/house to claim DBETs after the channel has closed\n    function claim(bytes32 id)\n    public {\n        require(isParticipant(id, msg.sender));\n\n        bool isHouse = (players[id][true] == msg.sender);\n\n        if (isChannelClosed(id)) {\n            uint256 amount = finalBalances[id][isHouse];\n            if (amount > 0) {\n                finalBalances[id][isHouse] = 0;\n                channelDeposits[id][isHouse] = 0;\n\n                // Deposit to the house address instead of authorized addresses sending txs on behalf of the house\n                address _address = isHouse ? address(this) : msg.sender;\n\n                depositedTokens[_address][channels[id].session] =\n                safeAdd(depositedTokens[_address][channels[id].session], amount);\n\n                emit LogClaimChannelTokens(id, isHouse, getTime());\n            }\n        } else\n            revert();\n    }\n\n    // Query balance of deposited tokens for a user.\n    function balanceOf(address _address, uint session)\n    public\n    view\n    returns (uint) {\n        return depositedTokens[_address][session];\n    }\n\n    // Query balance of channel tokens for either party\n    function channelBalanceOf(bytes32 id, bool isHouse)\n    public\n    view\n    returns (uint) {\n        return finalBalances[id][isHouse];\n    }\n\n    // Checks the signature of a spin sent and verifies it's validity\n    function checkSig(\n        bytes32 id,\n        bytes32 hash,\n        bytes sig,\n        bool turn\n    )\n    public\n    view\n    returns (bool) {\n        //        bytes32 hash = sha3(reelHash, reel, reelSeedHash, prevReelSeedHash, userHash, prevUserHash,\n        //        nonce, turn, userBalance, houseBalance, betSize);\n        //        address player = players[turn];\n        return ECVerify.ecverify(hash, sig, players[id][turn]);\n    }\n\n    // Returns the address for a signed spin\n    function getSigAddress(\n        bytes32 _msg,\n        uint8 v,\n        bytes32 r,\n        bytes32 s\n    )\n    public\n    pure\n    returns (address) {\n        return ecrecover(keccak256(_msg), v, r, s);\n    }\n\n    // Allows only the house and player to proceed\n    function isParticipant(bytes32 id, address _address)\n    public\n    view\n    returns (bool) {\n        return (houseAuthorizedController.authorized(_address) || _address == players[id][false]);\n    }\n\n    // Helper function to return channel information for the frontend\n    function getChannelInfo(bytes32 id)\n    public\n    view\n    returns (address, bool, bool, bool, uint, uint, uint) {\n        return (players[id][false],\n        channels[id].ready,\n        channels[id].activated,\n        channels[id].finalized,\n        channels[id].initialDeposit,\n        channels[id].finalNonce,\n        channels[id].endTime);\n    }\n\n    // Helper function to return hashes used for the frontend/backend\n    function getChannelHashes(bytes32 id)\n    public\n    view\n    returns (string, string, string, string) {\n        return (channels[id].finalUserHash,\n        channels[id].initialUserNumber,\n        channels[id].finalReelHash,\n        channels[id].finalSeedHash);\n    }\n\n    // Helper function to return whether a channel has been finalized and it's final nonce\n    function getChannelFinalized(bytes32 id)\n    public\n    view\n    returns (bool, uint) {\n        return (channels[id].finalized, channels[id].finalNonce);\n    }\n\n    function getPlayer(bytes32 id, bool isHouse)\n    public\n    view\n    returns (address){\n        return players[id][isHouse];\n    }\n\n    // Utility function to check whether the channel has closed\n    function isChannelClosed(bytes32 id)\n    public\n    view\n    returns (bool) {\n        return channels[id].finalized && getTime() > channels[id].endTime;\n    }\n\n    function getTime()\n    public\n    view\n    returns (uint) {\n        return now;\n    }\n\n}\n",
  "sourcePath": "/srv/platform-contracts/contracts/Casino/Slots/SlotsChannelManager.sol",
  "compiler": {
    "name": "solc",
    "version": "0.4.21+commit.dfe3193c.Emscripten.clang"
  },
  "schemaVersion": "2.0.0",
  "updatedAt": "2018-06-04T15:40:06.328Z"
}