{
  "contractName": "SlotsChannelFinalizer",
  "abi": [
    {
      "constant": true,
      "inputs": [
        {
          "name": "self",
          "type": "string"
        },
        {
          "name": "startIndex",
          "type": "uint256"
        }
      ],
      "name": "toBytes32",
      "outputs": [
        {
          "name": "b",
          "type": "bytes32"
        }
      ],
      "payable": false,
      "stateMutability": "pure",
      "type": "function"
    },
    {
      "constant": true,
      "inputs": [
        {
          "name": "_string",
          "type": "string"
        }
      ],
      "name": "strLen",
      "outputs": [
        {
          "name": "",
          "type": "uint256"
        }
      ],
      "payable": false,
      "stateMutability": "pure",
      "type": "function"
    },
    {
      "constant": true,
      "inputs": [],
      "name": "owner",
      "outputs": [
        {
          "name": "",
          "type": "address"
        }
      ],
      "payable": false,
      "stateMutability": "view",
      "type": "function"
    },
    {
      "constant": true,
      "inputs": [
        {
          "name": "x",
          "type": "bytes32"
        }
      ],
      "name": "bytes32ToString",
      "outputs": [
        {
          "name": "",
          "type": "string"
        }
      ],
      "payable": false,
      "stateMutability": "pure",
      "type": "function"
    },
    {
      "constant": true,
      "inputs": [
        {
          "name": "v",
          "type": "uint256"
        }
      ],
      "name": "uintToBytes",
      "outputs": [
        {
          "name": "ret",
          "type": "bytes32"
        }
      ],
      "payable": false,
      "stateMutability": "pure",
      "type": "function"
    },
    {
      "constant": true,
      "inputs": [
        {
          "name": "char",
          "type": "bytes1"
        }
      ],
      "name": "toByte",
      "outputs": [
        {
          "name": "c",
          "type": "bytes1"
        }
      ],
      "payable": false,
      "stateMutability": "pure",
      "type": "function"
    },
    {
      "constant": true,
      "inputs": [
        {
          "name": "b",
          "type": "bool"
        }
      ],
      "name": "boolToString",
      "outputs": [
        {
          "name": "",
          "type": "string"
        }
      ],
      "payable": false,
      "stateMutability": "pure",
      "type": "function"
    },
    {
      "constant": true,
      "inputs": [
        {
          "name": "s",
          "type": "string"
        },
        {
          "name": "index",
          "type": "uint256"
        }
      ],
      "name": "getCharAt",
      "outputs": [
        {
          "name": "",
          "type": "string"
        }
      ],
      "payable": false,
      "stateMutability": "pure",
      "type": "function"
    },
    {
      "constant": true,
      "inputs": [
        {
          "name": "s1",
          "type": "string"
        },
        {
          "name": "s2",
          "type": "string"
        }
      ],
      "name": "strCompare",
      "outputs": [
        {
          "name": "",
          "type": "bool"
        }
      ],
      "payable": false,
      "stateMutability": "pure",
      "type": "function"
    },
    {
      "constant": true,
      "inputs": [
        {
          "name": "n",
          "type": "uint256"
        }
      ],
      "name": "uintToString",
      "outputs": [
        {
          "name": "",
          "type": "string"
        }
      ],
      "payable": false,
      "stateMutability": "pure",
      "type": "function"
    },
    {
      "constant": true,
      "inputs": [
        {
          "name": "b",
          "type": "bytes32"
        }
      ],
      "name": "bytes32ToBool",
      "outputs": [
        {
          "name": "",
          "type": "bool"
        }
      ],
      "payable": false,
      "stateMutability": "pure",
      "type": "function"
    },
    {
      "inputs": [
        {
          "name": "_slotsHelper",
          "type": "address"
        },
        {
          "name": "_kycManager",
          "type": "address"
        }
      ],
      "payable": false,
      "stateMutability": "nonpayable",
      "type": "constructor"
    },
    {
      "constant": false,
      "inputs": [
        {
          "name": "_slotsChannelManager",
          "type": "address"
        }
      ],
      "name": "setSlotsChannelManager",
      "outputs": [],
      "payable": false,
      "stateMutability": "nonpayable",
      "type": "function"
    },
    {
      "constant": false,
      "inputs": [
        {
          "name": "id",
          "type": "bytes32"
        },
        {
          "name": "_curr",
          "type": "string"
        },
        {
          "name": "_prior",
          "type": "string"
        },
        {
          "name": "currR",
          "type": "bytes32"
        },
        {
          "name": "currS",
          "type": "bytes32"
        },
        {
          "name": "priorR",
          "type": "bytes32"
        },
        {
          "name": "priorS",
          "type": "bytes32"
        }
      ],
      "name": "finalize",
      "outputs": [
        {
          "name": "",
          "type": "bool"
        }
      ],
      "payable": false,
      "stateMutability": "nonpayable",
      "type": "function"
    }
  ],
  "bytecode": "0x6060604052341561000f57600080fd5b6040516040806130de83398101604052808051906020019091908051906020019091905050336000806101000a81548173ffffffffffffffffffffffffffffffffffffffff021916908373ffffffffffffffffffffffffffffffffffffffff16021790555060008273ffffffffffffffffffffffffffffffffffffffff161415151561009a57600080fd5b60008173ffffffffffffffffffffffffffffffffffffffff16141515156100c057600080fd5b81600260006101000a81548173ffffffffffffffffffffffffffffffffffffffff021916908373ffffffffffffffffffffffffffffffffffffffff16021790555080600360006101000a81548173ffffffffffffffffffffffffffffffffffffffff021916908373ffffffffffffffffffffffffffffffffffffffff1602179055505050612f8b806101536000396000f3006060604052600436106100c5576000357c0100000000000000000000000000000000000000000000000000000000900463ffffffff1680630af70aee146100ca5780634062fcc01461014c57806370d16127146101855780638da5cb5b146101f65780639201de551461024b57806394e8767d146102eb578063b89783aa1461032a578063e6659197146103c7578063e74b666a14610465578063e864165214610544578063e8f3d7e4146105fc578063e9395679146106f5578063f7302d7b14610791575b600080fd5b34156100d557600080fd5b61012e600480803590602001908201803590602001908080601f016020809104026020016040519081016040528093929190818152602001838380828437820191505050505050919080359060200190919050506107d0565b60405180826000191660001916815260200191505060405180910390f35b341561015757600080fd5b610183600480803573ffffffffffffffffffffffffffffffffffffffff169060200190919050506108a5565b005b341561019057600080fd5b6101e0600480803590602001908201803590602001908080601f01602080910402602001604051908101604052809392919081815260200183838082843782019150505050505091905050610944565b6040518082815260200191505060405180910390f35b341561020157600080fd5b61020961095e565b604051808273ffffffffffffffffffffffffffffffffffffffff1673ffffffffffffffffffffffffffffffffffffffff16815260200191505060405180910390f35b341561025657600080fd5b610270600480803560001916906020019091905050610983565b6040518080602001828103825283818151815260200191508051906020019080838360005b838110156102b0578082015181840152602081019050610295565b50505050905090810190601f1680156102dd5780820380516001836020036101000a031916815260200191505b509250505060405180910390f35b34156102f657600080fd5b61030c6004808035906020019091905050610b70565b60405180826000191660001916815260200191505060405180910390f35b341561033557600080fd5b61036d60048080357effffffffffffffffffffffffffffffffffffffffffffffffffffffffffffff1916906020019091905050610c19565b60405180827effffffffffffffffffffffffffffffffffffffffffffffffffffffffffffff19167effffffffffffffffffffffffffffffffffffffffffffffffffffffffffffff1916815260200191505060405180910390f35b34156103d257600080fd5b6103ea60048080351515906020019091905050610ceb565b6040518080602001828103825283818151815260200191508051906020019080838360005b8381101561042a57808201518184015260208101905061040f565b50505050905090810190601f1680156104575780820380516001836020036101000a031916815260200191505b509250505060405180910390f35b341561047057600080fd5b6104c9600480803590602001908201803590602001908080601f01602080910402602001604051908101604052809392919081815260200183838082843782019150505050505091908035906020019091905050610d8d565b6040518080602001828103825283818151815260200191508051906020019080838360005b838110156105095780820151818401526020810190506104ee565b50505050905090810190601f1680156105365780820380516001836020036101000a031916815260200191505b509250505060405180910390f35b341561054f57600080fd5b6105e2600480803590602001908201803590602001908080601f0160208091040260200160405190810160405280939291908181526020018383808284378201915050505050509190803590602001908201803590602001908080601f01602080910402602001604051908101604052809392919081815260200183838082843782019150505050505091905050610e7d565b604051808215151515815260200191505060405180910390f35b341561060757600080fd5b6106db60048080356000191690602001909190803590602001908201803590602001908080601f0160208091040260200160405190810160405280939291908181526020018383808284378201915050505050509190803590602001908201803590602001908080601f0160208091040260200160405190810160405280939291908181526020018383808284378201915050505050509190803560001916906020019091908035600019169060200190919080356000191690602001909190803560001916906020019091905050610eb2565b604051808215151515815260200191505060405180910390f35b341561070057600080fd5b6107166004808035906020019091905050611313565b6040518080602001828103825283818151815260200191508051906020019080838360005b8381101561075657808201518184015260208101905061073b565b50505050905090810190601f1680156107835780820380516001836020036101000a031916815260200191505b509250505060405180910390f35b341561079c57600080fd5b6107b6600480803560001916906020019091905050611339565b604051808215151515815260200191505060405180910390f35b6000806107db612e13565b6000602092506107ec868685611375565b9150600090505b8281101561089c5780600184030360080260020a828281518110151561081557fe5b9060200101517f010000000000000000000000000000000000000000000000000000000000000090047f0100000000000000000000000000000000000000000000000000000000000000027f0100000000000000000000000000000000000000000000000000000000000000900402846001900401600102935080806001019150506107f3565b50505092915050565b6000809054906101000a900473ffffffffffffffffffffffffffffffffffffffff1673ffffffffffffffffffffffffffffffffffffffff163373ffffffffffffffffffffffffffffffffffffffff1614151561090057600080fd5b80600160006101000a81548173ffffffffffffffffffffffffffffffffffffffff021916908373ffffffffffffffffffffffffffffffffffffffff16021790555050565b600061095761095283611593565b6115c1565b9050919050565b6000809054906101000a900473ffffffffffffffffffffffffffffffffffffffff1681565b61098b612e27565b610993612e13565b60008060006109a0612e13565b60206040518059106109af5750595b9080825280601f01601f1916602001820160405250945060009350600092505b6020831015610a8d578260080260020a876001900402600102915060007f010000000000000000000000000000000000000000000000000000000000000002827effffffffffffffffffffffffffffffffffffffffffffffffffffffffffffff1916141515610a8057818585815181101515610a4757fe5b9060200101907effffffffffffffffffffffffffffffffffffffffffffffffffffffffffffff1916908160001a90535083806001019450505b82806001019350506109cf565b83604051805910610a9b5750595b9080825280601f01601f19166020018201604052509050600092505b83831015610b63578483815181101515610acd57fe5b9060200101517f010000000000000000000000000000000000000000000000000000000000000090047f0100000000000000000000000000000000000000000000000000000000000000028184815181101515610b2657fe5b9060200101907effffffffffffffffffffffffffffffffffffffffffffffffffffffffffffff1916908160001a9053508280600101935050610ab7565b8095505050505050919050565b600080821415610ba2577f30000000000000000000000000000000000000000000000000000000000000009050610c11565b5b6000821115610c10576101008160019004811515610bbd57fe5b0460010290507f01000000000000000000000000000000000000000000000000000000000000006030600a84811515610bf257fe5b06010260010281179050600a82811515610c0857fe5b049150610ba3565b5b809050919050565b60006057827f0100000000000000000000000000000000000000000000000000000000000000900460ff161115610c9a576057827f01000000000000000000000000000000000000000000000000000000000000009004037f0100000000000000000000000000000000000000000000000000000000000000029050610ce6565b6030827f01000000000000000000000000000000000000000000000000000000000000009004037f01000000000000000000000000000000000000000000000000000000000000000290505b919050565b610cf3612e27565b600115158215151415610d3d576040805190810160405280600481526020017f74727565000000000000000000000000000000000000000000000000000000008152509050610d88565b600015158215151415610d87576040805190810160405280600581526020017f66616c73650000000000000000000000000000000000000000000000000000008152509050610d88565b5b919050565b610d95612e27565b610d9d612e13565b610da5612e27565b610dad612e13565b8592506001604051805910610dbf5750595b9080825280601f01601f191660200182016040525091508190508285815181101515610de757fe5b9060200101517f010000000000000000000000000000000000000000000000000000000000000090047f010000000000000000000000000000000000000000000000000000000000000002816000815181101515610e4157fe5b9060200101907effffffffffffffffffffffffffffffffffffffffffffffffffffffffffffff1916908160001a90535080935050505092915050565b600080610ea3610e8c84611593565b610e9586611593565b61168790919063ffffffff16565b90506000811491505092915050565b6000610ebc612e3b565b610ec4612e3b565b6000600360009054906101000a900473ffffffffffffffffffffffffffffffffffffffff1673ffffffffffffffffffffffffffffffffffffffff16630b9aa067600160009054906101000a900473ffffffffffffffffffffffffffffffffffffffff16336040518363ffffffff167c0100000000000000000000000000000000000000000000000000000000028152600401808373ffffffffffffffffffffffffffffffffffffffff1673ffffffffffffffffffffffffffffffffffffffff1681526020018273ffffffffffffffffffffffffffffffffffffffff1673ffffffffffffffffffffffffffffffffffffffff16815260200192505050602060405180830381600087803b1515610fd857600080fd5b5af11515610fe557600080fd5b505050604051805190501515610ffa57600080fd5b6000600160009054906101000a900473ffffffffffffffffffffffffffffffffffffffff1673ffffffffffffffffffffffffffffffffffffffff161415151561104257600080fd5b600160009054906101000a900473ffffffffffffffffffffffffffffffffffffffff1673ffffffffffffffffffffffffffffffffffffffff1663c44a89238c336040518363ffffffff167c01000000000000000000000000000000000000000000000000000000000281526004018083600019166000191681526020018273ffffffffffffffffffffffffffffffffffffffff1673ffffffffffffffffffffffffffffffffffffffff16815260200192505050602060405180830381600087803b151561110e57600080fd5b5af1151561111b57600080fd5b50505060405180519050151561113057600080fd5b6111398a611741565b925087836101800190600019169081600019168152505086836101a00190600019169081600019168152505061116e89611741565b915085826101800190600019169081600019168152505084826101a0019060001916908160001916815250506111a3826118f8565b90506111b0838383611b55565b15156111bb57600080fd5b6111c58b84611c11565b15156111d057600080fd5b6111da8b83611c11565b15156111e557600080fd5b6111ef83836121a6565b15156111fa57600080fd5b6112048383612349565b151561120f57600080fd5b61121d8b8460c0015161251a565b1561130157600160009054906101000a900473ffffffffffffffffffffffffffffffffffffffff1673ffffffffffffffffffffffffffffffffffffffff1663cfc4b1d18c8561010001518661012001518760c001518860e001516040518663ffffffff167c01000000000000000000000000000000000000000000000000000000000281526004018086600019166000191681526020018581526020018481526020018381526020018215151515815260200195505050505050600060405180830381600087803b15156112f057600080fd5b5af115156112fd57600080fd5b5050505b60019350505050979650505050505050565b61131b612e27565b600061132683610b70565b905061133181610983565b915050919050565b600080600102826000191614156113535760009050611370565b600180028260001916141561136b5760019050611370565b600080fd5b919050565b61137d612e13565b611385612e13565b61138d612e13565b6000806000889450866040518059106113a35750595b9080825280601f01601f191660200182016040525093506002870288865103106113d2576002870288016113d7565b878551035b92508791505b828210156115845787820390506002818115156113f657fe5b0660010360100a61145e868481518110151561140e57fe5b9060200101517f010000000000000000000000000000000000000000000000000000000000000090047f010000000000000000000000000000000000000000000000000000000000000002610c19565b7f01000000000000000000000000000000000000000000000000000000000000009004028460028381151561148f57fe5b0481518110151561149c57fe5b9060200101517f010000000000000000000000000000000000000000000000000000000000000090047f0100000000000000000000000000000000000000000000000000000000000000027f01000000000000000000000000000000000000000000000000000000000000009004017f0100000000000000000000000000000000000000000000000000000000000000028460028381151561153a57fe5b0481518110151561154757fe5b9060200101907effffffffffffffffffffffffffffffffffffffffffffffffffffffffffffff1916908160001a90535081806001019250506113dd565b83955050505050509392505050565b61159b612eda565b600060208301905060408051908101604052808451815260200182815250915050919050565b6000806000806000601f8660200151039350856000015184019250600091505b8284101561167b5760ff845116905060808160ff1610156116075760018401935061166e565b60e08160ff16101561161e5760028401935061166d565b60f08160ff1610156116355760038401935061166c565b60f88160ff16101561164c5760048401935061166b565b60fc8160ff1610156116635760058401935061166a565b6006840193505b5b5b5b5b81806001019250506115e1565b81945050505050919050565b60008060008060008060008060008a6000015197508a600001518a6000015110156116b457896000015197505b8a60200151965089602001519550600094505b87851015611725578651935085519250828414151561170e57600185896020030160080260020a0319915081831682851603905060008114151561170d57809850611733565b5b6020870196506020860195506020850194506116c7565b89600001518b600001510398505b505050505050505092915050565b611749612e3b565b611751612ef4565b611759612e3b565b611762846125f1565b91506101c060405190810160405280836000600e8110151561178057fe5b60200201518152602001836001600e8110151561179957fe5b60200201518152602001836002600e811015156117b257fe5b60200201518152602001836003600e811015156117cb57fe5b60200201518152602001836004600e811015156117e457fe5b60200201518152602001836005600e811015156117fd57fe5b60200201518152602001611823846006600e8110151561181957fe5b60200201516126b6565b8152602001611844846007600e8110151561183a57fe5b60200201516126ca565b15158152602001611867846008600e8110151561185d57fe5b60200201516126b6565b8152602001611888846009600e8110151561187e57fe5b60200201516126b6565b81526020016118a984600a600e8110151561189f57fe5b60200201516126b6565b81526020016118ca84600b600e811015156118c057fe5b60200201516126b6565b60ff168152602001600060010260001916815260200160006001026000191681525090508092505050919050565b6000611902612f23565b600080600260009054906101000a900473ffffffffffffffffffffffffffffffffffffffff1673ffffffffffffffffffffffffffffffffffffffff16639b3dd26686602001516040518263ffffffff167c01000000000000000000000000000000000000000000000000000000000281526004018080602001828103825283818151815260200191508051906020019080838360005b838110156119b3578082015181840152602081019050611998565b50505050905090810190601f1680156119e05780820380516001836020036101000a031916815260200191505b509250505060a060405180830381600087803b15156119fe57600080fd5b5af11515611a0b57600080fd5b5050506040518060a001604052925060019150600090505b60058160ff161015611a63576014838260ff16600581101515611a4257fe5b60200201511115611a565760009150611a63565b8080600101915050611a23565b811515611a6f57600080fd5b600260009054906101000a900473ffffffffffffffffffffffffffffffffffffffff1673ffffffffffffffffffffffffffffffffffffffff1663aa534bf7866101400151856040518363ffffffff167c01000000000000000000000000000000000000000000000000000000000281526004018083815260200182600560200280838360005b83811015611b10578082015181840152602081019050611af5565b5050505090500192505050602060405180830381600087803b1515611b3457600080fd5b5af11515611b4157600080fd5b505050604051805190509350505050919050565b60008360e0015115611bcc57611b7e611b7384610100015184612770565b84610140015161278e565b846101000151141515611b945760009050611c0a565b611bb1611ba68461012001518461278e565b846101400151612770565b846101200151141515611bc75760009050611c0a565b611c05565b826101000151846101000151141515611be85760009050611c0a565b826101200151846101200151141515611c045760009050611c0a565b5b600190505b9392505050565b6000806000836000015184602001518560400151866060015187608001518860a00151611c418a60c00151611313565b611c4e8b60e00151610ceb565b611c5c8c6101000151611313565b611c6a8d6101200151611313565b611c788e6101400151611313565b604051808c805190602001908083835b602083101515611cad5780518252602082019150602081019050602083039250611c88565b6001836020036101000a0380198251168184511680821785525050505050509050018b805190602001908083835b602083101515611d005780518252602082019150602081019050602083039250611cdb565b6001836020036101000a0380198251168184511680821785525050505050509050018a805190602001908083835b602083101515611d535780518252602082019150602081019050602083039250611d2e565b6001836020036101000a03801982511681845116808217855250505050505090500189805190602001908083835b602083101515611da65780518252602082019150602081019050602083039250611d81565b6001836020036101000a03801982511681845116808217855250505050505090500188805190602001908083835b602083101515611df95780518252602082019150602081019050602083039250611dd4565b6001836020036101000a03801982511681845116808217855250505050505090500187805190602001908083835b602083101515611e4c5780518252602082019150602081019050602083039250611e27565b6001836020036101000a03801982511681845116808217855250505050505090500186805190602001908083835b602083101515611e9f5780518252602082019150602081019050602083039250611e7a565b6001836020036101000a03801982511681845116808217855250505050505090500185805190602001908083835b602083101515611ef25780518252602082019150602081019050602083039250611ecd565b6001836020036101000a03801982511681845116808217855250505050505090500184805190602001908083835b602083101515611f455780518252602082019150602081019050602083039250611f20565b6001836020036101000a03801982511681845116808217855250505050505090500183805190602001908083835b602083101515611f985780518252602082019150602081019050602083039250611f73565b6001836020036101000a03801982511681845116808217855250505050505090500182805190602001908083835b602083101515611feb5780518252602082019150602081019050602083039250611fc6565b6001836020036101000a0380198251168184511680821785525050505050509050019b50505050505050505050505060405180910390209150600160009054906101000a900473ffffffffffffffffffffffffffffffffffffffff1673ffffffffffffffffffffffffffffffffffffffff1663465949c7868660e001516040518363ffffffff167c01000000000000000000000000000000000000000000000000000000000281526004018083600019166000191681526020018215151515815260200192505050602060405180830381600087803b15156120cc57600080fd5b5af115156120d957600080fd5b505050604051805190509050600182856101600151866101800151876101a00151604051600081526020016040526040518085600019166000191681526020018460ff1660ff1681526020018360001916600019168152602001826000191660001916815260200194505050505060206040516020810390808403906000865af1151561216557600080fd5b50506020604051035173ffffffffffffffffffffffffffffffffffffffff168173ffffffffffffffffffffffffffffffffffffffff16149250505092915050565b6000600283606001516040518082805190602001908083835b6020831015156121e457805182526020820191506020810190506020830392506121bf565b6001836020036101000a0380198251168184511680821785525050505050509050019150506020604051808303816000865af1151561222257600080fd5b5050604051805190506000191661223e836040015160006107d0565b600019161415156122525760009050612343565b61226483604001518360400151610e7d565b15156122735760009050612343565b600283608001516040518082805190602001908083835b6020831015156122af578051825260208201915060208101905060208303925061228a565b6001836020036101000a0380198251168184511680821785525050505050509050019150506020604051808303816000865af115156122ed57600080fd5b50506040518051905060001916612309836080015160006107d0565b6000191614151561231d5760009050612343565b61232f83608001518360a00151610e7d565b151561233e5760009050612343565b600190505b92915050565b60008015158360e00151151514156124385761236583836127a7565b15156123745760009050612514565b600260009054906101000a900473ffffffffffffffffffffffffffffffffffffffff1673ffffffffffffffffffffffffffffffffffffffff1663a75d1e818361014001516040518263ffffffff167c010000000000000000000000000000000000000000000000000000000002815260040180828152602001915050602060405180830381600087803b151561240957600080fd5b5af1151561241657600080fd5b50505060405180519050151561242f5760009050612514565b60019050612514565b600260009054906101000a900473ffffffffffffffffffffffffffffffffffffffff1673ffffffffffffffffffffffffffffffffffffffff1663a75d1e818461014001516040518263ffffffff167c010000000000000000000000000000000000000000000000000000000002815260040180828152602001915050602060405180830381600087803b15156124cd57600080fd5b5af115156124da57600080fd5b5050506040518051905015156124f35760009050612514565b81610140015183610140015114151561250f5760009050612514565b600190505b92915050565b6000806000600160009054906101000a900473ffffffffffffffffffffffffffffffffffffffff1673ffffffffffffffffffffffffffffffffffffffff166337d77e48866040518263ffffffff167c01000000000000000000000000000000000000000000000000000000000281526004018082600019166000191681526020019150506040805180830381600087803b15156125b657600080fd5b5af115156125c357600080fd5b5050506040518051906020018051905080925081935050508115806125e757508084115b9250505092915050565b6125f9612ef4565b612601612eda565b612609612eda565b612611612ef4565b600061261c86611593565b935061265c6040805190810160405280600181526020017f2f00000000000000000000000000000000000000000000000000000000000000815250611593565b9250600090505b600e8110156126aa57612687612682848661287e90919063ffffffff16565b612898565b8282600e8110151561269557fe5b60200201819052508080600101915050612663565b81945050505050919050565b60006126c38260006128f6565b9050919050565b600061270b826040805190810160405280600581526020017f66616c7365000000000000000000000000000000000000000000000000000000815250610e7d565b15612719576000905061276b565b612758826040805190810160405280600481526020017f7472756500000000000000000000000000000000000000000000000000000000815250610e7d565b15612766576001905061276b565b600080fd5b919050565b600080828401905083811015151561278457fe5b8091505092915050565b600082821115151561279c57fe5b818303905092915050565b60006127b1612e27565b6127dc6127c18460200151611593565b6127ce8560400151611593565b612bf090919063ffffffff16565b90506002816040518082805190602001908083835b60208310151561281657805182526020820191506020810190506020830392506127f1565b6001836020036101000a0380198251168184511680821785525050505050509050019150506020604051808303816000865af1151561285457600080fd5b50506040518051905060001916612870846000015160006107d0565b600019161491505092915050565b612886612eda565b612891838383612c6e565b5092915050565b6128a0612e27565b6128a8612e27565b600083600001516040518059106128bc5750595b9080825280601f01601f191660200182016040525091506020820190506128ec8185602001518660000151612d0c565b8192505050919050565b6000612900612e13565b60008060008693506000925060009150600090505b8351811015612bd15760307f010000000000000000000000000000000000000000000000000000000000000002848281518110151561295057fe5b9060200101517f010000000000000000000000000000000000000000000000000000000000000090047f0100000000000000000000000000000000000000000000000000000000000000027effffffffffffffffffffffffffffffffffffffffffffffffffffffffffffff191610158015612a68575060397f01000000000000000000000000000000000000000000000000000000000000000284828151811015156129f857fe5b9060200101517f010000000000000000000000000000000000000000000000000000000000000090047f0100000000000000000000000000000000000000000000000000000000000000027effffffffffffffffffffffffffffffffffffffffffffffffffffffffffffff191611155b15612b19578115612a8b576000861415612a8157612bd1565b8580600190039650505b600a8302925060308482815181101515612aa157fe5b9060200101517f010000000000000000000000000000000000000000000000000000000000000090047f0100000000000000000000000000000000000000000000000000000000000000027f010000000000000000000000000000000000000000000000000000000000000090040383019250612bc4565b602e7f0100000000000000000000000000000000000000000000000000000000000000028482815181101515612b4b57fe5b9060200101517f010000000000000000000000000000000000000000000000000000000000000090047f0100000000000000000000000000000000000000000000000000000000000000027effffffffffffffffffffffffffffffffffffffffffffffffffffffffffffff19161415612bc357600191505b5b8080600101915050612915565b6000861115612be35785600a0a830292505b8294505050505092915050565b612bf8612e27565b612c00612e27565b60008360000151856000015101604051805910612c1a5750595b9080825280601f01601f19166020018201604052509150602082019050612c4a8186602001518760000151612d0c565b612c638560000151820185602001518660000151612d0c565b819250505092915050565b612c76612eda565b6000612c948560000151866020015186600001518760200151612d57565b90508460200151836020018181525050846020015181038360000181815250508460000151856020015101811415612cd6576000856000018181525050612d01565b8360000151836000015101856000018181510391508181525050836000015181018560200181815250505b829150509392505050565b60005b602082101515612d345782518452602084019350602083019250602082039150612d0f565b6001826020036101000a0390508019835116818551168181178652505050505050565b60008060008060008887111515612e0157602087111515612db85760018760200360080260020a031980875116888b038a018a96505b818388511614612dad57600187019650806001880310612d8d578b8b0196505b505050839450612e07565b8686209150879350600092505b86890383111515612e00578684209050806000191682600019161415612ded57839450612e07565b6001840193508280600101935050612dc5565b5b88880194505b50505050949350505050565b602060405190810160405280600081525090565b602060405190810160405280600081525090565b6101c060405190810160405280612e50612f4b565b8152602001612e5d612f4b565b8152602001612e6a612f4b565b8152602001612e77612f4b565b8152602001612e84612f4b565b8152602001612e91612f4b565b815260200160008152602001600015158152602001600081526020016000815260200160008152602001600060ff16815260200160008019168152602001600080191681525090565b604080519081016040528060008152602001600081525090565b6101c060405190810160405280600e905b612f0d612f4b565b815260200190600190039081612f055790505090565b60a0604051908101604052806005905b6000815260200190600190039081612f335790505090565b6020604051908101604052806000815250905600a165627a7a723058209565464e37d80f0d1827b18f3fa73912a5cff70239a0fbafc1e435c34ed74cbf0029",
  "source": "pragma solidity 0.4.21;\n\n\nimport './SlotsImplementation.sol';\nimport './SlotsChannelManager.sol';\nimport './SlotsHelper.sol';\n\nimport '../../Libraries/SafeMath.sol';\nimport '../../Libraries/strings.sol';\nimport '../../Libraries/Utils.sol';\n\nimport '../../Kyc/KycManager.sol';\n\n// Since the finalize function call requires a lot of gas and makes SlotsChannelManager\n// un-deployable due to an OOG exception, we move it into a separate contract.\ncontract SlotsChannelFinalizer is SlotsImplementation, SafeMath, Utils {\n\n    address public owner;\n\n    // Length of each reel in characters\n    uint constant REEL_LENGTH = 21;\n\n    // Number of reels\n    uint constant NUMBER_OF_REELS = 5;\n\n    // Number of lines\n    uint constant NUMBER_OF_LINES = 5;\n\n    SlotsChannelManager slotsChannelManager;\n    SlotsHelper slotsHelper;\n    KycManager kycManager;\n\n    modifier onlyOwner() {\n        require(msg.sender == owner);\n        _;\n    }\n\n    modifier isSlotsChannelManagerSet() {\n        require(address(slotsChannelManager) != 0x0);\n        _;\n    }\n\n    // Allows functions to execute only if the sender has been KYC verified.\n    modifier isSenderKycVerified() {\n        require(kycManager.isVerified(address(slotsChannelManager), msg.sender));\n        _;\n    }\n\n    function SlotsChannelFinalizer(address _slotsHelper, address _kycManager)\n    public {\n        owner = msg.sender;\n        require(_slotsHelper != 0x0);\n        require(_kycManager != 0x0);\n        slotsHelper = SlotsHelper(_slotsHelper);\n        kycManager  = KycManager(_kycManager);\n    }\n\n    function setSlotsChannelManager(address _slotsChannelManager)\n    onlyOwner\n    public {\n        slotsChannelManager = SlotsChannelManager(_slotsChannelManager);\n    }\n\n    // Check reel array for winning lines (Currently 5 lines)\n    function getTotalSpinReward(Spin spin)\n    private\n    view\n    returns (uint) {\n        uint[5] memory reelArray = slotsHelper.convertReelToArray(spin.reel);\n        //300k gas\n        bool isValid = true;\n\n        for (uint8 i = 0; i < NUMBER_OF_REELS; i++) {\n            // Reel values can only be between 0 and 20\n            if (reelArray[i] > 20) {\n                isValid = false;\n                break;\n            }\n        }\n        require(isValid);\n\n        return slotsHelper.getTotalReward(spin.betSize, reelArray);\n    }\n\n    // Checks the signature of a spin sent and verifies it's validity\n    function checkSigPrivate(bytes32 id, Spin s)\n    private\n    view\n    returns (bool) {\n        bytes32 hash = keccak256(s.reelHash, s.reel, s.reelSeedHash, s.prevReelSeedHash, s.userHash, s.prevUserHash,\n        uintToString(s.nonce), boolToString(s.turn), uintToString(s.userBalance), uintToString(s.houseBalance),\n        uintToString(s.betSize));\n        address player = slotsChannelManager.getPlayer(id, s.turn);\n        return player == ecrecover(hash, s.v, s.r, s.s);\n    }\n\n    function checkSpinHashes(Spin curr, Spin prior)\n    private\n    pure\n    returns (bool) {\n        // During a player's turn, the spin would have the reel hash and\n        // seed hash which were sent from the server.\n\n        // Previous reel seed needs to be hash of current reel seed\n        if (toBytes32(prior.reelSeedHash, 0) != sha256(curr.prevReelSeedHash)) return false;\n\n        // Current and last spin should report the same reel seed hashes\n        if (!strCompare(curr.reelSeedHash, prior.reelSeedHash)) return false;\n\n        // Previous user hash needs to be hash of current user hash\n        if (toBytes32(prior.userHash, 0) != sha256(curr.userHash)) return false;\n\n        // Current and last spins should report the same user hashes\n        if (!strCompare(curr.userHash, prior.prevUserHash)) return false;\n\n        return true;\n    }\n\n    // Verifies last two spins and returns their validity\n    function checkPair(Spin curr, Spin prior)\n    private\n    view\n    returns (bool) {\n        // If Player's turn\n        if (curr.turn == false) {\n\n            // The last reel hash needs to be a hash of the last reel seed, user hash and reel\n            // The random numbers don't need to verified on contract, only the reel rewards\n            // Random numbers could be verified off-chain using the seed-random library using the\n            // below hash as the seed\n            if (!compareReelHashes(curr, prior)) return false;\n            // 103k gas\n\n            // Bet size can be only up to maximum number of lines\n            if(!slotsHelper.isValidBetSize(prior.betSize)) return false;\n            return true;\n        }\n        else {\n            // During the house's turn, the spin would have the user hash sent by the player\n\n            // 32k gas for all conditions\n\n            // Bet size can be only upto maximum number of lines\n            if(!slotsHelper.isValidBetSize(curr.betSize)) return false;\n\n            // Bet size needs to be determined by the user, not house\n            if (curr.betSize != prior.betSize) return false;\n            return true;\n        }\n\n    }\n\n    // Compare reel hashes for spins\n    function compareReelHashes(Spin curr, Spin prior)\n    private\n    pure\n    returns (bool) {\n        string memory hashSeed = (prior.reelSeedHash.toSlice()\n        .concat(prior.reel.toSlice()));\n        return toBytes32(prior.reelHash, 0) == sha256(hashSeed);\n    }\n\n    // Compares two spins and checks whether balances reflect user winnings\n    // Works only for user turns\n    function isAccurateBalances(Spin curr, Spin prior, uint totalSpinReward)\n    private\n    pure\n    returns (bool) {\n\n        if(curr.turn) {\n            // House turn\n\n            // User balance for this spin must be the last user balance + reward\n            if (curr.userBalance != safeSub(safeAdd(prior.userBalance, totalSpinReward), prior.betSize)) return false;\n\n            // House balance for this spin must be the last house balance - reward\n            if (curr.houseBalance != safeAdd(safeSub(prior.houseBalance, totalSpinReward), prior.betSize)) return false;\n        } else {\n            // User turn\n\n            // Both user and house balances should be equal for current and previous spins.\n            if(curr.userBalance != prior.userBalance) return false;\n\n            if(curr.houseBalance != prior.houseBalance) return false;\n        }\n\n        return true;\n    }\n\n    function finalize(bytes32 id, string _curr, string _prior,\n    bytes32 currR, bytes32 currS, bytes32 priorR, bytes32 priorS)\n    isSenderKycVerified\n    isSlotsChannelManagerSet\n    public\n    returns (bool) {\n\n        require(slotsChannelManager.isParticipant(id, msg.sender));\n\n        Spin memory curr = convertSpin(_curr);\n        // 5.6k gas\n        curr.r = currR;\n        curr.s = currS;\n\n        Spin memory prior = convertSpin(_prior);\n        // 5.6k gas\n        prior.r = priorR;\n        prior.s = priorS;\n\n        uint totalSpinReward = getTotalSpinReward(prior);\n\n        require(isAccurateBalances(curr, prior, totalSpinReward));\n\n        // 26k gas\n        require(checkSigPrivate(id, curr));\n        require(checkSigPrivate(id, prior));\n\n        // Checks if spin hashes are pre-images of previous hashes or are hashes in previous spins\n        require(checkSpinHashes(curr, prior));\n\n        // 5.6k gas\n        require(checkPair(curr, prior));\n\n        // Finalized\n        if (shouldFinalizeChannel(id, curr.nonce))\n            slotsChannelManager.setFinal(id, curr.userBalance, curr.houseBalance,\n            curr.nonce, curr.turn); // 86k gas\n\n        return true;\n    }\n\n    function shouldFinalizeChannel(bytes32 id, uint nonce)\n    private\n    view\n    returns (bool) {\n        bool finalized;\n        uint finalNonce;\n        (finalized, finalNonce) = slotsChannelManager.getChannelFinalized(id);\n        return (!finalized || nonce > finalNonce);\n    }\n\n    function getParts(string _spin)\n    private\n    returns (string[14]) {\n        var slice = _spin.toSlice();\n        var delimiter = \"/\".toSlice();\n        string[14] memory parts;\n        for (uint i = 0; i < parts.length; i++) {\n            parts[i] = slice.split(delimiter).toString();\n        }\n        return parts;\n    }\n\n    // Convert a bytes32 array to a Spin object\n    // Need this to get around 16 local variable function limit\n    function convertSpin(string _spin)\n    private\n    returns (Spin) {\n        string[14] memory parts = getParts(_spin);\n        Spin memory spin = Spin({\n            reelHash : parts[0],\n            reel : parts[1],\n            reelSeedHash : parts[2],\n            prevReelSeedHash : parts[3],\n            userHash : parts[4],\n            prevUserHash : parts[5],\n            nonce : parseInt(parts[6]),\n            turn : parseBool(parts[7]),\n            userBalance : parseInt(parts[8]),\n            houseBalance : parseInt(parts[9]),\n            betSize : parseInt(parts[10]),\n            v : (uint8)(parseInt(parts[11])),\n            r : 0,\n            s : 0\n        });\n        return spin;\n    }\n\n}\n",
  "sourcePath": "/srv/platform-contracts/contracts/Casino/Slots/SlotsChannelFinalizer.sol",
  "compiler": {
    "name": "solc",
    "version": "0.4.21+commit.dfe3193c.Emscripten.clang"
  },
  "schemaVersion": "2.0.0",
  "updatedAt": "2018-06-04T15:40:06.207Z"
}