{
  "contractName": "SlotsHelper",
  "abi": [
    {
      "constant": true,
      "inputs": [
        {
          "name": "self",
          "type": "string"
        },
        {
          "name": "startIndex",
          "type": "uint256"
        }
      ],
      "name": "toBytes32",
      "outputs": [
        {
          "name": "b",
          "type": "bytes32"
        }
      ],
      "payable": false,
      "stateMutability": "pure",
      "type": "function"
    },
    {
      "constant": true,
      "inputs": [],
      "name": "isSlotsHelper",
      "outputs": [
        {
          "name": "",
          "type": "bool"
        }
      ],
      "payable": false,
      "stateMutability": "view",
      "type": "function"
    },
    {
      "constant": true,
      "inputs": [
        {
          "name": "_string",
          "type": "string"
        }
      ],
      "name": "strLen",
      "outputs": [
        {
          "name": "",
          "type": "uint256"
        }
      ],
      "payable": false,
      "stateMutability": "pure",
      "type": "function"
    },
    {
      "constant": true,
      "inputs": [
        {
          "name": "x",
          "type": "bytes32"
        }
      ],
      "name": "bytes32ToString",
      "outputs": [
        {
          "name": "",
          "type": "string"
        }
      ],
      "payable": false,
      "stateMutability": "pure",
      "type": "function"
    },
    {
      "constant": true,
      "inputs": [
        {
          "name": "v",
          "type": "uint256"
        }
      ],
      "name": "uintToBytes",
      "outputs": [
        {
          "name": "ret",
          "type": "bytes32"
        }
      ],
      "payable": false,
      "stateMutability": "pure",
      "type": "function"
    },
    {
      "constant": true,
      "inputs": [
        {
          "name": "char",
          "type": "bytes1"
        }
      ],
      "name": "toByte",
      "outputs": [
        {
          "name": "c",
          "type": "bytes1"
        }
      ],
      "payable": false,
      "stateMutability": "pure",
      "type": "function"
    },
    {
      "constant": true,
      "inputs": [
        {
          "name": "b",
          "type": "bool"
        }
      ],
      "name": "boolToString",
      "outputs": [
        {
          "name": "",
          "type": "string"
        }
      ],
      "payable": false,
      "stateMutability": "pure",
      "type": "function"
    },
    {
      "constant": true,
      "inputs": [
        {
          "name": "s",
          "type": "string"
        },
        {
          "name": "index",
          "type": "uint256"
        }
      ],
      "name": "getCharAt",
      "outputs": [
        {
          "name": "",
          "type": "string"
        }
      ],
      "payable": false,
      "stateMutability": "pure",
      "type": "function"
    },
    {
      "constant": true,
      "inputs": [
        {
          "name": "s1",
          "type": "string"
        },
        {
          "name": "s2",
          "type": "string"
        }
      ],
      "name": "strCompare",
      "outputs": [
        {
          "name": "",
          "type": "bool"
        }
      ],
      "payable": false,
      "stateMutability": "pure",
      "type": "function"
    },
    {
      "constant": true,
      "inputs": [
        {
          "name": "n",
          "type": "uint256"
        }
      ],
      "name": "uintToString",
      "outputs": [
        {
          "name": "",
          "type": "string"
        }
      ],
      "payable": false,
      "stateMutability": "pure",
      "type": "function"
    },
    {
      "constant": true,
      "inputs": [
        {
          "name": "b",
          "type": "bytes32"
        }
      ],
      "name": "bytes32ToBool",
      "outputs": [
        {
          "name": "",
          "type": "bool"
        }
      ],
      "payable": false,
      "stateMutability": "pure",
      "type": "function"
    },
    {
      "inputs": [],
      "payable": false,
      "stateMutability": "nonpayable",
      "type": "constructor"
    },
    {
      "constant": true,
      "inputs": [
        {
          "name": "reel",
          "type": "string"
        }
      ],
      "name": "convertReelToArray",
      "outputs": [
        {
          "name": "",
          "type": "uint256[5]"
        }
      ],
      "payable": false,
      "stateMutability": "pure",
      "type": "function"
    },
    {
      "constant": true,
      "inputs": [
        {
          "name": "betSize",
          "type": "uint256"
        },
        {
          "name": "reelArray",
          "type": "uint256[5]"
        }
      ],
      "name": "getTotalReward",
      "outputs": [
        {
          "name": "",
          "type": "uint256"
        }
      ],
      "payable": false,
      "stateMutability": "view",
      "type": "function"
    },
    {
      "constant": true,
      "inputs": [
        {
          "name": "betSize",
          "type": "uint256"
        }
      ],
      "name": "getAdjustedBetSize",
      "outputs": [
        {
          "name": "",
          "type": "uint256"
        }
      ],
      "payable": false,
      "stateMutability": "pure",
      "type": "function"
    },
    {
      "constant": true,
      "inputs": [
        {
          "name": "betSize",
          "type": "uint256"
        }
      ],
      "name": "isValidBetSize",
      "outputs": [
        {
          "name": "",
          "type": "bool"
        }
      ],
      "payable": false,
      "stateMutability": "pure",
      "type": "function"
    }
  ],
  "bytecode": "0x606060405260016000806101000a81548160ff0219169083151502179055506001600760006101000a81548160ff021916908360ff1602179055506002600760016101000a81548160ff021916908360ff1602179055506003600760026101000a81548160ff021916908360ff1602179055506004600760036101000a81548160ff021916908360ff1602179055506005600760046101000a81548160ff021916908360ff1602179055506006600760056101000a81548160ff021916908360ff16021790555060078060066101000a81548160ff021916908360ff1602179055503415620000ed57600080fd5b6200010b6200012f6401000000000262002338176401000000009004565b6200012962000630640100000000026200282a176401000000009004565b62000834565b6102a060405190810160405280600760ff168152602001600260ff168152602001600260ff168152602001600160ff168152602001600560ff168152602001600360ff168152602001600560ff168152602001600360ff168152602001600260ff168152602001600260ff168152602001600360ff168152602001600460ff168152602001600260ff168152602001600560ff168152602001600160ff168152602001600160ff168152602001600660ff168152602001600460ff168152602001600160ff168152602001600560ff168152602001600360ff16815250600160006005811015156200021d57fe5b019060156200022e92919062000760565b506102a060405190810160405280600160ff168152602001600160ff168152602001600360ff168152602001600360ff168152602001600560ff168152602001600360ff168152602001600560ff168152602001600160ff168152602001600260ff168152602001600260ff168152602001600460ff168152602001600160ff168152602001600360ff168152602001600460ff168152602001600360ff168152602001600260ff168152602001600260ff168152602001600660ff168152602001600660ff168152602001600360ff168152602001600760ff168152506001806005811015156200031c57fe5b019060156200032d92919062000760565b506102a060405190810160405280600460ff168152602001600260ff168152602001600760ff168152602001600360ff168152602001600260ff168152602001600660ff168152602001600160ff168152602001600460ff168152602001600360ff168152602001600160ff168152602001600560ff168152602001600160ff168152602001600160ff168152602001600460ff168152602001600460ff168152602001600160ff168152602001600560ff168152602001600260ff168152602001600260ff168152602001600160ff168152602001600160ff16815250600160026005811015156200041c57fe5b019060156200042d92919062000760565b506102a060405190810160405280600160ff168152602001600160ff168152602001600560ff168152602001600160ff168152602001600260ff168152602001600760ff168152602001600460ff168152602001600260ff168152602001600160ff168152602001600360ff168152602001600260ff168152602001600260ff168152602001600360ff168152602001600160ff168152602001600160ff168152602001600260ff168152602001600660ff168152602001600260ff168152602001600660ff168152602001600360ff168152602001600560ff16815250600160036005811015156200051c57fe5b019060156200052d92919062000760565b506102a060405190810160405280600160ff168152602001600460ff168152602001600160ff168152602001600160ff168152602001600260ff168152602001600460ff168152602001600160ff168152602001600360ff168152602001600660ff168152602001600260ff168152602001600760ff168152602001600260ff168152602001600460ff168152602001600160ff168152602001600360ff168152602001600160ff168152602001600360ff168152602001600660ff168152602001600160ff168152602001600260ff168152602001600560ff16815250600160046005811015156200061c57fe5b019060156200062d92919062000760565b50565b600a60066000600760009054906101000a900460ff1660ff16815260200190815260200160002081905550601460066000600760019054906101000a900460ff1660ff16815260200190815260200160002081905550602860066000600760029054906101000a900460ff1660ff16815260200190815260200160002081905550603260066000600760039054906101000a900460ff1660ff16815260200190815260200160002081905550604b60066000600760049054906101000a900460ff1660ff16815260200190815260200160002081905550609660066000600760059054906101000a900460ff1660ff1681526020019081526020016000208190555061012c60066000600760069054906101000a900460ff1660ff16815260200190815260200160002081905550565b826015601f01602090048101928215620007ee5791602002820160005b83821115620007bd57835183826101000a81548160ff021916908360ff16021790555092602001926001016020816000010492830192600103026200077d565b8015620007ec5782816101000a81549060ff0219169055600101602081600001049283019260010302620007bd565b505b509050620007fd919062000801565b5090565b6200083191905b808211156200082d57600081816101000a81549060ff02191690555060010162000808565b5090565b90565b612a5080620008446000396000f3006060604052600436106100db576000357c0100000000000000000000000000000000000000000000000000000000900463ffffffff1680630af70aee146100e057806358c602a81461016257806370d161271461018f5780639201de551461020057806394e8767d146102a05780639b3dd266146102df578063a75d1e8114610378578063aa534bf7146103b3578063ada8f1ee14610416578063b89783aa1461044d578063e6659197146104ea578063e74b666a14610588578063e864165214610667578063e93956791461071f578063f7302d7b146107bb575b600080fd5b34156100eb57600080fd5b610144600480803590602001908201803590602001908080601f016020809104026020016040519081016040528093929190818152602001838380828437820191505050505050919080359060200190919050506107fa565b60405180826000191660001916815260200191505060405180910390f35b341561016d57600080fd5b6101756108cf565b604051808215151515815260200191505060405180910390f35b341561019a57600080fd5b6101ea600480803590602001908201803590602001908080601f016020809104026020016040519081016040528093929190818152602001838380828437820191505050505050919050506108e1565b6040518082815260200191505060405180910390f35b341561020b57600080fd5b6102256004808035600019169060200190919050506108fb565b6040518080602001828103825283818151815260200191508051906020019080838360005b8381101561026557808201518184015260208101905061024a565b50505050905090810190601f1680156102925780820380516001836020036101000a031916815260200191505b509250505060405180910390f35b34156102ab57600080fd5b6102c16004808035906020019091905050610ae8565b60405180826000191660001916815260200191505060405180910390f35b34156102ea57600080fd5b61033a600480803590602001908201803590602001908080601f01602080910402602001604051908101604052809392919081815260200183838082843782019150505050505091905050610b91565b6040518082600560200280838360005b8381101561036557808201518184015260208101905061034a565b5050505090500191505060405180910390f35b341561038357600080fd5b6103996004808035906020019091905050610cc2565b604051808215151515815260200191505060405180910390f35b34156103be57600080fd5b6104006004808035906020019091908060a001906005806020026040519081016040528092919082600560200280828437820191505050505091905050610d7f565b6040518082815260200191505060405180910390f35b341561042157600080fd5b6104376004808035906020019091905050610dee565b6040518082815260200191505060405180910390f35b341561045857600080fd5b61049060048080357effffffffffffffffffffffffffffffffffffffffffffffffffffffffffffff1916906020019091905050610ef9565b60405180827effffffffffffffffffffffffffffffffffffffffffffffffffffffffffffff19167effffffffffffffffffffffffffffffffffffffffffffffffffffffffffffff1916815260200191505060405180910390f35b34156104f557600080fd5b61050d60048080351515906020019091905050610fcb565b6040518080602001828103825283818151815260200191508051906020019080838360005b8381101561054d578082015181840152602081019050610532565b50505050905090810190601f16801561057a5780820380516001836020036101000a031916815260200191505b509250505060405180910390f35b341561059357600080fd5b6105ec600480803590602001908201803590602001908080601f0160208091040260200160405190810160405280939291908181526020018383808284378201915050505050509190803590602001909190505061106d565b6040518080602001828103825283818151815260200191508051906020019080838360005b8381101561062c578082015181840152602081019050610611565b50505050905090810190601f1680156106595780820380516001836020036101000a031916815260200191505b509250505060405180910390f35b341561067257600080fd5b610705600480803590602001908201803590602001908080601f0160208091040260200160405190810160405280939291908181526020018383808284378201915050505050509190803590602001908201803590602001908080601f0160208091040260200160405190810160405280939291908181526020018383808284378201915050505050509190505061115d565b604051808215151515815260200191505060405180910390f35b341561072a57600080fd5b6107406004808035906020019091905050611192565b6040518080602001828103825283818151815260200191508051906020019080838360005b83811015610780578082015181840152602081019050610765565b50505050905090810190601f1680156107ad5780820380516001836020036101000a031916815260200191505b509250505060405180910390f35b34156107c657600080fd5b6107e06004808035600019169060200190919050506111b8565b604051808215151515815260200191505060405180910390f35b6000806108056122ce565b6000602092506108168686856111f4565b9150600090505b828110156108c65780600184030360080260020a828281518110151561083f57fe5b9060200101517f010000000000000000000000000000000000000000000000000000000000000090047f0100000000000000000000000000000000000000000000000000000000000000027f01000000000000000000000000000000000000000000000000000000000000009004028460019004016001029350808060010191505061081d565b50505092915050565b6000809054906101000a900460ff1681565b60006108f46108ef83611412565b611440565b9050919050565b6109036122e2565b61090b6122ce565b60008060006109186122ce565b60206040518059106109275750595b9080825280601f01601f1916602001820160405250945060009350600092505b6020831015610a05578260080260020a876001900402600102915060007f010000000000000000000000000000000000000000000000000000000000000002827effffffffffffffffffffffffffffffffffffffffffffffffffffffffffffff19161415156109f8578185858151811015156109bf57fe5b9060200101907effffffffffffffffffffffffffffffffffffffffffffffffffffffffffffff1916908160001a90535083806001019450505b8280600101935050610947565b83604051805910610a135750595b9080825280601f01601f19166020018201604052509050600092505b83831015610adb578483815181101515610a4557fe5b9060200101517f010000000000000000000000000000000000000000000000000000000000000090047f0100000000000000000000000000000000000000000000000000000000000000028184815181101515610a9e57fe5b9060200101907effffffffffffffffffffffffffffffffffffffffffffffffffffffffffffff1916908160001a9053508280600101935050610a2f565b8095505050505050919050565b600080821415610b1a577f30000000000000000000000000000000000000000000000000000000000000009050610b89565b5b6000821115610b88576101008160019004811515610b3557fe5b0460010290507f01000000000000000000000000000000000000000000000000000000000000006030600a84811515610b6a57fe5b06010260010281179050600a82811515610b8057fe5b049150610b1b565b5b809050919050565b610b996122f6565b610ba16122f6565b610ba96122e2565b600080610bb46122e2565b6020604051908101604052806000815250935060009250600091505b610bd9876108e1565b8260ff161015610c9257610bf0878360ff1661106d565b9050610c31816040805190810160405280600181526020017f2c0000000000000000000000000000000000000000000000000000000000000081525061115d565b1515610c4857610c418482611506565b9350610c85565b610c5184611553565b858480600101955060ff16600581101515610c6857fe5b602002018181525050602060405190810160405280600081525093505b8180600101925050610bd0565b610c9b84611553565b858460ff16600581101515610cac57fe5b6020020181815250508495505050505050919050565b60006005670de0b6b3a764000083811515610cd957fe5b0411158015610cfc57506001670de0b6b3a764000083811515610cf857fe5b0410155b80610d3b5750600567016345785d8a000083811515610d1757fe5b0411158015610d3a5750600167016345785d8a000083811515610d3657fe5b0410155b5b80610d7857506005662386f26fc1000083811515610d5557fe5b0411158015610d7757506001662386f26fc1000083811515610d7357fe5b0410155b5b9050919050565b60008060008060009250610d9286610dee565b9150600090505b818160ff161015610dce57610dbf83610dba610db58489611567565b61190e565b6119da565b92508080600101915050610d99565b610de083670de0b6b3a76400006119f8565b925082935050505092915050565b60006005670de0b6b3a764000083811515610e0557fe5b0411158015610e2857506001670de0b6b3a764000083811515610e2457fe5b0410155b15610e4657610e3f82670de0b6b3a7640000611a33565b9050610ef4565b600567016345785d8a000083811515610e5b57fe5b0411158015610e7e5750600167016345785d8a000083811515610e7a57fe5b0410155b15610e9c57610e958267016345785d8a0000611a33565b9050610ef4565b6005662386f26fc1000083811515610eb057fe5b0411158015610ed257506001662386f26fc1000083811515610ece57fe5b0410155b15610eef57610ee882662386f26fc10000611a33565b9050610ef4565b600080fd5b919050565b60006057827f0100000000000000000000000000000000000000000000000000000000000000900460ff161115610f7a576057827f01000000000000000000000000000000000000000000000000000000000000009004037f0100000000000000000000000000000000000000000000000000000000000000029050610fc6565b6030827f01000000000000000000000000000000000000000000000000000000000000009004037f01000000000000000000000000000000000000000000000000000000000000000290505b919050565b610fd36122e2565b60011515821515141561101d576040805190810160405280600481526020017f74727565000000000000000000000000000000000000000000000000000000008152509050611068565b600015158215151415611067576040805190810160405280600581526020017f66616c73650000000000000000000000000000000000000000000000000000008152509050611068565b5b919050565b6110756122e2565b61107d6122ce565b6110856122e2565b61108d6122ce565b859250600160405180591061109f5750595b9080825280601f01601f1916602001820160405250915081905082858151811015156110c757fe5b9060200101517f010000000000000000000000000000000000000000000000000000000000000090047f01000000000000000000000000000000000000000000000000000000000000000281600081518110151561112157fe5b9060200101907effffffffffffffffffffffffffffffffffffffffffffffffffffffffffffff1916908160001a90535080935050505092915050565b60008061118361116c84611412565b61117586611412565b611a4990919063ffffffff16565b90506000811491505092915050565b61119a6122e2565b60006111a583610ae8565b90506111b0816108fb565b915050919050565b600080600102826000191614156111d257600090506111ef565b60018002826000191614156111ea57600190506111ef565b600080fd5b919050565b6111fc6122ce565b6112046122ce565b61120c6122ce565b6000806000889450866040518059106112225750595b9080825280601f01601f1916602001820160405250935060028702888651031061125157600287028801611256565b878551035b92508791505b8282101561140357878203905060028181151561127557fe5b0660010360100a6112dd868481518110151561128d57fe5b9060200101517f010000000000000000000000000000000000000000000000000000000000000090047f010000000000000000000000000000000000000000000000000000000000000002610ef9565b7f01000000000000000000000000000000000000000000000000000000000000009004028460028381151561130e57fe5b0481518110151561131b57fe5b9060200101517f010000000000000000000000000000000000000000000000000000000000000090047f0100000000000000000000000000000000000000000000000000000000000000027f01000000000000000000000000000000000000000000000000000000000000009004017f010000000000000000000000000000000000000000000000000000000000000002846002838115156113b957fe5b048151811015156113c657fe5b9060200101907effffffffffffffffffffffffffffffffffffffffffffffffffffffffffffff1916908160001a905350818060010192505061125c565b83955050505050509392505050565b61141a61231e565b600060208301905060408051908101604052808451815260200182815250915050919050565b6000806000806000601f8660200151039350856000015184019250600091505b828410156114fa5760ff845116905060808160ff161015611486576001840193506114ed565b60e08160ff16101561149d576002840193506114ec565b60f08160ff1610156114b4576003840193506114eb565b60f88160ff1610156114cb576004840193506114ea565b60fc8160ff1610156114e2576005840193506114e9565b6006840193505b5b5b5b5b8180600101925050611460565b81945050505050919050565b61150e6122e2565b61154b8383602060405190810160405280600081525060206040519081016040528060008152506020604051908101604052806000815250611b03565b905092915050565b6000611560826000611f3b565b9050919050565b61156f6122f6565b60006115796122f6565b6000915060008560ff1614156115e857600091505b60058260ff1610156115e3576115b982858460ff166005811015156115af57fe5b6020020151612235565b60ff16818360ff166005811015156115cd57fe5b602002018181525050818060010192505061158e565b611903565b60018560ff16141561165657600091505b60058260ff16101561165157611627826001868560ff1660058110151561161c57fe5b602002015103612235565b60ff16818360ff1660058110151561163b57fe5b60200201818152505081806001019250506115f9565b611902565b60028560ff1614156116c457600091505b60058260ff1610156116bf57611695826001868560ff1660058110151561168a57fe5b602002015101612235565b60ff16818360ff166005811015156116a957fe5b6020020181815250508180600101925050611667565b611901565b60038560ff1614156117df57600091505b60058260ff1610156117da5760008260ff1614806116f6575060048260ff16145b1561173f5761171d826001868560ff1660058110151561171257fe5b602002015103612235565b60ff16818360ff1660058110151561173157fe5b6020020181815250506117cd565b60028260ff16141561178f5761176d826001868560ff1660058110151561176257fe5b602002015101612235565b60ff16818360ff1660058110151561178157fe5b6020020181815250506117cc565b6117ae82858460ff166005811015156117a457fe5b6020020151612235565b60ff16818360ff166005811015156117c257fe5b6020020181815250505b5b81806001019250506116d5565b611900565b60048560ff1614156118fa57600091505b60058260ff1610156118f55760008260ff161480611811575060048260ff16145b1561185a57611838826001868560ff1660058110151561182d57fe5b602002015101612235565b60ff16818360ff1660058110151561184c57fe5b6020020181815250506118e8565b60028260ff1614156118aa57611888826001868560ff1660058110151561187d57fe5b602002015103612235565b60ff16818360ff1660058110151561189c57fe5b6020020181815250506118e7565b6118c982858460ff166005811015156118bf57fe5b6020020151612235565b60ff16818360ff166005811015156118dd57fe5b6020020181815250505b5b81806001019250506117f0565b6118ff565b600080fd5b5b5b5b5b809250505092915050565b6000806000806000925060009150600190505b60058160ff1611151561198257846001820360ff1660058110151561194257fe5b6020020151858260ff1660058110151561195857fe5b60200201511415611970578280600101935050611975565b611982565b8080600101915050611921565b60038360ff161015156119cf576119cc600660008760006005811015156119a557fe5b60200201518152602001908152602001600020546119c78560ff1660026122b5565b6119f8565b91505b819350505050919050565b60008082840190508381101515156119ee57fe5b8091505092915050565b6000806000841415611a0d5760009150611a2c565b8284029050828482811515611a1e57fe5b04141515611a2857fe5b8091505b5092915050565b60008183811515611a4057fe5b04905092915050565b60008060008060008060008060008a6000015197508a600001518a600001511015611a7657896000015197505b8a60200151965089602001519550600094505b87851015611ae75786519350855192508284141515611ad057600185896020030160080260020a03199150818316828516039050600081141515611acf57809850611af5565b5b602087019650602086019550602085019450611a89565b89600001518b600001510398505b505050505050505092915050565b611b0b6122e2565b611b136122ce565b611b1b6122ce565b611b236122ce565b611b2b6122ce565b611b336122ce565b611b3b6122e2565b611b436122ce565b6000808e98508d97508c96508b95508a94508451865188518a518c5101010101604051805910611b705750595b9080825280601f01601f1916602001820160405250935083925060009150600090505b8851811015611c46578881815181101515611baa57fe5b9060200101517f010000000000000000000000000000000000000000000000000000000000000090047f0100000000000000000000000000000000000000000000000000000000000000028383806001019450815181101515611c0957fe5b9060200101907effffffffffffffffffffffffffffffffffffffffffffffffffffffffffffff1916908160001a9053508080600101915050611b93565b600090505b8751811015611cfe578781815181101515611c6257fe5b9060200101517f010000000000000000000000000000000000000000000000000000000000000090047f0100000000000000000000000000000000000000000000000000000000000000028383806001019450815181101515611cc157fe5b9060200101907effffffffffffffffffffffffffffffffffffffffffffffffffffffffffffff1916908160001a9053508080600101915050611c4b565b600090505b8651811015611db6578681815181101515611d1a57fe5b9060200101517f010000000000000000000000000000000000000000000000000000000000000090047f0100000000000000000000000000000000000000000000000000000000000000028383806001019450815181101515611d7957fe5b9060200101907effffffffffffffffffffffffffffffffffffffffffffffffffffffffffffff1916908160001a9053508080600101915050611d03565b600090505b8551811015611e6e578581815181101515611dd257fe5b9060200101517f010000000000000000000000000000000000000000000000000000000000000090047f0100000000000000000000000000000000000000000000000000000000000000028383806001019450815181101515611e3157fe5b9060200101907effffffffffffffffffffffffffffffffffffffffffffffffffffffffffffff1916908160001a9053508080600101915050611dbb565b600090505b8451811015611f26578481815181101515611e8a57fe5b9060200101517f010000000000000000000000000000000000000000000000000000000000000090047f0100000000000000000000000000000000000000000000000000000000000000028383806001019450815181101515611ee957fe5b9060200101907effffffffffffffffffffffffffffffffffffffffffffffffffffffffffffff1916908160001a9053508080600101915050611e73565b82995050505050505050505095945050505050565b6000611f456122ce565b60008060008693506000925060009150600090505b83518110156122165760307f0100000000000000000000000000000000000000000000000000000000000000028482815181101515611f9557fe5b9060200101517f010000000000000000000000000000000000000000000000000000000000000090047f0100000000000000000000000000000000000000000000000000000000000000027effffffffffffffffffffffffffffffffffffffffffffffffffffffffffffff1916101580156120ad575060397f010000000000000000000000000000000000000000000000000000000000000002848281518110151561203d57fe5b9060200101517f010000000000000000000000000000000000000000000000000000000000000090047f0100000000000000000000000000000000000000000000000000000000000000027effffffffffffffffffffffffffffffffffffffffffffffffffffffffffffff191611155b1561215e5781156120d05760008614156120c657612216565b8580600190039650505b600a83029250603084828151811015156120e657fe5b9060200101517f010000000000000000000000000000000000000000000000000000000000000090047f0100000000000000000000000000000000000000000000000000000000000000027f010000000000000000000000000000000000000000000000000000000000000090040383019250612209565b602e7f010000000000000000000000000000000000000000000000000000000000000002848281518110151561219057fe5b9060200101517f010000000000000000000000000000000000000000000000000000000000000090047f0100000000000000000000000000000000000000000000000000000000000000027effffffffffffffffffffffffffffffffffffffffffffffffffffffffffffff1916141561220857600191505b5b8080600101915050611f5a565b60008611156122285785600a0a830292505b8294505050505092915050565b60007fffffffffffffffffffffffffffffffffffffffffffffffffffffffffffffffff8214156122685760149150612277565b601582141561227657600091505b5b60018360ff1660058110151561228957fe5b018260158110151561229757fe5b602091828204019190069054906101000a900460ff16905092915050565b60008282111515156122c357fe5b818303905092915050565b602060405190810160405280600081525090565b602060405190810160405280600081525090565b60a0604051908101604052806005905b60008152602001906001900390816123065790505090565b604080519081016040528060008152602001600081525090565b6102a060405190810160405280600760ff168152602001600260ff168152602001600260ff168152602001600160ff168152602001600560ff168152602001600360ff168152602001600560ff168152602001600360ff168152602001600260ff168152602001600260ff168152602001600360ff168152602001600460ff168152602001600260ff168152602001600560ff168152602001600160ff168152602001600160ff168152602001600660ff168152602001600460ff168152602001600160ff168152602001600560ff168152602001600360ff168152506001600060058110151561242557fe5b0190601561243492919061295a565b506102a060405190810160405280600160ff168152602001600160ff168152602001600360ff168152602001600360ff168152602001600560ff168152602001600360ff168152602001600560ff168152602001600160ff168152602001600260ff168152602001600260ff168152602001600460ff168152602001600160ff168152602001600360ff168152602001600460ff168152602001600360ff168152602001600260ff168152602001600260ff168152602001600660ff168152602001600660ff168152602001600360ff168152602001600760ff1681525060018060058110151561252157fe5b0190601561253092919061295a565b506102a060405190810160405280600460ff168152602001600260ff168152602001600760ff168152602001600360ff168152602001600260ff168152602001600660ff168152602001600160ff168152602001600460ff168152602001600360ff168152602001600160ff168152602001600560ff168152602001600160ff168152602001600160ff168152602001600460ff168152602001600460ff168152602001600160ff168152602001600560ff168152602001600260ff168152602001600260ff168152602001600160ff168152602001600160ff168152506001600260058110151561261e57fe5b0190601561262d92919061295a565b506102a060405190810160405280600160ff168152602001600160ff168152602001600560ff168152602001600160ff168152602001600260ff168152602001600760ff168152602001600460ff168152602001600260ff168152602001600160ff168152602001600360ff168152602001600260ff168152602001600260ff168152602001600360ff168152602001600160ff168152602001600160ff168152602001600260ff168152602001600660ff168152602001600260ff168152602001600660ff168152602001600360ff168152602001600560ff168152506001600360058110151561271b57fe5b0190601561272a92919061295a565b506102a060405190810160405280600160ff168152602001600460ff168152602001600160ff168152602001600160ff168152602001600260ff168152602001600460ff168152602001600160ff168152602001600360ff168152602001600660ff168152602001600260ff168152602001600760ff168152602001600260ff168152602001600460ff168152602001600160ff168152602001600360ff168152602001600160ff168152602001600360ff168152602001600660ff168152602001600160ff168152602001600260ff168152602001600560ff168152506001600460058110151561281857fe5b0190601561282792919061295a565b50565b600a60066000600760009054906101000a900460ff1660ff16815260200190815260200160002081905550601460066000600760019054906101000a900460ff1660ff16815260200190815260200160002081905550602860066000600760029054906101000a900460ff1660ff16815260200190815260200160002081905550603260066000600760039054906101000a900460ff1660ff16815260200190815260200160002081905550604b60066000600760049054906101000a900460ff1660ff16815260200190815260200160002081905550609660066000600760059054906101000a900460ff1660ff1681526020019081526020016000208190555061012c60066000600760069054906101000a900460ff1660ff16815260200190815260200160002081905550565b826015601f016020900481019282156129e35791602002820160005b838211156129b457835183826101000a81548160ff021916908360ff1602179055509260200192600101602081600001049283019260010302612976565b80156129e15782816101000a81549060ff02191690556001016020816000010492830192600103026129b4565b505b5090506129f091906129f4565b5090565b612a2191905b80821115612a1d57600081816101000a81549060ff0219169055506001016129fa565b5090565b905600a165627a7a72305820aaa03d67f277c014245fbd571c8d3a0442bccaa8abd62b9e4cf96c37621c648c0029",
  "source": "pragma solidity 0.4.21;\n\nimport '../../Libraries/SafeMath.sol';\nimport '../../Libraries/Utils.sol';\n\ncontract SlotsHelper is SafeMath, Utils {\n\n    bool public isSlotsHelper = true;\n\n    // Number of reels\n    uint constant NUMBER_OF_REELS = 5;\n\n    // Number of lines\n    uint constant NUMBER_OF_LINES = 5;\n\n    // Slot reels\n    uint8[21][5] reels;\n\n    // Paytables for different slot symbols\n    // (symbol => (multiplier => payout))\n    // For example, for 3xA -> (symbolA => (3 => payout))\n    mapping (uint => uint) paytable;\n\n    // Slot Symbols\n    uint8 symbolA = 1;\n\n    uint8 symbolB = 2;\n\n    uint8 symbolC = 3;\n\n    uint8 symbolD = 4;\n\n    uint8 symbolE = 5;\n\n    uint8 symbolF = 6;\n\n    uint8 symbolG = 7;\n\n    function SlotsHelper()\n    public {\n        initReels();\n        initPayTable();\n    }\n\n    // Initializes the paytable to verify reward calculations\n    function initPayTable()\n    private {\n        // 3x Multiplier\n        paytable[symbolA] = 10;\n        paytable[symbolB] = 20;\n        paytable[symbolC] = 40;\n        paytable[symbolD] = 50;\n        paytable[symbolE] = 75;\n        paytable[symbolF] = 150;\n        paytable[symbolG] = 300;\n    }\n\n    function initReels()\n    private {\n        reels[0] = [7, 2, 2, 1, 5, 3, 5, 3, 2, 2, 3, 4, 2, 5, 1, 1, 6, 4, 1, 5, 3];\n        reels[1] = [1, 1, 3, 3, 5, 3, 5, 1, 2, 2, 4, 1, 3, 4, 3, 2, 2, 6, 6, 3, 7];\n        reels[2] = [4, 2, 7, 3, 2, 6, 1, 4, 3, 1, 5, 1, 1, 4, 4, 1, 5, 2, 2, 1, 1];\n        reels[3] = [1, 1, 5, 1, 2, 7, 4, 2, 1, 3, 2, 2, 3, 1, 1, 2, 6, 2, 6, 3, 5];\n        reels[4] = [1, 4, 1, 1, 2, 4, 1, 3, 6, 2, 7, 2, 4, 1, 3, 1, 3, 6, 1, 2, 5];\n    }\n\n    // Converts a string reel to a uint array\n    // Example string reel = '0,1,2,3,4'\n    function convertReelToArray(string reel)\n    public\n    pure\n    returns (uint[5]){\n        uint[5] memory reelArray;\n        string memory temp = '';\n        uint8 iterator = 0;\n        // Example _result: [12,4,5,6,7]\n        for (uint8 i = 0; i < strLen(reel); i++) {\n            string memory char = getCharAt(reel, i);\n            if (!strCompare(char, ',')) {\n                temp = strConcat(temp, char);\n            } else {\n                reelArray[iterator++] = parseInt(temp);\n                temp = '';\n            }\n        }\n        reelArray[iterator] = parseInt(temp);\n        return reelArray;\n    }\n\n    function getTotalReward(uint betSize, uint[5] reelArray)\n    public\n    view\n    returns (uint) {\n        uint totalReward = 0;\n        uint adjustedBetSize = getAdjustedBetSize(betSize);\n        for (uint8 i = 0; i < adjustedBetSize; i++) { //300k gas\n            totalReward = safeAdd(totalReward, getLineRewardMultiplier(getLine(i, reelArray)));\n        }\n        totalReward = safeMul(totalReward, 1 ether);\n        return totalReward;\n    }\n\n    function getAdjustedBetSize(uint betSize)\n    public\n    pure\n    returns (uint) {\n        if((betSize / 1 ether) <= 5 && (betSize / 1 ether) >= 1)\n            return safeDiv(betSize, 1 ether);\n        else if((betSize / 0.1 ether) <= 5 && (betSize / 0.1 ether) >= 1)\n            return safeDiv(betSize, 0.1 ether);\n        else if((betSize / 0.01 ether) <= 5 && (betSize / 0.01 ether) >= 1)\n            return safeDiv(betSize, 0.01 ether);\n        else\n            revert();\n    }\n\n    function isValidBetSize(uint betSize) public pure returns (bool) {\n        return  ((betSize / 1 ether)    <= 5 && (betSize / 1 ether)    >= 1) ||\n                ((betSize / 0.1 ether)  <= 5 && (betSize / 0.1 ether)  >= 1) ||\n                ((betSize / 0.01 ether) <= 5 && (betSize / 0.01 ether) >= 1);\n    }\n\n    // Checks if a line is a winning line and returns the reward multiplier\n    //uint8[NUMBER_OF_REELS] line\n    function getLineRewardMultiplier(uint[5] line)\n    internal\n    view\n    returns (uint) {\n        uint8 repetitions = 0;\n        uint rewardMultiplier = 0;\n        for (uint8 i = 1; i <= NUMBER_OF_REELS; i++) {\n            if (line[i] == line[i - 1]) {\n                repetitions++;\n            }\n            else {\n                break;\n            }\n        }\n        if (repetitions >= 3) {\n            rewardMultiplier = safeMul(paytable[line[0]], safeSub(repetitions, 2));\n        }\n        return rewardMultiplier;\n    }\n\n    // Returns line for an index\n    // uint8[NUMBER_OF_REELS]\n    function getLine(uint8 lineIndex, uint[5] reelArray)\n    internal\n    view\n    returns (uint[5]) {\n        // Example [0,1,2,3,20]\n\n        // Top = [20,0,1,2,19]\n        // Middle = [0,1,2,3,20]\n        // Bottom = [1,2,3,4,0]\n        // Top Left - Bottom Center - Top Right = [20, 1, 3, 3, 19]\n        // Bottom Left - Top Center - Bottom Right = [1, 1, 1, 3, 0]\n        uint8 i = 0;\n        uint[5] memory line;\n        if (lineIndex == 0) {\n            // Middle Line\n            for (i = 0; i < NUMBER_OF_REELS; i++) {\n                line[i] = getSymbol(i, (int) (reelArray[i]));\n            }\n        } else if (lineIndex == 1) {\n            // Top Line\n            for (i = 0; i < NUMBER_OF_REELS; i++) {\n                line[i] = getSymbol(i, (int) (reelArray[i] - 1));\n            }\n        } else if (lineIndex == 2) {\n            // Bottom Line\n            for (i = 0; i < NUMBER_OF_REELS; i++) {\n                line[i] = getSymbol(i, (int) (reelArray[i] + 1));\n            }\n        } else if (lineIndex == 3) {\n            // Top left to Bottom right to Top right\n            for (i = 0; i < NUMBER_OF_REELS; i++) {\n                if (i == 0 || i == 4)\n                line[i] = getSymbol(i, (int) (reelArray[i] - 1));\n                else if (i == 2)\n                line[i] = getSymbol(i, (int) (reelArray[i] + 1));\n                else\n                line[i] = getSymbol(i, (int) (reelArray[i]));\n            }\n        } else if (lineIndex == 4) {\n            // Bottom left to Top right to Bottom right\n            for (i = 0; i < NUMBER_OF_REELS; i++) {\n                if (i == 0 || i == 4)\n                line[i] = getSymbol(i, (int) (reelArray[i] + 1));\n                else if (i == 2)\n                line[i] = getSymbol(i, (int) (reelArray[i] - 1));\n                else\n                line[i] = getSymbol(i, (int) (reelArray[i]));\n            }\n        } else\n            revert();\n        return line;\n    }\n\n    // Returns the symbol for a reel at a position\n    function getSymbol(uint8 reel, int position)\n    internal\n    view\n    returns (uint8) {\n        if (position == - 1) position = 20;\n        else if (position == 21) position = 0;\n        // If position is 21, return 0\n\n        return reels[reel][(uint) (position)];\n    }\n\n}\n",
  "sourcePath": "/srv/platform-contracts/contracts/Casino/Slots/SlotsHelper.sol",
  "compiler": {
    "name": "solc",
    "version": "0.4.21+commit.dfe3193c.Emscripten.clang"
  },
  "schemaVersion": "2.0.0",
  "updatedAt": "2018-06-04T15:40:06.305Z"
}