{
  "contractName": "SportsOracle",
  "abi": [
    {
      "constant": true,
      "inputs": [
        {
          "name": "",
          "type": "address"
        }
      ],
      "name": "providers",
      "outputs": [
        {
          "name": "requested",
          "type": "bool"
        },
        {
          "name": "accepted",
          "type": "bool"
        },
        {
          "name": "exists",
          "type": "bool"
        }
      ],
      "payable": false,
      "stateMutability": "view",
      "type": "function"
    },
    {
      "constant": true,
      "inputs": [
        {
          "name": "",
          "type": "uint256"
        }
      ],
      "name": "games",
      "outputs": [
        {
          "name": "id",
          "type": "uint256"
        },
        {
          "name": "refId",
          "type": "string"
        },
        {
          "name": "sportId",
          "type": "uint256"
        },
        {
          "name": "leagueId",
          "type": "uint256"
        },
        {
          "name": "startTime",
          "type": "uint256"
        },
        {
          "name": "endTime",
          "type": "uint256"
        },
        {
          "name": "ipfsHash",
          "type": "string"
        },
        {
          "name": "exists",
          "type": "bool"
        }
      ],
      "payable": false,
      "stateMutability": "view",
      "type": "function"
    },
    {
      "constant": true,
      "inputs": [],
      "name": "timeController",
      "outputs": [
        {
          "name": "",
          "type": "address"
        }
      ],
      "payable": false,
      "stateMutability": "view",
      "type": "function"
    },
    {
      "constant": true,
      "inputs": [],
      "name": "isMock",
      "outputs": [
        {
          "name": "",
          "type": "bool"
        }
      ],
      "payable": false,
      "stateMutability": "view",
      "type": "function"
    },
    {
      "constant": true,
      "inputs": [],
      "name": "payForProviderAcceptance",
      "outputs": [
        {
          "name": "",
          "type": "bool"
        }
      ],
      "payable": false,
      "stateMutability": "view",
      "type": "function"
    },
    {
      "constant": false,
      "inputs": [
        {
          "name": "time",
          "type": "uint256"
        }
      ],
      "name": "setTime",
      "outputs": [],
      "payable": false,
      "stateMutability": "nonpayable",
      "type": "function"
    },
    {
      "constant": true,
      "inputs": [
        {
          "name": "",
          "type": "uint256"
        }
      ],
      "name": "requestedProviderAddresses",
      "outputs": [
        {
          "name": "",
          "type": "address"
        }
      ],
      "payable": false,
      "stateMutability": "view",
      "type": "function"
    },
    {
      "constant": true,
      "inputs": [
        {
          "name": "",
          "type": "uint256"
        }
      ],
      "name": "acceptedProviderAddresses",
      "outputs": [
        {
          "name": "",
          "type": "address"
        }
      ],
      "payable": false,
      "stateMutability": "view",
      "type": "function"
    },
    {
      "constant": true,
      "inputs": [],
      "name": "getTime",
      "outputs": [
        {
          "name": "",
          "type": "uint256"
        }
      ],
      "payable": false,
      "stateMutability": "view",
      "type": "function"
    },
    {
      "constant": true,
      "inputs": [
        {
          "name": "",
          "type": "uint256"
        },
        {
          "name": "",
          "type": "uint256"
        }
      ],
      "name": "gameProvidersUpdateList",
      "outputs": [
        {
          "name": "",
          "type": "address"
        }
      ],
      "payable": false,
      "stateMutability": "view",
      "type": "function"
    },
    {
      "constant": true,
      "inputs": [
        {
          "name": "",
          "type": "uint256"
        },
        {
          "name": "",
          "type": "uint256"
        }
      ],
      "name": "availableGamePeriods",
      "outputs": [
        {
          "name": "",
          "type": "uint256"
        }
      ],
      "payable": false,
      "stateMutability": "view",
      "type": "function"
    },
    {
      "constant": true,
      "inputs": [],
      "name": "gameUpdateCost",
      "outputs": [
        {
          "name": "",
          "type": "uint256"
        }
      ],
      "payable": false,
      "stateMutability": "view",
      "type": "function"
    },
    {
      "constant": true,
      "inputs": [],
      "name": "owner",
      "outputs": [
        {
          "name": "",
          "type": "address"
        }
      ],
      "payable": false,
      "stateMutability": "view",
      "type": "function"
    },
    {
      "constant": true,
      "inputs": [
        {
          "name": "",
          "type": "uint256"
        }
      ],
      "name": "authorizedAddresses",
      "outputs": [
        {
          "name": "",
          "type": "address"
        }
      ],
      "payable": false,
      "stateMutability": "view",
      "type": "function"
    },
    {
      "constant": true,
      "inputs": [
        {
          "name": "",
          "type": "address"
        }
      ],
      "name": "authorized",
      "outputs": [
        {
          "name": "",
          "type": "bool"
        }
      ],
      "payable": false,
      "stateMutability": "view",
      "type": "function"
    },
    {
      "constant": true,
      "inputs": [],
      "name": "providerAcceptanceCost",
      "outputs": [
        {
          "name": "",
          "type": "uint256"
        }
      ],
      "payable": false,
      "stateMutability": "view",
      "type": "function"
    },
    {
      "constant": true,
      "inputs": [
        {
          "name": "",
          "type": "uint256"
        },
        {
          "name": "",
          "type": "address"
        }
      ],
      "name": "providerGamesToUpdate",
      "outputs": [
        {
          "name": "gameId",
          "type": "uint256"
        },
        {
          "name": "updated",
          "type": "bool"
        },
        {
          "name": "exists",
          "type": "bool"
        }
      ],
      "payable": false,
      "stateMutability": "view",
      "type": "function"
    },
    {
      "constant": false,
      "inputs": [
        {
          "name": "_isMock",
          "type": "bool"
        }
      ],
      "name": "toggleMockTime",
      "outputs": [],
      "payable": false,
      "stateMutability": "nonpayable",
      "type": "function"
    },
    {
      "constant": true,
      "inputs": [
        {
          "name": "",
          "type": "uint256"
        },
        {
          "name": "",
          "type": "uint256"
        }
      ],
      "name": "gamePeriods",
      "outputs": [
        {
          "name": "number",
          "type": "uint256"
        },
        {
          "name": "result",
          "type": "int256"
        },
        {
          "name": "team1Points",
          "type": "uint256"
        },
        {
          "name": "team2Points",
          "type": "uint256"
        },
        {
          "name": "settleTime",
          "type": "uint256"
        },
        {
          "name": "exists",
          "type": "bool"
        }
      ],
      "payable": false,
      "stateMutability": "view",
      "type": "function"
    },
    {
      "constant": true,
      "inputs": [],
      "name": "gamesCount",
      "outputs": [
        {
          "name": "",
          "type": "uint256"
        }
      ],
      "payable": false,
      "stateMutability": "view",
      "type": "function"
    },
    {
      "inputs": [
        {
          "name": "decentBetTokenAddress",
          "type": "address"
        }
      ],
      "payable": false,
      "stateMutability": "nonpayable",
      "type": "constructor"
    },
    {
      "payable": false,
      "stateMutability": "nonpayable",
      "type": "fallback"
    },
    {
      "anonymous": false,
      "inputs": [
        {
          "indexed": false,
          "name": "_address",
          "type": "address"
        }
      ],
      "name": "LogNewAuthorizedAddress",
      "type": "event"
    },
    {
      "anonymous": false,
      "inputs": [
        {
          "indexed": false,
          "name": "_address",
          "type": "address"
        }
      ],
      "name": "LogNewAcceptedProvider",
      "type": "event"
    },
    {
      "anonymous": false,
      "inputs": [
        {
          "indexed": false,
          "name": "id",
          "type": "uint256"
        },
        {
          "indexed": false,
          "name": "refId",
          "type": "string"
        },
        {
          "indexed": false,
          "name": "sportId",
          "type": "uint256"
        },
        {
          "indexed": false,
          "name": "leagueId",
          "type": "uint256"
        },
        {
          "indexed": false,
          "name": "ipfsHash",
          "type": "string"
        }
      ],
      "name": "LogGameAdded",
      "type": "event"
    },
    {
      "anonymous": false,
      "inputs": [
        {
          "indexed": false,
          "name": "id",
          "type": "uint256"
        },
        {
          "indexed": false,
          "name": "refId",
          "type": "string"
        },
        {
          "indexed": false,
          "name": "ipfsHash",
          "type": "string"
        }
      ],
      "name": "LogGameDetailsUpdate",
      "type": "event"
    },
    {
      "anonymous": false,
      "inputs": [
        {
          "indexed": false,
          "name": "id",
          "type": "uint256"
        },
        {
          "indexed": false,
          "name": "refId",
          "type": "string"
        },
        {
          "indexed": false,
          "name": "period",
          "type": "uint256"
        },
        {
          "indexed": false,
          "name": "result",
          "type": "int256"
        },
        {
          "indexed": false,
          "name": "team1Points",
          "type": "uint256"
        },
        {
          "indexed": false,
          "name": "team2Points",
          "type": "uint256"
        }
      ],
      "name": "LogGameResult",
      "type": "event"
    },
    {
      "anonymous": false,
      "inputs": [
        {
          "indexed": false,
          "name": "id",
          "type": "uint256"
        },
        {
          "indexed": false,
          "name": "provider",
          "type": "address"
        },
        {
          "indexed": false,
          "name": "providerGameId",
          "type": "uint256"
        },
        {
          "indexed": false,
          "name": "refId",
          "type": "string"
        },
        {
          "indexed": false,
          "name": "period",
          "type": "uint256"
        },
        {
          "indexed": false,
          "name": "result",
          "type": "int256"
        },
        {
          "indexed": false,
          "name": "team1Points",
          "type": "uint256"
        },
        {
          "indexed": false,
          "name": "team2Points",
          "type": "uint256"
        }
      ],
      "name": "LogUpdatedProviderOutcome",
      "type": "event"
    },
    {
      "anonymous": false,
      "inputs": [
        {
          "indexed": false,
          "name": "amount",
          "type": "uint256"
        }
      ],
      "name": "LogWithdrawal",
      "type": "event"
    },
    {
      "anonymous": false,
      "inputs": [
        {
          "indexed": false,
          "name": "cost",
          "type": "uint256"
        }
      ],
      "name": "LogNewGameUpdateCost",
      "type": "event"
    },
    {
      "anonymous": false,
      "inputs": [
        {
          "indexed": false,
          "name": "cost",
          "type": "uint256"
        }
      ],
      "name": "LogNewProviderAcceptanceCost",
      "type": "event"
    },
    {
      "anonymous": false,
      "inputs": [
        {
          "indexed": false,
          "name": "time",
          "type": "uint256"
        }
      ],
      "name": "LogUpdatedTime",
      "type": "event"
    },
    {
      "constant": false,
      "inputs": [
        {
          "name": "_address",
          "type": "address"
        }
      ],
      "name": "addAuthorizedAddress",
      "outputs": [],
      "payable": false,
      "stateMutability": "nonpayable",
      "type": "function"
    },
    {
      "constant": false,
      "inputs": [
        {
          "name": "enabled",
          "type": "bool"
        }
      ],
      "name": "togglePayForProviderAcceptance",
      "outputs": [],
      "payable": false,
      "stateMutability": "nonpayable",
      "type": "function"
    },
    {
      "constant": false,
      "inputs": [
        {
          "name": "cost",
          "type": "uint256"
        }
      ],
      "name": "changeGameUpdateCost",
      "outputs": [],
      "payable": false,
      "stateMutability": "nonpayable",
      "type": "function"
    },
    {
      "constant": false,
      "inputs": [
        {
          "name": "cost",
          "type": "uint256"
        }
      ],
      "name": "changeProviderAcceptanceCost",
      "outputs": [],
      "payable": false,
      "stateMutability": "nonpayable",
      "type": "function"
    },
    {
      "constant": false,
      "inputs": [],
      "name": "requestProvider",
      "outputs": [
        {
          "name": "",
          "type": "bool"
        }
      ],
      "payable": false,
      "stateMutability": "nonpayable",
      "type": "function"
    },
    {
      "constant": false,
      "inputs": [
        {
          "name": "_address",
          "type": "address"
        }
      ],
      "name": "acceptProvider",
      "outputs": [],
      "payable": false,
      "stateMutability": "nonpayable",
      "type": "function"
    },
    {
      "constant": false,
      "inputs": [],
      "name": "payForAcceptance",
      "outputs": [],
      "payable": false,
      "stateMutability": "nonpayable",
      "type": "function"
    },
    {
      "constant": false,
      "inputs": [
        {
          "name": "gameId",
          "type": "uint256"
        },
        {
          "name": "providerGameId",
          "type": "uint256"
        }
      ],
      "name": "addProviderGameToUpdate",
      "outputs": [
        {
          "name": "",
          "type": "bool"
        }
      ],
      "payable": false,
      "stateMutability": "nonpayable",
      "type": "function"
    },
    {
      "constant": false,
      "inputs": [
        {
          "name": "refId",
          "type": "string"
        },
        {
          "name": "sportId",
          "type": "uint256"
        },
        {
          "name": "leagueId",
          "type": "uint256"
        },
        {
          "name": "startTime",
          "type": "uint256"
        },
        {
          "name": "endTime",
          "type": "uint256"
        },
        {
          "name": "availablePeriods",
          "type": "uint256[]"
        },
        {
          "name": "ipfsHash",
          "type": "string"
        }
      ],
      "name": "addGame",
      "outputs": [],
      "payable": false,
      "stateMutability": "nonpayable",
      "type": "function"
    },
    {
      "constant": false,
      "inputs": [
        {
          "name": "id",
          "type": "uint256"
        },
        {
          "name": "ipfsHash",
          "type": "string"
        }
      ],
      "name": "updateGameDetails",
      "outputs": [],
      "payable": false,
      "stateMutability": "nonpayable",
      "type": "function"
    },
    {
      "constant": false,
      "inputs": [
        {
          "name": "gameId",
          "type": "uint256"
        },
        {
          "name": "period",
          "type": "uint256"
        },
        {
          "name": "result",
          "type": "int256"
        },
        {
          "name": "totalPoints",
          "type": "uint256"
        },
        {
          "name": "team1Points",
          "type": "uint256"
        },
        {
          "name": "team2Points",
          "type": "uint256"
        }
      ],
      "name": "pushOutcome",
      "outputs": [],
      "payable": false,
      "stateMutability": "nonpayable",
      "type": "function"
    },
    {
      "constant": false,
      "inputs": [
        {
          "name": "gameId",
          "type": "uint256"
        },
        {
          "name": "provider",
          "type": "address"
        },
        {
          "name": "period",
          "type": "uint256"
        }
      ],
      "name": "updateProviderOutcome",
      "outputs": [],
      "payable": false,
      "stateMutability": "nonpayable",
      "type": "function"
    },
    {
      "constant": false,
      "inputs": [],
      "name": "withdrawTokens",
      "outputs": [],
      "payable": false,
      "stateMutability": "nonpayable",
      "type": "function"
    },
    {
      "constant": true,
      "inputs": [
        {
          "name": "gameId",
          "type": "uint256"
        },
        {
          "name": "provider",
          "type": "address"
        }
      ],
      "name": "getProviderGameId",
      "outputs": [
        {
          "name": "id",
          "type": "uint256"
        }
      ],
      "payable": false,
      "stateMutability": "view",
      "type": "function"
    }
  ],
  "bytecode": "0x60606040524260015534156200001457600080fd5b604051602080620036958339810160405280805190602001909190505033600460006101000a81548173ffffffffffffffffffffffffffffffffffffffff021916908373ffffffffffffffffffffffffffffffffffffffff1602179055506200009133620001126401000000000262001241176401000000009004565b80600360006101000a81548173ffffffffffffffffffffffffffffffffffffffff021916908373ffffffffffffffffffffffffffffffffffffffff16021790555060016000806101000a81548160ff0219169083151502179055506200010b33620002ec640100000000026200328e176401000000009004565b5062000387565b600460009054906101000a900473ffffffffffffffffffffffffffffffffffffffff1673ffffffffffffffffffffffffffffffffffffffff163373ffffffffffffffffffffffffffffffffffffffff161415156200016f57600080fd5b600c60008273ffffffffffffffffffffffffffffffffffffffff1673ffffffffffffffffffffffffffffffffffffffff16815260200190815260200160002060009054906101000a900460ff16151515620001c957600080fd5b6001600c60008373ffffffffffffffffffffffffffffffffffffffff1673ffffffffffffffffffffffffffffffffffffffff16815260200190815260200160002060006101000a81548160ff0219169083151502179055506009805480600101828162000237919062000330565b9160005260206000209001600083909190916101000a81548173ffffffffffffffffffffffffffffffffffffffff021916908373ffffffffffffffffffffffffffffffffffffffff160217905550507f0f69157a6d24496c9187fd09e0b02f03630941feda2668aacec7b9027f47975f81604051808273ffffffffffffffffffffffffffffffffffffffff1673ffffffffffffffffffffffffffffffffffffffff16815260200191505060405180910390a150565b80600260006101000a81548173ffffffffffffffffffffffffffffffffffffffff021916908373ffffffffffffffffffffffffffffffffffffffff16021790555050565b8154818355818115116200035a578183600052602060002091820191016200035991906200035f565b5b505050565b6200038491905b808211156200038057600081600090555060010162000366565b5090565b90565b6132fe80620003976000396000f3006060604052600436106101ac576000357c0100000000000000000000000000000000000000000000000000000000900463ffffffff1680630787bc27146101bc578063117a5b9014610223578063158c0209146103595780631a102add1461045d57806328ccaa29146104b25780632d297444146104df5780633beb26c41461050c5780633c0bd6e21461052f57806342f1181e146105925780634e49909d146105cb5780634eb7a54c1461061b578063525dac5114610681578063557ed1ba146106e45780635cf863fe1461070d5780635fe991c6146107795780636a6cb5401461079c5780636dd8cf02146107c957806385988c81146107de57806389fa75171461081e5780638d8f2adb146108475780638da5cb5b1461085c57806395874631146108b15780639f9fe6bb14610914578063b91816111461094d578063b94bbeac1461099e578063bc156531146109c7578063ca24b11314610a33578063d563ce1914610a7e578063e7d1bb0614610aa3578063eba5e2ba14610ae7578063f197dd0e14610b0a578063fa816aaa14610b71578063fb632b7c14610b96578063fca6154914610bbf575b34156101b757600080fd5b600080fd5b34156101c757600080fd5b6101f3600480803573ffffffffffffffffffffffffffffffffffffffff16906020019091905050610c15565b60405180841515151581526020018315151515815260200182151515158152602001935050505060405180910390f35b341561022e57600080fd5b6102446004808035906020019091905050610c66565b6040518089815260200180602001888152602001878152602001868152602001858152602001806020018415151515815260200183810383528a818151815260200191508051906020019080838360005b838110156102b0578082015181840152602081019050610295565b50505050905090810190601f1680156102dd5780820380516001836020036101000a031916815260200191505b50838103825285818151815260200191508051906020019080838360005b838110156103165780820151818401526020810190506102fb565b50505050905090810190601f1680156103435780820380516001836020036101000a031916815260200191505b509a505050505050505050505060405180910390f35b341561036457600080fd5b61045b600480803590602001908201803590602001908080601f016020809104026020016040519081016040528093929190818152602001838380828437820191505050505050919080359060200190919080359060200190919080359060200190919080359060200190919080359060200190820180359060200190808060200260200160405190810160405280939291908181526020018383602002808284378201915050505050509190803590602001908201803590602001908080601f01602080910402602001604051908101604052809392919081815260200183838082843782019150505050505091905050610deb565b005b341561046857600080fd5b61047061111a565b604051808273ffffffffffffffffffffffffffffffffffffffff1673ffffffffffffffffffffffffffffffffffffffff16815260200191505060405180910390f35b34156104bd57600080fd5b6104c5611140565b604051808215151515815260200191505060405180910390f35b34156104ea57600080fd5b6104f2611152565b604051808215151515815260200191505060405180910390f35b341561051757600080fd5b61052d6004808035906020019091905050611165565b005b341561053a57600080fd5b6105506004808035906020019091905050611202565b604051808273ffffffffffffffffffffffffffffffffffffffff1673ffffffffffffffffffffffffffffffffffffffff16815260200191505060405180910390f35b341561059d57600080fd5b6105c9600480803573ffffffffffffffffffffffffffffffffffffffff16906020019091905050611241565b005b34156105d657600080fd5b6106196004808035906020019091908035906020019091908035906020019091908035906020019091908035906020019091908035906020019091905050611417565b005b341561062657600080fd5b61067f600480803590602001909190803590602001908201803590602001908080601f01602080910402602001604051908101604052809392919081815260200183838082843782019150505050505091905050611725565b005b341561068c57600080fd5b6106a26004808035906020019091905050611952565b604051808273ffffffffffffffffffffffffffffffffffffffff1673ffffffffffffffffffffffffffffffffffffffff16815260200191505060405180910390f35b34156106ef57600080fd5b6106f7611991565b6040518082815260200191505060405180910390f35b341561071857600080fd5b61073760048080359060200190919080359060200190919050506119b5565b604051808273ffffffffffffffffffffffffffffffffffffffff1673ffffffffffffffffffffffffffffffffffffffff16815260200191505060405180910390f35b341561078457600080fd5b61079a6004808035906020019091905050611a03565b005b34156107a757600080fd5b6107af611aa0565b604051808215151515815260200191505060405180910390f35b34156107d457600080fd5b6107dc611bc2565b005b34156107e957600080fd5b6108086004808035906020019091908035906020019091905050611f8e565b6040518082815260200191505060405180910390f35b341561082957600080fd5b610831611fbf565b6040518082815260200191505060405180910390f35b341561085257600080fd5b61085a611fc5565b005b341561086757600080fd5b61086f612218565b604051808273ffffffffffffffffffffffffffffffffffffffff1673ffffffffffffffffffffffffffffffffffffffff16815260200191505060405180910390f35b34156108bc57600080fd5b6108d2600480803590602001909190505061223e565b604051808273ffffffffffffffffffffffffffffffffffffffff1673ffffffffffffffffffffffffffffffffffffffff16815260200191505060405180910390f35b341561091f57600080fd5b61094b600480803573ffffffffffffffffffffffffffffffffffffffff1690602001909190505061227d565b005b341561095857600080fd5b610984600480803573ffffffffffffffffffffffffffffffffffffffff169060200190919050506123f9565b604051808215151515815260200191505060405180910390f35b34156109a957600080fd5b6109b1612419565b6040518082815260200191505060405180910390f35b34156109d257600080fd5b610a07600480803590602001909190803573ffffffffffffffffffffffffffffffffffffffff1690602001909190505061241f565b604051808481526020018315151515815260200182151515158152602001935050505060405180910390f35b3415610a3e57600080fd5b610a7c600480803590602001909190803573ffffffffffffffffffffffffffffffffffffffff16906020019091908035906020019091905050612470565b005b3415610a8957600080fd5b610aa1600480803515159060200190919050506129de565b005b3415610aae57600080fd5b610acd6004808035906020019091908035906020019091905050612a56565b604051808215151515815260200191505060405180910390f35b3415610af257600080fd5b610b086004808035906020019091905050612e9a565b005b3415610b1557600080fd5b610b346004808035906020019091908035906020019091905050612f37565b6040518087815260200186815260200185815260200184815260200183815260200182151515158152602001965050505050505060405180910390f35b3415610b7c57600080fd5b610b9460048080351515906020019091905050612f8d565b005b3415610ba157600080fd5b610ba9613006565b6040518082815260200191505060405180910390f35b3415610bca57600080fd5b610bff600480803590602001909190803573ffffffffffffffffffffffffffffffffffffffff1690602001909190505061300c565b6040518082815260200191505060405180910390f35b600d6020528060005260406000206000915090508060000160009054906101000a900460ff16908060000160019054906101000a900460ff16908060000160029054906101000a900460ff16905083565b600e602052806000526040600020600091509050806000015490806001018054600181600116156101000203166002900480601f016020809104026020016040519081016040528092919081815260200182805460018160011615610100020316600290048015610d185780601f10610ced57610100808354040283529160200191610d18565b820191906000526020600020905b815481529060010190602001808311610cfb57829003601f168201915b505050505090806002015490806003015490806004015490806005015490806006018054600181600116156101000203166002900480601f016020809104026020016040519081016040528092919081815260200182805460018160011615610100020316600290048015610dce5780601f10610da357610100808354040283529160200191610dce565b820191906000526020600020905b815481529060010190602001808311610db157829003601f168201915b5050505050908060070160009054906101000a900460ff16905088565b610df3613088565b6000600c60003373ffffffffffffffffffffffffffffffffffffffff1673ffffffffffffffffffffffffffffffffffffffff16815260200190815260200160002060009054906101000a900460ff161515610e4d57600080fd5b6101006040519081016040528060055481526020018a815260200189815260200188815260200187815260200186815260200184815260200160011515815250915060056000815480929190600101919050555081600e600084600001518152602001908152602001600020600082015181600001556020820151816001019080519060200190610edf9291906130dc565b5060408201518160020155606082015181600301556080820151816004015560a0820151816005015560c0820151816006019080519060200190610f249291906130dc565b5060e08201518160070160006101000a81548160ff02191690831515021790555090505083600f6000846000015181526020019081526020016000209080519060200190610f7392919061315c565b50600090505b8351811015610fea576001601260008460000151815260200190815260200160002060008684815181101515610fab57fe5b90602001906020020151815260200190815260200160002060050160006101000a81548160ff0219169083151502179055508080600101915050610f79565b7fda087177105fef0aea4b07cb4aa6b4bd8f6574badcb828c7c3942edd2ad6445682600001518a8a8a87604051808681526020018060200185815260200184815260200180602001838103835287818151815260200191508051906020019080838360005b8381101561106a57808201518184015260208101905061104f565b50505050905090810190601f1680156110975780820380516001836020036101000a031916815260200191505b50838103825284818151815260200191508051906020019080838360005b838110156110d05780820151818401526020810190506110b5565b50505050905090810190601f1680156110fd5780820380516001836020036101000a031916815260200191505b5097505050505050505060405180910390a1505050505050505050565b600260009054906101000a900473ffffffffffffffffffffffffffffffffffffffff1681565b6000809054906101000a900460ff1681565b600860009054906101000a900460ff1681565b600260009054906101000a900473ffffffffffffffffffffffffffffffffffffffff1673ffffffffffffffffffffffffffffffffffffffff163373ffffffffffffffffffffffffffffffffffffffff161415156111c157600080fd5b806001819055507fddb30991472728014becfdc873e13fc7a4bbad9d6e1b45632cbdf2098d249a79816040518082815260200191505060405180910390a150565b600a8181548110151561121157fe5b90600052602060002090016000915054906101000a900473ffffffffffffffffffffffffffffffffffffffff1681565b600460009054906101000a900473ffffffffffffffffffffffffffffffffffffffff1673ffffffffffffffffffffffffffffffffffffffff163373ffffffffffffffffffffffffffffffffffffffff1614151561129d57600080fd5b600c60008273ffffffffffffffffffffffffffffffffffffffff1673ffffffffffffffffffffffffffffffffffffffff16815260200190815260200160002060009054906101000a900460ff161515156112f657600080fd5b6001600c60008373ffffffffffffffffffffffffffffffffffffffff1673ffffffffffffffffffffffffffffffffffffffff16815260200190815260200160002060006101000a81548160ff0219169083151502179055506009805480600101828161136291906131a9565b9160005260206000209001600083909190916101000a81548173ffffffffffffffffffffffffffffffffffffffff021916908373ffffffffffffffffffffffffffffffffffffffff160217905550507f0f69157a6d24496c9187fd09e0b02f03630941feda2668aacec7b9027f47975f81604051808273ffffffffffffffffffffffffffffffffffffffff1673ffffffffffffffffffffffffffffffffffffffff16815260200191505060405180910390a150565b85600e600082815260200190815260200160002060070160009054906101000a900460ff16151561144757600080fd5b84600181148061146357506002811480156114625750600381145b5b8061148d57507fffffffffffffffffffffffffffffffffffffffffffffffffffffffffffffffff81145b151561149857600080fd5b87600e6000828152602001908152602001600020600501546114b8611991565b1115156114c457600080fd5b600c60003373ffffffffffffffffffffffffffffffffffffffff1673ffffffffffffffffffffffffffffffffffffffff16815260200190815260200160002060009054906101000a900460ff16151561151c57600080fd5b601260008a8152602001908152602001600020600089815260200190815260200160002060050160009054906101000a900460ff16151561155c57600080fd5b611566858561306a565b8614151561157357600080fd5b60c06040519081016040528089815260200188815260200186815260200185815260200161159f611991565b815260200160011515815250601260008b815260200190815260200160002060008a8152602001908152602001600020600082015181600001556020820151816001015560408201518160020155606082015181600301556080820151816004015560a08201518160050160006101000a81548160ff0219169083151502179055509050507f3e57d089d0b4cfe2ac92af05694221e4a531930521843d747862047c77694f8a89600e60008c81526020019081526020016000206001018a8a898960405180878152602001806020018681526020018581526020018481526020018381526020018281038252878181546001816001161561010002031660029004815260200191508054600181600116156101000203166002900480156117075780601f106116dc57610100808354040283529160200191611707565b820191906000526020600020905b8154815290600101906020018083116116ea57829003601f168201915b505097505050505050505060405180910390a1505050505050505050565b81600e600082815260200190815260200160002060070160009054906101000a900460ff16151561175557600080fd5b600c60003373ffffffffffffffffffffffffffffffffffffffff1673ffffffffffffffffffffffffffffffffffffffff16815260200190815260200160002060009054906101000a900460ff1615156117ad57600080fd5b81600e600085815260200190815260200160002060060190805190602001906117d79291906131d5565b507f3972ff6af8b84e44fed6e3587069427b2cdd1857f38d1ed50fd4543d276e354783600e6000868152602001908152602001600020600101600e60008781526020019081526020016000206006016040518084815260200180602001806020018381038352858181546001816001161561010002031660029004815260200191508054600181600116156101000203166002900480156118b95780601f1061188e576101008083540402835291602001916118b9565b820191906000526020600020905b81548152906001019060200180831161189c57829003601f168201915b505083810382528481815460018160011615610100020316600290048152602001915080546001816001161561010002031660029004801561193c5780601f106119115761010080835404028352916020019161193c565b820191906000526020600020905b81548152906001019060200180831161191f57829003601f168201915b50509550505050505060405180910390a1505050565b600b8181548110151561196157fe5b90600052602060002090016000915054906101000a900473ffffffffffffffffffffffffffffffffffffffff1681565b60008060009054906101000a900460ff166119ac57426119b0565b6001545b905090565b6010602052816000526040600020818154811015156119d057fe5b90600052602060002090016000915091509054906101000a900473ffffffffffffffffffffffffffffffffffffffff1681565b600460009054906101000a900473ffffffffffffffffffffffffffffffffffffffff1673ffffffffffffffffffffffffffffffffffffffff163373ffffffffffffffffffffffffffffffffffffffff16141515611a5f57600080fd5b806007819055507f3222a4f26f271877d3c45738734cd335689da2129b03b1078bec012b4729f536816040518082815260200191505060405180910390a150565b60006001600d60003373ffffffffffffffffffffffffffffffffffffffff1673ffffffffffffffffffffffffffffffffffffffff16815260200190815260200160002060000160006101000a81548160ff0219169083151502179055506001600d60003373ffffffffffffffffffffffffffffffffffffffff1673ffffffffffffffffffffffffffffffffffffffff16815260200190815260200160002060000160026101000a81548160ff021916908315150217905550600a8054806001018281611b6c91906131a9565b9160005260206000209001600033909190916101000a81548173ffffffffffffffffffffffffffffffffffffffff021916908373ffffffffffffffffffffffffffffffffffffffff160217905550506001905090565b600860009054906101000a900460ff161515611bdd57600080fd5b600754600360009054906101000a900473ffffffffffffffffffffffffffffffffffffffff1673ffffffffffffffffffffffffffffffffffffffff1663dd62ed3e33306040518363ffffffff167c0100000000000000000000000000000000000000000000000000000000028152600401808373ffffffffffffffffffffffffffffffffffffffff1673ffffffffffffffffffffffffffffffffffffffff1681526020018273ffffffffffffffffffffffffffffffffffffffff1673ffffffffffffffffffffffffffffffffffffffff16815260200192505050602060405180830381600087803b1515611cd057600080fd5b5af11515611cdd57600080fd5b5050506040518051905010151515611cf457600080fd5b6001600d60003373ffffffffffffffffffffffffffffffffffffffff1673ffffffffffffffffffffffffffffffffffffffff16815260200190815260200160002060000160016101000a81548160ff0219169083151502179055506001600d60003373ffffffffffffffffffffffffffffffffffffffff1673ffffffffffffffffffffffffffffffffffffffff16815260200190815260200160002060000160026101000a81548160ff021916908315150217905550600b8054806001018281611dbe91906131a9565b9160005260206000209001600033909190916101000a81548173ffffffffffffffffffffffffffffffffffffffff021916908373ffffffffffffffffffffffffffffffffffffffff16021790555050600360009054906101000a900473ffffffffffffffffffffffffffffffffffffffff1673ffffffffffffffffffffffffffffffffffffffff166323b872dd33306007546040518463ffffffff167c0100000000000000000000000000000000000000000000000000000000028152600401808473ffffffffffffffffffffffffffffffffffffffff1673ffffffffffffffffffffffffffffffffffffffff1681526020018373ffffffffffffffffffffffffffffffffffffffff1673ffffffffffffffffffffffffffffffffffffffff1681526020018281526020019350505050602060405180830381600087803b1515611f0757600080fd5b5af11515611f1457600080fd5b505050604051805190501515611f2957600080fd5b7fbdb46fed8b0dd399b57926ae517e5426a58ef9d5c85161234008eb3b1004413a33604051808273ffffffffffffffffffffffffffffffffffffffff1673ffffffffffffffffffffffffffffffffffffffff16815260200191505060405180910390a1565b600f60205281600052604060002081815481101515611fa957fe5b9060005260206000209001600091509150505481565b60065481565b6000600460009054906101000a900473ffffffffffffffffffffffffffffffffffffffff1673ffffffffffffffffffffffffffffffffffffffff163373ffffffffffffffffffffffffffffffffffffffff1614151561202357600080fd5b600360009054906101000a900473ffffffffffffffffffffffffffffffffffffffff1673ffffffffffffffffffffffffffffffffffffffff166370a08231306040518263ffffffff167c0100000000000000000000000000000000000000000000000000000000028152600401808273ffffffffffffffffffffffffffffffffffffffff1673ffffffffffffffffffffffffffffffffffffffff168152602001915050602060405180830381600087803b15156120df57600080fd5b5af115156120ec57600080fd5b505050604051805190509050600360009054906101000a900473ffffffffffffffffffffffffffffffffffffffff1673ffffffffffffffffffffffffffffffffffffffff1663a9059cbb33836040518363ffffffff167c0100000000000000000000000000000000000000000000000000000000028152600401808373ffffffffffffffffffffffffffffffffffffffff1673ffffffffffffffffffffffffffffffffffffffff16815260200182815260200192505050602060405180830381600087803b15156121bc57600080fd5b5af115156121c957600080fd5b5050506040518051905015156121de57600080fd5b7fa26d6de68d7cc61e250566e49297af6d4a7dfb4b5a0185fb55db62de31915481816040518082815260200191505060405180910390a150565b600460009054906101000a900473ffffffffffffffffffffffffffffffffffffffff1681565b60098181548110151561224d57fe5b90600052602060002090016000915054906101000a900473ffffffffffffffffffffffffffffffffffffffff1681565b600c60003373ffffffffffffffffffffffffffffffffffffffff1673ffffffffffffffffffffffffffffffffffffffff16815260200190815260200160002060009054906101000a900460ff1615156122d557600080fd5b6001600d60008373ffffffffffffffffffffffffffffffffffffffff1673ffffffffffffffffffffffffffffffffffffffff16815260200190815260200160002060000160016101000a81548160ff021916908315150217905550600b805480600101828161234491906131a9565b9160005260206000209001600083909190916101000a81548173ffffffffffffffffffffffffffffffffffffffff021916908373ffffffffffffffffffffffffffffffffffffffff160217905550507fbdb46fed8b0dd399b57926ae517e5426a58ef9d5c85161234008eb3b1004413a81604051808273ffffffffffffffffffffffffffffffffffffffff1673ffffffffffffffffffffffffffffffffffffffff16815260200191505060405180910390a150565b600c6020528060005260406000206000915054906101000a900460ff1681565b60075481565b6011602052816000526040600020602052806000526040600020600091509150508060000154908060010160009054906101000a900460ff16908060010160019054906101000a900460ff16905083565b600083600e600082815260200190815260200160002060070160009054906101000a900460ff1615156124a257600080fd5b84600e6000828152602001908152602001600020600501546124c2611991565b1115156124ce57600080fd5b600c60003373ffffffffffffffffffffffffffffffffffffffff1673ffffffffffffffffffffffffffffffffffffffff16815260200190815260200160002060009054906101000a900460ff16151561252657600080fd5b600d60008673ffffffffffffffffffffffffffffffffffffffff1673ffffffffffffffffffffffffffffffffffffffff16815260200190815260200160002060000160019054906101000a900460ff16151561258157600080fd5b60126000878152602001908152602001600020600085815260200190815260200160002060050160009054906101000a900460ff1680156125ea575060006012600088815260200190815260200160002060008681526020019081526020016000206004015414155b15156125f557600080fd5b84925060016011600088815260200190815260200160002060008773ffffffffffffffffffffffffffffffffffffffff1673ffffffffffffffffffffffffffffffffffffffff16815260200190815260200160002060010160006101000a81548160ff0219169083151502179055508273ffffffffffffffffffffffffffffffffffffffff166386f6e1476011600089815260200190815260200160002060008873ffffffffffffffffffffffffffffffffffffffff1673ffffffffffffffffffffffffffffffffffffffff1681526020019081526020016000206000015486601260008b8152602001908152602001600020600089815260200190815260200160002060010154601260008c815260200190815260200160002060008a815260200190815260200160002060020154601260008d815260200190815260200160002060008b8152602001908152602001600020600301546040518663ffffffff167c01000000000000000000000000000000000000000000000000000000000281526004018086815260200185815260200184815260200183815260200182815260200195505050505050602060405180830381600087803b15156127ba57600080fd5b5af115156127c757600080fd5b5050506040518051905015156127dc57600080fd5b7f52884484125d4169d5e67a40422efb3a13defd9e4d2a27515fb39280928b20038686601160008a815260200190815260200160002060008973ffffffffffffffffffffffffffffffffffffffff1673ffffffffffffffffffffffffffffffffffffffff16815260200190815260200160002060000154600e60008b815260200190815260200160002060010188601260008d815260200190815260200160002060008b815260200190815260200160002060010154601260008e815260200190815260200160002060008c815260200190815260200160002060020154601260008f815260200190815260200160002060008d815260200190815260200160002060030154604051808981526020018873ffffffffffffffffffffffffffffffffffffffff1673ffffffffffffffffffffffffffffffffffffffff168152602001878152602001806020018681526020018581526020018481526020018381526020018281038252878181546001816001161561010002031660029004815260200191508054600181600116156101000203166002900480156129c15780601f10612996576101008083540402835291602001916129c1565b820191906000526020600020905b8154815290600101906020018083116129a457829003601f168201915b5050995050505050505050505060405180910390a1505050505050565b600260009054906101000a900473ffffffffffffffffffffffffffffffffffffffff1673ffffffffffffffffffffffffffffffffffffffff163373ffffffffffffffffffffffffffffffffffffffff16141515612a3a57600080fd5b806000806101000a81548160ff02191690831515021790555050565b6000600d60003373ffffffffffffffffffffffffffffffffffffffff1673ffffffffffffffffffffffffffffffffffffffff16815260200190815260200160002060000160019054906101000a900460ff161515612ab357600080fd5b82600e600082815260200190815260200160002060070160009054906101000a900460ff161515612ae357600080fd5b83612aec611991565b600e60008381526020019081526020016000206004015411151515612b1057600080fd5b60006006541115612c3357600654600360009054906101000a900473ffffffffffffffffffffffffffffffffffffffff1673ffffffffffffffffffffffffffffffffffffffff1663dd62ed3e33306040518363ffffffff167c0100000000000000000000000000000000000000000000000000000000028152600401808373ffffffffffffffffffffffffffffffffffffffff1673ffffffffffffffffffffffffffffffffffffffff1681526020018273ffffffffffffffffffffffffffffffffffffffff1673ffffffffffffffffffffffffffffffffffffffff16815260200192505050602060405180830381600087803b1515612c0e57600080fd5b5af11515612c1b57600080fd5b5050506040518051905010151515612c3257600080fd5b5b606060405190810160405280858152602001600015158152602001600115158152506011600087815260200190815260200160002060003373ffffffffffffffffffffffffffffffffffffffff1673ffffffffffffffffffffffffffffffffffffffff1681526020019081526020016000206000820151816000015560208201518160010160006101000a81548160ff02191690831515021790555060408201518160010160016101000a81548160ff021916908315150217905550905050601060008681526020019081526020016000208054806001018281612d1791906131a9565b9160005260206000209001600033909190916101000a81548173ffffffffffffffffffffffffffffffffffffffff021916908373ffffffffffffffffffffffffffffffffffffffff1602179055505060006006541115612e8e57600360009054906101000a900473ffffffffffffffffffffffffffffffffffffffff1673ffffffffffffffffffffffffffffffffffffffff166323b872dd33306006546040518463ffffffff167c0100000000000000000000000000000000000000000000000000000000028152600401808473ffffffffffffffffffffffffffffffffffffffff1673ffffffffffffffffffffffffffffffffffffffff1681526020018373ffffffffffffffffffffffffffffffffffffffff1673ffffffffffffffffffffffffffffffffffffffff1681526020018281526020019350505050602060405180830381600087803b1515612e6b57600080fd5b5af11515612e7857600080fd5b505050604051805190501515612e8d57600080fd5b5b60019250505092915050565b600460009054906101000a900473ffffffffffffffffffffffffffffffffffffffff1673ffffffffffffffffffffffffffffffffffffffff163373ffffffffffffffffffffffffffffffffffffffff16141515612ef657600080fd5b806006819055507f82b879508f1901a3b3f2e984544614cb81b7867383d0220afcf31a34bf4aaaae816040518082815260200191505060405180910390a150565b6012602052816000526040600020602052806000526040600020600091509150508060000154908060010154908060020154908060030154908060040154908060050160009054906101000a900460ff16905086565b600460009054906101000a900473ffffffffffffffffffffffffffffffffffffffff1673ffffffffffffffffffffffffffffffffffffffff163373ffffffffffffffffffffffffffffffffffffffff16141515612fe957600080fd5b80600860006101000a81548160ff02191690831515021790555050565b60055481565b60006011600084815260200190815260200160002060008373ffffffffffffffffffffffffffffffffffffffff1673ffffffffffffffffffffffffffffffffffffffff16815260200190815260200160002060000154905092915050565b600080828401905083811015151561307e57fe5b8091505092915050565b61010060405190810160405280600081526020016130a4613255565b8152602001600081526020016000815260200160008152602001600081526020016130cd613255565b81526020016000151581525090565b828054600181600116156101000203166002900490600052602060002090601f016020900481019282601f1061311d57805160ff191683800117855561314b565b8280016001018555821561314b579182015b8281111561314a57825182559160200191906001019061312f565b5b5090506131589190613269565b5090565b828054828255906000526020600020908101928215613198579160200282015b8281111561319757825182559160200191906001019061317c565b5b5090506131a59190613269565b5090565b8154818355818115116131d0578183600052602060002091820191016131cf9190613269565b5b505050565b828054600181600116156101000203166002900490600052602060002090601f016020900481019282601f1061321657805160ff1916838001178555613244565b82800160010185558215613244579182015b82811115613243578251825591602001919060010190613228565b5b5090506132519190613269565b5090565b602060405190810160405280600081525090565b61328b91905b8082111561328757600081600090555060010161326f565b5090565b90565b80600260006101000a81548173ffffffffffffffffffffffffffffffffffffffff021916908373ffffffffffffffffffffffffffffffffffffffff160217905550505600a165627a7a72305820181d011c071e2fdc52d6ebc0af62c830105c36cc16f4d1d5f0b2d84fff7a2fd30029",
  "source": "pragma solidity 0.4.21;\n\nimport '../Token/ERC20.sol';\nimport './BettingProvider.sol';\nimport '../Libraries/SafeMath.sol';\nimport '../Libraries/TimeProvider.sol';\n\ncontract SportsOracle is SafeMath, TimeProvider {\n\n    //Contracts\n    ERC20 decentBetToken;\n\n    // Variables\n\n    // Contract owner.\n    address public owner;\n\n    // Number of games pushed out by oracle.\n    uint public gamesCount;\n\n    // Cost of updating a game for a provider.\n    uint public gameUpdateCost;\n\n    // Cost of accepting a new provider, if 'payForProviderAcceptance' is enabled.\n    uint public providerAcceptanceCost;\n\n    // Allows oracle to accept payments to add providers to it's accepted addresses.\n    bool public payForProviderAcceptance;\n\n    // Arrays\n\n    // Authorized addresses.\n    address[] public authorizedAddresses;\n\n    // Providers who've requested for an oracle's services.\n    address[] public requestedProviderAddresses;\n\n    // Accepted providers who can ask the oracle to update game outcomes on their contract.\n    address[] public acceptedProviderAddresses;\n\n    // Structs\n    struct Provider {\n        // Toggled if a provider has requested for acceptance.\n        bool requested;\n        // Toggled if a provider has been accepted.\n        bool accepted;\n        bool exists;\n    }\n\n    struct Game {\n        // Incremented unique id for this game.\n        uint id;\n        // Reference id set by oracle.\n        string refId;\n        // Sport id set by oracle. This is meant only for categorization purposes on the front-end.\n        uint sportId;\n        // League id set by oracle. This is meant only for categorization purposes on the front-end.\n        uint leagueId;\n        // Starting time for this game.\n        uint startTime;\n        // Ending time for this game.\n        uint endTime;\n        // IPFS hash containing meta data.\n        string ipfsHash;\n        bool exists;\n    }\n\n    struct GameUpdate {\n        // Game ID in provider contract.\n        uint gameId;\n        // Toggled when updated.\n        bool updated;\n        bool exists;\n    }\n\n    struct Period {\n        // Period Number.\n        uint number;\n        // Either Team1, Team2, Draw, Cancelled.\n        int result;\n        // Team 1 Points in game.\n        uint team1Points;\n        // Team 2 Points in game.\n        uint team2Points;\n        // Block time at which outcome was published.\n        uint settleTime;\n        bool exists;\n    }\n\n    // Mappings\n    mapping (address => bool) public authorized;\n\n    mapping (address => Provider) public providers;\n\n    mapping (uint => Game) public games;\n\n    // List of game periods.\n    // Game id => uint[]\n    mapping (uint => uint[]) public availableGamePeriods;\n\n    // List of providers who've requested for a game update.\n    // Game id => address[]\n    mapping (uint => address[]) public gameProvidersUpdateList;\n\n    // Providers who've requested for game update.\n    // Game id => (provider address => GameUpdate)\n    mapping (uint => mapping(address => GameUpdate)) public providerGamesToUpdate;\n\n    // Period details for games.\n    // Game id => (period number => Period)\n    mapping (uint => mapping(uint => Period)) public gamePeriods;\n\n    int constant RESULT_TEAM1_WIN = 1;\n\n    int constant RESULT_DRAW = 2;\n\n    int constant RESULT_TEAM2_WIN = 3;\n\n    int constant RESULT_CANCELLED = - 1;\n\n    // Events\n    event LogNewAuthorizedAddress(address _address);\n\n    event LogNewAcceptedProvider(address _address);\n\n    event LogGameAdded(\n        uint id,\n        string refId,\n        uint sportId,\n        uint leagueId,\n        string ipfsHash\n    );\n\n    event LogGameDetailsUpdate(\n        uint id,\n        string refId,\n        string ipfsHash\n    );\n\n    event LogGameResult(\n        uint id,\n        string refId,\n        uint period,\n        int result,\n        uint team1Points,\n        uint team2Points\n    );\n\n    event LogUpdatedProviderOutcome(\n        uint id,\n        address provider,\n        uint providerGameId,\n        string refId,\n        uint period,\n        int result,\n        uint team1Points,\n        uint team2Points\n    );\n\n    event LogWithdrawal(uint amount);\n\n    event LogNewGameUpdateCost(uint cost);\n\n    event LogNewProviderAcceptanceCost(uint cost);\n\n    // Constructor\n    function SportsOracle(address decentBetTokenAddress)\n    public {\n        owner = msg.sender;\n        addAuthorizedAddress(msg.sender);\n        decentBetToken = ERC20(decentBetTokenAddress);\n\n        // If on local testRPC/testnet and need mock times\n        isMock = true;\n        setTimeController(msg.sender);\n    }\n\n    // Modifiers\n    modifier onlyOwner() {\n        require(msg.sender == owner);\n        _;\n    }\n\n    modifier onlyAuthorized() {\n        require(authorized[msg.sender]);\n        _;\n    }\n\n    // Allow only accepted providers to call this function.\n    modifier onlyAcceptedProvider() {\n        require(providers[msg.sender].accepted);\n        _;\n    }\n\n    // If oracles allow payments for new providers to use them, allow the function to continue.\n    modifier isPayableForProviderAcceptance() {\n        require(payForProviderAcceptance);\n        _;\n    }\n\n    // Allow only valid results to be passed through to a function.\n    modifier isValidResult(int result) {\n        require(result == RESULT_TEAM1_WIN || result == RESULT_DRAW &&\n                result == RESULT_TEAM2_WIN || result == RESULT_CANCELLED);\n        _;\n    }\n\n    // Functions execute only if game exists.\n    modifier isValidGame(uint id) {\n        require(games[id].exists);\n        _;\n    }\n\n    // Functions execute only if game hasn't started.\n    modifier hasGameNotStarted(uint id) {\n        require(games[id].startTime <= getTime());\n        _;\n    }\n\n    // Functions execute only if game has ended.\n    modifier hasGameEnded(uint id) {\n        if (getTime() <= games[id].endTime)\n            revert();\n        _;\n    }\n\n    // Functions\n\n    // Add a new authorized address.\n    function addAuthorizedAddress(address _address)\n    public\n    onlyOwner {\n        require(!authorized[_address]);\n        authorized[_address] = true;\n        authorizedAddresses.push(_address);\n        emit LogNewAuthorizedAddress(_address);\n    }\n\n    // Allow oracle to accept new providers via payment.\n    function togglePayForProviderAcceptance(bool enabled)\n    public\n    onlyOwner {\n        payForProviderAcceptance = enabled;\n    }\n\n    // Set a price for game updates to be pushed to providers.\n    function changeGameUpdateCost(uint cost)\n    public\n    onlyOwner {\n        gameUpdateCost = cost;\n        emit LogNewGameUpdateCost(cost);\n    }\n\n    // Set a price to accept new providers if it has been toggled on.\n    function changeProviderAcceptanceCost(uint cost)\n    public\n    onlyOwner {\n        providerAcceptanceCost = cost;\n        emit LogNewProviderAcceptanceCost(cost);\n    }\n\n    // Any provider can request the oracle to accept itself.\n    function requestProvider()\n    public\n    returns (bool) {\n        providers[msg.sender].requested = true;\n        providers[msg.sender].exists = true;\n        requestedProviderAddresses.push(msg.sender);\n        return true;\n    }\n\n    // Accepted providers get results pushed into their games at end time.\n    function acceptProvider(address _address)\n    public\n    onlyAuthorized {\n        providers[_address].accepted = true;\n        acceptedProviderAddresses.push(_address);\n        emit LogNewAcceptedProvider(_address);\n    }\n\n    // Allows providers to pay to be accepted by the oracle.\n    // Providers need to authorize oracles for the acceptance cost before calling this function.\n    function payForAcceptance()\n    public\n    isPayableForProviderAcceptance {\n        // Provider should have authorized oracle to spend at least 'providerAcceptanceCost' in DBETs.\n        require (decentBetToken.allowance(msg.sender, address(this)) >= providerAcceptanceCost);\n        providers[msg.sender].accepted = true;\n        providers[msg.sender].exists = true;\n        acceptedProviderAddresses.push(msg.sender);\n        if (!decentBetToken.transferFrom(msg.sender, address(this), providerAcceptanceCost)) revert();\n        emit LogNewAcceptedProvider(msg.sender);\n    }\n\n    // gameId - ID in oracle contract\n    // providerGameId - ID in provider contract\n    // Reference for oracle to update betting provider with gameId's result\n    function addProviderGameToUpdate(uint gameId, uint providerGameId)\n    public\n    onlyAcceptedProvider\n    isValidGame(gameId)\n    hasGameNotStarted(gameId)\n    returns (bool) {\n        // Provider should have authorized oracle to spend at least 'gameUpdateCost' in DBETs.\n        if (gameUpdateCost > 0)\n            require(decentBetToken.allowance(msg.sender, address(this)) >= gameUpdateCost);\n        providerGamesToUpdate[gameId][msg.sender] = GameUpdate({\n            gameId : providerGameId,\n            updated : false,\n            exists : true\n        });\n        gameProvidersUpdateList[gameId].push(msg.sender);\n        if(gameUpdateCost > 0)\n            if (!decentBetToken.transferFrom(msg.sender, address(this), gameUpdateCost))\n                revert();\n        return true;\n    }\n\n    // Start time needs to be in advance of the actual game start time.\n    function addGame(\n        string refId,\n        uint sportId,\n        uint leagueId,\n        uint startTime,\n        uint endTime,\n        uint[] availablePeriods,\n        string ipfsHash\n    )\n    public\n    onlyAuthorized {\n        Game memory game = Game({\n            id : gamesCount,\n            refId : refId,\n            sportId : sportId,\n            leagueId : leagueId,\n            startTime : startTime,\n            endTime : endTime,\n            ipfsHash : ipfsHash,\n            exists : true\n        });\n        gamesCount++;\n        games[game.id] = game;\n        availableGamePeriods[game.id] = availablePeriods;\n        for(uint i = 0; i < availablePeriods.length; i++) {\n            gamePeriods[game.id][availablePeriods[i]].exists = true;\n        }\n        emit LogGameAdded(game.id, refId, sportId, leagueId, ipfsHash);\n    }\n\n    // Update swarm hash containing meta-data for the game.\n    function updateGameDetails(uint id, string ipfsHash)\n    public\n    isValidGame(id)\n    onlyAuthorized {\n        games[id].ipfsHash = ipfsHash;\n        emit LogGameDetailsUpdate(id, games[id].refId, games[id].ipfsHash);\n    }\n\n    // Push outcome for a game.\n    function pushOutcome(\n        uint gameId,\n        uint period,\n        int result,\n        uint totalPoints,\n        uint team1Points,\n        uint team2Points\n    )\n    public\n    isValidGame(gameId)\n    isValidResult(result)\n    hasGameEnded(gameId)\n    onlyAuthorized {\n        // Period should be valid to continue.\n        require(gamePeriods[gameId][period].exists);\n        // Reduce chances of invalid points input.\n        require(totalPoints == safeAdd(team1Points, team2Points));\n        gamePeriods[gameId][period] = Period({\n            number : period,\n            result : result,\n            team1Points : team1Points,\n            team2Points : team2Points,\n            settleTime: getTime(),\n            exists: true\n        });\n        emit LogGameResult(gameId, games[gameId].refId, period, result, team1Points, team2Points);\n    }\n\n    // Update the outcome in a provider contract.\n    function updateProviderOutcome(uint gameId, address provider, uint period)\n    public\n    isValidGame(gameId)\n    hasGameEnded(gameId)\n    onlyAuthorized {\n        require(providers[provider].accepted);\n        // Game period must exist and outcome needs to be published\n        require(gamePeriods[gameId][period].exists && gamePeriods[gameId][period].settleTime != 0);\n\n        BettingProvider bettingProvider = BettingProvider(provider);\n        providerGamesToUpdate[gameId][provider].updated = true;\n\n        if (!bettingProvider.updateGameOutcome(\n            providerGamesToUpdate[gameId][provider].gameId,\n            period,\n            gamePeriods[gameId][period].result,\n            gamePeriods[gameId][period].team1Points,\n            gamePeriods[gameId][period].team2Points)) revert();\n\n        emit LogUpdatedProviderOutcome(gameId,\n                                  provider,\n                                  providerGamesToUpdate[gameId][provider].gameId,\n                                  games[gameId].refId,\n                                  period,\n                                  gamePeriods[gameId][period].result,\n                                  gamePeriods[gameId][period].team1Points,\n                                  gamePeriods[gameId][period].team2Points);\n    }\n\n    // Allows the owner of the oracle to withdraw DBETs deposited in the contract.\n    function withdrawTokens()\n    public\n    onlyOwner {\n        uint amount = decentBetToken.balanceOf(address(this));\n        if (!decentBetToken.transfer(msg.sender, amount)) revert();\n        emit LogWithdrawal(amount);\n    }\n\n    function getProviderGameId(uint gameId, address provider)\n    public\n    view\n    returns (uint id) {\n        return providerGamesToUpdate[gameId][provider].gameId;\n    }\n\n    // Don't allow ETH to be sent to this contract.\n    function() public {\n        revert();\n    }\n\n}\n",
  "sourcePath": "/srv/platform-contracts/contracts/Betting/SportsOracle.sol",
  "compiler": {
    "name": "solc",
    "version": "0.4.21+commit.dfe3193c.Emscripten.clang"
  },
  "schemaVersion": "2.0.0",
  "updatedAt": "2018-06-04T15:40:06.153Z"
}