{
  "contractName": "TestDecentBetToken",
  "abi": [
    {
      "constant": true,
      "inputs": [],
      "name": "name",
      "outputs": [
        {
          "name": "",
          "type": "string"
        }
      ],
      "payable": false,
      "stateMutability": "view",
      "type": "function"
    },
    {
      "constant": true,
      "inputs": [],
      "name": "vaultPercentOfTotal",
      "outputs": [
        {
          "name": "",
          "type": "uint256"
        }
      ],
      "payable": false,
      "stateMutability": "view",
      "type": "function"
    },
    {
      "constant": true,
      "inputs": [],
      "name": "totalSupply",
      "outputs": [
        {
          "name": "",
          "type": "uint256"
        }
      ],
      "payable": false,
      "stateMutability": "view",
      "type": "function"
    },
    {
      "constant": true,
      "inputs": [],
      "name": "timeController",
      "outputs": [
        {
          "name": "",
          "type": "address"
        }
      ],
      "payable": false,
      "stateMutability": "view",
      "type": "function"
    },
    {
      "constant": true,
      "inputs": [],
      "name": "tokenCreationMax",
      "outputs": [
        {
          "name": "",
          "type": "uint256"
        }
      ],
      "payable": false,
      "stateMutability": "view",
      "type": "function"
    },
    {
      "constant": true,
      "inputs": [],
      "name": "isMock",
      "outputs": [
        {
          "name": "",
          "type": "bool"
        }
      ],
      "payable": false,
      "stateMutability": "view",
      "type": "function"
    },
    {
      "constant": true,
      "inputs": [],
      "name": "decimals",
      "outputs": [
        {
          "name": "",
          "type": "uint256"
        }
      ],
      "payable": false,
      "stateMutability": "view",
      "type": "function"
    },
    {
      "constant": false,
      "inputs": [
        {
          "name": "time",
          "type": "uint256"
        }
      ],
      "name": "setTime",
      "outputs": [],
      "payable": false,
      "stateMutability": "nonpayable",
      "type": "function"
    },
    {
      "constant": true,
      "inputs": [],
      "name": "finalizedUpgrade",
      "outputs": [
        {
          "name": "",
          "type": "bool"
        }
      ],
      "payable": false,
      "stateMutability": "view",
      "type": "function"
    },
    {
      "constant": true,
      "inputs": [],
      "name": "getTime",
      "outputs": [
        {
          "name": "",
          "type": "uint256"
        }
      ],
      "payable": false,
      "stateMutability": "view",
      "type": "function"
    },
    {
      "constant": true,
      "inputs": [],
      "name": "upgradeAgent",
      "outputs": [
        {
          "name": "",
          "type": "address"
        }
      ],
      "payable": false,
      "stateMutability": "view",
      "type": "function"
    },
    {
      "constant": true,
      "inputs": [],
      "name": "upgradeMaster",
      "outputs": [
        {
          "name": "",
          "type": "address"
        }
      ],
      "payable": false,
      "stateMutability": "view",
      "type": "function"
    },
    {
      "constant": true,
      "inputs": [],
      "name": "isDecentBetToken",
      "outputs": [
        {
          "name": "",
          "type": "bool"
        }
      ],
      "payable": false,
      "stateMutability": "view",
      "type": "function"
    },
    {
      "constant": true,
      "inputs": [],
      "name": "baseTokensPerEther",
      "outputs": [
        {
          "name": "",
          "type": "uint256"
        }
      ],
      "payable": false,
      "stateMutability": "view",
      "type": "function"
    },
    {
      "constant": true,
      "inputs": [],
      "name": "team",
      "outputs": [
        {
          "name": "",
          "type": "address"
        }
      ],
      "payable": false,
      "stateMutability": "view",
      "type": "function"
    },
    {
      "constant": true,
      "inputs": [],
      "name": "hundredPercent",
      "outputs": [
        {
          "name": "",
          "type": "uint256"
        }
      ],
      "payable": false,
      "stateMutability": "view",
      "type": "function"
    },
    {
      "constant": true,
      "inputs": [],
      "name": "housePercentOfTotal",
      "outputs": [
        {
          "name": "",
          "type": "uint256"
        }
      ],
      "payable": false,
      "stateMutability": "view",
      "type": "function"
    },
    {
      "constant": true,
      "inputs": [],
      "name": "owner",
      "outputs": [
        {
          "name": "",
          "type": "address"
        }
      ],
      "payable": false,
      "stateMutability": "view",
      "type": "function"
    },
    {
      "constant": true,
      "inputs": [],
      "name": "symbol",
      "outputs": [
        {
          "name": "",
          "type": "string"
        }
      ],
      "payable": false,
      "stateMutability": "view",
      "type": "function"
    },
    {
      "constant": true,
      "inputs": [],
      "name": "decentBetMultisig",
      "outputs": [
        {
          "name": "",
          "type": "address"
        }
      ],
      "payable": false,
      "stateMutability": "view",
      "type": "function"
    },
    {
      "constant": true,
      "inputs": [],
      "name": "totalUpgraded",
      "outputs": [
        {
          "name": "",
          "type": "uint256"
        }
      ],
      "payable": false,
      "stateMutability": "view",
      "type": "function"
    },
    {
      "constant": false,
      "inputs": [
        {
          "name": "_isMock",
          "type": "bool"
        }
      ],
      "name": "toggleMockTime",
      "outputs": [],
      "payable": false,
      "stateMutability": "nonpayable",
      "type": "function"
    },
    {
      "constant": true,
      "inputs": [],
      "name": "timeVault",
      "outputs": [
        {
          "name": "",
          "type": "address"
        }
      ],
      "payable": false,
      "stateMutability": "view",
      "type": "function"
    },
    {
      "constant": true,
      "inputs": [],
      "name": "bountyPercentOfTotal",
      "outputs": [
        {
          "name": "",
          "type": "uint256"
        }
      ],
      "payable": false,
      "stateMutability": "view",
      "type": "function"
    },
    {
      "inputs": [
        {
          "name": "_decentBetMultisig",
          "type": "address"
        },
        {
          "name": "_upgradeMaster",
          "type": "address"
        },
        {
          "name": "_team",
          "type": "address"
        },
        {
          "name": "_baseTokensPerEther",
          "type": "uint256"
        },
        {
          "name": "_fundingStartTime",
          "type": "uint256"
        },
        {
          "name": "_fundingEndTime",
          "type": "uint256"
        }
      ],
      "payable": false,
      "stateMutability": "nonpayable",
      "type": "constructor"
    },
    {
      "payable": true,
      "stateMutability": "payable",
      "type": "fallback"
    },
    {
      "anonymous": false,
      "inputs": [
        {
          "indexed": true,
          "name": "_from",
          "type": "address"
        },
        {
          "indexed": true,
          "name": "_to",
          "type": "address"
        },
        {
          "indexed": false,
          "name": "_value",
          "type": "uint256"
        }
      ],
      "name": "Upgrade",
      "type": "event"
    },
    {
      "anonymous": false,
      "inputs": [
        {
          "indexed": true,
          "name": "_from",
          "type": "address"
        },
        {
          "indexed": false,
          "name": "_value",
          "type": "uint256"
        }
      ],
      "name": "Refund",
      "type": "event"
    },
    {
      "anonymous": false,
      "inputs": [
        {
          "indexed": false,
          "name": "sender",
          "type": "address"
        },
        {
          "indexed": false,
          "name": "upgradeAgent",
          "type": "address"
        }
      ],
      "name": "UpgradeFinalized",
      "type": "event"
    },
    {
      "anonymous": false,
      "inputs": [
        {
          "indexed": false,
          "name": "agent",
          "type": "address"
        }
      ],
      "name": "UpgradeAgentSet",
      "type": "event"
    },
    {
      "anonymous": false,
      "inputs": [
        {
          "indexed": false,
          "name": "investor",
          "type": "address"
        },
        {
          "indexed": false,
          "name": "amount",
          "type": "uint256"
        },
        {
          "indexed": false,
          "name": "txHash",
          "type": "string"
        }
      ],
      "name": "InvestedOnBehalfOf",
      "type": "event"
    },
    {
      "anonymous": false,
      "inputs": [
        {
          "indexed": false,
          "name": "time",
          "type": "uint256"
        }
      ],
      "name": "LogUpdatedTime",
      "type": "event"
    },
    {
      "anonymous": false,
      "inputs": [
        {
          "indexed": true,
          "name": "from",
          "type": "address"
        },
        {
          "indexed": true,
          "name": "to",
          "type": "address"
        },
        {
          "indexed": false,
          "name": "value",
          "type": "uint256"
        }
      ],
      "name": "Transfer",
      "type": "event"
    },
    {
      "anonymous": false,
      "inputs": [
        {
          "indexed": true,
          "name": "owner",
          "type": "address"
        },
        {
          "indexed": true,
          "name": "spender",
          "type": "address"
        },
        {
          "indexed": false,
          "name": "value",
          "type": "uint256"
        }
      ],
      "name": "Approval",
      "type": "event"
    },
    {
      "constant": false,
      "inputs": [],
      "name": "faucet",
      "outputs": [],
      "payable": false,
      "stateMutability": "nonpayable",
      "type": "function"
    },
    {
      "constant": false,
      "inputs": [],
      "name": "ownerFaucet",
      "outputs": [],
      "payable": false,
      "stateMutability": "nonpayable",
      "type": "function"
    },
    {
      "constant": true,
      "inputs": [
        {
          "name": "who",
          "type": "address"
        }
      ],
      "name": "balanceOf",
      "outputs": [
        {
          "name": "",
          "type": "uint256"
        }
      ],
      "payable": false,
      "stateMutability": "view",
      "type": "function"
    },
    {
      "constant": false,
      "inputs": [
        {
          "name": "to",
          "type": "address"
        },
        {
          "name": "value",
          "type": "uint256"
        }
      ],
      "name": "transfer",
      "outputs": [
        {
          "name": "ok",
          "type": "bool"
        }
      ],
      "payable": false,
      "stateMutability": "nonpayable",
      "type": "function"
    },
    {
      "constant": false,
      "inputs": [
        {
          "name": "from",
          "type": "address"
        },
        {
          "name": "to",
          "type": "address"
        },
        {
          "name": "value",
          "type": "uint256"
        }
      ],
      "name": "transferFrom",
      "outputs": [
        {
          "name": "ok",
          "type": "bool"
        }
      ],
      "payable": false,
      "stateMutability": "nonpayable",
      "type": "function"
    },
    {
      "constant": false,
      "inputs": [
        {
          "name": "spender",
          "type": "address"
        },
        {
          "name": "value",
          "type": "uint256"
        }
      ],
      "name": "approve",
      "outputs": [
        {
          "name": "ok",
          "type": "bool"
        }
      ],
      "payable": false,
      "stateMutability": "nonpayable",
      "type": "function"
    },
    {
      "constant": true,
      "inputs": [
        {
          "name": "_owner",
          "type": "address"
        },
        {
          "name": "spender",
          "type": "address"
        }
      ],
      "name": "allowance",
      "outputs": [
        {
          "name": "",
          "type": "uint256"
        }
      ],
      "payable": false,
      "stateMutability": "view",
      "type": "function"
    },
    {
      "constant": false,
      "inputs": [
        {
          "name": "value",
          "type": "uint256"
        }
      ],
      "name": "upgrade",
      "outputs": [],
      "payable": false,
      "stateMutability": "nonpayable",
      "type": "function"
    },
    {
      "constant": false,
      "inputs": [
        {
          "name": "agent",
          "type": "address"
        }
      ],
      "name": "setUpgradeAgent",
      "outputs": [],
      "payable": false,
      "stateMutability": "nonpayable",
      "type": "function"
    },
    {
      "constant": false,
      "inputs": [
        {
          "name": "master",
          "type": "address"
        }
      ],
      "name": "setUpgradeMaster",
      "outputs": [],
      "payable": false,
      "stateMutability": "nonpayable",
      "type": "function"
    },
    {
      "constant": false,
      "inputs": [],
      "name": "finalizeUpgrade",
      "outputs": [],
      "payable": false,
      "stateMutability": "nonpayable",
      "type": "function"
    }
  ],
  "bytecode": "0x6060604052426002556000600360146101000a81548160ff0219169083151502179055506000600760146101000a81548160ff0219169083151502179055506200006a6934f086f3b33b684000006103e8620004d36401000000000262001ff0176401000000009004565b600c5534156200007957600080fd5b60405160c08062002ecc8339810160405280805190602001909190805190602001909190805190602001909190805190602001909190805190602001909190805190602001909190505060008673ffffffffffffffffffffffffffffffffffffffff161415620000e857600080fd5b60008473ffffffffffffffffffffffffffffffffffffffff1614156200010d57600080fd5b60008573ffffffffffffffffffffffffffffffffffffffff1614156200013257600080fd5b60008314156200014157600080fd5b60018060006101000a81548160ff0219169083151502179055506200017a3362000512640100000000026200202b176401000000009004565b620001986200055664010000000002620014bd176401000000009004565b82111515620001a657600080fd5b8181111515620001b557600080fd5b6001600360146101000a81548160ff02191690831515021790555084600860006101000a81548173ffffffffffffffffffffffffffffffffffffffff021916908373ffffffffffffffffffffffffffffffffffffffff16021790555083600760006101000a81548173ffffffffffffffffffffffffffffffffffffffff021916908373ffffffffffffffffffffffffffffffffffffffff16021790555033600660006101000a81548173ffffffffffffffffffffffffffffffffffffffff021916908373ffffffffffffffffffffffffffffffffffffffff16021790555082600b8190555085620002a56200057d565b808273ffffffffffffffffffffffffffffffffffffffff1673ffffffffffffffffffffffffffffffffffffffff168152602001915050604051809103906000f0801515620002f257600080fd5b600e60006101000a81548173ffffffffffffffffffffffffffffffffffffffff021916908373ffffffffffffffffffffffffffffffffffffffff160217905550600e60009054906101000a900473ffffffffffffffffffffffffffffffffffffffff1673ffffffffffffffffffffffffffffffffffffffff1663cd3faa6a6040518163ffffffff167c0100000000000000000000000000000000000000000000000000000000028152600401602060405180830381600087803b1515620003b857600080fd5b5af11515620003c657600080fd5b505050604051805190501515620003dc57600080fd5b85600d60006101000a81548173ffffffffffffffffffffffffffffffffffffffff021916908373ffffffffffffffffffffffffffffffffffffffff160217905550600d60009054906101000a900473ffffffffffffffffffffffffffffffffffffffff1673ffffffffffffffffffffffffffffffffffffffff16634c3a6ae06040518163ffffffff167c0100000000000000000000000000000000000000000000000000000000028152600401602060405180830381600087803b1515620004a357600080fd5b5af11515620004b157600080fd5b505050604051805190501515620004c757600080fd5b5050505050506200058e565b6000806000841415620004ea57600091506200050b565b8284029050828482811515620004fc57fe5b041415156200050757fe5b8091505b5092915050565b80600360006101000a81548173ffffffffffffffffffffffffffffffffffffffff021916908373ffffffffffffffffffffffffffffffffffffffff16021790555050565b6000600160009054906101000a900460ff1662000574574262000578565b6002545b905090565b604051610893806200263983390190565b61209b806200059e6000396000f3006060604052600436106101b7576000357c0100000000000000000000000000000000000000000000000000000000900463ffffffff16806306fdde03146101bc57806308e496ea1461024a578063095ea7b31461027357806318160ddd146102cd5780631a102add146102f65780631f97c00e1461034b57806323b872dd1461037457806328ccaa29146103ed578063313ce5671461041a578063328e8594146104435780633beb26c41461045857806345977d031461047b57806347858c791461049e578063557ed1ba146104cb5780635de4ccb0146104f4578063600440cb1461054957806367a4e7c41461059e57806370a08231146105cb578063728d5e941461061857806385f2aef2146106415780638a9cb361146106965780638b2de796146106bf5780638da5cb5b146106e857806395d89b411461073d5780639a45a263146107cb5780639a508c8e14610820578063a9059cbb14610835578063c752ff621461088f578063d563ce19146108b8578063d7e7088a146108dd578063dd62ed3e14610916578063de5f72fd14610982578063f4660ff514610997578063f99f977c146109ec578063ffeb7d7514610a15575b600080fd5b34156101c757600080fd5b6101cf610a4e565b6040518080602001828103825283818151815260200191508051906020019080838360005b8381101561020f5780820151818401526020810190506101f4565b50505050905090810190601f16801561023c5780820380516001836020036101000a031916815260200191505b509250505060405180910390f35b341561025557600080fd5b61025d610a87565b6040518082815260200191505060405180910390f35b341561027e57600080fd5b6102b3600480803573ffffffffffffffffffffffffffffffffffffffff16906020019091908035906020019091905050610a8c565b604051808215151515815260200191505060405180910390f35b34156102d857600080fd5b6102e0610b7e565b6040518082815260200191505060405180910390f35b341561030157600080fd5b610309610b84565b604051808273ffffffffffffffffffffffffffffffffffffffff1673ffffffffffffffffffffffffffffffffffffffff16815260200191505060405180910390f35b341561035657600080fd5b61035e610baa565b6040518082815260200191505060405180910390f35b341561037f57600080fd5b6103d3600480803573ffffffffffffffffffffffffffffffffffffffff1690602001909190803573ffffffffffffffffffffffffffffffffffffffff16906020019091908035906020019091905050610bb0565b604051808215151515815260200191505060405180910390f35b34156103f857600080fd5b610400610fac565b604051808215151515815260200191505060405180910390f35b341561042557600080fd5b61042d610fbf565b6040518082815260200191505060405180910390f35b341561044e57600080fd5b610456610fc4565b005b341561046357600080fd5b61047960048080359060200190919050506110cc565b005b341561048657600080fd5b61049c6004808035906020019091905050611169565b005b34156104a957600080fd5b6104b16114aa565b604051808215151515815260200191505060405180910390f35b34156104d657600080fd5b6104de6114bd565b6040518082815260200191505060405180910390f35b34156104ff57600080fd5b6105076114e2565b604051808273ffffffffffffffffffffffffffffffffffffffff1673ffffffffffffffffffffffffffffffffffffffff16815260200191505060405180910390f35b341561055457600080fd5b61055c611508565b604051808273ffffffffffffffffffffffffffffffffffffffff1673ffffffffffffffffffffffffffffffffffffffff16815260200191505060405180910390f35b34156105a957600080fd5b6105b161152e565b604051808215151515815260200191505060405180910390f35b34156105d657600080fd5b610602600480803573ffffffffffffffffffffffffffffffffffffffff16906020019091905050611541565b6040518082815260200191505060405180910390f35b341561062357600080fd5b61062b61158a565b6040518082815260200191505060405180910390f35b341561064c57600080fd5b610654611590565b604051808273ffffffffffffffffffffffffffffffffffffffff1673ffffffffffffffffffffffffffffffffffffffff16815260200191505060405180910390f35b34156106a157600080fd5b6106a96115b6565b6040518082815260200191505060405180910390f35b34156106ca57600080fd5b6106d26115bb565b6040518082815260200191505060405180910390f35b34156106f357600080fd5b6106fb6115c0565b604051808273ffffffffffffffffffffffffffffffffffffffff1673ffffffffffffffffffffffffffffffffffffffff16815260200191505060405180910390f35b341561074857600080fd5b6107506115e6565b6040518080602001828103825283818151815260200191508051906020019080838360005b83811015610790578082015181840152602081019050610775565b50505050905090810190601f1680156107bd5780820380516001836020036101000a031916815260200191505b509250505060405180910390f35b34156107d657600080fd5b6107de61161f565b604051808273ffffffffffffffffffffffffffffffffffffffff1673ffffffffffffffffffffffffffffffffffffffff16815260200191505060405180910390f35b341561082b57600080fd5b610833611645565b005b341561084057600080fd5b610875600480803573ffffffffffffffffffffffffffffffffffffffff169060200190919080359060200190919050506118e5565b604051808215151515815260200191505060405180910390f35b341561089a57600080fd5b6108a2611a95565b6040518082815260200191505060405180910390f35b34156108c357600080fd5b6108db60048080351515906020019091905050611a9b565b005b34156108e857600080fd5b610914600480803573ffffffffffffffffffffffffffffffffffffffff16906020019091905050611b14565b005b341561092157600080fd5b61096c600480803573ffffffffffffffffffffffffffffffffffffffff1690602001909190803573ffffffffffffffffffffffffffffffffffffffff16906020019091905050611d99565b6040518082815260200191505060405180910390f35b341561098d57600080fd5b610995611e20565b005b34156109a257600080fd5b6109aa611eca565b604051808273ffffffffffffffffffffffffffffffffffffffff1673ffffffffffffffffffffffffffffffffffffffff16815260200191505060405180910390f35b34156109f757600080fd5b6109ff611ef0565b6040518082815260200191505060405180910390f35b3415610a2057600080fd5b610a4c600480803573ffffffffffffffffffffffffffffffffffffffff16906020019091905050611ef5565b005b6040805190810160405280601081526020017f446563656e742e42657420546f6b656e0000000000000000000000000000000081525081565b601281565b600081600560003373ffffffffffffffffffffffffffffffffffffffff1673ffffffffffffffffffffffffffffffffffffffff16815260200190815260200160002060008573ffffffffffffffffffffffffffffffffffffffff1673ffffffffffffffffffffffffffffffffffffffff168152602001908152602001600020819055508273ffffffffffffffffffffffffffffffffffffffff163373ffffffffffffffffffffffffffffffffffffffff167f8c5be1e5ebec7d5bd14f71427d1e84f3dd0314c0f7b2291e5b200ac8c7c3b925846040518082815260200191505060405180910390a36001905092915050565b60005481565b600360009054906101000a900473ffffffffffffffffffffffffffffffffffffffff1681565b600c5481565b600081600460008673ffffffffffffffffffffffffffffffffffffffff1673ffffffffffffffffffffffffffffffffffffffff1681526020019081526020016000205410158015610c7d575081600560008673ffffffffffffffffffffffffffffffffffffffff1673ffffffffffffffffffffffffffffffffffffffff16815260200190815260200160002060003373ffffffffffffffffffffffffffffffffffffffff1673ffffffffffffffffffffffffffffffffffffffff1681526020019081526020016000205410155b8015610d0f5750600460008473ffffffffffffffffffffffffffffffffffffffff1673ffffffffffffffffffffffffffffffffffffffff16815260200190815260200160002054610d0d600460008673ffffffffffffffffffffffffffffffffffffffff1673ffffffffffffffffffffffffffffffffffffffff1681526020019081526020016000205484611fb9565b115b15610fa057610d5d600460008573ffffffffffffffffffffffffffffffffffffffff1673ffffffffffffffffffffffffffffffffffffffff1681526020019081526020016000205483611fb9565b600460008573ffffffffffffffffffffffffffffffffffffffff1673ffffffffffffffffffffffffffffffffffffffff16815260200190815260200160002081905550610de9600460008673ffffffffffffffffffffffffffffffffffffffff1673ffffffffffffffffffffffffffffffffffffffff1681526020019081526020016000205483611fd7565b600460008673ffffffffffffffffffffffffffffffffffffffff1673ffffffffffffffffffffffffffffffffffffffff16815260200190815260200160002081905550610eb2600560008673ffffffffffffffffffffffffffffffffffffffff1673ffffffffffffffffffffffffffffffffffffffff16815260200190815260200160002060003373ffffffffffffffffffffffffffffffffffffffff1673ffffffffffffffffffffffffffffffffffffffff1681526020019081526020016000205483611fd7565b600560008673ffffffffffffffffffffffffffffffffffffffff1673ffffffffffffffffffffffffffffffffffffffff16815260200190815260200160002060003373ffffffffffffffffffffffffffffffffffffffff1673ffffffffffffffffffffffffffffffffffffffff168152602001908152602001600020819055508273ffffffffffffffffffffffffffffffffffffffff168473ffffffffffffffffffffffffffffffffffffffff167fddf252ad1be2c89b69c2b068fc378daa952ba7f163c4a11628f55a4df523b3ef846040518082815260200191505060405180910390a360019050610fa5565b600090505b9392505050565b600160009054906101000a900460ff1681565b601281565b600660009054906101000a900473ffffffffffffffffffffffffffffffffffffffff1673ffffffffffffffffffffffffffffffffffffffff163373ffffffffffffffffffffffffffffffffffffffff1614151561102057600080fd5b6a52b7d2dcc80cd2e4000000600460003373ffffffffffffffffffffffffffffffffffffffff1673ffffffffffffffffffffffffffffffffffffffff168152602001908152602001600020819055503373ffffffffffffffffffffffffffffffffffffffff1660007fddf252ad1be2c89b69c2b068fc378daa952ba7f163c4a11628f55a4df523b3ef6a52b7d2dcc80cd2e40000006040518082815260200191505060405180910390a3565b600360009054906101000a900473ffffffffffffffffffffffffffffffffffffffff1673ffffffffffffffffffffffffffffffffffffffff163373ffffffffffffffffffffffffffffffffffffffff1614151561112857600080fd5b806002819055507fddb30991472728014becfdc873e13fc7a4bbad9d6e1b45632cbdf2098d249a79816040518082815260200191505060405180910390a150565b6000600960009054906101000a900473ffffffffffffffffffffffffffffffffffffffff1673ffffffffffffffffffffffffffffffffffffffff16638da5cb5b6040518163ffffffff167c0100000000000000000000000000000000000000000000000000000000028152600401602060405180830381600087803b15156111f057600080fd5b5af115156111fd57600080fd5b5050506040518051905073ffffffffffffffffffffffffffffffffffffffff16141561122857600080fd5b600760149054906101000a900460ff161561124257600080fd5b600081141561125057600080fd5b600460003373ffffffffffffffffffffffffffffffffffffffff1673ffffffffffffffffffffffffffffffffffffffff1681526020019081526020016000205481111561129c57600080fd5b6112e5600460003373ffffffffffffffffffffffffffffffffffffffff1673ffffffffffffffffffffffffffffffffffffffff1681526020019081526020016000205482611fd7565b600460003373ffffffffffffffffffffffffffffffffffffffff1673ffffffffffffffffffffffffffffffffffffffff1681526020019081526020016000208190555061133460005482611fd7565b600081905550611346600a5482611fb9565b600a81905550600960009054906101000a900473ffffffffffffffffffffffffffffffffffffffff1673ffffffffffffffffffffffffffffffffffffffff1663753e88e533836040518363ffffffff167c0100000000000000000000000000000000000000000000000000000000028152600401808373ffffffffffffffffffffffffffffffffffffffff1673ffffffffffffffffffffffffffffffffffffffff16815260200182815260200192505050600060405180830381600087803b151561141057600080fd5b5af1151561141d57600080fd5b505050600960009054906101000a900473ffffffffffffffffffffffffffffffffffffffff1673ffffffffffffffffffffffffffffffffffffffff163373ffffffffffffffffffffffffffffffffffffffff167f7e5c344a8141a805725cb476f76c6953b842222b967edd1f78ddb6e8b3f397ac836040518082815260200191505060405180910390a350565b600760149054906101000a900460ff1681565b6000600160009054906101000a900460ff166114d957426114dd565b6002545b905090565b600960009054906101000a900473ffffffffffffffffffffffffffffffffffffffff1681565b600860009054906101000a900473ffffffffffffffffffffffffffffffffffffffff1681565b600360149054906101000a900460ff1681565b6000600460008373ffffffffffffffffffffffffffffffffffffffff1673ffffffffffffffffffffffffffffffffffffffff168152602001908152602001600020549050919050565b600b5481565b600760009054906101000a900473ffffffffffffffffffffffffffffffffffffffff1681565b606481565b600a81565b600660009054906101000a900473ffffffffffffffffffffffffffffffffffffffff1681565b6040805190810160405280600481526020017f444245540000000000000000000000000000000000000000000000000000000081525081565b600d60009054906101000a900473ffffffffffffffffffffffffffffffffffffffff1681565b6000600960009054906101000a900473ffffffffffffffffffffffffffffffffffffffff1673ffffffffffffffffffffffffffffffffffffffff16638da5cb5b6040518163ffffffff167c0100000000000000000000000000000000000000000000000000000000028152600401602060405180830381600087803b15156116cc57600080fd5b5af115156116d957600080fd5b5050506040518051905073ffffffffffffffffffffffffffffffffffffffff16141561170457600080fd5b600860009054906101000a900473ffffffffffffffffffffffffffffffffffffffff1673ffffffffffffffffffffffffffffffffffffffff163373ffffffffffffffffffffffffffffffffffffffff1614151561176057600080fd5b600760149054906101000a900460ff161561177a57600080fd5b6001600760146101000a81548160ff021916908315150217905550600960009054906101000a900473ffffffffffffffffffffffffffffffffffffffff1673ffffffffffffffffffffffffffffffffffffffff16639a508c8e6040518163ffffffff167c0100000000000000000000000000000000000000000000000000000000028152600401600060405180830381600087803b151561181a57600080fd5b5af1151561182757600080fd5b5050507fdefffffb60c1e133c8c4d138aca8eb2459d671a44b864db2b2febc8e2b5c17f833600960009054906101000a900473ffffffffffffffffffffffffffffffffffffffff16604051808373ffffffffffffffffffffffffffffffffffffffff1673ffffffffffffffffffffffffffffffffffffffff1681526020018273ffffffffffffffffffffffffffffffffffffffff1673ffffffffffffffffffffffffffffffffffffffff1681526020019250505060405180910390a1565b600080600460003373ffffffffffffffffffffffffffffffffffffffff1673ffffffffffffffffffffffffffffffffffffffff16815260200190815260200160002054905082811015801561193a5750600083115b15611a89576119498184611fd7565b905080600460003373ffffffffffffffffffffffffffffffffffffffff1673ffffffffffffffffffffffffffffffffffffffff168152602001908152602001600020819055506119d8600460008673ffffffffffffffffffffffffffffffffffffffff1673ffffffffffffffffffffffffffffffffffffffff1681526020019081526020016000205484611fb9565b600460008673ffffffffffffffffffffffffffffffffffffffff1673ffffffffffffffffffffffffffffffffffffffff168152602001908152602001600020819055508373ffffffffffffffffffffffffffffffffffffffff163373ffffffffffffffffffffffffffffffffffffffff167fddf252ad1be2c89b69c2b068fc378daa952ba7f163c4a11628f55a4df523b3ef856040518082815260200191505060405180910390a360019150611a8e565b600091505b5092915050565b600a5481565b600360009054906101000a900473ffffffffffffffffffffffffffffffffffffffff1673ffffffffffffffffffffffffffffffffffffffff163373ffffffffffffffffffffffffffffffffffffffff16141515611af757600080fd5b80600160006101000a81548160ff02191690831515021790555050565b60008173ffffffffffffffffffffffffffffffffffffffff161415611b3857600080fd5b600860009054906101000a900473ffffffffffffffffffffffffffffffffffffffff1673ffffffffffffffffffffffffffffffffffffffff163373ffffffffffffffffffffffffffffffffffffffff16141515611b9457600080fd5b80600960006101000a81548173ffffffffffffffffffffffffffffffffffffffff021916908373ffffffffffffffffffffffffffffffffffffffff160217905550600960009054906101000a900473ffffffffffffffffffffffffffffffffffffffff1673ffffffffffffffffffffffffffffffffffffffff166361d3d7a66040518163ffffffff167c0100000000000000000000000000000000000000000000000000000000028152600401602060405180830381600087803b1515611c5a57600080fd5b5af11515611c6757600080fd5b505050604051805190501515611c7c57600080fd5b600960009054906101000a900473ffffffffffffffffffffffffffffffffffffffff1673ffffffffffffffffffffffffffffffffffffffff16639ef916ab6040518163ffffffff167c0100000000000000000000000000000000000000000000000000000000028152600401600060405180830381600087803b1515611d0157600080fd5b5af11515611d0e57600080fd5b5050507f7845d5aa74cc410e35571258d954f23b82276e160fe8c188fa80566580f279cc600960009054906101000a900473ffffffffffffffffffffffffffffffffffffffff16604051808273ffffffffffffffffffffffffffffffffffffffff1673ffffffffffffffffffffffffffffffffffffffff16815260200191505060405180910390a150565b6000600560008473ffffffffffffffffffffffffffffffffffffffff1673ffffffffffffffffffffffffffffffffffffffff16815260200190815260200160002060008373ffffffffffffffffffffffffffffffffffffffff1673ffffffffffffffffffffffffffffffffffffffff16815260200190815260200160002054905092915050565b69152d02c7e14af6800000600460003373ffffffffffffffffffffffffffffffffffffffff1673ffffffffffffffffffffffffffffffffffffffff168152602001908152602001600020819055503373ffffffffffffffffffffffffffffffffffffffff1660007fddf252ad1be2c89b69c2b068fc378daa952ba7f163c4a11628f55a4df523b3ef69152d02c7e14af68000006040518082815260200191505060405180910390a3565b600e60009054906101000a900473ffffffffffffffffffffffffffffffffffffffff1681565b600281565b60008173ffffffffffffffffffffffffffffffffffffffff161415611f1957600080fd5b600860009054906101000a900473ffffffffffffffffffffffffffffffffffffffff1673ffffffffffffffffffffffffffffffffffffffff163373ffffffffffffffffffffffffffffffffffffffff16141515611f7557600080fd5b80600860006101000a81548173ffffffffffffffffffffffffffffffffffffffff021916908373ffffffffffffffffffffffffffffffffffffffff16021790555050565b6000808284019050838110151515611fcd57fe5b8091505092915050565b6000828211151515611fe557fe5b818303905092915050565b60008060008414156120055760009150612024565b828402905082848281151561201657fe5b0414151561202057fe5b8091505b5092915050565b80600360006101000a81548173ffffffffffffffffffffffffffffffffffffffff021916908373ffffffffffffffffffffffffffffffffffffffff160217905550505600a165627a7a72305820980dbe8bc4403d6297fb97449a80081eaa4da60c9757e51e26ebab5c63070d2200296060604052426001556000600260146101000a81548160ff021916908315150217905550341561002e57600080fd5b6040516020806108938339810160405280805190602001909190505060008173ffffffffffffffffffffffffffffffffffffffff16141561006e57600080fd5b33600360006101000a81548173ffffffffffffffffffffffffffffffffffffffff021916908373ffffffffffffffffffffffffffffffffffffffff16021790555080600460006101000a81548173ffffffffffffffffffffffffffffffffffffffff021916908373ffffffffffffffffffffffffffffffffffffffff1602179055506001600260146101000a81548160ff02191690831515021790555060016000806101000a81548160ff02191690831515021790555061014133610188640100000000026105e8176401000000009004565b61017c61015f6101cc640100000000026102c6176401000000009004565b6301e133806101f06401000000000261062c176401000000009004565b6005819055505061020e565b80600260006101000a81548173ffffffffffffffffffffffffffffffffffffffff021916908373ffffffffffffffffffffffffffffffffffffffff16021790555050565b60008060009054906101000a900460ff166101e757426101eb565b6001545b905090565b600080828401905083811015151561020457fe5b8091505092915050565b6106768061021d6000396000f30060606040526004361061008e576000357c0100000000000000000000000000000000000000000000000000000000900463ffffffff1680631a102add1461009357806328ccaa29146100e85780633beb26c414610115578063557ed1ba14610138578063a438b0e514610161578063a69df4b51461018a578063cd3faa6a1461019f578063d563ce19146101cc575b600080fd5b341561009e57600080fd5b6100a66101f1565b604051808273ffffffffffffffffffffffffffffffffffffffff1673ffffffffffffffffffffffffffffffffffffffff16815260200191505060405180910390f35b34156100f357600080fd5b6100fb610217565b604051808215151515815260200191505060405180910390f35b341561012057600080fd5b6101366004808035906020019091905050610229565b005b341561014357600080fd5b61014b6102c6565b6040518082815260200191505060405180910390f35b341561016c57600080fd5b6101746102ea565b6040518082815260200191505060405180910390f35b341561019557600080fd5b61019d6102f2565b005b34156101aa57600080fd5b6101b261055d565b604051808215151515815260200191505060405180910390f35b34156101d757600080fd5b6101ef60048080351515906020019091905050610570565b005b600260009054906101000a900473ffffffffffffffffffffffffffffffffffffffff1681565b6000809054906101000a900460ff1681565b600260009054906101000a900473ffffffffffffffffffffffffffffffffffffffff1673ffffffffffffffffffffffffffffffffffffffff163373ffffffffffffffffffffffffffffffffffffffff1614151561028557600080fd5b806001819055507fddb30991472728014becfdc873e13fc7a4bbad9d6e1b45632cbdf2098d249a79816040518082815260200191505060405180910390a150565b60008060009054906101000a900460ff166102e157426102e5565b6001545b905090565b6301e1338081565b6005546102fd6102c6565b101561030857600080fd5b600360009054906101000a900473ffffffffffffffffffffffffffffffffffffffff1673ffffffffffffffffffffffffffffffffffffffff1663a9059cbb600460009054906101000a900473ffffffffffffffffffffffffffffffffffffffff16600360009054906101000a900473ffffffffffffffffffffffffffffffffffffffff1673ffffffffffffffffffffffffffffffffffffffff166370a08231306040518263ffffffff167c0100000000000000000000000000000000000000000000000000000000028152600401808273ffffffffffffffffffffffffffffffffffffffff1673ffffffffffffffffffffffffffffffffffffffff168152602001915050602060405180830381600087803b151561042557600080fd5b5af1151561043257600080fd5b505050604051805190506040518363ffffffff167c0100000000000000000000000000000000000000000000000000000000028152600401808373ffffffffffffffffffffffffffffffffffffffff1673ffffffffffffffffffffffffffffffffffffffff16815260200182815260200192505050602060405180830381600087803b15156104c057600080fd5b5af115156104cd57600080fd5b5050506040518051905015156104e257600080fd5b600460009054906101000a900473ffffffffffffffffffffffffffffffffffffffff1673ffffffffffffffffffffffffffffffffffffffff166108fc3073ffffffffffffffffffffffffffffffffffffffff16319081150290604051600060405180830381858888f19350505050151561055b57600080fd5b565b600260149054906101000a900460ff1681565b600260009054906101000a900473ffffffffffffffffffffffffffffffffffffffff1673ffffffffffffffffffffffffffffffffffffffff163373ffffffffffffffffffffffffffffffffffffffff161415156105cc57600080fd5b806000806101000a81548160ff02191690831515021790555050565b80600260006101000a81548173ffffffffffffffffffffffffffffffffffffffff021916908373ffffffffffffffffffffffffffffffffffffffff16021790555050565b600080828401905083811015151561064057fe5b80915050929150505600a165627a7a7230582050b3f6405ba77ac39d2393797dd8e9e8aa9a1a938691ea56899c4cebd26168970029",
  "source": "pragma solidity 0.4.21;\n\n// Decent.bet Token only for testing purposes\n\nimport './ERC20.sol';\nimport '../Libraries/SafeMath.sol';\nimport '../Libraries/TimeProvider.sol';\nimport './MultiSigWallet.sol';\n\ncontract TestUpgradeAgent is SafeMath {\n    address public owner;\n\n    bool public isUpgradeAgent;\n\n    function upgradeFrom(address _from, uint256 _value) public;\n\n    function finalizeUpgrade() public;\n\n    function setOriginalSupply() public;\n}\n\n/// @title Time-locked vault of tokens allocated to DecentBet after 180 days\ncontract TestDecentBetVault is SafeMath, TimeProvider {\n\n    // flag to determine if address is for a real contract or not\n    bool public isDecentBetVault = false;\n\n    TestDecentBetToken decentBetToken;\n\n    address decentBetMultisig;\n\n    uint256 unlockedAtTime;\n\n    // smaller lock for testing\n    uint256 public constant timeOffset = 1 years;\n\n    /// @notice Constructor function sets the DecentBet Multisig address and\n    /// total number of locked tokens to transfer\n    function TestDecentBetVault(address _decentBetMultisig) public /** internal */ {\n        if (_decentBetMultisig == 0x0) revert();\n        decentBetToken = TestDecentBetToken(msg.sender);\n        decentBetMultisig = _decentBetMultisig;\n        isDecentBetVault = true;\n\n        // If on local testRPC/testnet and need mock times\n        isMock = true;\n        setTimeController(msg.sender);\n\n        unlockedAtTime = safeAdd(getTime(), timeOffset);\n        // 1 year later\n    }\n\n    /// @notice Transfer locked tokens to Decent.bet's multisig wallet\n    function unlock() external {\n        // Wait your turn!\n        if (getTime() < unlockedAtTime) revert();\n        // Will fail if allocation (and therefore toTransfer) is 0.\n        if (!decentBetToken.transfer(decentBetMultisig, decentBetToken.balanceOf(this))) revert();\n        // Otherwise ether are trapped here, we could disallow payable instead...\n        if (!decentBetMultisig.send(address(this).balance)) revert();\n    }\n\n    // disallow ETH payments to TimeVault\n    function() public payable {\n        revert();\n    }\n\n}\n\n\n/// @title DecentBet crowdsale contract\ncontract TestDecentBetToken is SafeMath, ERC20, TimeProvider {\n\n    // flag to determine if address is for a real contract or not\n    bool public isDecentBetToken = false;\n\n    // State machine\n    enum State{Waiting, PreSale, Funding, Success}\n\n    // Token information\n    string public constant name = \"Decent.Bet Token\";\n\n    string public constant symbol = \"DBET\";\n\n    uint256 public constant decimals = 18;  // decimal places\n\n    uint256 public constant housePercentOfTotal = 10;\n\n    uint256 public constant vaultPercentOfTotal = 18;\n\n    uint256 public constant bountyPercentOfTotal = 2;\n\n    uint256 public constant hundredPercent = 100;\n\n    mapping (address => uint256) balances;\n\n    mapping (address => mapping (address => uint256)) allowed;\n\n    // Authorized addresses\n    address public owner;\n    address public team;\n\n    // Upgrade information\n    bool public finalizedUpgrade = false;\n\n    address public upgradeMaster;\n\n    TestUpgradeAgent public upgradeAgent;\n\n    uint256 public totalUpgraded;\n\n    // DBET:ETH exchange rate - Needs to be updated at time of ICO. Price of ETH/0.125.\n    // For example: If ETH/USD = 300, it would be 2400 DBETs per ETH.\n    uint256 public baseTokensPerEther;\n    uint256 public tokenCreationMax = safeMul(250000 ether, 1000);\n\n    // for testing on testnet\n    //uint256 public constant tokenCreationMax = safeMul(10 ether, baseTokensPerEther);\n    //uint256 public constant tokenCreationMin = safeMul(3 ether, baseTokensPerEther);\n\n    address public decentBetMultisig;\n\n    TestDecentBetVault public timeVault; // DecentBet's time-locked vault\n\n    event Upgrade(address indexed _from, address indexed _to, uint256 _value);\n\n    event Refund(address indexed _from, uint256 _value);\n\n    event UpgradeFinalized(address sender, address upgradeAgent);\n\n    event UpgradeAgentSet(address agent);\n\n    event InvestedOnBehalfOf(address investor, uint amount, string txHash);\n\n    // Allow only the team address to continue\n    modifier onlyTeam() {\n        if(msg.sender != team) revert();\n        _;\n    }\n\n    function TestDecentBetToken(address _decentBetMultisig,\n    address _upgradeMaster, address _team,\n    uint256 _baseTokensPerEther, uint256 _fundingStartTime,\n    uint256 _fundingEndTime) public {\n\n        if (_decentBetMultisig == 0) revert();\n        if (_team == 0) revert();\n        if (_upgradeMaster == 0) revert();\n        if (_baseTokensPerEther == 0) revert();\n\n        // If on local testRPC/testnet and need mock times\n        isMock = true;\n        setTimeController(msg.sender);\n\n        // Crowdsale can only officially start after the current block timestamp.\n        if (_fundingStartTime <= getTime()) revert();\n        if (_fundingEndTime <= _fundingStartTime) revert();\n\n        isDecentBetToken = true;\n\n        upgradeMaster = _upgradeMaster;\n        team = _team;\n        owner = msg.sender;\n\n        baseTokensPerEther = _baseTokensPerEther;\n\n        timeVault = new TestDecentBetVault(_decentBetMultisig);\n        if (!timeVault.isDecentBetVault()) revert();\n\n        decentBetMultisig = _decentBetMultisig;\n        if (!MultiSigWallet(decentBetMultisig).isMultiSigWallet()) revert();\n    }\n\n    function faucet() public {\n        balances[msg.sender] = 100000 ether;\n        emit Transfer(0, msg.sender, 100000 ether);\n    }\n\n    function ownerFaucet() public {\n        if(msg.sender != owner) revert();\n        balances[msg.sender] = 100000000 ether;\n        emit Transfer(0, msg.sender, 100000000 ether);\n    }\n\n    function balanceOf(address who) public constant returns (uint) {\n        return balances[who];\n    }\n\n    /// @notice Transfer `value` DBET tokens from sender's account\n    /// `msg.sender` to provided account address `to`.\n    /// @notice This function is disabled during the funding.\n    /// @dev Required state: Success\n    /// @param to The address of the recipient\n    /// @param value The number of DBETs to transfer\n    /// @return Whether the transfer was successful or not\n    function transfer(address to, uint256 value) public returns (bool ok) {\n        // Abort if crowdfunding was not a success.\n        uint256 senderBalance = balances[msg.sender];\n        if (senderBalance >= value && value > 0) {\n            senderBalance = safeSub(senderBalance, value);\n            balances[msg.sender] = senderBalance;\n            balances[to] = safeAdd(balances[to], value);\n            emit Transfer(msg.sender, to, value);\n            return true;\n        }\n        return false;\n    }\n\n    /// @notice Transfer `value` DBET tokens from sender 'from'\n    /// to provided account address `to`.\n    /// @notice This function is disabled during the funding.\n    /// @dev Required state: Success\n    /// @param from The address of the sender\n    /// @param to The address of the recipient\n    /// @param value The number of DBETs to transfer\n    /// @return Whether the transfer was successful or not\n    function transferFrom(address from, address to, uint256 value) public returns (bool ok) {\n        // Abort if not in Success state.\n        // protect against wrapping uints\n        if (balances[from] >= value &&\n        allowed[from][msg.sender] >= value &&\n        safeAdd(balances[to], value) > balances[to])\n        {\n            balances[to] = safeAdd(balances[to], value);\n            balances[from] = safeSub(balances[from], value);\n            allowed[from][msg.sender] = safeSub(allowed[from][msg.sender], value);\n            emit Transfer(from, to, value);\n            return true;\n        }\n        else {return false;}\n    }\n\n    /// @notice `msg.sender` approves `spender` to spend `value` tokens\n    /// @param spender The address of the account able to transfer the tokens\n    /// @param value The amount of wei to be approved for transfer\n    /// @return Whether the approval was successful or not\n    function approve(address spender, uint256 value) public returns (bool ok) {\n        // Abort if not in Success state.\n        allowed[msg.sender][spender] = value;\n        emit Approval(msg.sender, spender, value);\n        return true;\n    }\n\n    /// @param _owner The address of the account owning tokens\n    /// @param spender The address of the account able to transfer the tokens\n    /// @return Amount of remaining tokens allowed to spent\n    function allowance(address _owner, address spender) public constant returns (uint) {\n        return allowed[_owner][spender];\n    }\n\n    // Token upgrade functionality\n\n    /// @notice Upgrade tokens to the new token contract.\n    /// @dev Required state: Success\n    /// @param value The number of tokens to upgrade\n    function upgrade(uint256 value) external {\n        // Abort if not in Success state.\n        if (upgradeAgent.owner() == 0x0) revert();\n        // need a real upgradeAgent address\n        if (finalizedUpgrade) revert();\n        // cannot upgrade if finalized\n\n        // Validate input value.\n        if (value == 0) revert();\n        if (value > balances[msg.sender]) revert();\n\n        // update the balances here first before calling out (reentrancy)\n        balances[msg.sender] = safeSub(balances[msg.sender], value);\n        totalSupply = safeSub(totalSupply, value);\n        totalUpgraded = safeAdd(totalUpgraded, value);\n        upgradeAgent.upgradeFrom(msg.sender, value);\n        emit Upgrade(msg.sender, upgradeAgent, value);\n    }\n\n    /// @notice Set address of upgrade target contract and enable upgrade\n    /// process.\n    /// @dev Required state: Success\n    /// @param agent The address of the UpgradeAgent contract\n    function setUpgradeAgent(address agent) external {\n        // Abort if not in Success state.\n        if (agent == 0x0) revert();\n        // don't set agent to nothing\n        if (msg.sender != upgradeMaster) revert();\n        // Only a master can designate the next agent\n        upgradeAgent = TestUpgradeAgent(agent);\n        if (!upgradeAgent.isUpgradeAgent()) revert();\n        // this needs to be called in success condition to guarantee the invariant is true\n        upgradeAgent.setOriginalSupply();\n        emit UpgradeAgentSet(upgradeAgent);\n    }\n\n    /// @notice Set address of upgrade target contract and enable upgrade\n    /// process.\n    /// @dev Required state: Success\n    /// @param master The address that will manage upgrades, not the upgradeAgent contract address\n    function setUpgradeMaster(address master) external {\n        // Abort if not in Success state.\n        if (master == 0x0) revert();\n        if (msg.sender != upgradeMaster) revert();\n        // Only a master can designate the next master\n        upgradeMaster = master;\n    }\n\n    /// @notice finalize the upgrade\n    /// @dev Required state: Success\n    function finalizeUpgrade() external {\n        // Abort if not in Success state.\n        if (upgradeAgent.owner() == 0x0) revert();\n        // we need a valid upgrade agent\n        if (msg.sender != upgradeMaster) revert();\n        // only upgradeMaster can finalize\n        if (finalizedUpgrade) revert();\n        // can't finalize twice\n\n        finalizedUpgrade = true;\n        // prevent future upgrades\n\n        upgradeAgent.finalizeUpgrade();\n        // call finalize upgrade on new contract\n        emit UpgradeFinalized(msg.sender, upgradeAgent);\n    }\n\n    // Crowdfunding:\n\n    // don't just send ether to the contract expecting to get tokens\n    function() public payable {\n        revert();\n    }\n\n}\n",
  "sourcePath": "/Users/dev/Projects/platform-contracts/contracts/Token/TestDecentBetToken.sol",
  "compiler": {
    "name": "solc",
    "version": "0.4.21+commit.dfe3193c.Emscripten.clang"
  },
  "schemaVersion": "2.0.0",
  "updatedAt": "2018-05-28T22:01:55.271Z"
}