{
  "contractName": "BettingProviderHelper",
  "abi": [
    {
      "constant": true,
      "inputs": [
        {
          "name": "handicap",
          "type": "int256"
        },
        {
          "name": "team1Points",
          "type": "uint256"
        },
        {
          "name": "team2Points",
          "type": "uint256"
        },
        {
          "name": "choice",
          "type": "uint256"
        }
      ],
      "name": "getSpreadOutcome",
      "outputs": [
        {
          "name": "",
          "type": "uint256"
        }
      ],
      "payable": false,
      "stateMutability": "pure",
      "type": "function"
    },
    {
      "constant": true,
      "inputs": [
        {
          "name": "amount",
          "type": "uint256"
        },
        {
          "name": "handicap",
          "type": "int256"
        },
        {
          "name": "team1Points",
          "type": "uint256"
        },
        {
          "name": "team2Points",
          "type": "uint256"
        },
        {
          "name": "choice",
          "type": "uint256"
        },
        {
          "name": "odds",
          "type": "int256"
        }
      ],
      "name": "getSpreadReturns",
      "outputs": [
        {
          "name": "",
          "type": "uint256"
        }
      ],
      "payable": false,
      "stateMutability": "pure",
      "type": "function"
    },
    {
      "constant": true,
      "inputs": [
        {
          "name": "amount",
          "type": "uint256"
        },
        {
          "name": "odds",
          "type": "int256"
        }
      ],
      "name": "getWinnings",
      "outputs": [
        {
          "name": "",
          "type": "uint256"
        }
      ],
      "payable": false,
      "stateMutability": "pure",
      "type": "function"
    }
  ],
  "bytecode": "0x6060604052341561000f57600080fd5b6105578061001e6000396000f300606060405260043610610057576000357c0100000000000000000000000000000000000000000000000000000000900463ffffffff168063334e2d411461005c57806390b34541146100c0578063d93b7caf14610112575b600080fd5b341561006757600080fd5b6100aa6004808035906020019091908035906020019091908035906020019091908035906020019091908035906020019091908035906020019091905050610152565b6040518082815260200191505060405180910390f35b34156100cb57600080fd5b6100fc60048080359060200190919080359060200190919080359060200190919080359060200190919050506101e5565b6040518082815260200191505060405180910390f35b341561011d57600080fd5b61013c600480803590602001909190803590602001909190505061043e565b6040518082815260200191505060405180910390f35b600080610161878787876101e5565b9050600181141561017f57610176888461043e565b880191506101da565b60048114156101a75761019e60028981151561019757fe5b048461043e565b880191506101da565b60028114156101b8578791506101da565b60058114156101d5576002888115156101cd57fe5b0491506101da565b600091505b509695505050505050565b60008060008060008060198a8115156101fa57fe5b0714151561020757600080fd5b600186146102175787870361021b565b8688035b935060648402925060008412156102b15760328913151561023f5760039450610432565b88830191507fffffffffffffffffffffffffffffffffffffffffffffffffffffffffffffffe78214156102755760059450610432565b60008214156102875760029450610432565b60198214156102995760049450610432565b6032821215156102ac5760019450610432565b61042d565b60008413156103a5576000891215610397577fffffffffffffffffffffffffffffffffffffffffffffffffffffffffffffffce891215156102f55760019450610432565b8883019050601981131561030c5760019450610432565b601981141561031e5760049450610432565b60008114156103305760029450610432565b7fffffffffffffffffffffffffffffffffffffffffffffffffffffffffffffffe78114156103615760059450610432565b7fffffffffffffffffffffffffffffffffffffffffffffffffffffffffffffffe78112156103925760039450610432565b6103a0565b60019450610432565b61042c565b6000841480156103b55750600286145b1561042b57600089131515610410577fffffffffffffffffffffffffffffffffffffffffffffffffffffffffffffffe78914156103f55760059450610432565b60008914156104075760029450610432565b60039450610432565b60198914156104225760049450610432565b60019450610432565b5b5b600394505b50505050949350505050565b6000806000831261044f5782610473565b7fffffffffffffffffffffffffffffffffffffffffffffffffffffffffffffffff83025b905060008312156104995761049261048c8560646104da565b82610515565b91506104d3565b60008313156104bd576104b66104af85836104da565b6064610515565b91506104d3565b60008314156104ce578391506104d3565b600091505b5092915050565b60008060008414156104ef576000915061050e565b828402905082848281151561050057fe5b0414151561050a57fe5b8091505b5092915050565b6000818381151561052257fe5b049050929150505600a165627a7a72305820c7c18ff18d5920fbfe7c3f57ac983e1afd6b8fe23e76a898e8edbe95dbd58f3b0029",
  "source": "pragma solidity 0.4.21;\n\nimport '../Libraries/SafeMath.sol';\n\ncontract BettingProviderHelper is SafeMath {\n\n    uint constant SPREAD_OUTCOME_WIN = 1;\n\n    uint constant SPREAD_OUTCOME_DRAW = 2;\n\n    uint constant SPREAD_OUTCOME_LOSS = 3;\n\n    uint constant SPREAD_OUTCOME_HALF_WIN = 4;\n\n    uint constant SPREAD_OUTCOME_HALF_LOSS = 5;\n\n    uint constant BET_CHOICE_TEAM1 = 1;\n\n    uint constant BET_CHOICE_DRAW = 2;\n\n    uint constant BET_CHOICE_TEAM2 = 3;\n\n    function getSpreadOutcome(\n        int handicap,\n        uint team1Points,\n        uint team2Points,\n        uint choice\n    )\n    public\n    pure\n    returns (uint) {\n        // Handicap - Multiplied by 100\n        // Hcp  ->  0.5 (50)\n        // Team 1 -> -180\n        // Team 2 ->  157\n        if (handicap % 25 != 0) revert();\n        int difference = (choice == BET_CHOICE_TEAM1 ?\n        (int) (team1Points - team2Points) :\n        (int) (team2Points - team1Points));\n        int adjustedDiff = difference * 100;\n        if (difference < 0) {\n            if (handicap <= 50) {\n                return SPREAD_OUTCOME_LOSS;\n            }\n            else {\n                int diffSum = adjustedDiff + handicap;\n                if (diffSum == - 25) {\n                    return SPREAD_OUTCOME_HALF_LOSS;\n                }\n                else if (diffSum == 0) {\n                    return SPREAD_OUTCOME_DRAW;\n                }\n                else if (diffSum == 25) {\n                    return SPREAD_OUTCOME_HALF_WIN;\n                }\n                else if (diffSum >= 50) {\n                    return SPREAD_OUTCOME_WIN;\n                }\n            }\n        }\n        else if (difference > 0) {\n            if (handicap < 0) {\n                if (handicap >= - 50) {\n                    return SPREAD_OUTCOME_WIN;\n                }\n                else {\n                    int _diffSum = adjustedDiff + handicap;\n                    if (_diffSum > 25) {\n                        return SPREAD_OUTCOME_WIN;\n                    }\n                    else if (_diffSum == 25) {\n                        return SPREAD_OUTCOME_HALF_WIN;\n                    }\n                    else if (_diffSum == 0) {\n                        return SPREAD_OUTCOME_DRAW;\n                    }\n                    else if (_diffSum == - 25) {\n                        return SPREAD_OUTCOME_HALF_LOSS;\n                    }\n                    else if (_diffSum < - 25) {\n                        return SPREAD_OUTCOME_LOSS;\n                    }\n                }\n            }\n            else {\n                return SPREAD_OUTCOME_WIN;\n            }\n        }\n        else if (difference == 0 && choice == BET_CHOICE_DRAW) {\n            if (handicap <= 0) {\n                if (handicap == - 25) {\n                    return SPREAD_OUTCOME_HALF_LOSS;\n                }\n                else if (handicap == 0) {\n                    return SPREAD_OUTCOME_DRAW;\n                }\n                else\n                return SPREAD_OUTCOME_LOSS;\n            }\n            else {\n                if (handicap == 25) {\n                    return SPREAD_OUTCOME_HALF_WIN;\n                }\n                else\n                return SPREAD_OUTCOME_WIN;\n            }\n        }\n        return SPREAD_OUTCOME_LOSS;\n    }\n\n    function getSpreadReturns(\n        uint amount,\n        int handicap,\n        uint team1Points,\n        uint team2Points,\n        uint choice,\n        int odds\n    )\n    public\n    pure\n    returns (uint) {\n        uint spreadOutcome =\n        getSpreadOutcome(handicap, team1Points, team2Points,\n        choice);\n        if (spreadOutcome == SPREAD_OUTCOME_WIN) {\n            return amount + getWinnings(amount, odds);\n        }\n        else if (spreadOutcome == SPREAD_OUTCOME_HALF_WIN) {\n            return amount + getWinnings(amount / 2, odds);\n        }\n        else if (spreadOutcome == SPREAD_OUTCOME_DRAW) {\n            return amount;\n        }\n        else if (spreadOutcome == SPREAD_OUTCOME_HALF_LOSS) {\n            return amount / 2;\n        }\n        else {\n            return 0;\n        }\n    }\n\n    function getWinnings(uint amount, int odds)\n    public\n    pure\n    returns (uint) {\n        uint absOdds = (odds < 0) ? ((uint) (odds * -1)) : ((uint) (odds));\n        if(odds < 0) {\n            // Amount / (odds/100)\n            return safeDiv(safeMul(amount, 100), absOdds);\n        } else if(odds > 0) {\n            // Amount * (odds/100)\n            return safeDiv(safeMul(amount, absOdds), 100);\n        } else if(odds == 0) {\n            return amount;\n        }\n        return 0;\n    }\n\n}\n",
  "sourcePath": "/srv/platform-contracts/contracts/Betting/BettingProviderHelper.sol",
  "compiler": {
    "name": "solc",
    "version": "0.4.21+commit.dfe3193c.Emscripten.clang"
  },
  "schemaVersion": "2.0.0",
  "updatedAt": "2018-05-23T04:44:46.341Z"
}