{
  "contractName": "ECVerify",
  "abi": [
    {
      "constant": false,
      "inputs": [
        {
          "name": "hash",
          "type": "bytes32"
        },
        {
          "name": "sig",
          "type": "bytes"
        }
      ],
      "name": "ecrecovery",
      "outputs": [
        {
          "name": "",
          "type": "bool"
        },
        {
          "name": "",
          "type": "address"
        }
      ],
      "payable": false,
      "stateMutability": "nonpayable",
      "type": "function"
    },
    {
      "constant": false,
      "inputs": [
        {
          "name": "hash",
          "type": "bytes32"
        },
        {
          "name": "sig",
          "type": "bytes"
        },
        {
          "name": "signer",
          "type": "address"
        }
      ],
      "name": "ecverify",
      "outputs": [
        {
          "name": "",
          "type": "bool"
        }
      ],
      "payable": false,
      "stateMutability": "nonpayable",
      "type": "function"
    }
  ],
  "bytecode": "0x610323610030600b82828239805160001a6073146000811461002057610022565bfe5b5030600052607381538281f3007300000000000000000000000000000000000000003014606060405260043610610063576000357c0100000000000000000000000000000000000000000000000000000000900463ffffffff16806339cdde321461006857806377d32e9414610109575b600080fd5b811561007357600080fd5b6100ef60048080356000191690602001909190803590602001908201803590602001908080601f0160208091040260200160405190810160405280939291908181526020018383808284378201915050505050509190803573ffffffffffffffffffffffffffffffffffffffff169060200190919050506101be565b604051808215151515815260200191505060405180910390f35b811561011457600080fd5b61017160048080356000191690602001909190803590602001908201803590602001908080601f0160208091040260200160405190810160405280939291908181526020018383808284378201915050505050509190505061021f565b60405180831515151581526020018273ffffffffffffffffffffffffffffffffffffffff1673ffffffffffffffffffffffffffffffffffffffff1681526020019250505060405180910390f35b60008060006101cd868661021f565b80925081935050506001151582151514801561021457508373ffffffffffffffffffffffffffffffffffffffff168173ffffffffffffffffffffffffffffffffffffffff16145b925050509392505050565b60008060008060006041865114151561024157600080809050945094506102a9565b6020860151925060408601519150606086015160001a9050601b8160ff16101561026c57601b810190505b601b8160ff16141580156102845750601c8160ff1614155b1561029857600080809050945094506102a9565b6102a4878285856102b3565b945094505b5050509250929050565b60008060008060405188815287602082015286604082015285606082015260208160808360006001610bb8f1925080519150508181935093505050945094925050505600a165627a7a7230582028814141cdfa16ca8f851e68799b14de38a366ae5b135e0c4284c7cfc70bfda90029",
  "source": "pragma solidity 0.4.21;\n\nlibrary ECVerify {\n\n    // Duplicate Solidity's ecrecover, but catching the CALL return value\n    function safer_ecrecover(bytes32 hash, uint8 v, bytes32 r, bytes32 s) internal returns (bool, address) {\n        // We do our own memory management here. Solidity uses memory offset\n        // 0x40 to store the current end of memory. We write past it (as\n        // writes are memory extensions), but don't update the offset so\n        // Solidity will reuse it. The memory used here is only needed for\n        // this context.\n\n        // FIXME: inline assembly can't access return values\n        bool ret;\n        address addr;\n\n        assembly {\n            let size := mload(0x40)\n            mstore(size, hash)\n            mstore(add(size, 32), v)\n            mstore(add(size, 64), r)\n            mstore(add(size, 96), s)\n\n            // NOTE: we can reuse the request memory because we deal with\n            //       the return code\n            ret := call(3000, 1, 0, size, 128, size, 32)\n            addr := mload(size)\n        }\n\n        return (ret, addr);\n    }\n\n    function ecrecovery(bytes32 hash, bytes sig) public returns (bool, address) {\n        bytes32 r;\n        bytes32 s;\n        uint8 v;\n\n        if (sig.length != 65)\n            return (false, 0);\n\n        // The signature format is a compact form of:\n        //   {bytes32 r}{bytes32 s}{uint8 v}\n        // Compact means, uint8 is not padded to 32 bytes.\n        assembly {\n            r := mload(add(sig, 32))\n            s := mload(add(sig, 64))\n\n            // Here we are loading the last 32 bytes. We exploit the fact that\n            // 'mload' will pad with zeroes if we overread.\n            // There is no 'mload8' to do this, but that would be nicer.\n            v := byte(0, mload(add(sig, 96)))\n\n            // Alternative solution:\n            // 'byte' is not working due to the Solidity parser, so lets\n            // use the second best option, 'and'\n            // v := and(mload(add(sig, 65)), 255)\n        }\n\n        // albeit non-transactional signatures are not specified by the YP, one would expect it\n        // to match the YP range of [27, 28]\n        //\n        // geth uses [0, 1] and some clients have followed. This might change, see:\n        //  https://github.com/ethereum/go-ethereum/issues/2053\n        if (v < 27)\n            v += 27;\n\n        if (v != 27 && v != 28)\n            return (false, 0);\n\n        return safer_ecrecover(hash, v, r, s);\n    }\n\n    function ecverify(bytes32 hash, bytes sig, address signer) public returns (bool) {\n        bool ret;\n        address addr;\n        (ret, addr) = ecrecovery(hash, sig);\n        return ret == true && addr == signer;\n    }\n\n}\n",
  "sourcePath": "/srv/platform-contracts/contracts/Libraries/ECVerify.sol",
  "compiler": {
    "name": "solc",
    "version": "0.4.21+commit.dfe3193c.Emscripten.clang"
  },
  "schemaVersion": "2.0.0",
  "updatedAt": "2018-05-23T04:44:46.345Z"
}