{
  "contractName": "HouseAuthorizedController",
  "abi": [
    {
      "constant": true,
      "inputs": [
        {
          "name": "",
          "type": "uint256"
        }
      ],
      "name": "authorizedAddresses",
      "outputs": [
        {
          "name": "",
          "type": "address"
        }
      ],
      "payable": false,
      "stateMutability": "view",
      "type": "function"
    },
    {
      "constant": true,
      "inputs": [
        {
          "name": "",
          "type": "address"
        }
      ],
      "name": "authorized",
      "outputs": [
        {
          "name": "",
          "type": "bool"
        }
      ],
      "payable": false,
      "stateMutability": "view",
      "type": "function"
    },
    {
      "constant": true,
      "inputs": [],
      "name": "isHouseAuthorizedController",
      "outputs": [
        {
          "name": "",
          "type": "bool"
        }
      ],
      "payable": false,
      "stateMutability": "view",
      "type": "function"
    },
    {
      "constant": true,
      "inputs": [],
      "name": "house",
      "outputs": [
        {
          "name": "",
          "type": "address"
        }
      ],
      "payable": false,
      "stateMutability": "view",
      "type": "function"
    },
    {
      "inputs": [
        {
          "name": "_house",
          "type": "address"
        }
      ],
      "payable": false,
      "stateMutability": "nonpayable",
      "type": "constructor"
    },
    {
      "constant": false,
      "inputs": [
        {
          "name": "_address",
          "type": "address"
        }
      ],
      "name": "addToAuthorizedAddresses",
      "outputs": [
        {
          "name": "",
          "type": "bool"
        }
      ],
      "payable": false,
      "stateMutability": "nonpayable",
      "type": "function"
    },
    {
      "constant": false,
      "inputs": [
        {
          "name": "_address",
          "type": "address"
        }
      ],
      "name": "removeFromAuthorizedAddresses",
      "outputs": [
        {
          "name": "",
          "type": "bool"
        }
      ],
      "payable": false,
      "stateMutability": "nonpayable",
      "type": "function"
    }
  ],
  "bytecode": "0x60606040526001600260006101000a81548160ff021916908315150217905550341561002a57600080fd5b604051602080610b018339810160405280805190602001909190505060008173ffffffffffffffffffffffffffffffffffffffff161415151561006c57600080fd5b806000806101000a81548173ffffffffffffffffffffffffffffffffffffffff021916908373ffffffffffffffffffffffffffffffffffffffff1602179055506101626000809054906101000a900473ffffffffffffffffffffffffffffffffffffffff1673ffffffffffffffffffffffffffffffffffffffff16634d853ee56040518163ffffffff167c0100000000000000000000000000000000000000000000000000000000028152600401602060405180830381600087803b151561013357600080fd5b5af1151561014057600080fd5b5050506040518051905061016964010000000002610255176401000000009004565b5050610354565b60008060009054906101000a900473ffffffffffffffffffffffffffffffffffffffff1673ffffffffffffffffffffffffffffffffffffffff16634d853ee56040518163ffffffff167c0100000000000000000000000000000000000000000000000000000000028152600401602060405180830381600087803b15156101ef57600080fd5b5af115156101fc57600080fd5b5050506040518051905073ffffffffffffffffffffffffffffffffffffffff163373ffffffffffffffffffffffffffffffffffffffff1614151561023f57600080fd5b600180548060010182816102539190610303565b9160005260206000209001600084909190916101000a81548173ffffffffffffffffffffffffffffffffffffffff021916908373ffffffffffffffffffffffffffffffffffffffff160217905550506001600360008473ffffffffffffffffffffffffffffffffffffffff1673ffffffffffffffffffffffffffffffffffffffff16815260200190815260200160002060006101000a81548160ff02191690831515021790555060019050919050565b81548183558181151161032a57818360005260206000209182019101610329919061032f565b5b505050565b61035191905b8082111561034d576000816000905550600101610335565b5090565b90565b61079e806103636000396000f300606060405260043610610078576000357c0100000000000000000000000000000000000000000000000000000000900463ffffffff1680631bfd320f1461007d5780636980195a146100ce578063958746311461011f578063b918161114610182578063f7f8186a146101d3578063ff9b3acf14610200575b600080fd5b341561008857600080fd5b6100b4600480803573ffffffffffffffffffffffffffffffffffffffff16906020019091905050610255565b604051808215151515815260200191505060405180910390f35b34156100d957600080fd5b610105600480803573ffffffffffffffffffffffffffffffffffffffff169060200190919050506103ef565b604051808215151515815260200191505060405180910390f35b341561012a57600080fd5b610140600480803590602001909190505061068a565b604051808273ffffffffffffffffffffffffffffffffffffffff1673ffffffffffffffffffffffffffffffffffffffff16815260200191505060405180910390f35b341561018d57600080fd5b6101b9600480803573ffffffffffffffffffffffffffffffffffffffff169060200190919050506106c9565b604051808215151515815260200191505060405180910390f35b34156101de57600080fd5b6101e66106e9565b604051808215151515815260200191505060405180910390f35b341561020b57600080fd5b6102136106fc565b604051808273ffffffffffffffffffffffffffffffffffffffff1673ffffffffffffffffffffffffffffffffffffffff16815260200191505060405180910390f35b60008060009054906101000a900473ffffffffffffffffffffffffffffffffffffffff1673ffffffffffffffffffffffffffffffffffffffff16634d853ee56040518163ffffffff167c0100000000000000000000000000000000000000000000000000000000028152600401602060405180830381600087803b15156102db57600080fd5b5af115156102e857600080fd5b5050506040518051905073ffffffffffffffffffffffffffffffffffffffff163373ffffffffffffffffffffffffffffffffffffffff1614151561032b57600080fd5b6001805480600101828161033f9190610721565b9160005260206000209001600084909190916101000a81548173ffffffffffffffffffffffffffffffffffffffff021916908373ffffffffffffffffffffffffffffffffffffffff160217905550506001600360008473ffffffffffffffffffffffffffffffffffffffff1673ffffffffffffffffffffffffffffffffffffffff16815260200190815260200160002060006101000a81548160ff02191690831515021790555060019050919050565b6000806000809054906101000a900473ffffffffffffffffffffffffffffffffffffffff1673ffffffffffffffffffffffffffffffffffffffff16634d853ee56040518163ffffffff167c0100000000000000000000000000000000000000000000000000000000028152600401602060405180830381600087803b151561047657600080fd5b5af1151561048357600080fd5b5050506040518051905073ffffffffffffffffffffffffffffffffffffffff163373ffffffffffffffffffffffffffffffffffffffff161415156104c657600080fd5b3373ffffffffffffffffffffffffffffffffffffffff168373ffffffffffffffffffffffffffffffffffffffff161415151561050157600080fd5b600360008473ffffffffffffffffffffffffffffffffffffffff1673ffffffffffffffffffffffffffffffffffffffff16815260200190815260200160002060009054906101000a900460ff16151561055957600080fd5b600090505b600180549050811015610680578273ffffffffffffffffffffffffffffffffffffffff1660018281548110151561059157fe5b906000526020600020900160009054906101000a900473ffffffffffffffffffffffffffffffffffffffff1673ffffffffffffffffffffffffffffffffffffffff161415610673576001818154811015156105e857fe5b906000526020600020900160006101000a81549073ffffffffffffffffffffffffffffffffffffffff02191690556000600360008573ffffffffffffffffffffffffffffffffffffffff1673ffffffffffffffffffffffffffffffffffffffff16815260200190815260200160002060006101000a81548160ff021916908315150217905550610680565b808060010191505061055e565b6001915050919050565b60018181548110151561069957fe5b90600052602060002090016000915054906101000a900473ffffffffffffffffffffffffffffffffffffffff1681565b60036020528060005260406000206000915054906101000a900460ff1681565b600260009054906101000a900460ff1681565b6000809054906101000a900473ffffffffffffffffffffffffffffffffffffffff1681565b81548183558181151161074857818360005260206000209182019101610747919061074d565b5b505050565b61076f91905b8082111561076b576000816000905550600101610753565b5090565b905600a165627a7a723058208c30e09b6365a42322e5a981af9cc4829eee00a797904439d2e509e0d15d33080029",
  "source": "pragma solidity 0.4.21;\n\nimport '../House.sol';\n\ncontract HouseAuthorizedController {\n\n    // Variables\n    House public house;\n\n    address[] public authorizedAddresses;\n    bool public isHouseAuthorizedController = true;\n\n    // Authorized addresses.\n    mapping (address => bool) public authorized;\n\n    function HouseAuthorizedController(address _house)\n    public {\n        require(_house != 0x0);\n        house = House(_house);\n        addToAuthorizedAddresses(house.founder());\n    }\n\n    // Modifiers\n    // Allows functions to execute only if the house contract sent the transaction.\n    modifier onlyHouse() {\n        require(msg.sender == address(house));\n        _;\n    }\n\n    modifier onlyFounder() {\n        require(msg.sender == house.founder());\n        _;\n    }\n\n    // Adds an address to the list of authorized addresses.\n    function addToAuthorizedAddresses(address _address)\n    onlyFounder\n    public\n    returns (bool) {\n        authorizedAddresses.push(_address);\n        authorized[_address] = true;\n        return true;\n    }\n\n    // Removes an address from the list of authorized addresses.\n    function removeFromAuthorizedAddresses(address _address)\n    onlyFounder\n    public\n    returns (bool) {\n        require(_address != msg.sender);\n        require(authorized[_address]);\n        for (uint i = 0; i < authorizedAddresses.length; i++) {\n            if (authorizedAddresses[i] == _address) {\n                delete authorizedAddresses[i];\n                authorized[_address] = false;\n                break;\n            }\n        }\n        return true;\n    }\n\n}\n",
  "sourcePath": "/srv/platform-contracts/contracts/House/Controllers/HouseAuthorizedController.sol",
  "compiler": {
    "name": "solc",
    "version": "0.4.21+commit.dfe3193c.Emscripten.clang"
  },
  "schemaVersion": "2.0.0",
  "updatedAt": "2018-05-23T04:44:46.231Z"
}