{
  "contractName": "HouseFundsController",
  "abi": [
    {
      "constant": true,
      "inputs": [],
      "name": "isHouseFundsController",
      "outputs": [
        {
          "name": "",
          "type": "bool"
        }
      ],
      "payable": false,
      "stateMutability": "view",
      "type": "function"
    },
    {
      "constant": true,
      "inputs": [],
      "name": "MIN_CREDIT_PURCHASE",
      "outputs": [
        {
          "name": "",
          "type": "uint256"
        }
      ],
      "payable": false,
      "stateMutability": "view",
      "type": "function"
    },
    {
      "constant": true,
      "inputs": [
        {
          "name": "",
          "type": "uint256"
        }
      ],
      "name": "houseFunds",
      "outputs": [
        {
          "name": "totalFunds",
          "type": "uint256"
        },
        {
          "name": "totalPurchasedUserCredits",
          "type": "uint256"
        },
        {
          "name": "totalUserCredits",
          "type": "uint256"
        },
        {
          "name": "totalHousePayouts",
          "type": "uint256"
        },
        {
          "name": "totalWithdrawn",
          "type": "uint256"
        },
        {
          "name": "totalUnregisteredOfferingProfits",
          "type": "uint256"
        },
        {
          "name": "profit",
          "type": "int256"
        }
      ],
      "payable": false,
      "stateMutability": "view",
      "type": "function"
    },
    {
      "constant": true,
      "inputs": [],
      "name": "decentBetToken",
      "outputs": [
        {
          "name": "",
          "type": "address"
        }
      ],
      "payable": false,
      "stateMutability": "view",
      "type": "function"
    },
    {
      "constant": true,
      "inputs": [],
      "name": "PROFIT_SHARE_PERCENT",
      "outputs": [
        {
          "name": "",
          "type": "uint256"
        }
      ],
      "payable": false,
      "stateMutability": "view",
      "type": "function"
    },
    {
      "inputs": [
        {
          "name": "_house",
          "type": "address"
        }
      ],
      "payable": false,
      "stateMutability": "nonpayable",
      "type": "constructor"
    },
    {
      "constant": false,
      "inputs": [
        {
          "name": "_address",
          "type": "address"
        },
        {
          "name": "amount",
          "type": "uint256"
        }
      ],
      "name": "purchaseCredits",
      "outputs": [
        {
          "name": "",
          "type": "uint256"
        }
      ],
      "payable": false,
      "stateMutability": "nonpayable",
      "type": "function"
    },
    {
      "constant": false,
      "inputs": [
        {
          "name": "_address",
          "type": "address"
        },
        {
          "name": "amount",
          "type": "uint256"
        }
      ],
      "name": "rollOverCredits",
      "outputs": [
        {
          "name": "",
          "type": "bool"
        }
      ],
      "payable": false,
      "stateMutability": "nonpayable",
      "type": "function"
    },
    {
      "constant": false,
      "inputs": [
        {
          "name": "_address",
          "type": "address"
        },
        {
          "name": "session",
          "type": "uint256"
        }
      ],
      "name": "liquidateCredits",
      "outputs": [
        {
          "name": "",
          "type": "uint256"
        },
        {
          "name": "",
          "type": "uint256"
        }
      ],
      "payable": false,
      "stateMutability": "nonpayable",
      "type": "function"
    },
    {
      "constant": false,
      "inputs": [
        {
          "name": "_address",
          "type": "address"
        }
      ],
      "name": "claimRolledOverCredits",
      "outputs": [
        {
          "name": "",
          "type": "uint256"
        },
        {
          "name": "",
          "type": "uint256"
        },
        {
          "name": "",
          "type": "uint256"
        }
      ],
      "payable": false,
      "stateMutability": "nonpayable",
      "type": "function"
    },
    {
      "constant": true,
      "inputs": [
        {
          "name": "session",
          "type": "uint256"
        }
      ],
      "name": "getPayoutPerCredit",
      "outputs": [
        {
          "name": "",
          "type": "uint256"
        }
      ],
      "payable": false,
      "stateMutability": "view",
      "type": "function"
    },
    {
      "constant": false,
      "inputs": [
        {
          "name": "session",
          "type": "uint256"
        },
        {
          "name": "amount",
          "type": "uint256"
        }
      ],
      "name": "addToSessionProfitsFromUnregisteredHouseOffering",
      "outputs": [
        {
          "name": "",
          "type": "bool"
        }
      ],
      "payable": false,
      "stateMutability": "nonpayable",
      "type": "function"
    },
    {
      "constant": false,
      "inputs": [
        {
          "name": "previousSessionTokens",
          "type": "uint256"
        },
        {
          "name": "allOfferingsWithdrawn",
          "type": "bool"
        }
      ],
      "name": "withdrawPreviousSessionTokensFromHouseOffering",
      "outputs": [
        {
          "name": "",
          "type": "bool"
        }
      ],
      "payable": false,
      "stateMutability": "nonpayable",
      "type": "function"
    },
    {
      "constant": false,
      "inputs": [
        {
          "name": "currentSessionTokens",
          "type": "uint256"
        },
        {
          "name": "allOfferingsWithdrawn",
          "type": "bool"
        }
      ],
      "name": "emergencyWithdrawCurrentSessionTokensFromHouseOffering",
      "outputs": [
        {
          "name": "",
          "type": "bool"
        }
      ],
      "payable": false,
      "stateMutability": "nonpayable",
      "type": "function"
    },
    {
      "constant": false,
      "inputs": [
        {
          "name": "_address",
          "type": "address"
        }
      ],
      "name": "emergencyWithdraw",
      "outputs": [
        {
          "name": "",
          "type": "uint256"
        },
        {
          "name": "",
          "type": "uint256"
        }
      ],
      "payable": false,
      "stateMutability": "nonpayable",
      "type": "function"
    },
    {
      "constant": true,
      "inputs": [
        {
          "name": "session",
          "type": "uint256"
        },
        {
          "name": "_address",
          "type": "address"
        }
      ],
      "name": "getUserCreditsForSession",
      "outputs": [
        {
          "name": "amount",
          "type": "uint256"
        },
        {
          "name": "liquidated",
          "type": "uint256"
        },
        {
          "name": "rolledOverToNextSession",
          "type": "uint256"
        },
        {
          "name": "claimedFromPreviousSession",
          "type": "uint256"
        },
        {
          "name": "totalFunds",
          "type": "uint256"
        },
        {
          "name": "totalUserCredits",
          "type": "uint256"
        }
      ],
      "payable": false,
      "stateMutability": "view",
      "type": "function"
    },
    {
      "constant": true,
      "inputs": [
        {
          "name": "session",
          "type": "uint256"
        }
      ],
      "name": "getProfitForSession",
      "outputs": [
        {
          "name": "",
          "type": "int256"
        }
      ],
      "payable": false,
      "stateMutability": "view",
      "type": "function"
    },
    {
      "constant": true,
      "inputs": [
        {
          "name": "session",
          "type": "uint256"
        },
        {
          "name": "index",
          "type": "uint256"
        }
      ],
      "name": "getUserForSession",
      "outputs": [
        {
          "name": "_address",
          "type": "address"
        }
      ],
      "payable": false,
      "stateMutability": "view",
      "type": "function"
    }
  ],
  "bytecode": "0x606060405260018060146101000a81548160ff021916908315150217905550683635c9adc5dea00000600255341561003657600080fd5b604051602080612b188339810160405280805190602001909190505060008173ffffffffffffffffffffffffffffffffffffffff161415151561007857600080fd5b806000806101000a81548173ffffffffffffffffffffffffffffffffffffffff021916908373ffffffffffffffffffffffffffffffffffffffff1602179055506000809054906101000a900473ffffffffffffffffffffffffffffffffffffffff1673ffffffffffffffffffffffffffffffffffffffff1663cba44d4f6040518163ffffffff167c0100000000000000000000000000000000000000000000000000000000028152600401602060405180830381600087803b151561013c57600080fd5b5af1151561014957600080fd5b50505060405180519050600160006101000a81548173ffffffffffffffffffffffffffffffffffffffff021916908373ffffffffffffffffffffffffffffffffffffffff16021790555050612975806101a36000396000f3006060604052600436106100f1576000357c0100000000000000000000000000000000000000000000000000000000900463ffffffff168063139e0aa7146100f657806319cbc5a31461014c57806321bb5704146101795780632cf219ba146101a25780633580e404146101ff578063457fe0b814610259578063467f48b6146102b4578063513b2b0a146103155780636ff1c9bc146103815780638449e735146103d5578063aee5597d1461044e578063c05a1b3314610492578063c2088c3f146104d8578063cba44d4f1461051e578063ef0c0ff314610573578063f95e7ba2146105aa578063fb2240e3146105d3575b600080fd5b341561010157600080fd5b610136600480803573ffffffffffffffffffffffffffffffffffffffff1690602001909190803590602001909190505061060a565b6040518082815260200191505060405180910390f35b341561015757600080fd5b61015f610c5a565b604051808215151515815260200191505060405180910390f35b341561018457600080fd5b61018c610c6d565b6040518082815260200191505060405180910390f35b34156101ad57600080fd5b6101e2600480803573ffffffffffffffffffffffffffffffffffffffff16906020019091908035906020019091905050610c73565b604051808381526020018281526020019250505060405180910390f35b341561020a57600080fd5b61023f600480803573ffffffffffffffffffffffffffffffffffffffff169060200190919080359060200190919050506110a2565b604051808215151515815260200191505060405180910390f35b341561026457600080fd5b610290600480803573ffffffffffffffffffffffffffffffffffffffff1690602001909190505061150a565b60405180848152602001838152602001828152602001935050505060405180910390f35b34156102bf57600080fd5b6102d56004808035906020019091905050611bf8565b6040518088815260200187815260200186815260200185815260200184815260200183815260200182815260200197505050505050505060405180910390f35b341561032057600080fd5b61033f6004808035906020019091908035906020019091905050611c3a565b604051808273ffffffffffffffffffffffffffffffffffffffff1673ffffffffffffffffffffffffffffffffffffffff16815260200191505060405180910390f35b341561038c57600080fd5b6103b8600480803573ffffffffffffffffffffffffffffffffffffffff16906020019091905050611c93565b604051808381526020018281526020019250505060405180910390f35b34156103e057600080fd5b610415600480803590602001909190803573ffffffffffffffffffffffffffffffffffffffff1690602001909190505061215f565b60405180878152602001868152602001858152602001848152602001838152602001828152602001965050505050505060405180910390f35b341561045957600080fd5b6104786004808035906020019091908035906020019091905050612308565b604051808215151515815260200191505060405180910390f35b341561049d57600080fd5b6104be600480803590602001909190803515159060200190919050506123dc565b604051808215151515815260200191505060405180910390f35b34156104e357600080fd5b61050460048080359060200190919080351515906020019091905050612575565b604051808215151515815260200191505060405180910390f35b341561052957600080fd5b610531612727565b604051808273ffffffffffffffffffffffffffffffffffffffff1673ffffffffffffffffffffffffffffffffffffffff16815260200191505060405180910390f35b341561057e57600080fd5b610594600480803590602001909190505061274d565b6040518082815260200191505060405180910390f35b34156105b557600080fd5b6105bd61276d565b6040518082815260200191505060405180910390f35b34156105de57600080fd5b6105f46004808035906020019091905050612772565b6040518082815260200191505060405180910390f35b600080838380600160009054906101000a900473ffffffffffffffffffffffffffffffffffffffff1673ffffffffffffffffffffffffffffffffffffffff166370a08231846040518263ffffffff167c0100000000000000000000000000000000000000000000000000000000028152600401808273ffffffffffffffffffffffffffffffffffffffff1673ffffffffffffffffffffffffffffffffffffffff168152602001915050602060405180830381600087803b15156106cc57600080fd5b5af115156106d957600080fd5b50505060405180519050101515156106f057600080fd5b6000809054906101000a900473ffffffffffffffffffffffffffffffffffffffff1673ffffffffffffffffffffffffffffffffffffffff163373ffffffffffffffffffffffffffffffffffffffff1614151561074b57600080fd5b600254851015151561075c57600080fd5b84600160009054906101000a900473ffffffffffffffffffffffffffffffffffffffff1673ffffffffffffffffffffffffffffffffffffffff1663dd62ed3e886000809054906101000a900473ffffffffffffffffffffffffffffffffffffffff166040518363ffffffff167c0100000000000000000000000000000000000000000000000000000000028152600401808373ffffffffffffffffffffffffffffffffffffffff1673ffffffffffffffffffffffffffffffffffffffff1681526020018273ffffffffffffffffffffffffffffffffffffffff1673ffffffffffffffffffffffffffffffffffffffff16815260200192505050602060405180830381600087803b151561086e57600080fd5b5af1151561087b57600080fd5b505050604051805190501015151561089257600080fd5b6109376000809054906101000a900473ffffffffffffffffffffffffffffffffffffffff1673ffffffffffffffffffffffffffffffffffffffff1663d41667636040518163ffffffff167c0100000000000000000000000000000000000000000000000000000000028152600401602060405180830381600087803b151561091957600080fd5b5af1151561092657600080fd5b505050604051805190506001612870565b9250610959600360008581526020019081526020016000206000015486612870565b6003600085815260200190815260200160002060000181905550610993600360008581526020019081526020016000206001015486612870565b60036000858152602001908152602001600020600101819055506109cd600360008581526020019081526020016000206002015486612870565b6003600085815260200190815260200160002060020181905550610a476003600085815260200190815260200160002060030160008873ffffffffffffffffffffffffffffffffffffffff1673ffffffffffffffffffffffffffffffffffffffff1681526020019081526020016000206000015486612870565b6003600085815260200190815260200160002060030160008873ffffffffffffffffffffffffffffffffffffffff1673ffffffffffffffffffffffffffffffffffffffff16815260200190815260200160002060000181905550600015156003600085815260200190815260200160002060030160008873ffffffffffffffffffffffffffffffffffffffff1673ffffffffffffffffffffffffffffffffffffffff16815260200190815260200160002060050160009054906101000a900460ff1615151415610bf857600360008481526020019081526020016000206005018054806001018281610b3991906128f8565b9160005260206000209001600088909190916101000a81548173ffffffffffffffffffffffffffffffffffffffff021916908373ffffffffffffffffffffffffffffffffffffffff1602179055505060016003600085815260200190815260200160002060030160008873ffffffffffffffffffffffffffffffffffffffff1673ffffffffffffffffffffffffffffffffffffffff16815260200190815260200160002060050160006101000a81548160ff0219169083151502179055505b6003600084815260200190815260200160002060030160003373ffffffffffffffffffffffffffffffffffffffff1673ffffffffffffffffffffffffffffffffffffffff16815260200190815260200160002060000154935050505092915050565b600160149054906101000a900460ff1681565b60025481565b60008060008060008060009054906101000a900473ffffffffffffffffffffffffffffffffffffffff1673ffffffffffffffffffffffffffffffffffffffff163373ffffffffffffffffffffffffffffffffffffffff16141515610cd657600080fd5b60006003600088815260200190815260200160002060030160008973ffffffffffffffffffffffffffffffffffffffff1673ffffffffffffffffffffffffffffffffffffffff16815260200190815260200160002060000154111515610d3b57600080fd5b610d4486612772565b92506003600087815260200190815260200160002060030160008873ffffffffffffffffffffffffffffffffffffffff1673ffffffffffffffffffffffffffffffffffffffff168152602001908152602001600020600001549150610dba610dac848461288e565b670de0b6b3a76400006128c9565b9050610e196003600088815260200190815260200160002060040160008973ffffffffffffffffffffffffffffffffffffffff1673ffffffffffffffffffffffffffffffffffffffff1681526020019081526020016000205482612870565b6003600088815260200190815260200160002060040160008973ffffffffffffffffffffffffffffffffffffffff1673ffffffffffffffffffffffffffffffffffffffff16815260200190815260200160002081905550610e906003600088815260200190815260200160002060020154836128df565b6003600088815260200190815260200160002060020181905550610eca6003600088815260200190815260200160002060000154836128df565b6003600088815260200190815260200160002060000181905550610f446003600088815260200190815260200160002060030160008973ffffffffffffffffffffffffffffffffffffffff1673ffffffffffffffffffffffffffffffffffffffff16815260200190815260200160002060000154836128df565b6003600088815260200190815260200160002060030160008973ffffffffffffffffffffffffffffffffffffffff1673ffffffffffffffffffffffffffffffffffffffff16815260200190815260200160002060000181905550610ffe6003600088815260200190815260200160002060030160008973ffffffffffffffffffffffffffffffffffffffff1673ffffffffffffffffffffffffffffffffffffffff1681526020019081526020016000206001015483612870565b6003600088815260200190815260200160002060030160008973ffffffffffffffffffffffffffffffffffffffff1673ffffffffffffffffffffffffffffffffffffffff16815260200190815260200160002060010181905550611078600360008881526020019081526020016000206006015482612870565b60036000888152602001908152602001600020600601819055508082945094505050509250929050565b600080600080600080876000809054906101000a900473ffffffffffffffffffffffffffffffffffffffff1673ffffffffffffffffffffffffffffffffffffffff1663d41667636040518163ffffffff167c0100000000000000000000000000000000000000000000000000000000028152600401602060405180830381600087803b151561113057600080fd5b5af1151561113d57600080fd5b5050506040518051905088806003600084815260200190815260200160002060030160008573ffffffffffffffffffffffffffffffffffffffff1673ffffffffffffffffffffffffffffffffffffffff16815260200190815260200160002060000154101515156111ad57600080fd5b6000809054906101000a900473ffffffffffffffffffffffffffffffffffffffff1673ffffffffffffffffffffffffffffffffffffffff163373ffffffffffffffffffffffffffffffffffffffff1614151561120857600080fd5b6000809054906101000a900473ffffffffffffffffffffffffffffffffffffffff1673ffffffffffffffffffffffffffffffffffffffff1663d41667636040518163ffffffff167c0100000000000000000000000000000000000000000000000000000000028152600401602060405180830381600087803b151561128c57600080fd5b5af1151561129957600080fd5b5050506040518051905097506000881115156112b457600080fd5b6003600089815260200190815260200160002060030160008c73ffffffffffffffffffffffffffffffffffffffff1673ffffffffffffffffffffffffffffffffffffffff1681526020019081526020016000206000015496506003600089815260200190815260200160002060030160008c73ffffffffffffffffffffffffffffffffffffffff1673ffffffffffffffffffffffffffffffffffffffff1681526020019081526020016000206004015495506003600089815260200190815260200160002060030160008c73ffffffffffffffffffffffffffffffffffffffff1673ffffffffffffffffffffffffffffffffffffffff1681526020019081526020016000206002015494506113ca886001612870565b93506113d6878b6128df565b600360008a815260200190815260200160002060030160008d73ffffffffffffffffffffffffffffffffffffffff1673ffffffffffffffffffffffffffffffffffffffff1681526020019081526020016000206000018190555061143a868b612870565b600360008a815260200190815260200160002060030160008d73ffffffffffffffffffffffffffffffffffffffff1673ffffffffffffffffffffffffffffffffffffffff1681526020019081526020016000206004018190555061149e858b612870565b6003600086815260200190815260200160002060030160008d73ffffffffffffffffffffffffffffffffffffffff1673ffffffffffffffffffffffffffffffffffffffff1681526020019081526020016000206002018190555060019850505050505050505092915050565b6000806000806000806000806000896000600360008060009054906101000a900473ffffffffffffffffffffffffffffffffffffffff1673ffffffffffffffffffffffffffffffffffffffff1663d41667636040518163ffffffff167c0100000000000000000000000000000000000000000000000000000000028152600401602060405180830381600087803b15156115a357600080fd5b5af115156115b057600080fd5b50505060405180519050815260200190815260200160002060030160008373ffffffffffffffffffffffffffffffffffffffff1673ffffffffffffffffffffffffffffffffffffffff1681526020019081526020016000206002015411151561161857600080fd5b6000809054906101000a900473ffffffffffffffffffffffffffffffffffffffff1673ffffffffffffffffffffffffffffffffffffffff163373ffffffffffffffffffffffffffffffffffffffff1614151561167357600080fd5b6000809054906101000a900473ffffffffffffffffffffffffffffffffffffffff1673ffffffffffffffffffffffffffffffffffffffff1663d41667636040518163ffffffff167c0100000000000000000000000000000000000000000000000000000000028152600401602060405180830381600087803b15156116f757600080fd5b5af1151561170457600080fd5b50505060405180519050965061171b8760016128df565b95506003600088815260200190815260200160002060030160008c73ffffffffffffffffffffffffffffffffffffffff1673ffffffffffffffffffffffffffffffffffffffff16815260200190815260200160002060020154945061177f86612772565b935061179c61178e858761288e565b670de0b6b3a76400006128c9565b92506003600088815260200190815260200160002060030160008c73ffffffffffffffffffffffffffffffffffffffff1673ffffffffffffffffffffffffffffffffffffffff168152602001908152602001600020600001549150826003600089815260200190815260200160002060030160008d73ffffffffffffffffffffffffffffffffffffffff1673ffffffffffffffffffffffffffffffffffffffff1681526020019081526020016000206003018190555060006003600089815260200190815260200160002060030160008d73ffffffffffffffffffffffffffffffffffffffff1673ffffffffffffffffffffffffffffffffffffffff168152602001908152602001600020600201819055506118b88284612870565b6003600089815260200190815260200160002060030160008d73ffffffffffffffffffffffffffffffffffffffff1673ffffffffffffffffffffffffffffffffffffffff16815260200190815260200160002060000181905550600015156003600089815260200190815260200160002060030160008d73ffffffffffffffffffffffffffffffffffffffff1673ffffffffffffffffffffffffffffffffffffffff16815260200190815260200160002060050160009054906101000a900460ff1615151415611a69576003600088815260200190815260200160002060050180548060010182816119aa91906128f8565b916000526020600020900160008d909190916101000a81548173ffffffffffffffffffffffffffffffffffffffff021916908373ffffffffffffffffffffffffffffffffffffffff1602179055505060016003600089815260200190815260200160002060030160008d73ffffffffffffffffffffffffffffffffffffffff1673ffffffffffffffffffffffffffffffffffffffff16815260200190815260200160002060050160006101000a81548160ff0219169083151502179055505b611a89600360008981526020019081526020016000206002015484612870565b6003600089815260200190815260200160002060020181905550611ac3600360008981526020019081526020016000206001015484612870565b6003600089815260200190815260200160002060010181905550611afd600360008981526020019081526020016000206000015484612870565b6003600089815260200190815260200160002060000181905550611b376003600088815260200190815260200160002060020154866128df565b6003600088815260200190815260200160002060020181905550611b716003600088815260200190815260200160002060000154866128df565b60036000888152602001908152602001600020600001819055508285600360008a815260200190815260200160002060030160008e73ffffffffffffffffffffffffffffffffffffffff1673ffffffffffffffffffffffffffffffffffffffff16815260200190815260200160002060000154995099509950505050505050509193909250565b60036020528060005260406000206000915090508060000154908060010154908060020154908060060154908060070154908060080154908060090154905087565b60006003600084815260200190815260200160002060050182815481101515611c5f57fe5b906000526020600020900160009054906101000a900473ffffffffffffffffffffffffffffffffffffffff16905092915050565b6000806000806000806000809054906101000a900473ffffffffffffffffffffffffffffffffffffffff1673ffffffffffffffffffffffffffffffffffffffff163373ffffffffffffffffffffffffffffffffffffffff16141515611cf757600080fd5b6000809054906101000a900473ffffffffffffffffffffffffffffffffffffffff1673ffffffffffffffffffffffffffffffffffffffff1663d41667636040518163ffffffff167c0100000000000000000000000000000000000000000000000000000000028152600401602060405180830381600087803b1515611d7b57600080fd5b5af11515611d8857600080fd5b50505060405180519050935060006003600086815260200190815260200160002060030160008973ffffffffffffffffffffffffffffffffffffffff1673ffffffffffffffffffffffffffffffffffffffff16815260200190815260200160002060000154111515611df957600080fd5b611e0284612772565b92506003600085815260200190815260200160002060030160008873ffffffffffffffffffffffffffffffffffffffff1673ffffffffffffffffffffffffffffffffffffffff168152602001908152602001600020600001549150611e78611e6a848461288e565b670de0b6b3a76400006128c9565b9050611ed76003600086815260200190815260200160002060040160008973ffffffffffffffffffffffffffffffffffffffff1673ffffffffffffffffffffffffffffffffffffffff1681526020019081526020016000205482612870565b6003600086815260200190815260200160002060040160008973ffffffffffffffffffffffffffffffffffffffff1673ffffffffffffffffffffffffffffffffffffffff16815260200190815260200160002081905550611f4e6003600086815260200190815260200160002060020154836128df565b6003600086815260200190815260200160002060020181905550611f886003600086815260200190815260200160002060000154836128df565b60036000868152602001908152602001600020600001819055506120026003600086815260200190815260200160002060030160008973ffffffffffffffffffffffffffffffffffffffff1673ffffffffffffffffffffffffffffffffffffffff16815260200190815260200160002060000154836128df565b6003600086815260200190815260200160002060030160008973ffffffffffffffffffffffffffffffffffffffff1673ffffffffffffffffffffffffffffffffffffffff168152602001908152602001600020600001819055506120bc6003600086815260200190815260200160002060030160008973ffffffffffffffffffffffffffffffffffffffff1673ffffffffffffffffffffffffffffffffffffffff1681526020019081526020016000206001015483612870565b6003600086815260200190815260200160002060030160008973ffffffffffffffffffffffffffffffffffffffff1673ffffffffffffffffffffffffffffffffffffffff16815260200190815260200160002060010181905550612136600360008681526020019081526020016000206006015482612870565b600360008681526020019081526020016000206006018190555080829550955050505050915091565b6000806000806000806003600089815260200190815260200160002060030160008873ffffffffffffffffffffffffffffffffffffffff1673ffffffffffffffffffffffffffffffffffffffff16815260200190815260200160002060000154600360008a815260200190815260200160002060030160008973ffffffffffffffffffffffffffffffffffffffff1673ffffffffffffffffffffffffffffffffffffffff16815260200190815260200160002060010154600360008b815260200190815260200160002060030160008a73ffffffffffffffffffffffffffffffffffffffff1673ffffffffffffffffffffffffffffffffffffffff16815260200190815260200160002060040154600360008c815260200190815260200160002060030160008b73ffffffffffffffffffffffffffffffffffffffff1673ffffffffffffffffffffffffffffffffffffffff16815260200190815260200160002060030154600360008d815260200190815260200160002060000154600360008e8152602001908152602001600020600201549550955095509550955095509295509295509295565b60008060009054906101000a900473ffffffffffffffffffffffffffffffffffffffff1673ffffffffffffffffffffffffffffffffffffffff163373ffffffffffffffffffffffffffffffffffffffff1614151561236557600080fd5b612385600360008581526020019081526020016000206008015483612870565b60036000858152602001908152602001600020600801819055508160036000858152602001908152602001600020600901540160036000858152602001908152602001600020600901819055506001905092915050565b6000806000809054906101000a900473ffffffffffffffffffffffffffffffffffffffff1673ffffffffffffffffffffffffffffffffffffffff163373ffffffffffffffffffffffffffffffffffffffff1614151561243a57600080fd5b6000809054906101000a900473ffffffffffffffffffffffffffffffffffffffff1673ffffffffffffffffffffffffffffffffffffffff1663d41667636040518163ffffffff167c0100000000000000000000000000000000000000000000000000000000028152600401602060405180830381600087803b15156124be57600080fd5b5af115156124cb57600080fd5b5050506040518051905090506124f7600360008381526020019081526020016000206007015485612870565b6003600083815260200190815260200160002060070181905550821561256a57600360008281526020019081526020016000206000015460036000838152602001908152602001600020600701540360036000838152602001908152602001600020600901600082825401925050819055505b600191505092915050565b6000806000809054906101000a900473ffffffffffffffffffffffffffffffffffffffff1673ffffffffffffffffffffffffffffffffffffffff163373ffffffffffffffffffffffffffffffffffffffff161415156125d357600080fd5b6126786000809054906101000a900473ffffffffffffffffffffffffffffffffffffffff1673ffffffffffffffffffffffffffffffffffffffff1663d41667636040518163ffffffff167c0100000000000000000000000000000000000000000000000000000000028152600401602060405180830381600087803b151561265a57600080fd5b5af1151561266757600080fd5b5050506040518051905060016128df565b905061269a600360008381526020019081526020016000206007015485612870565b6003600083815260200190815260200160002060070181905550821561271c57600360008281526020019081526020016000206000015460036000838152602001908152602001600020600701540360036000838152602001908152602001600020600901540160036000838152602001908152602001600020600901819055505b600191505092915050565b600160009054906101000a900473ffffffffffffffffffffffffffffffffffffffff1681565b600060036000838152602001908152602001600020600901549050919050565b605f81565b600080600080600080600080600080600360008c8152602001908152602001600020600701549850600360008c8152602001908152602001600020600801549750600360008c81526020019081526020016000206009015496506127d68989612870565b9550600360008c815260200190815260200160002060010154945061280c612806670de0b6b3a76400008861288e565b866128c9565b9350600087131561285e5761282984670de0b6b3a76400006128df565b925061284061283984605f61288e565b60646128c9565b9150612854670de0b6b3a764000083612870565b9050809950612862565b8399505b505050505050505050919050565b600080828401905083811015151561288457fe5b8091505092915050565b60008060008414156128a357600091506128c2565b82840290508284828115156128b457fe5b041415156128be57fe5b8091505b5092915050565b600081838115156128d657fe5b04905092915050565b60008282111515156128ed57fe5b818303905092915050565b81548183558181151161291f5781836000526020600020918201910161291e9190612924565b5b505050565b61294691905b8082111561294257600081600090555060010161292a565b5090565b905600a165627a7a72305820658b09388f3f1e3bcd657734092706b7545a073fa12011afca9a47f4ed6dd1680029",
  "source": "pragma solidity 0.4.21;\n\nimport '../House.sol';\nimport '../../Token/ERC20.sol';\nimport '../../Libraries/SafeMath.sol';\n\n// All functionality related to house funds reside here.\n// House fund records are saved here to decouple the record keeping from the House contract to reduce gas costs on deployment.\ncontract HouseFundsController is SafeMath {\n\n    // Structs\n    struct UserCredits {\n        uint amount;\n        uint liquidated;\n        uint rolledOverFromPreviousSession;\n        uint claimedFromPreviousSession;\n        uint rolledOverToNextSession;\n        bool exists;\n    }\n\n    struct HouseFunds {\n        // Total funds available to house for this session.\n        uint totalFunds;\n        // Total credits purchased by users, does not change on liquidation.\n        uint totalPurchasedUserCredits;\n        // Current credits available to house, will reduce when users liquidate.\n        uint totalUserCredits;\n        mapping (address => UserCredits) userCredits;\n        mapping (address => uint) payouts;\n        // Credit holders in the house for this session.\n        address[] users;\n        // Total DBETs payed out by the house for this session.\n        uint totalHousePayouts;\n        // Total DBETs withdrawn from offerings by the house for this session.\n        uint totalWithdrawn;\n        // Total DBETs added to profits by the house for unregistered offerings from this session.\n        uint totalUnregisteredOfferingProfits;\n        // Total profit generated by the house for this session.\n        int profit;\n    }\n\n    // Variables\n    House house;\n    ERC20 public decentBetToken;\n\n    bool public isHouseFundsController = true;\n    uint public constant PROFIT_SHARE_PERCENT = 95;\n    uint public MIN_CREDIT_PURCHASE = 1000 ether;\n\n    // Mappings\n    // House funds per session\n    mapping (uint => HouseFunds) public houseFunds;\n\n    // Constructor\n    function HouseFundsController(address _house)\n    public {\n        require(_house != 0x0);\n        house = House(_house);\n        decentBetToken = ERC20(house.decentBetToken());\n    }\n\n    // Modifiers\n    // Allows functions to execute only if the house contract sent the transaction.\n    modifier onlyHouse() {\n        require(msg.sender == address(house));\n        _;\n    }\n\n    // Allows functions to execute only if users have \"amount\" credits available for \"session\".\n    modifier areCreditsAvailable(address _address, uint session, uint amount) {\n        require(houseFunds[session].userCredits[_address].amount >= amount);\n        _;\n    }\n\n    // Allows functions to execute only if users have \"amount\" tokens in their balance.\n    modifier areTokensAvailable(address _address, uint amount) {\n        require(decentBetToken.balanceOf(_address) >= amount);\n        _;\n    }\n\n    // Allows functions to execute only if rolled over credits from the previous session are available.\n    modifier areRolledOverCreditsAvailable(address _address) {\n        require(houseFunds[house.currentSession()].userCredits[_address].rolledOverFromPreviousSession > 0);\n        _;\n    }\n\n    // Functions\n    // Transfers DBETs from users to house contract address and generates credits in return.\n    // House contract must be approved to transfer amount from msg.sender to house.\n    function purchaseCredits(address _address, uint amount)\n    public\n    areTokensAvailable(_address, amount)\n    onlyHouse\n    returns (uint) {\n        // The minimum credit purchase needs to be 1000 DBETs\n        require(amount >= MIN_CREDIT_PURCHASE);\n        require(decentBetToken.allowance(_address, address(house)) >= amount);\n\n        // Issue credits to user equivalent to amount transferred.\n        uint nextSession = safeAdd(house.currentSession(), 1);\n\n        // Add to house and user funds.\n        houseFunds[nextSession].totalFunds =\n            safeAdd(houseFunds[nextSession].totalFunds, amount);\n        houseFunds[nextSession].totalPurchasedUserCredits =\n            safeAdd(houseFunds[nextSession].totalPurchasedUserCredits, amount);\n        houseFunds[nextSession].totalUserCredits =\n            safeAdd(houseFunds[nextSession].totalUserCredits, amount);\n        houseFunds[nextSession].userCredits[_address].amount =\n            safeAdd(houseFunds[nextSession].userCredits[_address].amount, amount);\n\n        // Add user to house users array for UI iteration purposes.\n        if (houseFunds[nextSession].userCredits[_address].exists == false) {\n            houseFunds[nextSession].users.push(_address);\n            houseFunds[nextSession].userCredits[_address].exists = true;\n        }\n\n        return houseFunds[nextSession].userCredits[msg.sender].amount;\n    }\n\n\n    // Allows users holding credits in the current session to roll over their credits to the\n    // next session.\n    function rollOverCredits(address _address, uint amount)\n    public\n    areCreditsAvailable(_address, house.currentSession(), amount)\n    onlyHouse\n    returns (bool) {\n        uint currentSession = house.currentSession();\n        require(currentSession > 0);\n\n        // Payout and current session variables.\n        uint available = houseFunds[currentSession].userCredits[_address].amount;\n        uint rolledOverToNextSession = houseFunds[currentSession].userCredits[_address]\n                                        .rolledOverToNextSession;\n        uint rolledOverFromPreviousSession = houseFunds[currentSession].userCredits[_address]\n                                        .rolledOverFromPreviousSession;\n\n        // Next session variables.\n        uint nextSession = safeAdd(currentSession, 1);\n\n        // Rollover credits from current session to next.\n        houseFunds[currentSession].userCredits[_address].amount = safeSub(available, amount);\n        houseFunds[currentSession].userCredits[_address].rolledOverToNextSession =\n        safeAdd(rolledOverToNextSession, amount);\n\n        // Add to credits for next session.\n        houseFunds[nextSession].userCredits[_address].rolledOverFromPreviousSession =\n        safeAdd(rolledOverFromPreviousSession, amount);\n\n        return true;\n    }\n\n    // Allows users to return credits and receive tokens along with profit in return.\n    function liquidateCredits(address _address, uint session)\n    public\n    onlyHouse\n    returns (uint, uint) {\n        require(houseFunds[session].userCredits[_address].amount > 0);\n\n        // Payout variables\n        uint payoutPerCredit = getPayoutPerCredit(session);\n        uint amount = houseFunds[session].userCredits[_address].amount;\n        // (Payout per credit * amount of credits)\n        uint payout = safeDiv(safeMul(payoutPerCredit, amount), 1 ether);\n\n        // Payout users for current session and liquidate credits.\n        houseFunds[session].payouts[_address] =\n            safeAdd(houseFunds[session].payouts[_address], payout);\n        houseFunds[session].totalUserCredits =\n            safeSub(houseFunds[session].totalUserCredits, amount);\n        houseFunds[session].totalFunds =\n            safeSub(houseFunds[session].totalFunds, amount);\n        houseFunds[session].userCredits[_address].amount =\n            safeSub(houseFunds[session].userCredits[_address].amount, amount);\n        houseFunds[session].userCredits[_address].liquidated =\n            safeAdd(houseFunds[session].userCredits[_address].liquidated, amount);\n        houseFunds[session].totalHousePayouts =\n            safeAdd(houseFunds[session].totalHousePayouts, payout);\n\n        return (payout, amount);\n    }\n\n    // Allows users who've rolled over credits from a session to claim credits in the next session based on the\n    // payout per credit for the previous session.\n    function claimRolledOverCredits(address _address)\n    public\n    areRolledOverCreditsAvailable(_address)\n    onlyHouse\n    returns (uint, uint, uint) {\n        uint currentSession = house.currentSession();\n        uint previousSession = safeSub(currentSession, 1);\n        uint rolledOverFromPreviousSession = houseFunds[currentSession].userCredits[_address]\n        .rolledOverFromPreviousSession;\n\n        // Payout variables\n        uint payoutPerCredit = getPayoutPerCredit(previousSession);\n        // (Payout per credit * amount of credits)\n        uint adjustedCredits = safeDiv(safeMul(payoutPerCredit, rolledOverFromPreviousSession), 1 ether);\n        uint userSessionCredits = houseFunds[currentSession].userCredits[_address].amount;\n\n        houseFunds[currentSession].userCredits[_address].claimedFromPreviousSession = adjustedCredits;\n        houseFunds[currentSession].userCredits[_address].rolledOverFromPreviousSession = 0;\n\n        houseFunds[currentSession].userCredits[_address].amount = safeAdd(userSessionCredits, adjustedCredits);\n        if (houseFunds[currentSession].userCredits[_address].exists == false) {\n            houseFunds[currentSession].users.push(_address);\n            houseFunds[currentSession].userCredits[_address].exists = true;\n        }\n        houseFunds[currentSession].totalUserCredits = safeAdd(houseFunds[currentSession].totalUserCredits,\n            adjustedCredits);\n        houseFunds[currentSession].totalPurchasedUserCredits = safeAdd(houseFunds[currentSession].totalPurchasedUserCredits,\n            adjustedCredits);\n        houseFunds[currentSession].totalFunds = safeAdd(houseFunds[currentSession].totalFunds,\n            adjustedCredits);\n\n        houseFunds[previousSession].totalUserCredits = safeSub(houseFunds[previousSession].totalUserCredits,\n            rolledOverFromPreviousSession);\n        houseFunds[previousSession].totalFunds = safeSub(houseFunds[previousSession].totalFunds,\n            rolledOverFromPreviousSession);\n\n        return (adjustedCredits,\n                rolledOverFromPreviousSession,\n                houseFunds[currentSession].userCredits[_address].amount);\n    }\n\n    // Returns the payout per credit based on the total profit generated (Total funds collected from offerings/total purchased user credits)\n    // If the session was profitable, 5% of the profit generated is excluded to be deposited in the house lottery.\n    function getPayoutPerCredit(uint session)\n    public\n    view\n    returns (uint) {\n        uint totalWithdrawn = houseFunds[session].totalWithdrawn;\n        uint totalUnregisteredOfferingProfits = houseFunds[session].totalUnregisteredOfferingProfits;\n        int totalProfit = houseFunds[session].profit;\n\n        uint totalPayout = safeAdd(totalWithdrawn, totalUnregisteredOfferingProfits);\n        uint totalPurchasedUserCredits = houseFunds[session].totalPurchasedUserCredits;\n\n        uint basePayoutPerCredit = safeDiv(safeMul(1 ether, totalPayout), totalPurchasedUserCredits);\n\n        // Is a profitable session\n        if(totalProfit > 0) {\n            uint profitPerCredit = safeSub(basePayoutPerCredit, 1 ether);\n            uint adjustedProfitPerCredit = safeDiv(safeMul(profitPerCredit, PROFIT_SHARE_PERCENT), 100);\n            uint payoutPerCredit = safeAdd(1 ether, adjustedProfitPerCredit);\n            return payoutPerCredit;\n        } else\n            // No profit\n            return basePayoutPerCredit;\n    }\n\n    // Profits from house offerings deployed independent of the house, can be deposited into the\n    // House contract using this function.\n    function addToSessionProfitsFromUnregisteredHouseOffering(\n        uint session,\n        uint amount\n    )\n    public\n    onlyHouse\n    returns (bool) {\n        // Add to totalUnregisteredOfferingProfits for the session\n        houseFunds[session].totalUnregisteredOfferingProfits =\n        safeAdd(houseFunds[session].totalUnregisteredOfferingProfits, amount);\n\n        // Add to profit for the session\n        houseFunds[session].profit = houseFunds[session].profit + (int) (amount);\n\n        return true;\n    }\n\n    // Withdraws session tokens for the previously ended session from a house offering.\n    function withdrawPreviousSessionTokensFromHouseOffering(uint previousSessionTokens,\n        bool allOfferingsWithdrawn)\n    public\n    onlyHouse\n    returns (bool) {\n        uint previousSession = safeSub(house.currentSession(), 1);\n        houseFunds[previousSession].totalWithdrawn =\n        safeAdd(houseFunds[previousSession].totalWithdrawn, previousSessionTokens);\n\n        if(allOfferingsWithdrawn)\n            houseFunds[previousSession].profit = (int)(houseFunds[previousSession].profit +\n            (int)(houseFunds[previousSession].totalWithdrawn - houseFunds[previousSession].totalFunds));\n\n        return true;\n    }\n\n    // Allow authorized addresses to add profits for offerings that haven't been registered\n    // with the house for the current session.\n    function emergencyWithdrawCurrentSessionTokensFromHouseOffering(uint currentSessionTokens,\n        bool allOfferingsWithdrawn)\n    public\n    onlyHouse\n    returns (bool) {\n        uint currentSession = house.currentSession();\n        houseFunds[currentSession].totalWithdrawn =\n            safeAdd(houseFunds[currentSession].totalWithdrawn, currentSessionTokens);\n\n        if(allOfferingsWithdrawn)\n            houseFunds[currentSession].profit +=\n            (int)(houseFunds[currentSession].totalWithdrawn - houseFunds[currentSession].totalFunds);\n\n        return true;\n    }\n\n    // Allows users to withdraw their funds if the house is in an emergencyPaused state.\n    function emergencyWithdraw(address _address)\n    public\n    onlyHouse\n    returns (uint, uint) {\n        uint session = house.currentSession();\n        require(houseFunds[session].userCredits[_address].amount > 0);\n\n        // Payout variables\n        uint payoutPerCredit = getPayoutPerCredit(session);\n        uint amount = houseFunds[session].userCredits[_address].amount;\n        // (Payout per credit * amount of credits)\n        uint payout = safeDiv(safeMul(payoutPerCredit, amount), 1 ether);\n\n        // Payout users for current session and liquidate credits.\n        houseFunds[session].payouts[_address] =\n            safeAdd(houseFunds[session].payouts[_address], payout);\n        houseFunds[session].totalUserCredits =\n            safeSub(houseFunds[session].totalUserCredits, amount);\n        houseFunds[session].totalFunds =\n            safeSub(houseFunds[session].totalFunds, amount);\n        houseFunds[session].userCredits[_address].amount =\n            safeSub(houseFunds[session].userCredits[_address].amount, amount);\n        houseFunds[session].userCredits[_address].liquidated =\n            safeAdd(houseFunds[session].userCredits[_address].liquidated, amount);\n        houseFunds[session].totalHousePayouts =\n            safeAdd(houseFunds[session].totalHousePayouts, payout);\n\n        return (payout, amount);\n    }\n\n    // Utility functions for front-end purposes.\n\n    // Returns house funds and user specific credit info for a session.\n    function getUserCreditsForSession(uint session, address _address)\n    public\n    view\n    returns (uint amount, uint liquidated, uint rolledOverToNextSession, uint claimedFromPreviousSession,\n        uint totalFunds, uint totalUserCredits) {\n        return (houseFunds[session].userCredits[_address].amount,\n        houseFunds[session].userCredits[_address].liquidated,\n        houseFunds[session].userCredits[_address].rolledOverToNextSession,\n        houseFunds[session].userCredits[_address].claimedFromPreviousSession,\n        houseFunds[session].totalFunds,\n        houseFunds[session].totalUserCredits);\n    }\n\n    function getProfitForSession(uint session)\n    public\n    view\n    returns (int) {\n        return houseFunds[session].profit;\n    }\n\n    // Returns a user address for a session.\n    function getUserForSession(uint session, uint index)\n    public\n    view\n    returns (address _address) {\n        return houseFunds[session].users[index];\n    }\n\n}\n",
  "sourcePath": "/srv/platform-contracts/contracts/House/Controllers/HouseFundsController.sol",
  "compiler": {
    "name": "solc",
    "version": "0.4.21+commit.dfe3193c.Emscripten.clang"
  },
  "schemaVersion": "2.0.0",
  "updatedAt": "2018-05-23T04:44:46.295Z"
}