{
  "contractName": "HouseSessionsController",
  "abi": [
    {
      "constant": true,
      "inputs": [],
      "name": "isHouseSessionsController",
      "outputs": [
        {
          "name": "",
          "type": "bool"
        }
      ],
      "payable": false,
      "stateMutability": "view",
      "type": "function"
    },
    {
      "constant": true,
      "inputs": [
        {
          "name": "",
          "type": "uint256"
        }
      ],
      "name": "offeringAddresses",
      "outputs": [
        {
          "name": "",
          "type": "address"
        }
      ],
      "payable": false,
      "stateMutability": "view",
      "type": "function"
    },
    {
      "constant": true,
      "inputs": [
        {
          "name": "",
          "type": "uint256"
        }
      ],
      "name": "sessions",
      "outputs": [
        {
          "name": "startTime",
          "type": "uint256"
        },
        {
          "name": "endTime",
          "type": "uint256"
        },
        {
          "name": "active",
          "type": "bool"
        },
        {
          "name": "withdrawCount",
          "type": "uint256"
        },
        {
          "name": "totalTokensAllocated",
          "type": "uint256"
        },
        {
          "name": "depositedAllocations",
          "type": "uint256"
        }
      ],
      "payable": false,
      "stateMutability": "view",
      "type": "function"
    },
    {
      "constant": true,
      "inputs": [],
      "name": "decentBetToken",
      "outputs": [
        {
          "name": "",
          "type": "address"
        }
      ],
      "payable": false,
      "stateMutability": "view",
      "type": "function"
    },
    {
      "inputs": [
        {
          "name": "_house",
          "type": "address"
        }
      ],
      "payable": false,
      "stateMutability": "nonpayable",
      "type": "constructor"
    },
    {
      "constant": false,
      "inputs": [
        {
          "name": "houseOfferingAddress",
          "type": "address"
        }
      ],
      "name": "addHouseOffering",
      "outputs": [],
      "payable": false,
      "stateMutability": "nonpayable",
      "type": "function"
    },
    {
      "constant": false,
      "inputs": [
        {
          "name": "houseOfferingAddress",
          "type": "address"
        }
      ],
      "name": "removeOfferingFromNextSession",
      "outputs": [],
      "payable": false,
      "stateMutability": "nonpayable",
      "type": "function"
    },
    {
      "constant": false,
      "inputs": [
        {
          "name": "houseOffering",
          "type": "address"
        }
      ],
      "name": "withdrawPreviousSessionTokensFromHouseOffering",
      "outputs": [
        {
          "name": "",
          "type": "uint256"
        },
        {
          "name": "",
          "type": "bool"
        }
      ],
      "payable": false,
      "stateMutability": "nonpayable",
      "type": "function"
    },
    {
      "constant": false,
      "inputs": [
        {
          "name": "percentage",
          "type": "uint256"
        },
        {
          "name": "houseOffering",
          "type": "address"
        }
      ],
      "name": "allocateTokensForHouseOffering",
      "outputs": [
        {
          "name": "",
          "type": "bool"
        }
      ],
      "payable": false,
      "stateMutability": "nonpayable",
      "type": "function"
    },
    {
      "constant": false,
      "inputs": [
        {
          "name": "houseOffering",
          "type": "address"
        }
      ],
      "name": "depositAllocatedTokensToHouseOffering",
      "outputs": [
        {
          "name": "",
          "type": "bool"
        }
      ],
      "payable": false,
      "stateMutability": "nonpayable",
      "type": "function"
    },
    {
      "constant": false,
      "inputs": [
        {
          "name": "houseOffering",
          "type": "address"
        }
      ],
      "name": "emergencyWithdrawCurrentSessionTokensFromHouseOffering",
      "outputs": [
        {
          "name": "",
          "type": "uint256"
        },
        {
          "name": "",
          "type": "bool"
        }
      ],
      "payable": false,
      "stateMutability": "nonpayable",
      "type": "function"
    },
    {
      "constant": false,
      "inputs": [
        {
          "name": "startTime",
          "type": "uint256"
        },
        {
          "name": "endTime",
          "type": "uint256"
        },
        {
          "name": "sessionZeroStartTime",
          "type": "uint256"
        }
      ],
      "name": "beginNextSession",
      "outputs": [
        {
          "name": "",
          "type": "bool"
        }
      ],
      "payable": false,
      "stateMutability": "nonpayable",
      "type": "function"
    },
    {
      "constant": true,
      "inputs": [
        {
          "name": "session",
          "type": "uint256"
        }
      ],
      "name": "getSessionTime",
      "outputs": [
        {
          "name": "",
          "type": "uint256"
        },
        {
          "name": "",
          "type": "uint256"
        }
      ],
      "payable": false,
      "stateMutability": "view",
      "type": "function"
    },
    {
      "constant": true,
      "inputs": [
        {
          "name": "session",
          "type": "uint256"
        }
      ],
      "name": "isSessionActive",
      "outputs": [
        {
          "name": "",
          "type": "bool"
        }
      ],
      "payable": false,
      "stateMutability": "view",
      "type": "function"
    },
    {
      "constant": true,
      "inputs": [
        {
          "name": "_offering",
          "type": "address"
        }
      ],
      "name": "doesOfferingExist",
      "outputs": [
        {
          "name": "",
          "type": "bool"
        }
      ],
      "payable": false,
      "stateMutability": "view",
      "type": "function"
    },
    {
      "constant": true,
      "inputs": [
        {
          "name": "session",
          "type": "uint256"
        },
        {
          "name": "index",
          "type": "uint256"
        }
      ],
      "name": "getSessionOffering",
      "outputs": [
        {
          "name": "offering",
          "type": "address"
        }
      ],
      "payable": false,
      "stateMutability": "view",
      "type": "function"
    },
    {
      "constant": true,
      "inputs": [
        {
          "name": "session",
          "type": "uint256"
        }
      ],
      "name": "getSessionTimes",
      "outputs": [
        {
          "name": "",
          "type": "uint256"
        },
        {
          "name": "",
          "type": "uint256"
        }
      ],
      "payable": false,
      "stateMutability": "view",
      "type": "function"
    },
    {
      "constant": true,
      "inputs": [
        {
          "name": "session",
          "type": "uint256"
        },
        {
          "name": "_address",
          "type": "address"
        }
      ],
      "name": "getOfferingTokenAllocations",
      "outputs": [
        {
          "name": "",
          "type": "uint256"
        },
        {
          "name": "",
          "type": "bool"
        }
      ],
      "payable": false,
      "stateMutability": "view",
      "type": "function"
    },
    {
      "constant": true,
      "inputs": [
        {
          "name": "session",
          "type": "uint256"
        }
      ],
      "name": "getSessionOfferingsLength",
      "outputs": [
        {
          "name": "",
          "type": "uint256"
        }
      ],
      "payable": false,
      "stateMutability": "view",
      "type": "function"
    },
    {
      "constant": true,
      "inputs": [],
      "name": "getOfferingAddressesLength",
      "outputs": [
        {
          "name": "",
          "type": "uint256"
        }
      ],
      "payable": false,
      "stateMutability": "view",
      "type": "function"
    },
    {
      "constant": true,
      "inputs": [
        {
          "name": "session",
          "type": "uint256"
        },
        {
          "name": "offering",
          "type": "address"
        }
      ],
      "name": "isOfferingWithdrawn",
      "outputs": [
        {
          "name": "",
          "type": "bool"
        }
      ],
      "payable": false,
      "stateMutability": "view",
      "type": "function"
    }
  ],
  "bytecode": "0x60606040526001600360006101000a81548160ff021916908315150217905550341561002a57600080fd5b60405160208061262d8339810160405280805190602001909190505060008173ffffffffffffffffffffffffffffffffffffffff161415151561006c57600080fd5b806000806101000a81548173ffffffffffffffffffffffffffffffffffffffff021916908373ffffffffffffffffffffffffffffffffffffffff1602179055506000809054906101000a900473ffffffffffffffffffffffffffffffffffffffff1673ffffffffffffffffffffffffffffffffffffffff1663cba44d4f6040518163ffffffff167c0100000000000000000000000000000000000000000000000000000000028152600401602060405180830381600087803b151561013057600080fd5b5af1151561013d57600080fd5b50505060405180519050600160006101000a81548173ffffffffffffffffffffffffffffffffffffffff021916908373ffffffffffffffffffffffffffffffffffffffff16021790555050612496806101976000396000f300606060405260043610610112576000357c0100000000000000000000000000000000000000000000000000000000900463ffffffff168063043e57fb14610117578063383738f1146101715780633e4238ff146101c95780633e43c789146101f65780633e5658511461022f5780633e87d3ba14610280578063427b2081146102bb57806353a38a7f1461031e5780635582b4751461036b578063610f9a03146103d75780637888494b146104155780637ac6adcb1461043e57806381528eeb1461047757806383c4b7a3146104d1578063890e6bf41461052f5780638f7a367d14610566578063927ef336146105c75780639406d1661461061f578063b9f2ef301461065d578063cba44d4f146106ae575b600080fd5b341561012257600080fd5b610157600480803590602001909190803573ffffffffffffffffffffffffffffffffffffffff16906020019091905050610703565b604051808215151515815260200191505060405180910390f35b341561017c57600080fd5b6101a8600480803573ffffffffffffffffffffffffffffffffffffffff16906020019091905050610a02565b60405180838152602001821515151581526020019250505060405180910390f35b34156101d457600080fd5b6101dc610d4e565b604051808215151515815260200191505060405180910390f35b341561020157600080fd5b61022d600480803573ffffffffffffffffffffffffffffffffffffffff16906020019091905050610d61565b005b341561023a57600080fd5b610266600480803573ffffffffffffffffffffffffffffffffffffffff1690602001909190505061109c565b604051808215151515815260200191505060405180910390f35b341561028b57600080fd5b6102a160048080359060200190919050506110f5565b604051808215151515815260200191505060405180910390f35b34156102c657600080fd5b6102dc600480803590602001909190505061126e565b604051808273ffffffffffffffffffffffffffffffffffffffff1673ffffffffffffffffffffffffffffffffffffffff16815260200191505060405180910390f35b341561032957600080fd5b61035160048080359060200190919080359060200190919080359060200190919050506112ad565b604051808215151515815260200191505060405180910390f35b341561037657600080fd5b6103956004808035906020019091908035906020019091905050611515565b604051808273ffffffffffffffffffffffffffffffffffffffff1673ffffffffffffffffffffffffffffffffffffffff16815260200191505060405180910390f35b34156103e257600080fd5b6103f8600480803590602001909190505061156e565b604051808381526020018281526020019250505060405180910390f35b341561042057600080fd5b6104286115a8565b6040518082815260200191505060405180910390f35b341561044957600080fd5b610475600480803573ffffffffffffffffffffffffffffffffffffffff169060200190919050506115b5565b005b341561048257600080fd5b6104b7600480803590602001909190803573ffffffffffffffffffffffffffffffffffffffff1690602001909190505061187a565b604051808215151515815260200191505060405180910390f35b34156104dc57600080fd5b6104f260048080359060200190919050506118e5565b6040518087815260200186815260200185151515158152602001848152602001838152602001828152602001965050505050505060405180910390f35b341561053a57600080fd5b610550600480803590602001909190505061192e565b6040518082815260200191505060405180910390f35b341561057157600080fd5b6105a6600480803590602001909190803573ffffffffffffffffffffffffffffffffffffffff16906020019091905050611951565b60405180838152602001821515151581526020019250505060405180910390f35b34156105d257600080fd5b6105fe600480803573ffffffffffffffffffffffffffffffffffffffff16906020019091905050611a1a565b60405180838152602001821515151581526020019250505060405180910390f35b341561062a57600080fd5b6106406004808035906020019091905050611eb5565b604051808381526020018281526020019250505060405180910390f35b341561066857600080fd5b610694600480803573ffffffffffffffffffffffffffffffffffffffff16906020019091905050611eef565b604051808215151515815260200191505060405180910390f35b34156106b957600080fd5b6106c161216e565b604051808273ffffffffffffffffffffffffffffffffffffffff1673ffffffffffffffffffffffffffffffffffffffff16815260200191505060405180910390f35b600080600083600460008273ffffffffffffffffffffffffffffffffffffffff1673ffffffffffffffffffffffffffffffffffffffff16815260200190815260200160002060000160149054906101000a900460ff16151561076457600080fd5b6000809054906101000a900473ffffffffffffffffffffffffffffffffffffffff1673ffffffffffffffffffffffffffffffffffffffff163373ffffffffffffffffffffffffffffffffffffffff161415156107bf57600080fd5b60016000809054906101000a900473ffffffffffffffffffffffffffffffffffffffff1673ffffffffffffffffffffffffffffffffffffffff1663d41667636040518163ffffffff167c0100000000000000000000000000000000000000000000000000000000028152600401602060405180830381600087803b151561084557600080fd5b5af1151561085257600080fd5b505050604051805190500192506064610881600560008681526020019081526020016000206007015488612194565b1115151561088e57600080fd5b6005600084815260200190815260200160002060060160008673ffffffffffffffffffffffffffffffffffffffff1673ffffffffffffffffffffffffffffffffffffffff16815260200190815260200160002060010160009054906101000a900460ff161515156108fe57600080fd5b6005600084815260200190815260200160002060060160008673ffffffffffffffffffffffffffffffffffffffff1673ffffffffffffffffffffffffffffffffffffffff168152602001908152602001600020600001549150856005600085815260200190815260200160002060060160008773ffffffffffffffffffffffffffffffffffffffff1673ffffffffffffffffffffffffffffffffffffffff168152602001908152602001600020600001819055506109db6109d5600560008681526020019081526020016000206007015488612194565b836121b2565b60056000858152602001908152602001600020600701819055506001935050505092915050565b600080600080600085600460008273ffffffffffffffffffffffffffffffffffffffff1673ffffffffffffffffffffffffffffffffffffffff16815260200190815260200160002060000160149054906101000a900460ff161515610a6657600080fd5b6000809054906101000a900473ffffffffffffffffffffffffffffffffffffffff1673ffffffffffffffffffffffffffffffffffffffff163373ffffffffffffffffffffffffffffffffffffffff16141515610ac157600080fd5b6000809054906101000a900473ffffffffffffffffffffffffffffffffffffffff1673ffffffffffffffffffffffffffffffffffffffff1663d41667636040518163ffffffff167c0100000000000000000000000000000000000000000000000000000000028152600401602060405180830381600087803b1515610b4557600080fd5b5af11515610b5257600080fd5b505050604051805190509350600460008873ffffffffffffffffffffffffffffffffffffffff1673ffffffffffffffffffffffffffffffffffffffff16815260200190815260200160002060000160009054906101000a900473ffffffffffffffffffffffffffffffffffffffff1673ffffffffffffffffffffffffffffffffffffffff1662fdd58e88866040518363ffffffff167c0100000000000000000000000000000000000000000000000000000000028152600401808373ffffffffffffffffffffffffffffffffffffffff1673ffffffffffffffffffffffffffffffffffffffff16815260200182815260200192505050602060405180830381600087803b1515610c6157600080fd5b5af11515610c6e57600080fd5b50505060405180519050925060016005600086815260200190815260200160002060040160008973ffffffffffffffffffffffffffffffffffffffff1673ffffffffffffffffffffffffffffffffffffffff16815260200190815260200160002060006101000a81548160ff021916908315150217905550600160056000868152602001908152602001600020600501600082825401925050819055506005600085815260200190815260200160002060030180549050600560008681526020019081526020016000206005015414915082829550955050505050915091565b600360009054906101000a900460ff1681565b60008082600460008273ffffffffffffffffffffffffffffffffffffffff1673ffffffffffffffffffffffffffffffffffffffff16815260200190815260200160002060000160149054906101000a900460ff161515610dc057600080fd5b6000809054906101000a900473ffffffffffffffffffffffffffffffffffffffff1673ffffffffffffffffffffffffffffffffffffffff16634d853ee56040518163ffffffff167c0100000000000000000000000000000000000000000000000000000000028152600401602060405180830381600087803b1515610e4457600080fd5b5af11515610e5157600080fd5b5050506040518051905073ffffffffffffffffffffffffffffffffffffffff163373ffffffffffffffffffffffffffffffffffffffff16141515610e9457600080fd5b60016000809054906101000a900473ffffffffffffffffffffffffffffffffffffffff1673ffffffffffffffffffffffffffffffffffffffff1663d41667636040518163ffffffff167c0100000000000000000000000000000000000000000000000000000000028152600401602060405180830381600087803b1515610f1a57600080fd5b5af11515610f2757600080fd5b50505060405180519050019250600091505b600560008481526020019081526020016000206003018054905082101561103b578373ffffffffffffffffffffffffffffffffffffffff166005600085815260200190815260200160002060030183815481101515610f9457fe5b906000526020600020900160009054906101000a900473ffffffffffffffffffffffffffffffffffffffff1673ffffffffffffffffffffffffffffffffffffffff16141561102e576005600084815260200190815260200160002060030182815481101515610fff57fe5b906000526020600020900160006101000a81549073ffffffffffffffffffffffffffffffffffffffff02191690555b8180600101925050610f39565b6000600460008673ffffffffffffffffffffffffffffffffffffffff1673ffffffffffffffffffffffffffffffffffffffff16815260200190815260200160002060000160146101000a81548160ff02191690831515021790555050505050565b6000600460008373ffffffffffffffffffffffffffffffffffffffff1673ffffffffffffffffffffffffffffffffffffffff16815260200190815260200160002060000160149054906101000a900460ff169050919050565b600060056000838152602001908152602001600020600001546000809054906101000a900473ffffffffffffffffffffffffffffffffffffffff1673ffffffffffffffffffffffffffffffffffffffff1663557ed1ba6040518163ffffffff167c0100000000000000000000000000000000000000000000000000000000028152600401602060405180830381600087803b151561119257600080fd5b5af1151561119f57600080fd5b5050506040518051905010158015611267575060056000838152602001908152602001600020600101546000809054906101000a900473ffffffffffffffffffffffffffffffffffffffff1673ffffffffffffffffffffffffffffffffffffffff1663557ed1ba6040518163ffffffff167c0100000000000000000000000000000000000000000000000000000000028152600401602060405180830381600087803b151561124d57600080fd5b5af1151561125a57600080fd5b5050506040518051905011155b9050919050565b60028181548110151561127d57fe5b90600052602060002090016000915054906101000a900473ffffffffffffffffffffffffffffffffffffffff1681565b60008060008060009054906101000a900473ffffffffffffffffffffffffffffffffffffffff1673ffffffffffffffffffffffffffffffffffffffff163373ffffffffffffffffffffffffffffffffffffffff1614151561130d57600080fd5b6000809054906101000a900473ffffffffffffffffffffffffffffffffffffffff1673ffffffffffffffffffffffffffffffffffffffff1663d41667636040518163ffffffff167c0100000000000000000000000000000000000000000000000000000000028152600401602060405180830381600087803b151561139157600080fd5b5af1151561139e57600080fd5b5050506040518051905091506000821480156113ba5750600084145b156114295760006005600084815260200190815260200160002060020160006101000a81548160ff021916908315150217905550856005600084815260200190815260200160002060000181905550846005600084815260200190815260200160002060010181905550611508565b6114348260016121b2565b905060006005600083815260200190815260200160002060020160006101000a81548160ff02191690831515021790555060016005600084815260200190815260200160002060020160006101000a81548160ff0219169083151502179055508560056000848152602001908152602001600020600001819055508460056000848152602001908152602001600020600101819055506005600083815260200190815260200160002060030180549050600560008481526020019081526020016000206008015414151561150757600080fd5b5b6001925050509392505050565b6000600560008481526020019081526020016000206003018281548110151561153a57fe5b906000526020600020900160009054906101000a900473ffffffffffffffffffffffffffffffffffffffff16905092915050565b6000806005600084815260200190815260200160002060000154600560008581526020019081526020016000206001015491509150915091565b6000600280549050905090565b6000809054906101000a900473ffffffffffffffffffffffffffffffffffffffff1673ffffffffffffffffffffffffffffffffffffffff16634d853ee56040518163ffffffff167c0100000000000000000000000000000000000000000000000000000000028152600401602060405180830381600087803b151561163957600080fd5b5af1151561164657600080fd5b5050506040518051905073ffffffffffffffffffffffffffffffffffffffff163373ffffffffffffffffffffffffffffffffffffffff1614151561168957600080fd5b60008173ffffffffffffffffffffffffffffffffffffffff16141515156116af57600080fd5b8073ffffffffffffffffffffffffffffffffffffffff16630795be776040518163ffffffff167c0100000000000000000000000000000000000000000000000000000000028152600401602060405180830381600087803b151561171257600080fd5b5af1151561171f57600080fd5b50505060405180519050151561173457600080fd5b600280548060010182816117489190612419565b9160005260206000209001600083909190916101000a81548173ffffffffffffffffffffffffffffffffffffffff021916908373ffffffffffffffffffffffffffffffffffffffff1602179055505060408051908101604052808273ffffffffffffffffffffffffffffffffffffffff16815260200160011515815250600460008373ffffffffffffffffffffffffffffffffffffffff1673ffffffffffffffffffffffffffffffffffffffff16815260200190815260200160002060008201518160000160006101000a81548173ffffffffffffffffffffffffffffffffffffffff021916908373ffffffffffffffffffffffffffffffffffffffff16021790555060208201518160000160146101000a81548160ff021916908315150217905550905050611877816121cb565b50565b60006005600084815260200190815260200160002060040160008373ffffffffffffffffffffffffffffffffffffffff1673ffffffffffffffffffffffffffffffffffffffff16815260200190815260200160002060009054906101000a900460ff16905092915050565b60056020528060005260406000206000915090508060000154908060010154908060020160009054906101000a900460ff16908060050154908060070154908060080154905086565b600060056000838152602001908152602001600020600301805490509050919050565b6000806005600085815260200190815260200160002060060160008473ffffffffffffffffffffffffffffffffffffffff1673ffffffffffffffffffffffffffffffffffffffff168152602001908152602001600020600001546005600086815260200190815260200160002060060160008573ffffffffffffffffffffffffffffffffffffffff1673ffffffffffffffffffffffffffffffffffffffff16815260200190815260200160002060010160009054906101000a900460ff16915091509250929050565b60008060008060008086600460008273ffffffffffffffffffffffffffffffffffffffff1673ffffffffffffffffffffffffffffffffffffffff16815260200190815260200160002060000160149054906101000a900460ff161515611a7f57600080fd5b6000809054906101000a900473ffffffffffffffffffffffffffffffffffffffff1673ffffffffffffffffffffffffffffffffffffffff163373ffffffffffffffffffffffffffffffffffffffff16141515611ada57600080fd5b6000809054906101000a900473ffffffffffffffffffffffffffffffffffffffff1673ffffffffffffffffffffffffffffffffffffffff1663d41667636040518163ffffffff167c0100000000000000000000000000000000000000000000000000000000028152600401602060405180830381600087803b1515611b5e57600080fd5b5af11515611b6b57600080fd5b505050604051805190509450611b828560016121b2565b9350600185111515611b9357600080fd5b6202a3006005600086815260200190815260200160002060010154016000809054906101000a900473ffffffffffffffffffffffffffffffffffffffff1673ffffffffffffffffffffffffffffffffffffffff1663557ed1ba6040518163ffffffff167c0100000000000000000000000000000000000000000000000000000000028152600401602060405180830381600087803b1515611c3357600080fd5b5af11515611c4057600080fd5b5050506040518051905010151515611c5757600080fd5b6005600085815260200190815260200160002060040160008973ffffffffffffffffffffffffffffffffffffffff1673ffffffffffffffffffffffffffffffffffffffff16815260200190815260200160002060009054906101000a900460ff16151515611cc457600080fd5b600460008973ffffffffffffffffffffffffffffffffffffffff1673ffffffffffffffffffffffffffffffffffffffff16815260200190815260200160002060000160009054906101000a900473ffffffffffffffffffffffffffffffffffffffff1673ffffffffffffffffffffffffffffffffffffffff1662fdd58e89866040518363ffffffff167c0100000000000000000000000000000000000000000000000000000000028152600401808373ffffffffffffffffffffffffffffffffffffffff1673ffffffffffffffffffffffffffffffffffffffff16815260200182815260200192505050602060405180830381600087803b1515611dc757600080fd5b5af11515611dd457600080fd5b50505060405180519050925060016005600086815260200190815260200160002060040160008a73ffffffffffffffffffffffffffffffffffffffff1673ffffffffffffffffffffffffffffffffffffffff16815260200190815260200160002060006101000a81548160ff02191690831515021790555060016005600086815260200190815260200160002060050160008282540192505081905550600560008581526020019081526020016000206003018054905060056000868152602001908152602001600020600501541491508282965096505050505050915091565b6000806005600084815260200190815260200160002060000154600560008581526020019081526020016000206001015491509150915091565b60008082600460008273ffffffffffffffffffffffffffffffffffffffff1673ffffffffffffffffffffffffffffffffffffffff16815260200190815260200160002060000160149054906101000a900460ff161515611f4e57600080fd5b6000809054906101000a900473ffffffffffffffffffffffffffffffffffffffff1673ffffffffffffffffffffffffffffffffffffffff163373ffffffffffffffffffffffffffffffffffffffff16141515611fa957600080fd5b60016000809054906101000a900473ffffffffffffffffffffffffffffffffffffffff1673ffffffffffffffffffffffffffffffffffffffff1663d41667636040518163ffffffff167c0100000000000000000000000000000000000000000000000000000000028152600401602060405180830381600087803b151561202f57600080fd5b5af1151561203c57600080fd5b505050604051805190500191506005600083815260200190815260200160002060060160008573ffffffffffffffffffffffffffffffffffffffff1673ffffffffffffffffffffffffffffffffffffffff16815260200190815260200160002060010160009054906101000a900460ff161515156120b957600080fd5b60016005600084815260200190815260200160002060060160008673ffffffffffffffffffffffffffffffffffffffff1673ffffffffffffffffffffffffffffffffffffffff16815260200190815260200160002060010160006101000a81548160ff02191690831515021790555061214960056000848152602001908152602001600020600801546001612194565b6005600084815260200190815260200160002060080181905550600192505050919050565b600160009054906101000a900473ffffffffffffffffffffffffffffffffffffffff1681565b60008082840190508381101515156121a857fe5b8091505092915050565b60008282111515156121c057fe5b818303905092915050565b600081600460008273ffffffffffffffffffffffffffffffffffffffff1673ffffffffffffffffffffffffffffffffffffffff16815260200190815260200160002060000160149054906101000a900460ff16151561222957600080fd5b6000809054906101000a900473ffffffffffffffffffffffffffffffffffffffff1673ffffffffffffffffffffffffffffffffffffffff16634d853ee56040518163ffffffff167c0100000000000000000000000000000000000000000000000000000000028152600401602060405180830381600087803b15156122ad57600080fd5b5af115156122ba57600080fd5b5050506040518051905073ffffffffffffffffffffffffffffffffffffffff163373ffffffffffffffffffffffffffffffffffffffff161415156122fd57600080fd5b60016000809054906101000a900473ffffffffffffffffffffffffffffffffffffffff1673ffffffffffffffffffffffffffffffffffffffff1663d41667636040518163ffffffff167c0100000000000000000000000000000000000000000000000000000000028152600401602060405180830381600087803b151561238357600080fd5b5af1151561239057600080fd5b505050604051805190500191506005600083815260200190815260200160002060030180548060010182816123c59190612419565b9160005260206000209001600085909190916101000a81548173ffffffffffffffffffffffffffffffffffffffff021916908373ffffffffffffffffffffffffffffffffffffffff16021790555050505050565b8154818355818115116124405781836000526020600020918201910161243f9190612445565b5b505050565b61246791905b8082111561246357600081600090555060010161244b565b5090565b905600a165627a7a723058206ac87cd49139c6cba6d3071d02ee3b1cfe3c0c819c3abfc3250b477975cc45680029",
  "source": "pragma solidity 0.4.21;\n\nimport '../HouseOffering.sol';\n\nimport '../House.sol';\nimport '../../Token/ERC20.sol';\nimport '../../Libraries/SafeMath.sol';\n\n// All functionality related to house sessions and offerings reside here.\n// House sessions records are saved here to decouple the record keeping from the House contract to reduce gas costs on deployment.\ncontract HouseSessionsController is SafeMath {\n\n    // Structs\n    struct Session {\n        uint startTime;\n        uint endTime;\n        bool active;\n        // Offerings available for this session.\n        address[] offerings;\n        // Offerings that have been withdrawn from in this session.\n        // All offerings must be withdrawn to switch to the next session.\n        mapping (address => bool) withdrawnOfferings;\n        uint withdrawCount;\n        // %age allocation of total tokens for deposit at start of session.\n        mapping (address => TokenAllocations) offeringTokenAllocations;\n        // Total % of tokens allocated, must be equal before switching to next session.\n        uint totalTokensAllocated;\n        // Increments by 1 after each deposit to an offering allocation.\n        uint depositedAllocations;\n    }\n\n    struct TokenAllocations {\n        // Amount allocated to offering.\n        uint allocation;\n        bool deposited;\n    }\n\n    struct Offering {\n        HouseOffering houseOffering;\n        bool exists;\n    }\n\n    // Variables\n    House house;\n    ERC20 public decentBetToken;\n    address[] public offeringAddresses;\n\n    bool public isHouseSessionsController = true;\n\n    // Mappings\n    // House offerings available for house.\n    mapping (address => Offering) offerings;\n\n    // Session statistics.\n    mapping (uint => Session) public sessions;\n\n    function HouseSessionsController(address _house)\n    public {\n        require(_house != 0x0);\n        house = House(_house);\n        decentBetToken = ERC20(house.decentBetToken());\n    }\n\n    // Modifiers\n    // Allows functions to execute only if the house contract sent the transaction.\n    modifier onlyHouse() {\n        require(msg.sender == address(house));\n        _;\n    }\n\n    modifier onlyFounder() {\n        require(msg.sender == house.founder());\n        _;\n    }\n\n    // Allows functions to execute only if the house offering exists.\n    modifier isValidHouseOffering(address offering) {\n        require(offerings[offering].exists);\n        _;\n    }\n\n    // Adds a new offering to the house.\n    function addHouseOffering(address houseOfferingAddress)\n    public\n    onlyFounder {\n        // Empty address, invalid input\n        require(houseOfferingAddress != 0x0);\n        // Not a house offering\n        require(HouseOffering(houseOfferingAddress).isHouseOffering());\n\n        offeringAddresses.push(houseOfferingAddress);\n        offerings[houseOfferingAddress] = Offering({\n            houseOffering: HouseOffering(houseOfferingAddress),\n            exists: true\n            });\n        addOfferingToNextSession(houseOfferingAddress);\n    }\n\n    // Adds a house offering to the next session\n    function addOfferingToNextSession(address houseOfferingAddress)\n    internal\n    isValidHouseOffering(houseOfferingAddress)\n    onlyFounder {\n        uint nextSession = house.currentSession() + 1;\n        sessions[nextSession].offerings.push(houseOfferingAddress);\n    }\n\n    // Remove an offering from the next session\n    function removeOfferingFromNextSession(address houseOfferingAddress)\n    public\n    isValidHouseOffering(houseOfferingAddress)\n    onlyFounder {\n        // TODO: Look into support for current session - freeze contract, allow token withdrawals etc.\n        uint nextSession = house.currentSession() + 1;\n        for(uint i = 0; i < sessions[nextSession].offerings.length; i++) {\n            if(sessions[nextSession].offerings[i] == houseOfferingAddress)\n                delete sessions[nextSession].offerings[i];\n        }\n        offerings[houseOfferingAddress].exists = false;\n    }\n\n    // Withdraws session tokens for the previously ended session from a house offering.\n    function withdrawPreviousSessionTokensFromHouseOffering(address houseOffering)\n    public\n    isValidHouseOffering(houseOffering)\n    onlyHouse\n    returns (uint, bool) {\n        uint currentSession = house.currentSession();\n        uint previousSession = safeSub(currentSession, 1);\n        // Withdrawals are only allowed after session 1.\n        require(currentSession > 1);\n\n        // Tokens can only be withdrawn from offerings by house 48h after the previous session has ended to account\n        // for pending bets/game outcomes.\n        require(house.getTime() >= (sessions[previousSession].endTime + 2 days));\n\n        // Allow only if offering has not been withdrawn.\n        require(!sessions[previousSession].withdrawnOfferings[houseOffering]);\n\n        uint previousSessionTokens = offerings[houseOffering].houseOffering.balanceOf(houseOffering, previousSession);\n\n        sessions[previousSession].withdrawnOfferings[houseOffering] = true;\n        sessions[previousSession].withdrawCount += 1;\n\n        // All offerings have been withdrawn.\n        bool allOfferingsWithdrawn =\n        sessions[previousSession].withdrawCount == sessions[previousSession].offerings.length;\n\n        return (previousSessionTokens, allOfferingsWithdrawn);\n    }\n\n    // Allocates a %age of tokens for a house offering for the next session\n    function allocateTokensForHouseOffering(uint percentage, address houseOffering)\n    public\n    isValidHouseOffering(houseOffering)\n    onlyHouse\n    returns (bool) {\n        uint nextSession = house.currentSession() + 1;\n\n        // Total %age of tokens can't be above 100.\n        require(safeAdd(sessions[nextSession].totalTokensAllocated, percentage) <= 100);\n\n        // Tokens have already been deposited to offering.\n        require(!sessions[nextSession].offeringTokenAllocations[houseOffering].deposited);\n\n        uint previousAllocation = sessions[nextSession].offeringTokenAllocations[houseOffering].allocation;\n\n        sessions[nextSession].offeringTokenAllocations[houseOffering].allocation = percentage;\n        sessions[nextSession].totalTokensAllocated =\n        safeSub(safeAdd(sessions[nextSession].totalTokensAllocated, percentage), previousAllocation);\n\n        return true;\n    }\n\n    function depositAllocatedTokensToHouseOffering(address houseOffering)\n    public\n    isValidHouseOffering(houseOffering)\n    onlyHouse\n    returns (bool) {\n        uint nextSession = house.currentSession() + 1;\n\n        // Tokens have already been deposited to offering.\n        require(!sessions[nextSession].offeringTokenAllocations[houseOffering].deposited);\n\n        sessions[nextSession].offeringTokenAllocations[houseOffering].deposited = true;\n        sessions[nextSession].depositedAllocations = safeAdd(sessions[nextSession].depositedAllocations, 1);\n\n        return true;\n    }\n\n    function emergencyWithdrawCurrentSessionTokensFromHouseOffering(address houseOffering)\n    public\n    isValidHouseOffering(houseOffering)\n    onlyHouse\n    returns (uint, bool) {\n        uint currentSession = house.currentSession();\n        uint sessionTokens = offerings[houseOffering].houseOffering.balanceOf(houseOffering, currentSession);\n\n        sessions[currentSession].withdrawnOfferings[houseOffering] = true;\n        sessions[currentSession].withdrawCount += 1;\n\n        // All offerings have been withdrawn.\n        bool allOfferingsWithdrawn =\n        sessions[currentSession].withdrawCount == sessions[currentSession].offerings.length;\n\n        return (sessionTokens, allOfferingsWithdrawn);\n    }\n\n    // Starts the next session.\n    // Call this function once after setting up the house to begin the initial credit buying period.\n    function beginNextSession(uint startTime, uint endTime, uint sessionZeroStartTime)\n    public\n    onlyHouse\n    returns (bool) {\n        uint currentSession = house.currentSession();\n\n        if (currentSession == 0 && sessionZeroStartTime == 0) {\n            sessions[currentSession].active = false;\n            sessions[currentSession].startTime = startTime;\n            sessions[currentSession].endTime = endTime;\n        } else {\n            uint previousSession = safeSub(currentSession, 1);\n            // currentSession has been set to nextSession in House contract.\n            sessions[previousSession].active = false;\n\n            // For a session to be considered active, getTime() would need to be between startTime and endTime\n            // AND session should be active.\n            sessions[currentSession].active = true;\n            sessions[currentSession].startTime = startTime;\n            sessions[currentSession].endTime = endTime;\n\n            // All offerings should have allocated tokens deposited before switching to next session.\n            require(sessions[currentSession].depositedAllocations == sessions[currentSession].offerings.length);\n        }\n\n        return true;\n    }\n\n    // Utility functions for front-end purposes.\n\n    // Returns session start and end time.\n    function getSessionTime(uint session)\n    public\n    view\n    returns (uint, uint) {\n        return (sessions[session].startTime, sessions[session].endTime);\n    }\n\n    // Returns whether a session is active.\n    function isSessionActive(uint session)\n    public\n    view\n    returns (bool) {\n        return house.getTime() >= sessions[session].startTime &&\n               house.getTime() <= sessions[session].endTime;\n    }\n\n    // Returns whether an offering exists.\n    function doesOfferingExist(address _offering)\n    public\n    view\n    returns (bool) {\n        return offerings[_offering].exists;\n    }\n\n    // Returns an offering for a session.\n    function getSessionOffering(uint session, uint index)\n    public\n    view\n    returns (address offering) {\n        return sessions[session].offerings[index];\n    }\n\n    function getSessionTimes(uint session)\n    public\n    view\n    returns (uint, uint) {\n        return (sessions[session].startTime, sessions[session].endTime);\n    }\n\n    // Returns offering token allocations and deposits.\n    function getOfferingTokenAllocations(uint session, address _address)\n    public\n    view\n    returns (uint, bool) {\n        return (sessions[session].offeringTokenAllocations[_address].allocation,\n        sessions[session].offeringTokenAllocations[_address].deposited);\n    }\n\n    function getSessionOfferingsLength(uint session)\n    public\n    view\n    returns (uint) {\n        return sessions[session].offerings.length;\n    }\n\n    function getOfferingAddressesLength()\n    public\n    view\n    returns (uint) {\n        return offeringAddresses.length;\n    }\n\n    function isOfferingWithdrawn(uint session, address offering)\n    public\n    view\n    returns (bool) {\n        return sessions[session].withdrawnOfferings[offering];\n    }\n\n}\n",
  "sourcePath": "/srv/platform-contracts/contracts/House/Controllers/HouseSessionsController.sol",
  "compiler": {
    "name": "solc",
    "version": "0.4.21+commit.dfe3193c.Emscripten.clang"
  },
  "schemaVersion": "2.0.0",
  "updatedAt": "2018-05-23T04:44:46.312Z"
}