{
  "contractName": "TimeProvider",
  "abi": [
    {
      "constant": true,
      "inputs": [],
      "name": "timeController",
      "outputs": [
        {
          "name": "",
          "type": "address"
        }
      ],
      "payable": false,
      "stateMutability": "view",
      "type": "function"
    },
    {
      "constant": true,
      "inputs": [],
      "name": "isMock",
      "outputs": [
        {
          "name": "",
          "type": "bool"
        }
      ],
      "payable": false,
      "stateMutability": "view",
      "type": "function"
    },
    {
      "anonymous": false,
      "inputs": [
        {
          "indexed": false,
          "name": "time",
          "type": "uint256"
        }
      ],
      "name": "LogUpdatedTime",
      "type": "event"
    },
    {
      "constant": true,
      "inputs": [],
      "name": "getTime",
      "outputs": [
        {
          "name": "",
          "type": "uint256"
        }
      ],
      "payable": false,
      "stateMutability": "view",
      "type": "function"
    },
    {
      "constant": false,
      "inputs": [
        {
          "name": "time",
          "type": "uint256"
        }
      ],
      "name": "setTime",
      "outputs": [],
      "payable": false,
      "stateMutability": "nonpayable",
      "type": "function"
    },
    {
      "constant": false,
      "inputs": [
        {
          "name": "_isMock",
          "type": "bool"
        }
      ],
      "name": "toggleMockTime",
      "outputs": [],
      "payable": false,
      "stateMutability": "nonpayable",
      "type": "function"
    }
  ],
  "bytecode": "0x606060405242600155341561001357600080fd5b610302806100226000396000f30060606040526004361061006d576000357c0100000000000000000000000000000000000000000000000000000000900463ffffffff1680631a102add1461007257806328ccaa29146100c75780633beb26c4146100f4578063557ed1ba14610117578063d563ce1914610140575b600080fd5b341561007d57600080fd5b610085610165565b604051808273ffffffffffffffffffffffffffffffffffffffff1673ffffffffffffffffffffffffffffffffffffffff16815260200191505060405180910390f35b34156100d257600080fd5b6100da61018b565b604051808215151515815260200191505060405180910390f35b34156100ff57600080fd5b610115600480803590602001909190505061019d565b005b341561012257600080fd5b61012a61023a565b6040518082815260200191505060405180910390f35b341561014b57600080fd5b6101636004808035151590602001909190505061025e565b005b600260009054906101000a900473ffffffffffffffffffffffffffffffffffffffff1681565b6000809054906101000a900460ff1681565b600260009054906101000a900473ffffffffffffffffffffffffffffffffffffffff1673ffffffffffffffffffffffffffffffffffffffff163373ffffffffffffffffffffffffffffffffffffffff161415156101f957600080fd5b806001819055507fddb30991472728014becfdc873e13fc7a4bbad9d6e1b45632cbdf2098d249a79816040518082815260200191505060405180910390a150565b60008060009054906101000a900460ff166102555742610259565b6001545b905090565b600260009054906101000a900473ffffffffffffffffffffffffffffffffffffffff1673ffffffffffffffffffffffffffffffffffffffff163373ffffffffffffffffffffffffffffffffffffffff161415156102ba57600080fd5b806000806101000a81548160ff021916908315150217905550505600a165627a7a723058204ea779b3164e906bc2c1f6a886a5b7ab72cf8691b063cc7043a778047c72f6030029",
  "source": "pragma solidity 0.4.21;\n\n// Provides time for contracts that can be toggled to a mock time on TestRPC/local networks and the current\n// block timestamp on testnet/mainnet.\ncontract TimeProvider {\n\n    bool public isMock;\n    uint mockTime = now;\n\n    address public timeController;\n\n    event LogUpdatedTime(uint time);\n\n    modifier onlyTimeController() {\n        require(msg.sender == timeController);\n        _;\n    }\n\n    function getTime()\n    public\n    constant\n    returns (uint) {\n        return isMock ? mockTime : now;\n    }\n\n    function setTime(uint time)\n    onlyTimeController\n    public {\n        mockTime = time;\n        emit LogUpdatedTime(time);\n    }\n\n    function setTimeController(address _timeController)\n    internal {\n        timeController = _timeController;\n    }\n\n    function toggleMockTime(bool _isMock)\n    onlyTimeController\n    public {\n        isMock = _isMock;\n    }\n\n}\n",
  "sourcePath": "/srv/platform-contracts/contracts/Libraries/TimeProvider.sol",
  "compiler": {
    "name": "solc",
    "version": "0.4.21+commit.dfe3193c.Emscripten.clang"
  },
  "schemaVersion": "2.0.0",
  "updatedAt": "2018-05-23T04:44:26.278Z"
}