{
  "contractName": "Utils",
  "abi": [
    {
      "constant": true,
      "inputs": [
        {
          "name": "b",
          "type": "bytes32"
        }
      ],
      "name": "bytes32ToBool",
      "outputs": [
        {
          "name": "",
          "type": "bool"
        }
      ],
      "payable": false,
      "stateMutability": "pure",
      "type": "function"
    },
    {
      "constant": true,
      "inputs": [
        {
          "name": "_string",
          "type": "string"
        }
      ],
      "name": "strLen",
      "outputs": [
        {
          "name": "",
          "type": "uint256"
        }
      ],
      "payable": false,
      "stateMutability": "pure",
      "type": "function"
    },
    {
      "constant": true,
      "inputs": [
        {
          "name": "s1",
          "type": "string"
        },
        {
          "name": "s2",
          "type": "string"
        }
      ],
      "name": "strCompare",
      "outputs": [
        {
          "name": "",
          "type": "bool"
        }
      ],
      "payable": false,
      "stateMutability": "pure",
      "type": "function"
    },
    {
      "constant": true,
      "inputs": [
        {
          "name": "s",
          "type": "string"
        },
        {
          "name": "index",
          "type": "uint256"
        }
      ],
      "name": "getCharAt",
      "outputs": [
        {
          "name": "",
          "type": "string"
        }
      ],
      "payable": false,
      "stateMutability": "pure",
      "type": "function"
    },
    {
      "constant": true,
      "inputs": [
        {
          "name": "v",
          "type": "uint256"
        }
      ],
      "name": "uintToBytes",
      "outputs": [
        {
          "name": "ret",
          "type": "bytes32"
        }
      ],
      "payable": false,
      "stateMutability": "pure",
      "type": "function"
    },
    {
      "constant": true,
      "inputs": [
        {
          "name": "x",
          "type": "bytes32"
        }
      ],
      "name": "bytes32ToString",
      "outputs": [
        {
          "name": "",
          "type": "string"
        }
      ],
      "payable": false,
      "stateMutability": "pure",
      "type": "function"
    },
    {
      "constant": true,
      "inputs": [
        {
          "name": "n",
          "type": "uint256"
        }
      ],
      "name": "uintToString",
      "outputs": [
        {
          "name": "",
          "type": "string"
        }
      ],
      "payable": false,
      "stateMutability": "pure",
      "type": "function"
    },
    {
      "constant": true,
      "inputs": [
        {
          "name": "b",
          "type": "bool"
        }
      ],
      "name": "boolToString",
      "outputs": [
        {
          "name": "",
          "type": "string"
        }
      ],
      "payable": false,
      "stateMutability": "pure",
      "type": "function"
    },
    {
      "constant": true,
      "inputs": [
        {
          "name": "self",
          "type": "string"
        },
        {
          "name": "startIndex",
          "type": "uint256"
        }
      ],
      "name": "toBytes32",
      "outputs": [
        {
          "name": "b",
          "type": "bytes32"
        }
      ],
      "payable": false,
      "stateMutability": "pure",
      "type": "function"
    },
    {
      "constant": true,
      "inputs": [
        {
          "name": "char",
          "type": "bytes1"
        }
      ],
      "name": "toByte",
      "outputs": [
        {
          "name": "c",
          "type": "bytes1"
        }
      ],
      "payable": false,
      "stateMutability": "pure",
      "type": "function"
    }
  ],
  "bytecode": "0x6060604052341561000f57600080fd5b6110e28061001e6000396000f3006060604052600436106100a4576000357c0100000000000000000000000000000000000000000000000000000000900463ffffffff1680630af70aee146100a957806370d161271461012b5780639201de551461019c57806394e8767d1461023c578063b89783aa1461027b578063e665919714610318578063e74b666a146103b6578063e864165214610495578063e93956791461054d578063f7302d7b146105e9575b600080fd5b34156100b457600080fd5b61010d600480803590602001908201803590602001908080601f01602080910402602001604051908101604052809392919081815260200183838082843782019150505050505091908035906020019091905050610628565b60405180826000191660001916815260200191505060405180910390f35b341561013657600080fd5b610186600480803590602001908201803590602001908080601f016020809104026020016040519081016040528093929190818152602001838380828437820191505050505050919050506106fd565b6040518082815260200191505060405180910390f35b34156101a757600080fd5b6101c1600480803560001916906020019091905050610717565b6040518080602001828103825283818151815260200191508051906020019080838360005b838110156102015780820151818401526020810190506101e6565b50505050905090810190601f16801561022e5780820380516001836020036101000a031916815260200191505b509250505060405180910390f35b341561024757600080fd5b61025d6004808035906020019091905050610904565b60405180826000191660001916815260200191505060405180910390f35b341561028657600080fd5b6102be60048080357effffffffffffffffffffffffffffffffffffffffffffffffffffffffffffff19169060200190919050506109ad565b60405180827effffffffffffffffffffffffffffffffffffffffffffffffffffffffffffff19167effffffffffffffffffffffffffffffffffffffffffffffffffffffffffffff1916815260200191505060405180910390f35b341561032357600080fd5b61033b60048080351515906020019091905050610a7f565b6040518080602001828103825283818151815260200191508051906020019080838360005b8381101561037b578082015181840152602081019050610360565b50505050905090810190601f1680156103a85780820380516001836020036101000a031916815260200191505b509250505060405180910390f35b34156103c157600080fd5b61041a600480803590602001908201803590602001908080601f01602080910402602001604051908101604052809392919081815260200183838082843782019150505050505091908035906020019091905050610b21565b6040518080602001828103825283818151815260200191508051906020019080838360005b8381101561045a57808201518184015260208101905061043f565b50505050905090810190601f1680156104875780820380516001836020036101000a031916815260200191505b509250505060405180910390f35b34156104a057600080fd5b610533600480803590602001908201803590602001908080601f0160208091040260200160405190810160405280939291908181526020018383808284378201915050505050509190803590602001908201803590602001908080601f01602080910402602001604051908101604052809392919081815260200183838082843782019150505050505091905050610c11565b604051808215151515815260200191505060405180910390f35b341561055857600080fd5b61056e6004808035906020019091905050610c46565b6040518080602001828103825283818151815260200191508051906020019080838360005b838110156105ae578082015181840152602081019050610593565b50505050905090810190601f1680156105db5780820380516001836020036101000a031916815260200191505b509250505060405180910390f35b34156105f457600080fd5b61060e600480803560001916906020019091905050610c6c565b604051808215151515815260200191505060405180910390f35b600080610633611074565b600060209250610644868685610ca8565b9150600090505b828110156106f45780600184030360080260020a828281518110151561066d57fe5b9060200101517f010000000000000000000000000000000000000000000000000000000000000090047f0100000000000000000000000000000000000000000000000000000000000000027f01000000000000000000000000000000000000000000000000000000000000009004028460019004016001029350808060010191505061064b565b50505092915050565b600061071061070b83610ec6565b610ef4565b9050919050565b61071f611088565b610727611074565b6000806000610734611074565b60206040518059106107435750595b9080825280601f01601f1916602001820160405250945060009350600092505b6020831015610821578260080260020a876001900402600102915060007f010000000000000000000000000000000000000000000000000000000000000002827effffffffffffffffffffffffffffffffffffffffffffffffffffffffffffff1916141515610814578185858151811015156107db57fe5b9060200101907effffffffffffffffffffffffffffffffffffffffffffffffffffffffffffff1916908160001a90535083806001019450505b8280600101935050610763565b8360405180591061082f5750595b9080825280601f01601f19166020018201604052509050600092505b838310156108f757848381518110151561086157fe5b9060200101517f010000000000000000000000000000000000000000000000000000000000000090047f01000000000000000000000000000000000000000000000000000000000000000281848151811015156108ba57fe5b9060200101907effffffffffffffffffffffffffffffffffffffffffffffffffffffffffffff1916908160001a905350828060010193505061084b565b8095505050505050919050565b600080821415610936577f300000000000000000000000000000000000000000000000000000000000000090506109a5565b5b60008211156109a457610100816001900481151561095157fe5b0460010290507f01000000000000000000000000000000000000000000000000000000000000006030600a8481151561098657fe5b06010260010281179050600a8281151561099c57fe5b049150610937565b5b809050919050565b60006057827f0100000000000000000000000000000000000000000000000000000000000000900460ff161115610a2e576057827f01000000000000000000000000000000000000000000000000000000000000009004037f0100000000000000000000000000000000000000000000000000000000000000029050610a7a565b6030827f01000000000000000000000000000000000000000000000000000000000000009004037f01000000000000000000000000000000000000000000000000000000000000000290505b919050565b610a87611088565b600115158215151415610ad1576040805190810160405280600481526020017f74727565000000000000000000000000000000000000000000000000000000008152509050610b1c565b600015158215151415610b1b576040805190810160405280600581526020017f66616c73650000000000000000000000000000000000000000000000000000008152509050610b1c565b5b919050565b610b29611088565b610b31611074565b610b39611088565b610b41611074565b8592506001604051805910610b535750595b9080825280601f01601f191660200182016040525091508190508285815181101515610b7b57fe5b9060200101517f010000000000000000000000000000000000000000000000000000000000000090047f010000000000000000000000000000000000000000000000000000000000000002816000815181101515610bd557fe5b9060200101907effffffffffffffffffffffffffffffffffffffffffffffffffffffffffffff1916908160001a90535080935050505092915050565b600080610c37610c2084610ec6565b610c2986610ec6565b610fba90919063ffffffff16565b90506000811491505092915050565b610c4e611088565b6000610c5983610904565b9050610c6481610717565b915050919050565b60008060010282600019161415610c865760009050610ca3565b6001800282600019161415610c9e5760019050610ca3565b600080fd5b919050565b610cb0611074565b610cb8611074565b610cc0611074565b600080600088945086604051805910610cd65750595b9080825280601f01601f19166020018201604052509350600287028886510310610d0557600287028801610d0a565b878551035b92508791505b82821015610eb7578782039050600281811515610d2957fe5b0660010360100a610d918684815181101515610d4157fe5b9060200101517f010000000000000000000000000000000000000000000000000000000000000090047f0100000000000000000000000000000000000000000000000000000000000000026109ad565b7f010000000000000000000000000000000000000000000000000000000000000090040284600283811515610dc257fe5b04815181101515610dcf57fe5b9060200101517f010000000000000000000000000000000000000000000000000000000000000090047f0100000000000000000000000000000000000000000000000000000000000000027f01000000000000000000000000000000000000000000000000000000000000009004017f01000000000000000000000000000000000000000000000000000000000000000284600283811515610e6d57fe5b04815181101515610e7a57fe5b9060200101907effffffffffffffffffffffffffffffffffffffffffffffffffffffffffffff1916908160001a9053508180600101925050610d10565b83955050505050509392505050565b610ece61109c565b600060208301905060408051908101604052808451815260200182815250915050919050565b6000806000806000601f8660200151039350856000015184019250600091505b82841015610fae5760ff845116905060808160ff161015610f3a57600184019350610fa1565b60e08160ff161015610f5157600284019350610fa0565b60f08160ff161015610f6857600384019350610f9f565b60f88160ff161015610f7f57600484019350610f9e565b60fc8160ff161015610f9657600584019350610f9d565b6006840193505b5b5b5b5b8180600101925050610f14565b81945050505050919050565b60008060008060008060008060008a6000015197508a600001518a600001511015610fe757896000015197505b8a60200151965089602001519550600094505b87851015611058578651935085519250828414151561104157600185896020030160080260020a0319915081831682851603905060008114151561104057809850611066565b5b602087019650602086019550602085019450610ffa565b89600001518b600001510398505b505050505050505092915050565b602060405190810160405280600081525090565b602060405190810160405280600081525090565b6040805190810160405280600081526020016000815250905600a165627a7a723058201e7c7c8fad41c9a78ec1e5fba94edd9bb0524c60082a9303eade5024a31d92810029",
  "source": "pragma solidity 0.4.21;\n\n\nimport './strings.sol';\n\n\n// Utility functions used by contracts on the decent.bet platform\ncontract Utils {\n\n    using strings for *;\n\n    function parseBool(string b)\n    internal\n    pure\n    returns (bool) {\n        if (strCompare(b, 'false')) return false;\n        else if (strCompare(b, 'true')) return true;\n        else revert();\n    }\n\n    function bytes32ToBool(bytes32 b)\n    public\n    pure\n    returns (bool) {\n        if (b == 0) return false;\n        else if (b == 1) return true;\n        else revert();\n    }\n\n    function parseInt(string _a)\n    internal\n    pure\n    returns (uint) {\n        return parseInt(_a, 0);\n    }\n\n    // parseInt(parseFloat*10^_b)\n    function parseInt(string _a, uint _b)\n    internal\n    pure\n    returns (uint) {\n        bytes memory bresult = bytes(_a);\n        uint mint = 0;\n        bool decimals = false;\n        for (uint i = 0; i < bresult.length; i++) {\n            if ((bresult[i] >= 48) && (bresult[i] <= 57)) {\n                if (decimals) {\n                    if (_b == 0) break;\n                    else _b--;\n                }\n                mint *= 10;\n                mint += uint(bresult[i]) - 48;\n            }\n            else if (bresult[i] == 46) decimals = true;\n        }\n        if (_b > 0) mint *= 10 ** _b;\n        return mint;\n    }\n\n    // Helper function to easily slice and count string length\n    function strLen(string _string)\n    public\n    pure\n    returns (uint) {\n        return _string.toSlice().len();\n    }\n\n    // Helper function to compare two strings\n    function strCompare(string s1, string s2)\n    public\n    pure\n    returns (bool) {\n        int result = s1.toSlice().compare(s2.toSlice());\n        return result == 0;\n    }\n\n    // Helper function to return char at a certain position\n    function getCharAt(string s, uint index)\n    public\n    pure\n    returns (string) {\n        bytes memory b = bytes(s);\n        string memory char = new string(1);\n        bytes memory bChar = bytes(char);\n        bChar[0] = b[index];\n        return string(bChar);\n    }\n\n    function strConcat(string _a, string _b, string _c, string _d, string _e)\n    internal\n    pure\n    returns (string) {\n        bytes memory _ba = bytes(_a);\n        bytes memory _bb = bytes(_b);\n        bytes memory _bc = bytes(_c);\n        bytes memory _bd = bytes(_d);\n        bytes memory _be = bytes(_e);\n        string memory abcde = new string(_ba.length + _bb.length + _bc.length + _bd.length + _be.length);\n        bytes memory babcde = bytes(abcde);\n        uint k = 0;\n        for (uint i = 0; i < _ba.length; i++) babcde[k++] = _ba[i];\n        for (i = 0; i < _bb.length; i++) babcde[k++] = _bb[i];\n        for (i = 0; i < _bc.length; i++) babcde[k++] = _bc[i];\n        for (i = 0; i < _bd.length; i++) babcde[k++] = _bd[i];\n        for (i = 0; i < _be.length; i++) babcde[k++] = _be[i];\n        return string(babcde);\n    }\n\n    function strConcat(string _a, string _b, string _c, string _d)\n    internal\n    pure\n    returns (string) {\n        return strConcat(_a, _b, _c, _d, '');\n    }\n\n    function strConcat(string _a, string _b, string _c)\n    internal\n    pure\n    returns (string) {\n        return strConcat(_a, _b, _c, '', '');\n    }\n\n    function strConcat(string _a, string _b)\n    internal\n    pure\n    returns (string) {\n        return strConcat(_a, _b, '', '', '');\n    }\n\n    function uintToBytes(uint v)\n    public\n    pure\n    returns (bytes32 ret) {\n        if (v == 0) {\n            ret = '0';\n        }\n        else {\n            while (v > 0) {\n                ret = bytes32(uint(ret) / (2 ** 8));\n                ret |= bytes32(((v % 10) + 48) * 2 ** (8 * 31));\n                v /= 10;\n            }\n        }\n        return ret;\n    }\n\n    function bytes32ToString(bytes32 x)\n    public\n    pure\n    returns (string) {\n        bytes memory bytesString = new bytes(32);\n        uint charCount = 0;\n        for (uint j = 0; j < 32; j++) {\n            byte char = byte(bytes32(uint(x) * 2 ** (8 * j)));\n            if (char != 0) {\n                bytesString[charCount] = char;\n                charCount++;\n            }\n        }\n        bytes memory bytesStringTrimmed = new bytes(charCount);\n        for (j = 0; j < charCount; j++) {\n            bytesStringTrimmed[j] = bytesString[j];\n        }\n        return string(bytesStringTrimmed);\n    }\n\n    function uintToString(uint n)\n    public\n    pure\n    returns (string) {\n        bytes32 b = uintToBytes(n);\n        return bytes32ToString(b);\n    }\n\n    function boolToString(bool b)\n    public\n    pure\n    returns (string) {\n        if (b == true)\n        return \"true\";\n        else if (b == false)\n        return \"false\";\n    }\n\n    function toBytes32(string self, uint startIndex)\n    public\n    pure\n    returns (bytes32 b) {\n        uint l = 32;\n        bytes memory bs = toBytes(self, startIndex, l);\n\n        for (uint x = 0; x < l; x++) {\n            b = bytes32(uint(b) + uint(uint(bs[x]) * (2 ** (8 * (l - 1 - x)))));\n        }\n    }\n\n    function toBytes(string self, uint startIndex, uint length)\n    internal\n    pure\n    returns (bytes) {\n        bytes memory str = bytes(self);\n        bytes memory bs = new bytes(length);\n        uint maxIndex = ((str.length - startIndex) < (length * 2) ? (str.length - startIndex) : startIndex + (length * 2));\n\n        for (uint i = startIndex; i < maxIndex; i++) {\n            uint ii = i - startIndex;\n            bs[ii / 2] = byte(uint8(bs[ii / 2]) + (uint8(toByte(str[i])) * uint8(16 ** (1 - (ii % 2)))));\n        }\n\n        return bs;\n    }\n\n    function toByte(byte char)\n    public\n    pure\n    returns (byte c) {\n        if (uint8(char) > 0x57) return byte(uint8(char) - 0x57);\n        else return byte(uint8(char) - 0x30);\n    }\n\n}\n",
  "sourcePath": "/srv/platform-contracts/contracts/Libraries/Utils.sol",
  "compiler": {
    "name": "solc",
    "version": "0.4.21+commit.dfe3193c.Emscripten.clang"
  },
  "schemaVersion": "2.0.0",
  "updatedAt": "2018-05-23T04:44:26.279Z"
}